:020000040800F2
:1000000000000220E167000831680008316800083C
:1000100031680008316800083168000800000000FD
:10002000000000000000000000000000316800082F
:10003000316800080000000031680008BD160008A3
:10004000BD180008BF180008C1180008C318000830
:10005000C5180008C7180008C9180008CB18000800
:10006000CD180008CF180008D11800088119000821
:100070009D190008B9190008D5190008F1190008E0
:100080000D1A0008291A0008D3180008D51800080E
:10009000D7180008D9180008DB180008DD18000878
:1000A000111900081319000815190008171900087C
:1000B000191900081B1900081D190008DF1800088D
:1000C000E1180008E3180008E5180008411B0008C3
:1000D0004D1B00082D190008491900086519000872
:1000E000E7180008E9180008EB18000825190008AF
:1000F00027190008291900082B190008451A0008BB
:10010000ED180008EF1800081F190008591B000817
:10011000F1180008F3180008211900082319000835
:10012000611A00087D1A0008991A0008B51A00081B
:10013000D11A00080000000000000000F5180008B7
:10014000F7180008F9180008FB180008FD18000847
:10015000ED1A0008091B0008251B0008FF180008FD
:1001600001190008031900080519000807190008FB
:10017000091900080B190008000000000000000029
:080180000D1900080F19000819
:1001900010B5054C237833B9044B13B10448AFF3C1
:1001A00000800123237010BD6800002000000000C3
:1001B0009C71000808B5034B1BB103490348AFF31A
:1001C000008008BD000000006C0000209C71000849
:1001D000034613F8012B002AFBD1181A0138704787
:1001E00001F0FF01102A2BDB10F0070F08D010F8E8
:1001F000013B013A8B422DD010F0070F42B3F6D1EC
:10020000F0B441EA012141EA014122F007047FF004
:1002100000070023F0E80256083C85EA010586EA5B
:10022000010685FA47F5A3FA87F586FA47F6A5FA97
:1002300087F68EB9EED1F0BC01F0FF0102F00702A3
:1002400032B110F8013B013A83EA010313B1F8D14E
:100250000020704701387047002D06BF354603382F
:10026000073815F0010F07D1013015F4807F02BF68
:10027000013015F4C03F0130F0BC0138704700BFB9
:1002800081F0004102E000BF83F0004330B54FEA47
:1002900041044FEA430594EA050F08BF90EA020FB4
:1002A0001FBF54EA000C55EA020C7FEA645C7FEA47
:1002B000655C00F0E2804FEA5454D4EB5555B8BF6A
:1002C0006D420CDD2C4480EA020281EA030382EADB
:1002D000000083EA010180EA020281EA0303362D6D
:1002E00088BF30BD11F0004F4FEA01314FF4801C40
:1002F0004CEA113102D0404261EB410113F0004F52
:100300004FEA03334CEA133302D0524263EB430308
:1003100094EA050F00F0A780A4F10104D5F1200EA6
:100320000DDB02FA0EFC22FA05F2801841F1000101
:1003300003FA0EF2801843FA05F359410EE0A5F1D5
:1003400020050EF1200E012A03FA0EFC28BF4CF006
:10035000020C43FA05F3C01851EBE37101F00045BC
:1003600007D54FF0000EDCF1000C7EEB00006EEBC9
:100370000101B1F5801F1BD3B1F5001F0CD3490853
:100380005FEA30004FEA3C0C04F101044FEA4452AA
:1003900012F5800F80F09A80BCF1004F08BF5FEA31
:1003A000500C50F1000041EB045141EA050130BD11
:1003B0005FEA4C0C404141EB010111F4801FA4F1B4
:1003C0000104E9D191F0000F04BF01460020B1FA09
:1003D00081F308BF2033A3F10B03B3F120020CDA41
:1003E0000C3208DD02F1140CC2F10C0201FA0CF01F
:1003F00021FA02F10CE002F11402D8BFC2F1200C84
:1004000001FA02F120FA0CFCDCBF41EA0C01904039
:10041000E41AA2BF01EB0451294330BD6FEA040482
:100420001F3C1CDA0C340EDC04F11404C4F120026D
:1004300020FA04F001FA02F340EA030021FA04F37F
:1004400045EA030130BDC4F10C04C4F1200220FAD6
:1004500002F001FA04F340EA0300294630BD21FA14
:1004600004F0294630BD94F0000F83F4801306BFDA
:1004700081F480110134013D4EE77FEA645C18BFCE
:100480007FEA655C29D094EA050F08BF90EA020F65
:1004900005D054EA000C04BF1946104630BD91EA5D
:1004A000030F1EBF0021002030BD5FEA545C05D160
:1004B0004000494128BF41F0004130BD14F580049F
:1004C0003CBF01F5801130BD01F0004545F0FE4113
:1004D00041F470014FF0000030BD7FEA645C1ABF48
:1004E000194610467FEA655C1CBF0B46024650EA7F
:1004F000013406BF52EA033591EA030F41F40021AB
:1005000030BD00BF90F0000F04BF0021704730B530
:100510004FF4806404F132044FF000054FF0000105
:1005200050E700BF90F0000F04BF0021704730B5C6
:100530004FF4806404F1320410F0004548BF40429B
:100540004FF000013EE700BF42004FEAE2014FEAF0
:1005500031014FEA02701FBF12F07F4393F07F4FCB
:1005600081F06051704732F07F4208BF704793F0CE
:100570007F4F04BF41F40021704730B54FF46074E1
:1005800001F0004521F000411CE700BF50EA0102E4
:1005900008BF704730B54FF000050AE050EA01028D
:1005A00008BF704730B511F0004502D5404261EBFD
:1005B00041014FF4806404F132045FEA915C3FF43E
:1005C000D8AE4FF003025FEADC0C18BF03325FEADB
:1005D000DC0C18BF033202EBDC02C2F1200300FA8C
:1005E00003FC20FA02F001FA03FE40EA0E0021FAB1
:1005F00002F11444BDE600BF70B54FF0FF0C4CF49F
:10060000E06C1CEA11541DBF1CEA135594EA0C0F50
:1006100095EA0C0F00F0DEF82C4481EA030621EA8B
:100620004C5123EA4C5350EA013518BF52EA0335C6
:1006300041F4801143F4801338D0A0FB02CE4FF078
:100640000005E1FB02E506F00042E0FB03E54FF0A8
:100650000006E1FB03569CF0000F18BF4EF0010EA0
:10066000A4F1FF04B6F5007F64F5407404D25FEA9C
:100670004E0E6D4146EB060642EAC62141EA55514F
:100680004FEAC52040EA5E504FEACE2EB4F1FD0C91
:1006900088BFBCF5E06F1ED8BEF1004F08BF5FEA0F
:1006A000500E50F1000041EB045170BD06F00046C1
:1006B00046EA010140EA020081EA0301B4EB5C046E
:1006C000C2BFD4EB0C0541EA045170BD41F4801166
:1006D0004FF0000E013C00F3AB8014F1360FDEBF8B
:1006E000002001F0004170BDC4F10004203C35DA67
:1006F0000C341BDC04F11404C4F1200500FA05F3EA
:1007000020FA04F001FA05F240EA020001F000428A
:1007100021F0004110EBD37021FA04F642EB060100
:100720005EEA430E08BF20EAD37070BDC4F10C042A
:10073000C4F1200500FA04F320FA05F001FA04F2EE
:1007400040EA020001F0004110EBD37041F10001DA
:100750005EEA430E08BF20EAD37070BDC4F12005E5
:1007600000FA05F24EEA020E20FA04F301FA05F24D
:1007700043EA020321FA04F001F0004121FA04F2F5
:1007800020EA020000EBD3705EEA430E08BF20EAC5
:10079000D37070BD94F0000F0FD101F000464000FF
:1007A00041EB010111F4801F08BF013CF7D041EA81
:1007B000060195F0000F18BF704703F00046520085
:1007C00043EB030313F4801F08BF013DF7D043EA56
:1007D0000603704794EA0C0F0CEA135518BF95EA0C
:1007E0000C0F0CD050EA410618BF52EA4306D1D193
:1007F00081EA030101F000414FF0000070BD50EAB2
:10080000410606BF1046194652EA430619D094EA3B
:100810000C0F02D150EA013613D195EA0C0F05D125
:1008200052EA03361CBF104619460AD181EA030179
:1008300001F0004141F0FE4141F470014FF0000031
:1008400070BD41F0FE4141F4780170BD70B54FF0CC
:10085000FF0C4CF4E06C1CEA11541DBF1CEA13554C
:1008600094EA0C0F95EA0C0F00F0A7F8A4EB05042E
:1008700081EA030E52EA03354FEA013100F0888025
:100880004FEA03334FF0805545EA131343EA1263EE
:100890004FEA022245EA111545EA10654FEA0026A3
:1008A0000EF000419D4208BF964244F1FD0404F55C
:1008B000407402D25B084FEA3202B61A65EB0305B8
:1008C0005B084FEA32024FF480104FF4002CB6EB75
:1008D000020E75EB030E22BFB61A754640EA0C00F5
:1008E0005B084FEA3202B6EB020E75EB030E22BF35
:1008F000B61A754640EA5C005B084FEA3202B6EB76
:10090000020E75EB030E22BFB61A754640EA9C0034
:100910005B084FEA3202B6EB020E75EB030E22BF04
:10092000B61A754640EADC0055EA060E18D04FEAC2
:10093000051545EA16754FEA06164FEAC30343EA62
:1009400052734FEAC2025FEA1C1CC0D111F4801F2F
:100950000BD141EA00014FF000004FF0004CB6E728
:1009600011F4801F04BF01430020B4F1FD0C88BFC7
:10097000BCF5E06F3FF6AFAEB5EB030C04BFB6EBD2
:10098000020C5FEA500C50F1000041EB045170BDC5
:100990000EF0004E4EEA113114EB5C04C2BFD4EBF2
:1009A0000C0541EA045170BD41F480114FF0000E76
:1009B000013C90E645EA060E8DE60CEA135594EAF2
:1009C0000C0F08BF95EA0C0F3FF43BAF94EA0C0FF5
:1009D0000AD150EA01347FF434AF95EA0C0F7FF46A
:1009E00025AF104619462CE795EA0C0F06D152EABE
:1009F00003353FF4FDAE1046194622E750EA4106A2
:100A000018BF52EA43067FF4C5AE50EA41047FF4B2
:100A10000DAF52EA43057FF4EBAE12E74A0011D264
:100A200012F5001211D20DD56FF47873B3EB625248
:100A30000ED44FEAC12343F0004343EA505323FA54
:100A400002F070474FF00000704750EA013002D1C9
:100A50004FF0FF3070474FF000007047420901230C
:100A600000F01F0003FA00F0014B43F8220070472A
:100A700000E100E043690133436170477047036858
:100A8000D3F88C20137883F0010313707047012A88
:100A900003D0022A03D0002070470160FBE70B68F7
:100AA0000360F8E77047012A03D0022A03D0002030
:100AB00070470160FBE70B680360F8E77047012AA5
:100AC00003D0022A03D0002070470160FBE70B68C7
:100AD0000360F8E7012A03D0022A03D00020704700
:100AE0000160FBE70B680360F8E77047012A03D059
:100AF000022A03D0002070470160FBE70B68036007
:100B0000F8E77047012A03D0022A03D0002070477B
:100B10000160FBE70B680360F8E7012A03D0022AB3
:100B200003D0002070470160FBE70B680360F8E723
:100B3000012A03D0022A03D0002070470160FBE79E
:100B40000B680360F8E7012A03D0022A03D00020D3
:100B500070470160FBE70B680360F8E7012A03D0E8
:100B6000022A03D0002070470160FBE70B68036096
:100B7000F8E7012A03D0022A03D000207047016061
:100B8000FBE70B680360F8E7012A03D0022A03D0D1
:100B9000002070470160FBE70B680360F8E7012A5B
:100BA00003D0022A03D0002070470160FBE70B68E6
:100BB0000360F8E7012A03D0022A03D0002070471F
:100BC0000160FBE70B680360F8E7012A03D0022A03
:100BD00003D0002070470160FBE70B680360F8E773
:100BE000012A03D0022A03D0002070470160FBE7EE
:100BF0000B680360F8E7012A03D0022A03D0002023
:100C000070470160FBE70B680360F8E7012A03D037
:100C1000022A03D0002070470160FBE70B680360E5
:100C2000F8E7012A03D0022A03D0002070470160B0
:100C3000FBE70B680360F8E7012A03D0022A03D020
:100C4000002070470160FBE70B680360F8E7012AAA
:100C500003D0022A03D0002070470160FBE70B6835
:100C60000360F8E7012A03D0022A03D0002070476E
:100C70000160FBE70B680360F8E7012A03D0022A52
:100C800003D0002070470160FBE70B680360F8E7C2
:100C9000012A03D0022A03D0002070470160FBE73D
:100CA0000B680360F8E7012A03D0022A03D0002072
:100CB00070470160FBE70B680360F8E7012A03D087
:100CC000022A03D0002070470160FBE70B68036035
:100CD000F8E7012A03D0022A03D000207047016000
:100CE000FBE70B680360F8E7012A03D0022A03D070
:100CF000002070470160FBE70B680360F8E7012AFA
:100D000003D0022A03D0002070470160FBE70B6884
:100D10000360F8E7012A03D0022A03D000207047BD
:100D20000160FBE70B680360F8E7012A03D0022AA1
:100D300003D0002070470160FBE70B680360F8E711
:100D4000012A03D0022A03D0002070470160FBE78C
:100D50000B680360F8E7012A03D0022A03D00020C1
:100D600070470160FBE70B680360F8E7012A03D0D6
:100D7000022A03D0002070470160FBE70B68036084
:100D8000F8E7012A03D0022A03D00020704701604F
:100D9000FBE70B680360F8E7012A03D0022A03D0BF
:100DA000002070470160FBE70B680360F8E7012A49
:100DB00003D0022A03D0002070470160FBE70B68D4
:100DC0000360F8E7012A03D0022A03D0002070470D
:100DD0000160FBE70B680360F8E7012A03D0022AF1
:100DE00003D0002070470160FBE70B680360F8E761
:100DF000012A03D0022A03D0002070470160FBE7DC
:100E00000B680360F8E77047012A08BF0160002003
:100E10007047012A08BF016000207047012A03D0F3
:100E2000022A03D0002070470160FBE70B680360D3
:100E3000F8E7012A08BF016000207047012A08BFB7
:100E4000016000207047C3690133C3617047704778
:100E50007047704770477047704770477047012A66
:100E600003D0022A03D0002070470160FBE70B6823
:100E70000360F8E7012A03D0022A03D0002070475C
:100E80000160FBE70B680360F8E7012A03D0022A40
:100E900003D0002070470160FBE70B680360F8E7B0
:100EA000012A03D0022A03D0002070470160FBE72B
:100EB0000B680360F8E7012A03D0022A03D0002060
:100EC00070470160FBE70B680360F8E7012A03D075
:100ED000022A03D0002070470160FBE70B68036023
:100EE000F8E7012A03D0022A03D0002070470160EE
:100EF000FBE70B680360F8E7012A03D0022A03D05E
:100F0000002070470160FBE70B680360F8E7012AE7
:100F100003D0022A03D0002070470160FBE70B6872
:100F20000360F8E7012A03D0022A03D000207047AB
:100F30000160FBE70B680360F8E7012A03D0022A8F
:100F400003D0002070470160FBE70B680360F8E7FF
:100F5000012A03D0022A03D0002070470160FBE77A
:100F60000B680360F8E7012A03D0022A03D00020AF
:100F700070470160FBE70B680360F8E7012A03D0C4
:100F8000022A03D0002070470160FBE70B68036072
:100F9000F8E7012A03D0022A03D00020704701603D
:100FA000FBE70B680360F8E7012A03D0022A03D0AD
:100FB000002070470160FBE70B680360F8E7012A37
:100FC00003D0022A03D0002070470160FBE70B68C2
:100FD0000360F8E7012A03D0022A03D000207047FB
:100FE0000160FBE70B680360F8E7012A03D0022ADF
:100FF00003D0002070470160FBE70B680360F8E74F
:10100000012A03D0022A03D0002070470160FBE7C9
:101010000B680360F8E7012A03D0022A03D00020FE
:1010200070470160FBE70B680360F8E7012A03D013
:10103000022A03D0002070470160FBE70B680360C1
:10104000F8E7012A03D0022A03D00020704701608C
:10105000FBE70B680360F8E7012A03D0022A03D0FC
:10106000002070470160FBE70B680360F8E7012A86
:1010700003D0022A03D0002070470160FBE70B6811
:101080000360F8E7012A03D0022A03D0002070474A
:101090000160FBE70B680360F8E7012A03D0022A2E
:1010A00003D0002070470160FBE70B680360F8E79E
:1010B000012A03D0022A03D0002070470160FBE719
:1010C0000B680360F8E7012A03D0022A03D000204E
:1010D00070470160FBE70B680360F8E7012A03D063
:1010E000022A03D0002070470160FBE70B68036011
:1010F000F8E7012A03D0022A03D0002070470160DC
:10110000FBE70B680360F8E7012A03D0022A03D04B
:10111000002070470160FBE70B680360F8E7012AD5
:1011200003D0022A03D0002070470160FBE70B6860
:101130000360F8E7012A03D0022A03D00020704799
:101140000160FBE70B680360F8E7012A03D0022A7D
:1011500003D0002070470160FBE70B680360F8E7ED
:10116000012A03D0022A03D0002070470160FBE768
:101170000B680360F8E7012A03D0022A03D000209D
:1011800070470160FBE70B680360F8E7012A03D0B2
:10119000022A03D0002070470160FBE70B68036060
:1011A000F8E7012A03D0022A03D00020704701602B
:1011B000FBE70B680360F8E7012A03D0022A03D09B
:1011C000002070470160FBE70B680360F8E7012A25
:1011D00003D0022A03D0002070470160FBE70B68B0
:1011E0000360F8E7012A03D0022A03D000207047E9
:1011F0000160FBE70B680360F8E770B5054600681F
:1012000003680C469B68984723682C6020461B683F
:10121000BDE870401847006800F5C0718830FFF7DE
:10122000ECBF006800F1F0018830FFF7E6BF01680D
:10123000CB6F1B7C01F188001BB101F5F661FFF754
:10124000DCBF01F54B71FAE7006800F518718830D2
:10125000FFF7D3BF006800F654018830FFF7CDBF19
:10126000006800F61C118830FFF7C7BF006800F562
:10127000C0718830FFF7C1BF006800F57571883014
:10128000FFF7BBBF006800F27C418830FFF7B5BFB5
:10129000006800F5A4618830FFF7AFBF006800F573
:1012A000C0718830FFF7A9BF016891F82833CA6F71
:1012B000003318BF0123537491F8283301F18800DB
:1012C0001BB901F5E161FFF798BFCB6F01221A74DA
:1012D00001F5C071F7E7006800F518718830FFF775
:1012E0008CBF0068C36F90F8D0239A7300F5187113
:1012F0008830FFF782BF006800F518718830FFF76B
:101300007CBF0068C36FB0F878241A8100F51871AB
:101310008830FFF772BF006800F5C0718830FFF7B2
:101320006CBF006800F5BA618830FFF766BF0068DF
:1013300000F5CC618830FFF760BF006800F5A4615C
:101340008830FFF75ABF006800F5A4618830FFF7C6
:1013500054BF0068C36F90F85C26DA7300F5A4618F
:101360008830FFF74ABF006800F54B718830FFF7FF
:1013700044BF006890F80437C26F003318BF0123E0
:101380009374C36F012200F5C0711A748830FFF79F
:1013900034BF006800F5C0718830FFF72EBF0068C9
:1013A00090F8AC37C26F003318BF012300F5C0714D
:1013B00013748830FFF721BF006800F5C0718830D2
:1013C000FFF71BBF006800F5C0718830FFF715BF3D
:1013D0000B1A9B10002B10DD027812B342780AB969
:1013E0000130704782780AB902307047C2780AB972
:1013F000033070470430013BECE70B1A022B0BD093
:10140000032B06D0012B0BD10378002B18BF084605
:10141000704703782BB10130037813B10130F3E743
:10142000084670470B1A9B10002B10DD027812BB88
:1014300042780AB10130704782780AB102307047B1
:10144000C2780AB1033070470430013BECE70B1A55
:10145000022B0BD0032B06D0012B0BD10378002BD2
:1014600008BF0846704703782BB90130037813B9D9
:101470000130F3E708467047FFF7F0BA036813B985
:101480000160704713465A68002AFBD159607047C3
:1014900010B504462CB1236820461B689847646841
:1014A000F8E710BDA8235943037A43B10F4B9B685B
:1014B0000360994224BFCB1A436000230372036880
:1014C0000A4A994207D892689B1A99420CD801237C
:1014D00003720020704791688B4205D85368926868
:1014E0009B1A42689342F2D20120704710E000E05C
:1014F000D0F88C203221531CC0F88C30B2FBF1F3B1
:1015000001FB132323B9D0F8880003685B681847F0
:10151000704770470A1A02D0202105F0E4B97047DD
:10152000704770470369002BBFBF034B436003F153
:1015300088334360704700BF23016745D0E900212D
:1015400001238B4093617047D0E9001201231032D0
:1015500093408B617047036810B504469869FFF7A4
:10156000F3FFC8216068FFF79DFF0028F9D12368C9
:101570009869FFF7E3FFC8216068FFF793FF002831
:10158000F9D110BD38B50368044618690D46FFF758
:10159000DBFF23686068DA699B6A53F83530936132
:1015A000FFF7D9FF23686068996ADA6901EBC50122
:1015B0004B689361FFF7CFFF6421A068FFF772FFCC
:1015C0000028F9D138BD0000437B012B10B504463B
:1015D00022D002D3022B2AD010BD4069FFF7B4FFFE
:1015E0002069FFF7ABFF626B206A531C50216363D5
:1015F000B2FBF1F301FB1323114A52F82330C25C12
:10160000636A03EBC20053F83210E26943689161E8
:10161000E36201236373DFE78069FFF78FFFA0694F
:10162000FFF792FFE369E26A9A610223F2E78069B9
:10163000FFF784FFA069FFF787FF0023EAE700BFF9
:1016400044730008036841681A6901238B40134200
:1016500014BF01200020704710B504682CB1236826
:1016600020461B689847A468F8E710BD10B583684A
:10167000044613B1032201469847204610BD0000DE
:1016800010B5044B044640F8303BFFF7EFFF20460F
:1016900010BD00BFB886000810B504460830FFF73B
:1016A000DBFFD4E90421531C2361B2FBF1F301FBFE
:1016B000132313B92046FFF7CFFF10BD0148FFF7F2
:1016C000EBBF00BFC0050020426903699A424FF09A
:1016D000000326BF4361012018467047037BC3B156
:1016E00000230373D0E901236AB143B19360836897
:1016F0005A600023C0E9013370470B60F8E70549E1
:1017000093604A60F5E70349002BF6D1C1E9003345
:10171000EFE77047C005002000224261FFF7DEBFFF
:10172000037B53B901230373044B5A68426002B12F
:1017300090601A68586002B918607047C0050020B0
:1017400080680269D2F818311B68DB0611D5D2F81F
:1017500020315B6800219BB2C2F80011C3F1FF0188
:10176000FF2928BFFF21FF2BC2F8041101D0FFF78A
:10177000D7BF70470A2A10B501D00F2A15D1204BC8
:101780009A68C2F34232D2B1042A1AD0052A1AD07A
:101790001C4B1D4C062A08BF234607291AD8DFE830
:1017A00001F0141A1D202326292C0B3A032A04D8F1
:1017B000134B9A68C2F38222E5E70023EDE7134B4F
:1017C000EBE7134BE9E7134BE7E74FF41652B3FB94
:1017D000F2F3836010BD4FF46152F8E74FF4964284
:1017E000F5E74FF4E142F2E74FF41642EFE74FF42A
:1017F0006142ECE74FF49632E9E74FF4E132E6E775
:1018000000380240A037A000406F4001007A030A70
:1018100000BD010580DE800219B90068C0F34010E8
:101820007047012903D10068C0F3C0207047022926
:1018300003D10068C0F340507047032903D100680A
:10184000C0F3C0607047042901D14068E6E705296C
:1018500001D14068E8E7062901D14068EAE7072995
:1018600001D14068ECE700207047012903D1006AEC
:1018700000F001007047022903D1006AC0F3001094
:101880007047032903D1006AC0F300207047042980
:1018900006BF006AC0F3003000207047012901D163
:1018A00042637047022901D182637047032901D145
:1018B000C2637047042908BF02647047FEE7FEE771
:1018C000FEE7FEE7FEE7FEE7FEE7FEE7FEE7FEE7F0
:1018D000FEE7FEE7FEE7FEE7FEE7FEE7FEE7FEE7E0
:1018E000FEE7FEE7FEE7FEE7FEE7FEE7FEE7FEE7D0
:1018F000FEE7FEE7FEE7FEE7FEE7FEE7FEE7FEE7C0
:10190000FEE7FEE7FEE7FEE7FEE7FEE7FEE7FEE7AF
:10191000FEE7FEE7FEE7FEE7FEE7FEE7FEE7FEE79F
:10192000FEE7FEE7FEE7FEE7FEE7FEE708B5044B4D
:101930001868FFF7ADFD034B1A685B6808BD00BF70
:10194000A40500200010014008B5044B1868FFF7FB
:101950009FFD034B1A685B6808BD00BFAC05002003
:101960000044004008B5044B1868FFF791FD034B95
:101970001A685B6808BD00BFB4050020004800403D
:1019800008B5044B1868FFF783FD034B3D229A60AE
:1019900008BD00BF0C0500200060024008B5044BE4
:1019A0001868FFF775FD034B4FF474629A6008BD29
:1019B000140500200060024008B5044B1868FFF7CA
:1019C00067FD034B4FF474129A6008BD1C0500209C
:1019D0000060024008B5044B1868FFF759FD034B3F
:1019E0004FF074629A6008BD240500200060024038
:1019F00008B5044B1868FFF74BFD034B4FF47462B6
:101A0000DA6008BD2C0500200060024008B5044BD8
:101A10001868FFF73DFD034B4FF47462DA6008BDB0
:101A2000340500200060024008B5044B1868FFF739
:101A30002FFD034B4FF47412DA6008BD3C05002003
:101A40000060024008B5044B1868FFF721FD034B06
:101A50004FF07462DA6008BD440500200060024067
:101A600008B5044B1868FFF713FD034B3D229A603D
:101A700008BD00BF4C0500200064024008B5044BBF
:101A80001868FFF705FD034B4FF474629A6008BDB8
:101A9000540500200064024008B5044B1868FFF7A5
:101AA000F7FC034B4FF474129A6008BD5C050020EC
:101AB0000064024008B5044B1868FFF7E9FC034BCB
:101AC0004FF074629A6008BD640500200064024013
:101AD00008B5044B1868FFF7DBFC034B3D22DA60C6
:101AE00008BD00BF6C0500200064024008B5044B2F
:101AF0001868FFF7CDFC034B4FF47462DA6008BD41
:101B0000740500200064024008B5044B1868FFF714
:101B1000BFFC034B4FF47412DA6008BD7C05002053
:101B20000064024008B5044B1868FFF7B1FC034B92
:101B30004FF07462DA6008BD840500200064024042
:101B4000014B1868FFF7A4BC8C050020014B1868F6
:101B5000FFF79EBC94050020014B1868FFF798BC66
:101B60009C050020026810B5541C024404605172A8
:101B700004685021B4FBF1F201FB1242026010BD77
:101B800010B504681421B4FBF1F201FB12420346C4
:101B900012B92021FFF7E6FF14241968B1FBF4F213
:101BA00004FB121222B120211846FFF7DBFFF4E7F5
:101BB000184610BD08B503461A6822B12021184600
:101BC000FFF7D0FFF8E7184608BD38B505460C46C4
:101BD000084609B1FEF7FCFAC5E90004284638BDFD
:101BE00010B514240368B3FBF4F304FB0311502471
:101BF000B1FBF4F304FB1311016010BD38B50468A8
:101C0000D4F8AC30F3B1013BC4F8AC30D4F8A83010
:101C1000606814256B4303600F21FFF7E1FF20216B
:101C2000FFF7A0FFD4F8A8306068013B5D43C4F81B
:101C3000A8300F210560FFF7D3FF7E21BDE83840B3
:101C4000FFF790BF38BD38B50468D4F8AC30012B2D
:101C50001ED00133C4F8AC30D4F8A8306068142525
:101C60006B4303600F21FFF7BBFF2021FFF77AFFD3
:101C7000D4F8A830606801335D43C4F8A8300F2160
:101C80000560FFF7ADFF7E21BDE83840FFF76ABF72
:101C900038BD437A70B5054600F10C062BB1002320
:101CA0004372C1613046FFF73BFD3046FFF70CFD44
:101CB000012428B13046FFF72FFD6C72002070BD63
:101CC0002046FCE770B58EB005AD0023CDE901508C
:101CD0000C93CDE90533CDE909330B93394E0D93C0
:101CE0000123044608968DF81D308DF81C300090B5
:101CF000CDF80CD0049564212846FFF7CAFF0028D0
:101D0000F9D12069FFF720FC6069FFF71DFCA0698D
:101D1000FFF714FCA26AE369D2699A616846FFF78B
:101D20001AFC05212846FFF7B4FF0028F9D1A26A62
:101D3000E369D2699A616846FFF70DFC6421284681
:101D4000FFF7B0FB0028F9D1A26AE369D2699A6172
:101D50006846FFF700FC32212846FFF7A3FB002866
:101D6000F9D1A26AE36952699A616846FFF7F3FB09
:101D700032212846FFF796FB0028F9D1282102A836
:101D8000FFF700FC0C2102A8FFF7FCFB062102A8CC
:101D9000FFF7F8FB012102A8FFF7F4FB802102A85E
:101DA000FFF7F0FB01212846FFF773FF0028F9D168
:101DB0000EA8012384F8303040F8186DFFF78EFC30
:101DC0000EB070BDD071000810B504465030FFF75A
:101DD0004DFC04F14000FFF749FC04F13000FFF72F
:101DE00045FC04F12000FFF741FC04F11000FFF76F
:101DF0003DFC2046FFF73AFC204610BD03888B428D
:101E00001AD040F60223994216D901800B4BB3FB3E
:101E1000F1F143680139D8691A6849081981D1621A
:101E200001891A8B4FF47A734A43817A92FBF3F259
:101E3000006892B2FFF732BD704700BF007A030A14
:101E400008B50388194489B2FFF7D8FF08BD028896
:101E50008A4210B50B460FD04468E2898A420BD300
:101E6000228901804A4320684FF47A7192FBF1F293
:101E7000A17A92B2FFF712FD184610BD817A006870
:101E8000FFF7F3BC21B9036962F3020303617047F2
:101E9000012903D1036962F3C503F7E7022903D1DE
:101EA000036962F38813F1E7032903D1036962F33D
:101EB0004B23EBE7042903D1036962F30E33E5E713
:101EC000052903D1036962F3D133DFE7062903D182
:101ED000036962F39443D9E7072903D1036962F3E5
:101EE0005753D3E7082903D1036962F31A63CDE797
:101EF000092903D1036962F3DD63C7E70A2904D125
:101F0000C36862F30203C36070470B2903D1C3683F
:101F100062F3C503F7E70C2903D1C36862F38813A2
:101F2000F1E70D2903D1C36862F34B23EBE70E29D8
:101F300003D1C36862F30E33E5E70F2903D1C36809
:101F400062F3D133DFE7102903D1C36862F394430E
:101F5000D9E7112903D1C36862F35753D3E7122994
:101F6000D2D1C36862F31A63CDE7012904D1436B70
:101F700062F3040343637047022903D1436B62F3A6
:101F80004913F7E7032903D1436B62F38E23F1E78B
:101F9000042903D1436B62F3D333EBE7052903D163
:101FA000436B62F31853E5E7062903D1436B62F3F1
:101FB0005D63DFE7072904D1036B62F30403036366
:101FC0007047082903D1036B62F34913F7E7092926
:101FD00003D1036B62F38E23F1E70A2903D1036B6C
:101FE00062F3D333EBE70B2903D1036B62F318538E
:101FF000E5E70C2903D1036B62F35D63DFE70D298D
:1020000004D1C36A62F30403C36270470E2903D18B
:10201000C36A62F34913F7E70F2903D1C36A62F376
:102020008E23F1E71029F0D1C36A62F3D333EBE7D3
:10203000436A1A6842F001021A601A68D107FCD597
:10204000036A9A6842F001029A609A68D207FCD546
:102050009A6842F080429A6070470000204B1A68EC
:10206000052161F302021A60A3F580631A6842F445
:1020700080321A601A689203FCD59A686FF30712CF
:102080009A609A68052161F38C229A609A6804210B
:1020900061F34F329A609A68022060F301029A60FD
:1020A0005A6861F305025A605A68A82161F38E12DA
:1020B0005A605A68072161F31B625A605A686FF3CD
:1020C00011425A605A6842F480025A601A6842F01B
:1020D00080721A60034A13689B01FCD5704700BFE9
:1020E000003C024000380240754A7649F8B5136852
:1020F00013F0010F70D1744B744C186810F0010F7D
:1021000006D1DFF8E0E10920C4E900E00120186011
:102110006F4B186B40F001001863206805680226B9
:1021200066F393450560456A072666F30715456221
:10213000684D286810F0010F674806D1DFF8A4C188
:102140000A26C0E900C601262E601D6B45F0010578
:102150001D6303681D68022666F315551D605D6AE0
:10216000072666F30B255D625C4D2B6813F0010FAB
:102170005B4B05D15B4F0C26C3E9007601262E6030
:10218000534E356B45F0010535631E6837680125F0
:1021900065F319673760C1F81031534BC1F814313A
:1021A000A3F5AA33C1F8183103F5AA33B833C1F83F
:1021B0001C31783BC1F820310A230026C1F82431B4
:1021C0000723C1F80061C1F80461C1F80841C1F8F2
:1021D0000C0181F8283115603D4C636C43F010030D
:1021E0006364D1F81831DA6842F00802DA60DA681C
:1021F00042F00402DA605A6942F080025A615A6978
:1022000042F040025A61394B93F90400FFF734F968
:10221000236B43F480032363D1F81C311A68012037
:1022200060F387121A60D1F800210A44DA60D1F80D
:10223000182104329A601A6842F480621A601A689F
:102240006FF34E321A601A686FF3CC221A601A6864
:1022500042F010021A60264B93F90400FFF70CF9C4
:10226000D1F820311A686FF387121A60D1F8002173
:102270000A44DA60D1F8182104329A60FF225A60C9
:102280001A6842F480621A601A686FF34E321A605C
:102290001A686FF3CC221A601A6842F480721A60CE
:1022A000D1F820311A68042060F35B621A60D1F81B
:1022B0001C311A6860F35B621A600248F8BD00BF07
:1022C0009402002098020020DC030020E00300209C
:1022D00000380240D0030020D4030020C4030020B3
:1022E000C80300200000024000640240A405002052
:1022F0008405002070B5294E294B326812F0010F79
:102300002DD128490A6812F0010F274A05D1274D1F
:102310000924C2E9005401240C60254C216B41F0D2
:102320000401216311680C68022565F393440C6075
:102330004C6A65F307144C621E49D881C3E9001248
:102340004FF6FF721A8104229A724FF480529A81DA
:1023500000221A821A8301225B61DB613260144918
:1023600015480A6C42F002020A641B68DA69062109
:1023700061F30E32DA61DA6942F40062DA611A68F6
:1023800042F080021A601A6842F001021A6040F6B8
:102390000321FFF733FD024870BD00BFC8010020D4
:1023A000CC010020EC010020F001002000080240D8
:1023B0000038024000040040DC0100203349344A68
:1023C0000B6813F0010F70B53DD1324B324C1868D9
:1023D00010F0010F05D1314D0620C4E90050012055
:1023E00018602F4B186B40F00400186320680568D4
:1023F000022666F30D350560056A032666F31B6544
:102400000562284D286810F0010F274806D1DFF833
:102410008CC00726C0E900C601262E601D6B45F062
:1024200004051D6303681D68022666F38F351D6071
:102430001D6A032666F31F751D621C4B9360C2E97B
:10244000004001230B60164911484B6C43F0020316
:102450004B6493689A68032161F302029A609A6957
:10246000012161F301029A619A6961F309229A617B
:102470001A6A42F002021A621A6A6FF3C3021A62FF
:1024800000225A621A680A431A6070BDA001002037
:10249000A4010020BC010020C0010020000802406F
:1024A00000380240B0010020B401002000040140C7
:1024B00010B50C1A134605D001462246184604F002
:1024C000F9F90346181910BD2DE9F34702AB03E9EA
:1024D00006000768037A00F109080646DDE90045B1
:1024E00008EB070263B3132C22D8C4F1140902EBE2
:1024F000590910464946FFF70DF829194A4628465A
:10250000FFF7D6FF09EB040A07F1140141445046D6
:10251000FFF700F8336850211433B3FBF1F201FBED
:102520001233336000233046337202B0BDE8F087C7
:10253000143C05EB540000F11401FFF7B9FFE9E783
:10254000C7F15001A14205EB040907D949462846C5
:10255000FFF7AEFF306804443460E3E729442846BF
:10256000FFF7A6FF3368A4F150071F44E41B2C4477
:10257000502F2046424604F1500404D92146FFF76B
:1025800097FF503FF4E74946FFF792FF3368502228
:102590001F44B7FBF2F302FB13773760C2E700007A
:1025A00030B589B00A460446114905A804F0A0FADE
:1025B00005A901A8FFF709FB6368019A934208D9AE
:1025C0009B1A13F1FF3304D320212046FFF7CAFAE8
:1025D000F7E703AD05A92846FFF7F7FA95E80600E7
:1025E0002046FFF771FF00232046636009B030BD2D
:1025F000AB760008F8B505460F464FF47A7691FBA6
:10260000F6F42146FFF7CCFF2E212846FFF7AAFA61
:1026100006FB14740A2394FBF3F4092C08DC002154
:102620002846FFF7BDFF2146FFF7BAFF2846F8BD51
:1026300021462846F8E70000F7B50546406802261F
:102640000660D5F880301988FFF7D4FF6C4607463E
:1026500015492046FFF7B9FA94E806003846FFF717
:1026600033FF68680D23C0E90036EB6F1988052336
:10267000B1FBF3F1FFF794FF2521FFF773FA6868C8
:1026800016230360D5F884301988FFF7B3FF074994
:1026900005462046FFF799FA94E806002846FFF71A
:1026A00013FF03B0F0BD00BF9C760008A0760008C1
:1026B00038B5002383608B6804460D462BB1022297
:1026C0009847EB68E360AB68A360204638BD38B537
:1026D000002383608B6804460D462BB10222984785
:1026E000EB68E360AB68A360204638BD38B50446AC
:1026F0000D46FFF7DDFF05F1100104F11000FFF7B3
:10270000D7FF05F1200104F12000FFF7D1FF05F10B
:10271000300104F13000FFF7CBFF05F1400104F177
:102720004000FFF7D4FF05F1500104F15000FFF71E
:10273000CEFF204638BD38B5002383608B68044641
:102740000D462BB102229847EB68E360AB68A360AB
:10275000204638BD826810B50AB904F06FF8C36826
:10276000BDE81040184730B585B0044600256946DD
:1027700008300295FFF7EEFF6846FEF777FF6946DF
:1027800004F118000295FFF7E5FF6846FEF76EFFBB
:10279000694604F138000295FFF7DCFF6846FEF752
:1027A00065FF05B030BD30B585B0044600256946EB
:1027B00008300295FFF7CEFF6846FEF757FF6946DF
:1027C00004F118000295FFF7C5FF6846FEF74EFFBB
:1027D000694604F138000295FFF7BCFF6846FEF732
:1027E00045FF05B030BD30B585B0044600256946CB
:1027F00008300295FFF7AEFF6846FEF737FF6946DF
:1028000004F118000295FFF7A5FF6846FEF72EFFBA
:10281000694604F128000295FFF79CFF6846FEF721
:1028200025FF694604F138000295FFF793FF6846DB
:10283000FEF71CFF05B030BD30B585B0044600255D
:10284000694608300295FFF785FF6846FEF70EFFE0
:10285000694604F118000295FFF77CFF6846FEF711
:1028600005FF694604F128000295FFF773FF6846EB
:10287000FEF7FCFE694604F138000295FFF76AFF97
:102880006846FEF7F3FE05B030BD30B585B00446AE
:102890000025694608300295FFF75CFF6846FEF7A1
:1028A000E5FE694604F118000295FFF753FF6846FC
:1028B000FEF7DCFE694604F128000295FFF74AFFA7
:1028C0006846FEF7D3FE694604F138000295FFF72B
:1028D00041FF6846FEF7CAFE05B030BD1FB5224B6A
:1028E00000900446694603930830204B0293FFF79B
:1028F00031FF6846FEF7BAFE1D4B039369461D4B38
:10290000029304F118000094FFF724FF6846FEF7D5
:10291000ADFE194B03936946184B029304F138003E
:102920000094FFF717FF6846FEF7A0FE60680023DB
:10293000036004F1780393E80600FFF7C5FDFFF795
:102940001FF9606814230360D4F888301988FFF7F2
:1029500027FE04F1800393E80600FFF7B5FD6068E9
:10296000FFF728F904B010BDEB0A0008ED0A0008D3
:10297000030B0008050B0008AF2A00081B0B00081A
:102980007FB53A4B00906C460546214603932830AC
:10299000374B0293FFF7DEFE2046FEF767FE354B0E
:1029A00003932146344B029305F108000095FFF78D
:1029B000D1FE2046FEF75AFE304B03932146304BA2
:1029C000029305F118000095FFF7C4FE2046FEF7BC
:1029D0004DFE2C4B039321462B4B029305F13800FF
:1029E0000095FFF7B7FE2046FEF740FE6E6806F141
:1029F000590106F10900FEF78DFD002333606E6872
:102A0000224933602046FFF7E0F894E8060030469C
:102A1000FFF75AFD6E681E490B2333602046FFF70F
:102A2000D4F894E806003046FFF74EFD6E68194969
:102A3000142333602046FFF7C8F894E806003046B8
:102A4000FFF742FD6E681E233360D5F888301A7890
:102A5000114B204653F82210FFF7B7F894E8060010
:102A60003046FFF731FD04B070BD00BF7F0A00089B
:102A70008F0A0008A50A0008A70A0008BD0A000876
:102A8000BF0A0008BB2A0008D50A0008A276000881
:102A9000A5760008A876000884760008826810B53C
:102AA0000AB903F0CBFEC368BDE81040184708B56B
:102AB00000686830FFF7F2FF08BD08B500686830AD
:102AC000FFF7ECFF08BD70B5816800220B4613B11B
:102AD0009A605B68FBE7D0E9042302EB43050B46F1
:102AE0009542144609D026889C6834449C605B68F3
:102AF0000232002B08BF0B46F2E7836B13B1303074
:102B0000FFF7CCFF70BD08B50368D3F89C2093F89D
:102B1000A03013700068D0F884301BB17C30FFF710
:102B2000BDFF08BD6C30FAE708B500686C30FFF7F0
:102B3000B5FF08BD08B50368D3F89C2093F8A03012
:102B400013700068D0F884301BB17C30FFF7A6FF0B
:102B500008BD6C30FAE708B500686C30FFF79EFFDF
:102B600008BD08B50368D3F8AC00182202FB00309A
:102B70008030FFF793FF08BD08B500686830FFF7A5
:102B80008DFF08BD006808B5D0F89C30B0F8A020D3
:102B90001A80D0F884301BB17C30FFF77FFF08BD6E
:102BA0006C30FAE708B500686C30FFF777FF08BDB6
:102BB00008B50368D3F89C2093F8A0301370006820
:102BC000D0F884301BB17C30FFF768FF08BD6C3053
:102BD000FAE708B500686C30FFF760FF08BD08B57C
:102BE0000368D3F89C2093F8A03013700068D0F8E5
:102BF00084301BB17C30FFF751FF08BD6C30FAE721
:102C000008B500686C30FFF749FF08BD08B50368D8
:102C1000D3F8C400182202FB00308030FFF73EFFDB
:102C200008BD08B500686830FFF738FF08BD08B573
:102C30000368D3F8DC00182202FB00308030FFF775
:102C40002DFF08BD08B500686830FFF727FF08BDF5
:102C500038B5354D354C2B6813F001031DD1344A7E
:102C60002260344A226202F5A2321032C4E906031D
:102C700062623148636022222146C4E90233C4E91A
:102C80000433A062E262A363FEF7F8FB01232B4A40
:102C90002B492B60204603F0CCFD2A4A536C43F4A9
:102CA00080735364236A59686FF319615960996896
:102CB00041F002019960996841F4807199609968C6
:102CC00041F400719960596841F480715960116B49
:102CD00041F48001116303F14C02636A9A601A683F
:102CE0006FF387121A601A68012161F34E321A607D
:102CF0001A6861F3CC221A601A6842F480621A6082
:102D00001A6842F010021A601A6842F480721A605F
:102D10001A686FF35B621A60A36A93F90400FEF706
:102D2000ABFB024838BD00BF5C0100206001002001
:102D3000B8860008002001404C050020000000205B
:102D40008116000800380240F8B504464F48504D3F
:102D5000026812F0010F1BD14E490B6813F00102FB
:102D600008BF4D4E4D4B02BFC3E9006201220A600D
:102D70004B490A6B42F002020A6319680A6842F082
:102D800003020A600022C5E90022EB600123036010
:102D9000E36A206A223B012B8CBF00260826F7B28B
:102DA000072239462E61FFF76DF8E169206A01318B
:102DB000E1613A46FFF7D9F8D4E90732D16A013B1D
:102DC00063F31751D162A2681346002B55D01969DD
:102DD0008E424DDB5B68F8E76A60E368A56003B983
:102DE000E5602069A2692F4B68B1D3F8001150F853
:102DF000045D0439491B5D18A8421ABF012183F8FC
:102E00000411C3F8001161690A4462612649D3F8CC
:102E100000518A4294BF52004FF0FF32281D1044E7
:102E2000B0F5807F03EB0501C3F800011ED893F8CD
:102E30000401D8B909B15A510431636A21611A6891
:102E40006FF300021A60A28AD9605A601A6842F0D1
:102E500001021A601A68D207FCD50D48F8BD1A683D
:102E6000C5E900231D602B685D60BAE70021E4E737
:102E70009A42F4D16A601560AFE7002AACD0E368EB
:102E80002B60002BACD05D60AAE700BF14010020CE
:102E9000180100202C010020000402403001002015
:102EA0000038024004040020FCFFFF3F01461A4A9C
:102EB0000A6020324A60194A0023C1E902330B74C8
:102EC0004B74CB61CB62CB63CB64CB65136813F0DF
:102ED000010F10B500F10400114B06D1DFF848C016
:102EE0000824C3E900C4012414600E4C226B42F094
:102EF000010222631A6814686FF3114414604B6670
:102F000001220023C1E91A3281F8703081F8713052
:102F1000FEF706FC084610BDA47200085001002010
:102F200054010020003802400000024038B5044639
:102F30000025C0F80051C0F80451D0F81001FEF788
:102F400003FBD4F81C311A6865F300021A60D4F848
:102F500020311A6865F300021A60FF225A60D4F823
:102F600020311A6842F001021A601A68D207FCD5B3
:102F7000D4F81821D36843F01003D36038BD08B5E6
:102F800083681A6992F82811D2F81401FEF744FCFC
:102F900010B11869FFF7CAFF08BD38B50023836078
:102FA0008B6804460D462BB102229847EB68E3601C
:102FB000AB68A360204638BD10B50B460446D1E986
:102FC000000184E8030003F1080104F10800FFF7A1
:102FD000B2FB204610BD0000F0B5FF23074F084E9E
:102FE0001D4611F8014B5C4091423B5D83EA0503AD
:102FF000355DF6D105704370F0BD00BF84740008E4
:1030000084750008D0F80031D0F804219A4283BFBB
:103010005A1CC0F80021C05C00207047D0F8043171
:10302000FE2B9FBFC154D0F804310133C0F80431E6
:10303000704738B50C46090A0546FFF7EFFFE1B2C5
:10304000FFF7ECFF284638BD10B50446D0F8100154
:10305000FEF774FAD4F81831DA686FF30412DA6004
:10306000D4F820311A686FF300021A60D4F81C31CA
:103070001A686FF300021A60D4F80431D4F8001112
:10308000D4F81C215B1A02339BB25360D4F81C3174
:103090001A6842F001021A601A68D207FCD510BD06
:1030A000036937B501294FF0000204460D46C3F805
:1030B0000021C3F804210ED190F824100069FFF715
:1030C000ADFF94F8251041F08001FFF7A7FF2946D6
:1030D000FFF7A4FF0BE00229006906D194F8241041
:1030E000FFF79CFF94F82510EFE70329F6D023693A
:1030F000D3F80421D3F800111A44194401A8FFF7AA
:103100006BFF9DF805102069FFF788FF9DF80410FC
:10311000FFF784FF2069FFF797FF03B030BD70B55C
:10312000D0F80031D0F8042101339A4204460D460C
:103130000ED9FFF767FF06462046FFF763FF4FF003
:10314000000360F3070366F30F232B80204670BD56
:103150000023FAE738B504460D4600F12601006960
:10316000FFF7DDFF04F12A012069FFF7D8FF638D27
:10317000E08C1844013880B2A8424FEA430320850E
:1031800084F82C302CBF0020012038BD13B50B2152
:103190000446FFF7DFFF28B902212046FFF780FF32
:1031A00002B010BD23690022C3F80021C3F8042136
:1031B00094F824102069FFF731FF0321FFF72EFF59
:1031C00094F82C10FFF72AFF638D20695A1E628540
:1031D0004BB1E38C5A1C04EB4303E284B3F85E105A
:1031E000FFF727FFF0E7D0F80421D0F800110244E0
:1031F000014401A8FFF7F0FE9DF805102069FFF7D4
:103200000DFF9DF80410FFF709FF2069FFF71CFF71
:10321000C6E70000000000002DE9F04F384BADF686
:10322000046D28AE03F1100732463C461868596811
:10323000154603C50833BB422A46F7D11868314BFF
:1032400028604A93304B4E9300224FF480312F4B2D
:103250002F4859915B918DF875214B924C928DF8C6
:1032600034215592ADF85821579258935A905C9357
:103270008DF874218DF876218DF878214F96FF21F5
:103280004AAB13440132142A1976F9D10DF1B4096D
:103290000021484603F027FB4E98FEF743F94E9B6A
:1032A0001A694FF0010868F309221A611A6942F09D
:1032B00080721A614AAD00274FF6FF7B0DF1C80AF4
:1032C000D5E90E3103EB410199420FD01A78132A48
:1032D00009D80DF5947C6244587810761A7809F86C
:1032E00002800233F0E71A885A45FAD15C93A96B41
:1032F00099420FD155970835CFB90127E0E700BFB4
:10330000B4710008C4860008003C024000000808B0
:1033100000000608EA6B01EB4202934201F0AE8125
:10332000514648465597FEF753F88245E3D1559AE2
:103330004AAB03EBC201D1E90E305C9903EB4003C9
:10334000994206D156AB0121995400235593589BBD
:103350005C9332AD29464846FEF73AF8A842074644
:1033600041F092814F9B0DF5A07C0DF5A87E624641
:1033700003CA724518605960944603F10803F6D1F8
:103380001068186000238DF876319DF8583183B9A4
:10339000559B73B1589B599A4FF6FF7003EB42014E
:1033A0008B421A4641F07781521A18BF01228DF8DC
:1033B00058219DF85931BBB9559B012B14D05A9A0D
:1033C0005B9B4FF6FF7002EB43039342114601F003
:1033D0006B81B1F800C0844502F10202F5D05B1A9E
:1033E00018BF01238DF859310DF5AD78414656A827
:1033F000FEF718F8804518BF03234E9A18BF8DF8C2
:1034000075311369AF4243F0004313610BD0BC4BDD
:10341000324618685968154603C50833A3422A4640
:10342000F7D1186828604AA8FEF77AF9B54BDFF89B
:103430001C931A6812F0010F05D1B3490A22C9E999
:10344000001201221A60B14BDFF804831A6BB04CF2
:1034500042F004021A63D9F800201068012161F3D8
:1034600015501060AB4A106810F0010F01BFDFF873
:10347000E4B211600F20C8E900B01A6B42F00102FB
:103480001A63D8F800301A684FF0010B6BF39F7283
:103490001A6077A8FFF70AFDB7787388ADF8123085
:1034A000C7F340030193C7F3800332790293C7F354
:1034B000C10305920393FEF717FE974B059A1D680B
:1034C00015EA0B0507EA0B0A4FEA571744D193494F
:1034D0002160934984F82420924A2061C4E90615AA
:1034E0009148A26304F13801C4E901552573E563ED
:1034F0002464059360612562E5842585658584F8EB
:103500002C502586FDF7BAFF884A626404F1440115
:10351000A069A564E464FDF7B1FF0E22294604F119
:10352000500003F0E0F91622294604F15E0003F092
:10353000DAF90E22294604F1740003F0D4F90E22C0
:10354000294604F1820003F0CEF9059BC4F891509E
:10355000C3F800B0C4F894509DF8123013F0E002A4
:1035600001F0A580202A01F0A58003F0C003402BC4
:1035700014BF01230223664A136213693946D3F844
:103580002421D3F81801FEF7F5F8019AC36862F315
:103590004923C360C368029A62F30C33C3600369B2
:1035A000039A62F30D330361C368BAF1000F01F0AF
:1035B000848043F48063C360C36843F40053C360F2
:1035C0002069FFF7B3FC0794079B0922A3F85E204C
:1035D000079B3288A3F86020079B3279A3F8642008
:1035E000079B7288A3F86220079AFF23A2F8823013
:1035F000079A0127A2F87670079A4FF4F570A2F89F
:103600008430FEF777FE0890FEF7D8FE0990102070
:10361000FFF71EFB0A90FFF797FB0AAD0024DDF8C9
:1036200020A0434A079B6860DDF824B0CDF8BC8336
:10363000F1964FF064083F4EF496F4A8F092F89497
:10364000CDF8B893F9948DF8AC43EC95CDF8B4A3CC
:10365000F293F594F6948DF8DC43CDF8E083CDF841
:10366000CCB3FEF75DF84FF47A730DEB0300FA96D6
:10367000FE94FB94FF94FC948DF8F443FE93FEF7C4
:103680004FF82D4BCDF824342C4B2868CDF8283436
:103690002B4BCDF80064CDF81044CDF80444CDF8A0
:1036A0000844CDF80C44CDF81444CDF81844CDF8B6
:1036B0001C44CDF82044CDF82C348DF830448DF8DE
:1036C0003144FEF7B5FCDBF80830BDF82A245A6215
:1036D00041460AF118005B6AFEF7B9FBBDF82A14EF
:1036E0000AF11000FEF78AFB94AE164B164A3360BF
:1036F000203373601368347413F0010F2CE000BFA3
:10370000B4710008F40300200008024000380240B1
:10371000FC010020E8030020F8010020E872000806
:1037200084050020D0720008A4050020DC72000887
:10373000BC050020D0710008D0075046384AA86167
:10374000C8000A00F472000844010020F8030020B9
:10375000EC0300200000024008BFDFF82CA3B24BAE
:10376000747404BF0E21C3E900A1C6E90244F461E8
:10377000F462F463F464F465AC4C08BF1760226B28
:1037800042F0020222631A6811686FF31D71116022
:103790000125002195A8C6E91A1586F8701086F84B
:1037A00071107366FDF7BCFFA14BA24AB1932033A1
:1037B000B2931368B39113F0010F08BFDFF8C892FA
:1037C0009D4BB4918DF8D4128DF8D512B891BC915F
:1037D000C091C491C89102BF0D21C3E90091156049
:1037E000226B42F0020222631A6811686FF39B6138
:1037F000116000250DF23444B2A84FF00109CA93BC
:10380000CB958DF834538DF83553CDF830930DF2B8
:103810004D48FDF785FFCEA8FFF748FB874B257382
:10382000C4E90155C4E9045525760DF29D41404691
:10383000079F2360FDF76EFE814A824D136813F0E7
:10384000010F07F15E0771D17F49DFF840C20B68B5
:103850007E4813F0010F04BF0D23CCF80430734BE6
:1038600004BFC1F80090CCF80000196BDFF820927B
:1038700041F004011963DCF80010D1F800E04FF0CA
:10388000010A6AF39B6EC1F800E0D9F80010DFF876
:1038900004E211F0010F01BF0F21C9F800A0CEF81A
:1038A0000000CEF80410196BDFF8EC9141F0040130
:1038B0001963DEF8003019684FF0010A6AF39F714E
:1038C0001960D9F80030624913F0010F04BFC9F83C
:1038D00000A00E23DFF8549104BF08604B60D9F8B4
:1038E000303043F00403C9F830300B68D3F800A03F
:1038F0004FF0010969F31D7AC3F800A00023DFF837
:103900009CA12B73C5E90133C5F800A06B73C5E911
:1039100004CEC5E906104F4969624F49C5F82080B9
:10392000A96285F830306B63C2F800904B4B1A687F
:1039300012F0010F4A4A06D1DFF810810221C2E9D4
:10394000008101211960394B196B41F004011963A1
:1039500012681168012060F30511116041490A687D
:1039600012F0010F08BFDFF8E4E03F4A02BF086031
:103970004FF0030CC2E900EC196B41F0040119632C
:1039800013683A491A68012060F387121A600B68BD
:10399000374A034002BFDFF8B4C00860C2E900C381
:1039A000224B196B41F00401196312681068012160
:1039B00061F3010010602F48026812F0010F08BF88
:1039C000DFF888C02C4A04BF0160C2E900C1196B4E
:1039D0001C4841F00401196313681A684FF001088C
:1039E00068F383021A60FEF76DF92B7B002B5FD121
:1039F000224B85F80C80DA686A6002B195609A689B
:103A0000DD6002B99D6002225A611D4B1A686FF396
:103A100000021A601B4A5A6000229A601A6842F03B
:103A200004021A603CE000BF480100200038024058
:103A300020730008380100203C010020D0860008D7
:103A4000B4000020B8000020080100200008024057
:103A5000F4000020B0760008B07E0008A800002026
:103A6000AC0000209C000020A0000020900000205E
:103A7000940000208400002088000020C005002061
:103A800010E000E01F480100000402400C0100208B
:103A9000FC00002000010020F0000020DC8600086F
:103AA0001A6842F002021A601A6842F001021A60B3
:103AB000B1AB6367CEABA36728ABC4E91F37B04B8C
:103AC000C4F884300DF22453C4F88830AD4B4793CA
:103AD000C4E91B56AC4B4494002544A95FA8C4F824
:103AE0008C504693FEF7E4FDA84B3B9338A9A84BB6
:103AF00038943EA83A93FEF7DBFDA64B279324A902
:103B0000A54B249432A82693FEF7D2FDA34B1F9316
:103B10001CA9A34B1C9420A81E93FEF7C9FDA14B22
:103B2000179314A9A04B149418A81693FEF7CFFD71
:103B30009E4B0F930CA99E4B0C9410A80E93FEF76E
:103B4000C6FD5FA90DF2C440FEF7B2FD3EA90DF21D
:103B5000D440FEF7ADFD32A90DF2E440FEF7A8FD1A
:103B600020A90DF2F440FEF7A3FD18A90DF20450B0
:103B7000FEF7ADFD10A90DF21450FEF7A8FD10A838
:103B8000FDF774FD0CA8FDF771FD18A8FDF76EFD9B
:103B900014A8FDF76BFD20A8FDF768FD1CA8FDF734
:103BA00065FD32A8FDF762FD24A8FDF75FFD3EA884
:103BB000FDF75CFD38A8FDF759FD5FA8FDF756FD40
:103BC00044A8FDF753FD0DF2C4415FA8FEF78EFD3A
:103BD000784B41933EA9784B3E9444A84093FEF71E
:103BE000AAFDD4E91F370DF2444603F11108734BC7
:103BF000C4F8F030C4F8F4605FA90DF22C50D4F88A
:103C00008490FEF773FD44A90DF28C50FEF793FDEE
:103C100007F11203C4F8683107F10803C4F86C31E6
:103C200007F10A030E37C4F87031C4F87471C4F890
:103C30007881C4F87C9144A8FDF718FD3EA8FDF7F3
:103C400015FD5FA8FEF7C0F80DF2C4415FA8FEF7AE
:103C50004DFD5B4B239320A95A4B209424A822931B
:103C6000FEF769FD584B4593584B4993584B489381
:103C700009233E93574B3F93574B4393574B4293E4
:103C800006233893564BC4F88461CDE93934554B3B
:103C90003D93554B3C93554B4694CDE93334544BAF
:103CA0003793544B3693544BC4F880310C275FA99B
:103CB0000DF2BC50409444973297FEF717FD24A9AB
:103CC0000DF21C60FEF737FD44A90DF22C60FFF7E2
:103CD00073F93EA90DF24460FFF76EF938A90DF2B1
:103CE0005C60FFF769F932A90DF27460FFF764F9BF
:103CF000C4F85852C4F85C5234A8FDF7B7FC3AA88F
:103D0000FDF7B4FC40A8FDF7B1FC46A8FDF7AEFCFA
:103D100024A8FDF7ABFC20A8FDF7A8FC5FA8FEF7E0
:103D200053F80DF2C4415FA8FEF7E0FC334B279334
:103D300024A9334B249432A82693FEF7FCFC0823D5
:103D40004493304B4593304B4993304B48930F236A
:103D50003E932F4B43932F4B42930B2338932E4B81
:103D6000C4F86462CDE939342C4B3D932C4B3C9321
:103D70002C4BC4F86032DFF8B08046945FA955E060
:103D8000BC050020A94D0008310B0008E14D0008DA
:103D9000470B0008194E00085D0B0008714D000824
:103DA000730B00086D4E0008890B0008A54E000833
:103DB0009F0B000817120008B50B0008DC71000803
:103DC00023120008CB0B0008E08600082F12000821
:103DD000E10B0008ED86000849120008F70B000807
:103DE000F7860008551200080D0C0008FE86000832
:103DF00061120008230C0008047200086D1200080C
:103E0000390C00080B870008791200084F0C0008D5
:103E100085120008650C000824870008911200082C
:103E20007B0C000818720008148700080DF29C60D3
:103E30004094CDF8FC80FEF759FC32A90DF2FC60ED
:103E4000FEF779FC44A90DF20C70FFF7B5F83EA916
:103E50000DF22470FFF7B0F838A90DF23C70FFF7AF
:103E6000ABF8C4F82053C4F824533AA8FDF7FEFB7E
:103E700040A8FDF7FBFB46A8FDF7F8FB32A8FDF7CD
:103E8000F5FB24A8FDF7F2FB5FA8FDF79DFFE36FAC
:103E90000DF2C4415B7C84F828335FA8FEF726FC52
:103EA000B94924A8FDF791FEB84920A8FDF78DFE79
:103EB000B74B41933EA9B74B3E9444A84093FEF7BD
:103EC0003AFCB54B359332A9B44B329438A83493AD
:103ED000FEF731FCB24AC4F82C234FF48072A4F8E8
:103EE0003023C4F83463249B01935FA90DF26C70F6
:103EF000DDE920A9DDF894B0FEF7F8FB44A90DF246
:103F0000CC70FEF718FC38A90DF2DC70FEF713FC3C
:103F1000019BC4F8B8330DF25C73C4F8C83394F84D
:103F2000283384F8CC33C4F8BCB3C4F8C0A3C4F8B5
:103F3000C49338A8FDF79AFB32A8FDF797FB44A875
:103F4000FDF794FB3EA8FDF791FB5FA8FDF73CFF52
:103F5000E36F0DF2C4419B7B84F8D0335FA8FEF77A
:103F6000C5FB904924A8FDF730FE8F4920A8FDF736
:103F70002CFE8E4B41933EA98D4B3E9444A840931A
:103F8000FEF7D9FB8B4B359332A98B4B329438A873
:103F90003493FEF7D0FB894AC4F8D4234FF4C842C7
:103FA000A4F8D823C4F8DC63249B03925FA90DF620
:103FB0001400DDE920A90193DDF894B0FEF796FB2B
:103FC00044A90DF67400FEF7B6FB38A90DF684007F
:103FD000FEF7B1FB019BC4F860340DF60403C4F88E
:103FE000703494F8D03384F87434C4F864B4C4F8EA
:103FF00068A4C4F86C9438A8FDF738FB32A8FDF724
:1040000035FB44A8FDF732FB3EA8FDF72FFB5FA868
:10401000FDF7DAFEE36F0DF2C4411B89A4F8783492
:104020005FA8FEF763FB414624A8FDF7CEFD644977
:1040300020A8FDF7CAFD634B41933EA9624B3E9415
:1040400044A84093FEF777FB604B359332A9604B51
:10405000329438A83493FEF76EFB5E4BC4F87C3480
:104060005D4BC4F88034C4F884645FA90DF6BC00CD
:10407000DDE92098DDE924BAFEF738FB44A90DF606
:104080001C10FEF758FB38A90DF62C10FEF753FB59
:104090000DF6AC03C4F81835B4F87834A4F81C3520
:1040A000C4F808B5C4F80CA5C4F81095C4F8148574
:1040B00038A8FDF7DBFA32A8FDF7D8FA44A8FDF7D7
:1040C000D5FA3EA8FDF7D2FA5FA8FDF77DFE0DF206
:1040D000C4415FA8FEF70AFB404B359332A9404B21
:1040E000329438A83493FEF726FB3E4B45933E4B63
:1040F00049933E4B48933E4B3F93DFF808813D4B3D
:10410000C4F82085C4F824654FF0070943935FA9DC
:10411000394B46940DF65C10409442933E97CDF88F
:104120001091FEF7E3FA38A90DF6BC10FEF703FB79
:1041300044A90DF6CC10FEF73FFF3EA90DF6E410A2
:10414000FEF73AFFC4F8C855C4F8CC5540A8FDF7AF
:104150008DFA46A8FDF78AFA38A8FDF787FA32A843
:10416000FDF784FA5FA8FDF72FFE0DF2C4415FA8AA
:10417000FEF7BCFA214B41930DF23444204B40939F
:104180003EA944A83E943FE0308700080788000815
:104190009D120008910C0008A9120008A70C000845
:1041A0002C7200083D8700084E870008D7120008CF
:1041B000BD0C0008E3120008D30C00084072000890
:1041C00051870008F7120008E90C000803130008E3
:1041D000FF0C0008547200085046C8AF17130008BF
:1041E000150D000855870008231300082B0D000843
:1041F0005D8700082F130008410D00083B130008DD
:10420000570D000868720008FEF795FAB84938A8FB
:10421000FDF7DBFCB74932A8FDF7D7FC38990191CF
:10422000B549399BD4F88070C4F8D015DDE932BAAD
:104230005FA9C4F8D4650DF60C200293FEF756FA78
:1042400044A90DF66C20FEF776FA12370199029B0D
:10425000C4F84816C4F84C36C4F850B6C4F854A68E
:10426000C4F8587644A8FDF701FA3EA8FDF7FEF918
:104270005FA8FDF7A9FDE36F0DF2C441DB7B84F875
:104280005C365FA8FEF732FA9C4924A8FDF79DFC36
:10429000984920A8FDF799FC994B41933EA9994B69
:1042A000409344A83E94FEF746FA974B359332A9C3
:1042B000964B349338A83294FEF73DFA944AC4F8EA
:1042C0006026039AA4F86426249BC4F868665FA954
:1042D0000DF52A600193DDE920A7DDF894B0FEF723
:1042E00005FA44A90DF53060FEF725FA38A90DF559
:1042F0003160FEF720FA019BC4F8EC360DF5296316
:10430000C4F8FC3694F85C3684F80037C4F8F0B68C
:10431000C4F8F4A6C4F8F87638A8FDF7A7F932A8CF
:10432000FDF7A4F944A8FDF7A1F93EA8FDF79EF911
:104330005FA8FDF749FDE36F0DF2C4419B7C84F853
:1043400004375FA8FEF7D2F9724924A8FDF73DFCB7
:10435000714920A8FDF739FC704B41933EA9704B81
:10436000409344A83E94FEF7E6F96E4B359332A98C
:104370006D4B349338A83294FEF7DDF96B4AC4F8DC
:1043800008274FF48072A4F80C27249BC4F8106708
:104390005FA90DF648300193DDE920A7DDF894B060
:1043A000FEF7A4F944A90DF6A830FEF7C4F938A920
:1043B0000DF6B830FEF7BFF9019BC4F894370DF63F
:1043C0003833C4F8A43794F8043784F8A837C4F80D
:1043D00098B7C4F89CA7C4F8A07738A8FDF746F9A9
:1043E00032A8FDF743F944A8FDF740F93EA8FDF7D0
:1043F0003DF95FA8FDF7E8FCE36F0DF2C4411B7CBB
:1044000084F8AC375FA8FEF771F9494924A8FDF795
:10441000DCFB414920A8FDF7D8FB464B41933EA960
:10442000454B409344A83E94FEF785F9434B3593A2
:1044300032A9434B349338A83294FEF77CF9414AB1
:10444000C4F8B0274FF48072A4F8B427249BC4F8B2
:10445000B8675FA90DF53F600193DDE920A7DDF89E
:1044600094B0FEF743F944A90DF54560FEF763F9F2
:1044700038A90DF54660FEF75EF9019BC4F83C389B
:104480000DF53E63C4F84C3894F8AC3784F85038D6
:10449000C4F840B8C4F844A8C4F8487838A8FDF770
:1044A000E5F832A8FDF7E2F844A8FDF7DFF83EA8EA
:1044B000FDF7DCF85FA8FDF787FC0DF2C4415FA8AB
:1044C000FEF714F9204B359332A9204B349338A8CA
:1044D0003294FEF730F91E4B45931E4B49931E4B09
:1044E00048930A233E931D4B3F931D4B439339E062
:1044F0006A8700087A870008F07100087D87000845
:10450000471300086D0D000853130008830D0008C1
:10451000407200088D8700080788000867130008AC
:10452000990D000873130008AF0D00087C72000895
:104530009787000893130008C50D00089F13000813
:10454000DB0D000890720008B9130008F10D000897
:10455000A8870008070E0008090E0008B1870008A8
:1045600023150008BE4B4293BE4BC4F854380822B2
:104570005FA9C4F858680DF549604492FEF7B6F893
:1045800038A90DF54F60FEF7D6F844A90DF5506037
:10459000FEF712FD3EA90DF61850FEF70DFDC4F80A
:1045A000FC58C4F80059C4F80C59C4F81459C4F89C
:1045B000185940A8FDF75AF846A8FDF757F838A84B
:1045C000FDF754F832A8FDF751F85FA8FDF7FCFBA2
:1045D0000DF2C4415FA8FEF789F8A34B359332A9C9
:1045E000A24B349338A83294FEF7A5F808234493DD
:1045F0009F4B45939F4B49939F4B48939F4B3F93B2
:104600009F4B43935FA99F4BC4F81C89C4F8206952
:104610000DF658504293CDF8F890FEF767F838A998
:104620000DF6B850FEF787F844A90DF6C850FEF70E
:10463000C3FC3EA90DF55E60FEF7BEFCC4F8C4598C
:10464000C4F8C85940A8FDF711F846A8FDF70EF8C0
:1046500038A8FDF70BF832A8FDF708F85FA8FDF7BA
:10466000B3FB2046FDF75CF8D4F8880003681B68AC
:104670009847E36E93F830301BBBFEE74AAB3B44F0
:1046800083F83080FEF737BE559B56AA0121D154DE
:104690000523FEF778BEB2F800C0844503F102039B
:1046A0003EF47EAEFEF780BE1946FEF798BE0423A8
:1046B000FEF761BF0323FEF75EBF6AF38A23FEF7AE
:1046C0007ABF63A7D7E90067DFF8BC91DFF8BCA128
:1046D0004FF00008F09B1B78002B00F0D980F19B75
:1046E0005B8923B99DF83134002B00F0D180ED991E
:1046F0000A688B89106A03431362ED98FDF7BEFBCD
:1047000008B1F09B1878F09B18709DF83134EF9841
:10471000002B00F0C480FCF711FFED98FDF7AEFB15
:10472000EE9B002800F0BE801846FCF707FFDDF87E
:10473000B4B3F29CBBF81030F19DA4F86830BDF81A
:104740001E34A4F86A306B81EC9B5B681889FBF718
:10475000E9FE41A3D3E90023FBF74EFF00224FF00F
:104760007F53FBF749FF32463B46FCF76FF8424662
:104770004B46FBF741FFFCF751F9A4F86C00BDF87C
:104780001804FBF7CFFE34A3D3E90023FBF734FF73
:1047900000224FF07F53FBF72FFF32463B46FCF7DA
:1047A00055F842464B46FBF727FFFCF737F9F09ADE
:1047B000A4F86E00BBF818301278A4F8663094F8AC
:1047C000723062F3000384F872302A7C94F87230FD
:1047D0008DF8312462F341036A7C62F38203AA7C80
:1047E00062F3C30384F872302B89BDF82424ADF83A
:1047F0002634991A1344ADF82814ADF82A34AB7B4B
:10480000216903EB8303ADF82C34D1F82031D1F8C2
:1048100004215B68D1F800119BB2521AC3F1FF0367
:104820009A4243D20023E3612046FCF757FF9DF8EC
:10483000AC33082B00F29281DFE813F044017501DC
:104840009F01B301F701CA0131025502A70100BF60
:104850000000000000FEEF406666666666660A407D
:10486000130E000818720008C51300081D0E00087A
:10487000BC87000813150008330E0008C587000820
:10488000211500083D0E000800408F400004002064
:10489000ED990A688989136A23EA01032CE7FCF77A
:1048A00053FE3AE71846FCF74FFE40E7D4E90723EA
:1048B0009A42BCDB00252046E561FCF70FFF20692A
:1048C000D0F80431D0F80021991A072902D8FEF750
:1048D0002DFBACE710F802C094F824108C45F6D1FB
:1048E000934284BF03F1FF33C0F80431226988BFCB
:1048F000C55CD2F80011D2F804318B4282BF03F1BB
:10490000FF33C2F8043112F803B02369D3F804214D
:10491000D3F800111A4419445FA898BF4FF0000B58
:10492000FEF75AFB9DF87C31AB4204D19DF87D31F6
:1049300020695B4501D02069C9E7FEF763FB206968
:10494000FEF760FB032884F8250003D0102805D06B
:10495000012109E02046FEF719FC68E707212046FF
:10496000FEF7F8FB20B902212046FEF799FB5EE72F
:104970002369D3F80021D3F80411914283BF511C5D
:10498000C3F800119B5C002384F82C30002504F14F
:104990002E0B628D2069ABB29A422CD95946FEF794
:1049A000BEFBE38C13FA85F3E2185B0092F89110DA
:1049B000E28D89B1234410B2B3F874100FFA81FC70
:1049C000604500DA31B9B3F882100FFA81FC604516
:1049D0000DDD61B10321C7E72344B3F874108A42A7
:1049E00001D20029F6D1B3F882108A42F1D8A3F897
:1049F00050200135CDE70023012599B2914236D2EE
:104A0000B4F826C0614489B203290BD8DFE801F06D
:104A1000020C1521F299B1F850C0A1F862C0F199C9
:104A2000A1F802C00133E8E7F299B1F852C0A1F849
:104A300064C0F19981F804C0F4E7F299B1F8541018
:104A4000A1F17F0CDCF1000141EB0C018AF80010B0
:104A5000E8E79AF8001039B1F299B1F856C0A1F818
:104A600060C0F199A1F800C08AF80050DAE700238D
:104A7000C0F80031C0F8043194F824102069FEF722
:104A8000CDFA94F82510FEF7C9FAE18CFEF7D1FAB9
:104A9000618DFEF7CEFA2369D3F80421D3F8001113
:104AA0001A4419445FA8FEF797FA9DF87D11206912
:104AB000FEF7B4FA9DF87C11FEF7B0FA2069FEF714
:104AC000C3FAB4E6F19BED985A7C6AB101238DF8E4
:104AD000AC33F39BBDF826249B685A62596A89B2AD
:104AE0001030FDF78BF939E09B7C0BB10223EEE728
:104AF000FDF7C4F960B19DF831344BB940F6B833D5
:104B00000DF58060CDF81034FCF70AFE062307E0AF
:104B1000ED98FDF7B3F908B39DF83134F3B10323F1
:104B20008DF8AC331AE0ED98BDF82C141830FDF771
:104B30008EF9F39BED989B68596A103089B2FDF7A6
:104B40005DF99DF831342BB9ED9BF19A1B8AADF8D4
:104B50001E345381F19B5B7C002BE1D09DF8AC337C
:104B6000013B012B07D9ED98FDF788F908B19DF8B5
:104B7000AC038DF8AC0330BFACE59DF83134ED9853
:104B800043B164211830FDF762F9F39BED989B68FF
:104B9000596AA4E7F19A038AADF81E3453810723BA
:104BA000BEE7DDF81424DDF810349A42DBD30DF5AE
:104BB0008060FCF7B1FDED98BDF82A140023103099
:104BC000CDF81834CDF81C34FDF718F90523A7E704
:104BD000ED9864211830FDF73AF9EC9BBDF81C24E0
:104BE0005B689B68934284BFADF81C34ED9BF4A8CE
:104BF00084BF1B8AADF82234FCF766FD68B1ED98DE
:104C0000BDF82834028A9A4283BFBDF82E14494267
:104C100009B200211030FDF713F9ED9B1A8ABDF897
:104C200028349A429AD104237AE7ED986421183007
:104C3000FDF70DF9EC9BBDF81A245B689B68934265
:104C400084BFADF81A34ED9BF4A884BF1B8AADF87D
:104C50002034FCF739FD58B1ED98BDF82A34028AAA
:104C60009A4234BFBDF92E1400211030FDF7E8F848
:104C7000ED9B1A8ABDF82A349A427FF46FAFF19BFC
:104C800000221A74BDF81C34BDF81A249A428CBF55
:104C9000BDF82034BDF82234ADF81E3436E7F39B5E
:104CA000BDF81E249B68F4A85A625B6AFCF70CFDF1
:104CB00070B1ED98BDF81E3430F8102F9A420FD322
:104CC00083BFBDF82E14494209B20021FDF7B8F8A0
:104CD000ED9B1A8ABDF81E349A427FF43FAF5EE71F
:104CE000BDF92E14F2E7EC9BBDF818245B689B68B5
:104CF000FAA8934288BFADF81834FCF7E5FC68B118
:104D0000ED98BDF82C3430F8181F8B4294BF4FF04B
:104D1000FF330123194489B2FDF799F8ED9B1A8BF3
:104D2000BDF82C349A42FFF419AF0823F8E600BF0F
:104D300013B50B460446D0E900016A4682E8030039
:104D400093E8030084E8030092E8030083E803008B
:104D500002B010BD38B505460C46FFF7E9FFAB6859
:104D6000A268AA60A360E268EB68EA60E36038BD0D
:104D700030B5044689B00846002369460293FFF720
:104D8000E9FF23689C6F2368694604A8DD68FDF786
:104D9000D2FC04A92046A84704A8FCF767FC684693
:104DA000FCF764FC09B030BD30B5044689B0084654
:104DB000002369460293FFF7CDFF23681C6F236829
:104DC000694604A89D68FDF7B6FC04A92046A847DB
:104DD00004A8FCF74BFC6846FCF748FC09B030BD62
:104DE00030B5044689B00846002369460293FFF7B0
:104DF000B1FF23685C6F2368694604A89D68FDF7CE
:104E00009AFC04A92046A84704A8FCF72FFC684692
:104E1000FCF72CFC09B030BD30B5044689B008461B
:104E2000002369460293FFF795FF23689C6F236870
:104E3000694604A89D68FDF77EFC04A92046A847A2
:104E400004A8FCF713FC6846FCF710FC09B030BD61
:104E500038B505460C46FFF76BFFAB68A268AA6041
:104E6000A360E268EB68EA60E36038BD30B50446F1
:104E700089B00846002369460293FFF7E9FF2368DB
:104E80001C6F2368694604A81D69FEF786F804A90B
:104E90002046A84704A8FCF7E9FB6846FCF7E6FBB8
:104EA00009B030BD30B5044689B0084600236946D4
:104EB0000293FFF7CDFF23685C6F2368694604A85F
:104EC0001D69FEF76AF804A92046A84704A8FCF764
:104ED000CDFB6846FCF7CAFB09B030BD1FB50446E0
:104EE0006846FDF728FC21466846FFF733FF684611
:104EF000FCF7BCFB204604B010BD08B54430FFF7FA
:104F0000EDFF08BD08B53430FFF7E8FF08BD08B570
:104F10002430FFF7E3FF08BD08B51430FFF7DEFFCC
:104F200008BD08B54430FFF7D9FF08BD08B53430D7
:104F3000FFF7D4FF08BD08B52430FFF7CFFF08BD49
:104F400008B51430FFF7CAFF08BD08B54430FFF7B5
:104F5000C5FF08BD08B53430FFF7C0FF08BD08B570
:104F60002430FFF7BBFF08BD08B51430FFF7B6FFCC
:104F700008BD1FB504466846FEF70FF8214668468F
:104F8000FFF766FF6846FCF771FB204604B010BDD2
:104F900008B55430FFF7EDFF08BD08B55430FFF7F2
:104FA000E8FF08BD08B55430FFF7E3FF08BD1FB5A3
:104FB00050B16846FDF7BFFB029B13B16846FDF791
:104FC0006DFD6846FCF752FB05B05DF804FB07B5C4
:104FD000826801910AB901F031FCC36801A99847C0
:104FE00003B05DF804FB7FB50446406EFCF72AFB76
:104FF00008B9A36E8BB3606EFCF724FB054680BB3B
:10500000637C63BB94F8706004F124016846FDF78B
:1050100092FB69463046FFF7CAFF6846FCF726FB5D
:10502000637C33B994F870501DB194F8715085F0D9
:10503000010504F134016846FDF77DFB6946284609
:10504000FFF7B5FF6846FCF711FB00230122C4E916
:105050001A3284F8703084F8713004B070BD06469E
:10506000D2E7A36E0133092BA36622D994F87020EE
:105070008AB9657C012384F870305D4004F1140125
:105080006846FDF758FB28466946FFF790FF6846DB
:10509000FCF7ECFAE1E7B3F57A7F0AD394F87120D4
:1050A0003AB9657C012384F871305D4004F1440114
:1050B000E6E7E26D002AD0D0B3F57A7FCDD9B3F51B
:1050C000FA6F0CD8C821B3FBF1F201FB1233002BAD
:1050D000C3D1012104F15400FFF779FFBDE740F689
:1050E000B832934201D86421EDE7B3F57A6F01D865
:1050F0003221E8E71921B3FBF1F201FB123241F250
:1051000088318B4202D8002AA7D1E2E7002AA4D135
:10511000E16E04F15400FFF75AFFA16E4FF47A726A
:10512000B1FBF2F302FB1313002B96D1E36E0133B4
:10513000E36692E7A0F1040055E77FB50446406EB0
:10514000FCF780FA08B9A36E8BB3606EFCF77AFAAD
:10515000054680BB637C63BB94F8706004F1240156
:105160006846FDF7E8FA69463046FFF720FF6846D3
:10517000FCF77CFA637C33B994F870501DB194F855
:10518000715085F0010504F134016846FDF7D3FA4A
:1051900069462846FFF70BFF6846FCF767FA0023CD
:1051A0000122C4E91A3284F8703084F8713004B0F6
:1051B00070BD0646D2E7A36E0133092BA36622D940
:1051C00094F870208AB9657C012384F870305D40C2
:1051D00004F114016846FDF7AEFA28466946FFF768
:1051E000E6FE6846FCF742FAE1E7B3F57A7F0AD3B8
:1051F00094F871203AB9657C012384F871305D40E0
:1052000004F14401E6E7E26D002AD0D0B3F57A7FDD
:10521000CDD9B3F5FA6F0CD8C821B3FBF1F201FB7D
:105220001233002BC3D1012104F15400FFF7CFFE4C
:10523000BDE740F6B832934201D86421EDE7B3F5FB
:105240007A6F01D83221E8E71921B3FBF1F201FBB3
:10525000123241F288318B4202D8002AA7D1E2E70C
:10526000002AA4D1E16E04F15400FFF7B0FEA16E54
:105270004FF47A72B1FBF2F302FB1313002B96D1B9
:10528000E36E0133E36692E7A0F1040055E77FB5D2
:105290000446406EFCF7D6F908B9A36E8BB3606E76
:1052A000FCF7D0F9054680BB637C63BB94F8706063
:1052B00004F124016846FDF73EFA69463046FFF7DF
:1052C00076FE6846FCF7D2F9637C33B994F87050E7
:1052D0001DB194F8715085F0010504F13401684660
:1052E000FDF729FA69462846FFF761FE6846FCF794
:1052F000BDF900230122C4E91A3284F8703084F821
:10530000713004B070BD0646D2E7A36E0133092B9D
:10531000A36622D994F870208AB9657C012384F8A9
:1053200070305D4004F114016846FDF704FA284628
:105330006946FFF73CFE6846FCF798F9E1E7B3F5EC
:105340007A7F0AD394F871203AB9657C012384F8F6
:1053500071305D4004F14401E6E7E26D002AD0D0EF
:10536000B3F57A7FCDD9B3F5FA6F0CD8C821B3FB6A
:10537000F1F201FB1233002BC3D1012104F15400DF
:10538000FFF725FEBDE740F6B832934201D864210D
:10539000EDE7B3F57A6F01D83221E8E71921B3FBC5
:1053A000F1F201FB123241F288318B4202D8002A1D
:1053B000A7D1E2E7002AA4D1E16E04F15400FFF77F
:1053C00006FEA16E4FF47A72B1FBF2F302FB1313E7
:1053D000002B96D1E36E0133E36692E7A0F104005F
:1053E00055E730B50B1A9B10002B15DD14780578A6
:1053F000A54203D04578A54201D1013030BD857862
:10540000A54201D10230F9E7C578A54201D10330A8
:10541000F4E70430013BE7E70B1A022B0ED0032B15
:1054200007D0012B10D1047813789C4218BF08468E
:10543000E4E7047813789C42E0D0013004781378D4
:105440009C42DBD00130EEE70846D7E72DE9F34177
:1054500090F84D3041690446052B1BD8DFE813F066
:1054600006001D004A008200B400E80090F85030A9
:10547000C218C95C127E914240F0F6800133DBB263
:10548000142B28BF002380F85030B3FA83F35B0954
:1054900080F84C3002B0BDE8F0810069C268C2F308
:1054A0000042002AF6D10369002BF3DAFCF73AF840
:1054B0002369186962F3410018611A6942F0010218
:1054C0001A6123691A69012060F309221A611A69B5
:1054D00042F080721A6194F85030CA5C84F84F2010
:1054E00094F84F10A26C43EA01231380022384F83E
:1054F0004D30CFE70369DA68D107CBD5DA6842F0DF
:105500000102DA601A6942F000421A6190F85030E4
:1055100090F84F2003441A76826CC36A0232826488
:1055200000EBC300D0E90E1501EB45018A4203D020
:1055300094F84E30DBB2DAE70122E1181344022B73
:1055400028BF002381F83020E36204EBC3039B6B88
:10555000A364002384F8503084F84D20052384F898
:105560004E3097E70769FD68C5F30045002D91D1DE
:105570003B69002B8EDA02AA00F13206012300F10A
:10558000300802F8013D31464046FFF72AFFB0429D
:10559000CED0A0EB080060633846FBF7C3FF636B17
:1055A000324AD25C036965F300030361036943F087
:1055B00002030361036962F3C6030361036943F4F1
:1055C00080330361042392E70369DA68D2077FF529
:1055D00061AFDA6842F00102DA601A6942F0004213
:1055E0001A61416B00EBC103D3E90E234FF6FF753F
:1055F00002EB43039342104618D00688AE4202F1F4
:105600000202F7D01B1A214418BF012304F132050E
:1056100081F8303004F130002946FBF703FF854262
:1056200014BF0320002084F84D0033E71846E9E753
:1056300090F850300133DBB2132B11D9002380F8DE
:10564000503004F13205294604F13000FBF7EAFE40
:10565000854214BF0320002084F84D0000237EE71C
:1056600080F85030002BECD0012340E7AE760008E4
:1056700073B590F8A030866819444379C9B28B425B
:1056800038BF037980F8A01038BF80F8A030142309
:10569000336090F8A0200B4B6D4653F8221004465F
:1056A0002846FCF792FA943495E806003046FCF759
:1056B0000BFF94E80600FCF707FFFCF761FA02B065
:1056C00070BD00BF9476000808B501210068FFF79F
:1056D000CFFF08BD08B509680068FFF7C9FF08BD1E
:1056E00073B590F8A030591A0379C9B28B420446B9
:1056F00080F8A01001D8FF2902D1637984F8A03086
:10570000A6681423336094F8A0200A4B6D4653F822
:1057100022102846FCF759FA943495E806003046E2
:10572000FCF7D2FE94E80600FCF7CEFEFCF728FA60
:1057300002B070BD9476000808B501210068FFF73B
:10574000CFFF08BD08B509680068FFF7C9FF08BDAD
:10575000826810B50AB901F071F8C368BDE810405D
:10576000184730B585B00446002569460C300295CF
:10577000FCF7F0FF6846FBF779FF694604F11C006F
:105780000295FCF7E7FF6846FBF770FF694604F1F6
:105790002C000295FCF7DEFF6846FBF767FF6946C1
:1057A00004F13C000295FCF7D5FF6846FBF75EFF6D
:1057B000694604F14C000295FFF7CAFF6846FBF703
:1057C00055FF694604F15C000295FFF7C1FF68468A
:1057D000FBF74CFF05B030BD30B585B00446002561
:1057E00069460C300295FCF7B5FF6846FBF73EFFB3
:1057F000694604F11C000295FCF7ACFF6846FBF714
:1058000035FF694604F12C000295FCF7A3FF6846BA
:10581000FBF72CFF694604F13C000295FCF79AFF68
:105820006846FBF723FF694604F14C000295FFF739
:105830008FFF6846FBF71AFF694604F15C0002958A
:10584000FFF786FF6846FBF711FF05B030BD30B5A6
:1058500085B00446002569460C300295FCF77AFFB6
:105860006846FBF703FF694604F11C000295FCF74C
:1058700071FF6846FBF7FAFE694604F12C000295B9
:10588000FCF768FF6846FBF7F1FE694604F13C004F
:105890000295FCF75FFF6846FBF7E8FE694604F1F6
:1058A0004C000295FFF754FF6846FBF7DFFE6946A0
:1058B00004F15C000295FFF74BFF6846FBF7D6FE4C
:1058C00005B030BD30B585B00446002569460C30C2
:1058D0000295FCF73FFF6846FBF7C8FE694604F1F6
:1058E0001C000295FCF736FF6846FBF7BFFE6946D1
:1058F00004F12C000295FCF72DFF6846FBF7B6FE7D
:10590000694604F13C000295FCF724FF6846FBF76A
:10591000ADFE694604F14C000295FFF719FF684699
:10592000FBF7A4FE694604F15C000295FFF710FF47
:105930006846FBF79BFE05B030BD30B585B0044628
:10594000002569460C300295FCF704FF6846FBF71A
:105950008DFE694604F11C000295FCF7FBFE6846CB
:10596000FBF784FE694604F12C000295FCF7F2FE79
:105970006846FBF77BFE694604F13C000295FCF7A4
:10598000E9FE6846FBF772FE694604F14C00029599
:10599000FFF7DEFE6846FBF769FE694604F15C002E
:1059A0000295FFF7D5FE6846FBF760FE05B030BDF7
:1059B0007FB53C4B00906D460446294603930C305E
:1059C000394B0293FCF7C6FE2846FBF74FFE374BD8
:1059D00003932946364B029304F11C000094FCF714
:1059E000B9FE2846FBF742FE324B03932946324B61
:1059F000029304F14C000094FFF7AAFE2846FBF73F
:105A000035FE2E4B039329462D4B029304F15C0087
:105A10000094FFF79DFE2846FBF728FE294B0393D1
:105A20002946294B029304F12C000094FCF792FEC6
:105A30002846FBF71BFE254B03932946244B029374
:105A400004F13C000094FCF785FE2846FBF70EFEAF
:105A5000A0680023036004F18C0393E80600FCF7C0
:105A600033FDFCF78DF8D4F89C30A6681B7884F8D9
:105A7000A0301423336094F8A020164B284653F826
:105A80002210FCF7A2F8943495E806003046FCF7A3
:105A90001BFD94E80600FCF717FDFCF771F804B055
:105AA00070BD00BFC95600085F0E000839570008D6
:105AB000750E0008D55600088B0E000845570008E3
:105AC000A10E0008072B0008B70E0008292B0008BC
:105AD000CD0E0008947600087FB53C4B00906D46D3
