:020000040800F2
:1000000000000220591E0008A91E0008A91E0008B1
:10001000A91E0008A91E0008A91E00080000000073
:10002000000000000000000000000000A91E000801
:10003000A91E000800000000A91E0008750A00089B
:10004000690700086B0700086D0700086F070008C4
:100050007107000873070008750700087707000894
:10006000790700087B0700087D0700082D080008B5
:100070004908000865080008810800089D08000874
:10008000B9080008D50800087F07000881070008A4
:10009000830700088507000887070008890700080C
:1000A000BD070008BF070008C1070008C307000814
:1000B000C5070008C7070008C90700088B07000824
:1000C0008D0700088F07000891070008ED09000858
:1000D000F9090008D9070008F50700081108000809
:1000E000930700089507000897070008D107000844
:1000F000D3070008D5070008D7070008F108000853
:10010000990700089B070008CB070008050A0008AC
:100110009D0700089F070008CD070008CF070008CB
:100120000D090008290900084509000861090008AF
:100130007D0900080000000000000000A107000881
:10014000A3070008A5070008A7070008A9070008DB
:1001500099090008B5090008D1090008AB07000893
:10016000AD070008AF070008B1070008B307000893
:10017000B5070008B70700080000000000000000F5
:08018000B9070008BB070008E5
:1001880010B5054C237833B9044B13B10448AFF3C9
:1001980000800123237010BD04000020000000002F
:1001A800281F000808B5034B1BB103490348AFF3E8
:1001B800008008BD0000000008000020281F00087B
:1001C8004209012300F01F0003FA00F0014B43F835
:1001D8002200704700E100E0436901334361704742
:1001E80010B50146054B41F8303B836B044613B10B
:1001F800032208469847204610BD00BF90210008FA
:10020800C3690133C361704770B4816800220B462B
:1002180013B19A605B68FBE7D0E9042302EB43055E
:100228000B469542144609D026889C6834449C6045
:100238005B680232002B08BF0B46F2E7836B1BB1E9
:10024800C36B70BC3030184770BC7047FFF7B8BF3D
:10025800036813B90160704713465A68002AFBD136
:100268005960704710B504462CB1236820461B68B6
:1002780098476468F8E710BD0369002BBFBF034BBC
:10028800436003F188334360704700BF230167452B
:1002980010B590F830300246052B15D8DFE803F08A
:1002A80003153C5E769190F83330006AD118C05C33
:1002B80091F82410884240F095800133DBB2082B76
:1002C80028BF002382F8333010BDC069C368DC033F
:1002D800FAD40369002BF7DAFFF7CEFF036943F07E
:1002E80001030361D3691969012060F309211961C8
:1002F800196941F08071196192F83330116AD06A36
:10030800C95C82F8321092F83240916943EA0423BA
:1003180021F81030022366E0C369D968C907D3D52C
:10032800D96841F00101D960196941F000411961AA
:1003380090F8333090F83210034483F82410C36ADD
:100348000133B3F5803F03D30023C36203234AE09C
:10035800C362002BFAD090F8313044E0C069C3681A
:10036800DC03B1D40369002BAEDAFFF785FF03691C
:1003780043F00203036103690A2161F3C6030361C1
:10038800036943F48033036104232CE0C369D9680B
:10039800C90799D5D96841F00101D960196941F0B7
:1003A800004119614FF0FF33436283620023C36247
:1003B80080F83330012380F83030052382F831305B
:1003C80082E790F833300133DBB2072B06D90023DC
:1003D80080F83330002382F83030EFE780F833308C
:1003E800002BF7D0012382F830306DE7012904D1C2
:1003F800036A43F0010303627047022903D1036AC9
:1004080043F01003F7E7032903D1036A43F4807329
:10041800F1E70429F0D1036A43F48053EBE701299B
:1004280004D1036A6FF3000303627047022903D102
:10043800036A6FF30413F7E7032903D1036A6FF321
:100448000823F1E70429F0D1036A6FF30C33EBE7D3
:10045800012903D1006A00F001007047022903D185
:10046800006AC0F300107047032903D1006AC0F383
:1004780000207047042906BF006AC0F3003000203E
:100488007047012901D142637047022901D1826373
:100498007047032901D1C2637047042908BF026469
:1004A800704743680288198918684A434FF47A717B
:1004B80092FBF1F2997A92B2FFF7E3BF21B903698F
:1004C80062F3020303617047012903D1036962F3F0
:1004D800C503F7E7022903D1036962F38813F1E73B
:1004E800032903D1036962F34B23EBE7042903D102
:1004F800036962F30E33E5E7052903D1036962F363
:10050800D133DFE7062903D1036962F39443D9E7BE
:10051800072903D1036962F35753D3E7082903D1A5
:10052800036962F31A63CDE7092903D1036962F30A
:10053800DD63C7E70A2904D1C36862F30203C36015
:1005480070470B2903D1C36862F3C503F7E70C2989
:1005580003D1C36862F38813F1E70D2903D1C36897
:1005680062F34B23EBE70E2903D1C36862F30E3322
:10057800E5E70F2903D1C36862F3D133DFE7102918
:1005880003D1C36862F39443D9E7112903D1C3683F
:1005980062F35753D3E71229D2D1C36862F31A63BF
:1005A800CDE7012904D1436B62F304034363704729
:1005B800022903D1436B62F34913F7E7032903D1F7
:1005C800436B62F38E23F1E7042903D1436B62F393
:1005D800D333EBE7052903D1436B62F31853E5E7FF
:1005E800062903D1436B62F35D63DFE7072904D172
:1005F800036B62F3040303637047082903D1036B99
:1006080062F34913F7E7092903D1036B62F38E23D9
:10061800F1E70A2903D1036B62F3D333EBE70B2924
:1006280003D1036B62F31853E5E70C2903D1036B7D
:1006380062F35D63DFE70D2904D1C36A62F3040343
:10064800C36270470E2903D1C36A62F34913F7E7FF
:100658000F2903D1C36A62F38E23F1E71029F0D181
:10066800C36A62F3D333EBE719B90068C0F34010EB
:100678007047012903D10068C0F3C02070470229E0
:1006880003D10068C0F340507047032903D10068C4
:10069800C0F3C0607047042901D14068E6E7052926
:1006A80001D14068E8E7062901D14068EAE707294F
:1006B80001D14068ECE70020704700000A2A10B515
:1006C80001D00F2A15D1204B9A68C2F34232D2B119
:1006D800042A1AD0052A1AD01C4B1D4C062A08BF1A
:1006E800234607291AD8DFE801F0141A1D2023260B
:1006F800292C0B3A032A04D8134B9A68C2F3822296
:10070800E5E70023EDE7134BEBE7134BE9E7134B62
:10071800E7E74FF41652B3FBF2F3836010BD4FF4D2
:100728006152F8E74FF49642F5E74FF4E142F2E7F9
:100738004FF41642EFE74FF46142ECE74FF496327C
:10074800E9E74FF4E132E6E700380240A037A000BD
:10075800406F4001007A030A00BD010580DE800277
:10076800FEE7FEE7FEE7FEE7FEE7FEE7FEE7FEE759
:10077800FEE7FEE7FEE7FEE7FEE7FEE7FEE7FEE749
:10078800FEE7FEE7FEE7FEE7FEE7FEE7FEE7FEE739
:10079800FEE7FEE7FEE7FEE7FEE7FEE7FEE7FEE729
:1007A800FEE7FEE7FEE7FEE7FEE7FEE7FEE7FEE719
:1007B800FEE7FEE7FEE7FEE7FEE7FEE7FEE7FEE709
:1007C800FEE7FEE7FEE7FEE7FEE7FEE7FEE7FEE7F9
:1007D80008B5044B1868FFF745FD034B1A685B68BA
:1007E80008BD00BFBC0400200010014008B5044B40
:1007F8001868FFF737FD034B1A685B6808BD00BF30
:10080800C40400200044004008B5044B1868FFF7F2
:1008180029FD034B1A685B6808BD00BFCC040020A3
:100828000048004008B5044B1868FFF71BFD034B50
:100838003D229A6008BD00BF2404002000600240E9
:1008480008B5044B1868FFF70DFD034B4FF47462AD
:100858009A6008BD2C0400200060024008B5044BD3
:100868001868FFF7FFFC034B4FF474129A6008BD39
:10087800340400200060024008B5044B1868FFF7F4
:10088800F1FC034B4FF074629A6008BD3C040020F1
:100898000060024008B5044B1868FFF7E3FC034BFF
:1008A8004FF47462DA6008BD44040020006002401E
:1008B80008B5044B1868FFF7D5FC034B4FF4746276
:1008C800DA6008BD4C0400200060024008B5044B03
:1008D8001868FFF7C7FC034B4FF47412DA6008BDC1
:1008E800540400200060024008B5044B1868FFF764
:1008F800B9FC034B4FF07462DA6008BD5C04002059
:100908000060024008B5044B1868FFF7ABFC034BC6
:100918003D229A6008BD00BF6404002000640240C4
:1009280008B5044B1868FFF79DFC034B4FF474623D
:100938009A6008BD6C0400200064024008B5044BAE
:100948001868FFF78FFC034B4FF474129A6008BDC8
:10095800740400200064024008B5044B1868FFF7CF
:1009680081FC034B4FF074629A6008BD7C04002040
:100978000064024008B5044B1868FFF773FC034B8A
:100988003D22DA6008BD00BF8404002000640240F4
:1009980008B5044B1868FFF765FC034B4FF4746205
:1009A800DA6008BD8C0400200064024008B5044BDE
:1009B8001868FFF757FC034B4FF47412DA6008BD50
:1009C800940400200064024008B5044B1868FFF73F
:1009D80049FC034B4FF07462DA6008BD9C040020A8
:1009E80000640240014B1868FFF73CBCA4040020D7
:1009F800014B1868FFF736BCAC040020014B18689F
:100A0800FFF730BCB4040020436A1A6842F00102C0
:100A18001A601A68D107FCD5036A9A6842F0010285
:100A28009A609A68D207FCD59A6842F080429A6028
:100A3800704710B504682CB1236820461B68984796
:100A4800A468F8E710BD10B504460830FFF7F1FFB9
:100A5800D4E90421531C2361B2FBF1F301FB1323F6
:100A680013B92046FFF7E5FF10BD00000148FFF766
:100A7800EABF00BFD4040020037BC3B10023037383
:100A8800D0E901236AB143B1936083685A600023B7
:100A9800C0E9013370470B60F8E7054993604A6085
:100AA800F5E70349002BF6D1C1E90033EFE77047BA
:100AB800D404002038B503691A685B6812690125F7
:100AC80005FA03F31342C27E14BF2B4600239A4251
:100AD80003D043692B44436138BDFFF7CDFF0023A2
:100AE80043610376437683760562F5E7037B53B962
:100AF80001230373044B5A68426002B190601A687C
:100B0800586002B918607047D404002080680269F0
:100B1800D2F818311B68DB0611D5D2F820315B6892
:100B280000219BB2C2F80011C3F1FF01FF2928BFC1
:100B3800FF21FF2BC2F8041101D0FFF7D7BF704780
:100B4800204B1A68052161F302021A60A3F580633D
:100B58001A6842F480321A601A689203FCD59A68BF
:100B68006FF307129A609A68052161F38C229A60E4
:100B78009A68042161F34F329A609A68022060F300
:100B880001029A605A6861F305025A605A68A821FE
:100B980061F38E125A605A68072161F31B625A602A
:100BA8005A686FF311425A605A6842F480025A60D8
:100BB8001A6842F080721A60034A13689B01FCD5D8
:100BC800704700BF003C024000380240754A764931
:100BD800F8B5136813F0010F70D1744B744C186892
:100BE80010F0010F06D1DFF8E0E10920C4E900E0C8
:100BF800012018606F4B186B40F0010018632068E3
:100C08000568022666F393450560456A072666F37C
:100C180007154562684D286810F0010F674806D12E
:100C2800DFF8A4C10A26C0E900C601262E601D6BA4
:100C380045F001051D6303681D68022666F3155516
:100C48001D605D6A072666F30B255D625C4D2B68A7
:100C580013F0010F5B4B05D15B4F0C26C3E90076FF
:100C680001262E60534E356B45F0010535631E682D
:100C78003768012565F319673760C1F81031534BA0
:100C8800C1F81431A3F5AA33C1F8183103F5AA3312
:100C9800B833C1F81C31783BC1F820310A2300264B
:100CA800C1F824310723C1F80061C1F80461C1F813
:100CB8000841C1F80C0181F8283115603D4C636C7E
:100CC80043F010036364D1F81831DA6842F008027F
:100CD800DA60DA6842F00402DA605A6942F08002A7
:100CE8005A615A6942F040025A61394B93F904003B
:100CF800FFF7ACFA236B43F480032363D1F81C316C
:100D08001A68012060F387121A60D1F800210A449A
:100D1800DA60D1F8182104329A601A6842F48062C5
:100D28001A601A686FF34E321A601A686FF3CC2291
:100D38001A601A6842F010021A60264B93F90400F0
:100D4800FFF784FAD1F820311A686FF387121A6016
:100D5800D1F800210A44DA60D1F8182104329A60E7
:100D6800FF225A601A6842F480621A601A686FF3A8
:100D78004E321A601A686FF3CC221A601A6842F46D
:100D880080721A60D1F820311A68042060F35B621F
:100D98001A60D1F81C311A6860F35B621A60024865
:100DA800F8BD00BF8001002084010020C802002097
:100DB800CC02002000380240BC020020C002002003
:100DC800B0020020B402002000000240006402408B
:100DD800BC0400209C04002070B52E4E2E4B3268B7
:100DE80012F0010F2DD12D490A6812F0010F2C4A7B
:100DF80005D12C4D0924C2E9005401240C602A4C69
:100E0800216B41F00401216311680C68022565F328
:100E180093440C604C6A65F307144C622349D881EB
:100E2800C3E900124FF6FF721A8104229A724FF436
:100E380080529A8100221A821A8301225B61DB6147
:100E4800326019490A6C42F002020A641A68D169D0
:100E5800062060F30E31D161D16941F40061D1619E
:100E6800116841F080011160116841F001011160C1
:100E7800198A40F60322914209D058691A8248F229
:100E88000503038150F8182BD362FFF70AFB0248C9
:100E980070BD00BFB4000020B8000020D8000020BA
:100EA800DC00002000080240003802400004004036
:100EB8003349344A0B6813F0010F70B53DD1324BFA
:100EC800324C186810F0010F05D1314D0620C4E9E5
:100ED8000050012018602F4B186B40F00400186375
:100EE80020680568022666F30D350560056A032645
:100EF80066F31B650562284D286810F0010F274826
:100F080006D1DFF88CC00726C0E900C601262E608E
:100F18001D6B45F004051D6303681D68022666F312
:100F28008F351D601D6A032666F31F751D621C4BF5
:100F38009360C2E9004001230B60164911484B6CCD
:100F480043F002034B6493689A68032161F3020239
:100F58009A609A69012161F301029A619A6961F3C1
:100F680009229A611A6A42F002021A621A6A6FF337
:100F7800C3021A6200225A621A680A431A6070BDD4
:100F88008C00002090000020A8000020AC00002069
:100F980000080240003802409C000020A000002009
:100FA8000004014038B5354D354C2B6813F001036A
:100FB8001DD1344A2260344A226202F5A23210322C
:100FC800C4E9060362623148636022222146C4E90B
:100FD8000233C4E90433A062E262A363FFF738F97D
:100FE80001232B4A2B492B60204600F05AFF2A4A3E
:100FF800536C43F480735364236A59686FF319611F
:101008005960996841F002019960996841F48071CA
:101018009960996841F400719960596841F4807148
:101028005960116B41F48001116303F14C02636A4A
:101038009A601A686FF387121A601A68012161F3BF
:101048004E321A601A6861F3CC221A601A6842F4A8
:1010580080621A601A6842F010021A601A6842F434
:1010680080721A601A686FF35B621A60A36A93F958
:101078000400FFF7EBF8024838BD00BF4800002025
:101088004C0000209021000800200140640400204A
:1010980000000020E901000800380240F8B50446C5
:1010A8004F48504D026812F0010F1BD14E4A136889
:1010B80013F0010F4D4B05D14D4F0421C3E90071C9
:1010C800012111604B490A6B42F001020A63196859
:1010D8000A6842F440720A600022C5E90022EB6007
:1010E80001230360E36A206A223B012B8CBF0026A0
:1010F8000426F7B2072239462E61FFF7DFF9E169C6
:10110800206A0131E1613A46FFF74BFAD4E9073228
:10111800D16A013B63F31751D162A2681346002BD1
:1011280055D019698E424DDB5B68F8E76A60E36861
:10113800A56003B9E5602069A2692F4B68B1D3F8AF
:10114800001150F8045D0439491B5D18A8421ABF04
:10115800012183F80411C3F8001161690A4462612E
:101168002649D3F800518A4294BF52004FF0FF320B
:10117800281D1044B0F5807F03EB0501C3F800017A
:101188001ED893F80401D8B909B15A510431636AD9
:1011980021611A686FF300021A60A28AD9605A6046
:1011A8001A6842F001021A601A68D207FCD50D4885
:1011B800F8BD1A68C5E900231D602B685D60BAE7B1
:1011C8000021E4E79A42F4D16A601560AFE7002A8B
:1011D800ACD0E3682B60002BACD05D60AAE700BF01
:1011E8002000002024000020380000203C000020BF
:1011F80000000240003802401C030020FCFFFF3FB3
:10120800D0F810210023C0F80031C0F8043110B51F
:10121800D2E90041012210318A40A261D0F81C2194
:10122800116863F300011160D0F82021116863F39D
:101238000001FF2311605360D0F820311A6842F092
:1012480001021A601A68D207FCD5D0F81821D368B1
:1012580043F01003D36010BD08B583681A6992F88B
:101268002811D2F81401FFF7FFF910B11869FFF738
:10127800C7FF08BDF7B500F12406024633462C30F7
:10128800FF21984202D003F8011BFAE70023CDE9B9
:1012980000339369012003F500359C1CA71EBD424D
:1012A800D16A1BD00131B1F5803F28BF0021D1623E
:1012B80014F8027C072F0CD8174414F8011C87F87F
:1012C800241014F8021C02AF394401F8080C023447
:1012D800E4E7FF2FFBD159B10139D162D06A50B987
:1012E800012382F83030052382F8313003B0F0BD95
:1012F8004FF48031F1E703EB4003E91AC9104FF6C8
:10130800FF7000291ADD1C88844203D15C8884425E
:1013180007D002339D421ED0032382F830300020CC
:10132800E4E79C88844201D00433F3E7DC888442F4
:1013380001D00633EEE708330139E2E7E91A49102C
:10134800022934D003292CD0012937D118884FF627
:10135800FF718842DED19DF80030002BDCD09DF86B
:101368000130002BD8D09DF80230002BD4D09DF846
:101378000330002BD0D09DF80430002BCCD09DF842
:101388000530002BC8D09DF80630002BC4D09DF83E
:1013980007000028C0D0126A33681360736853606E
:1013A800A4E718884FF6FF718842B3D10233188832
:1013B8004FF6FF718842ADD10233C7E72B46A9E744
:1013C800F0B5FF23074F084E1D4611F8014B5C404E
:1013D80091423B5D83EA0503355DF6D105704370A4
:1013E800F0BD00BF881F000888200008D0F8003131
:1013F800D0F804219A4283BF5A1CC0F80021C05C6F
:1014080000207047D0F80431FE2B9FBFC154D0F89C
:1014180004310133C0F80431704738B50C46090A65
:101428000546FFF7EFFFE1B2FFF7ECFF284638BDAE
:10143800D0F81031D3E9002101238B409361D0F813
:101448001831DA686FF30412DA60D0F820311A68BC
:101458006FF300021A60D0F81C311A686FF30002AB
:101468001A60D0F80431D0F80011D0F81C215B1AAA
:1014780002339BB25360D0F81C311A6842F0010263
:101488001A601A68D207FCD57047036937B5012975
:101498004FF0000204460D46C3F80021C3F80421AA
:1014A8000ED190F824100069FFF7ACFF94F82510CE
:1014B80041F08001FFF7A6FF2946FFF7A3FF0BE0E5
:1014C8000229006906D194F82410FFF79BFF94F8CD
:1014D8002510EFE70329F6D02369D3F80421D3F8C0
:1014E80000111A44194401A8FFF76AFF9DF8051076
:1014F8002069FFF787FF9DF80410FFF783FF206935
:10150800FFF796FF03B030BD70B5D0F80031D0F8C2
:10151800042101339A4204460D460ED9FFF766FFAF
:1015280006462046FFF762FF4FF0000360F307030B
:1015380066F30F232B80204670BD0023FAE738B5E9
:1015480004460D4600F126010069FFF7DDFF04F1AE
:101558002A012069FFF7D8FF638DE08C1844013811
:1015680080B2A8424FEA4303208584F82C302CBF70
:101578000020012038BD13B507210446FFF7DFFF1F
:1015880028B902212046FFF780FF02B010BD236969
:101598000022C3F80021C3F8042194F8241020691C
:1015A800FFF730FF0321FFF72DFF94F82C10FFF70A
:1015B80029FF638D20695A1E628543B1E38C5A1C4A
:1015C8003033E28434F81310FFF727FFF1E7D0F83F
:1015D8000421D0F800110244014401A8FFF7F0FEED
:1015E8009DF805102069FFF70DFF9DF80410FFF71F
:1015F80009FF2069FFF71CFFC7E70000F7B50D4694
:1016080008210446FFF79BFF20B902212046FFF777
:101618003CFFA2E02369D3F80021D3F804119142DA
:1016280083BF511CC3F800119B5C002384F82C3045
:10163800002604F12E07628DB3B29A422DD939469D
:101648002069FFF761FFE38C13FA86F3E2185B0069
:1016580092F88E10E28D89B1234410B2B3F86E105F
:101668000FFA81FC604500DA31B9B3F87E100FFA41
:1016780081FC60450DDD61B10321C7E72344B3F860
:101688006E108A4201D20029F6D1B3F87E108A4240
:10169800F1D8A3F850200136CDE7314900220126C0
:1016A800608D93B298422DD9E08C03449BB2032BF2
:1016B8000AD8DFE803F0020B131C6869B0F8503051
:1016C800A0F86430E86803820132E9E76869B0F895
:1016D8005230A0F86630E8688374F5E76B69B3F8B0
:1016E8005430A3F1D000434243410B70ECE70B7830
:1016F80033B16869B0F85630A0F86230E868C38141
:101708000E70E1E723690022C3F80021C3F8042121
:1017180094F824102069FFF775FE94F82510FFF758
:1017280071FEE18CFFF779FE618DFFF776FE236984
:10173800D3F80421D3F800111A44194401A8FFF77B
:101748003FFE9DF805102069FFF75CFE9DF8041028
:10175800FFF758FE2069FFF76BFE03B0F0BD00BF2E
:1017680044000020F7B50E460169D1F82031D1F8C0
:1017780004215B68D1F800119BB2521AC3F1FF0330
:101788009A42044605D20023C361FFF775F903B0F6
:10179800F0BDD0E907239A42F9DB0025C561FFF7C0
:1017A8006BF90069D0F80431D0F80021991A07299B
:1017B80002D8FFF725FDEAE7875C94F824108F42EA
:1017C800F7D19A423CBF03F1FF33C0F804312269D4
:1017D80038BFC55CD2F80011D2F804318B4282BF01
:1017E80003F1FF33C2F80431D75C2369D3F804212D
:1017F800D3F800111A44194401A898BF0027FFF72D
:10180800DFFD9DF80430AB4211D19DF80530206909
:10181800BB420CD1FFF7EAFD2069FFF7E7FD03287B
:1018280084F8250005D12046FFF7A5FEAFE720691B
:10183800BFE7102804D131462046FFF7DFFEA6E7B0
:1018480001212046FFF721FEA1E700002DE9F04F16
:10185800A3B0B44A0892B44EB44A0DF1200800234C
:1018680001240DF12E054046ADF82E30ADF830308C
:101878008DF83240ADF83430CDE909338DF82C308D
:10188800CDE90E62109513938DF850308DF85130D4
:101898008DF85330FFF7EEFC20B96860CDF82E00C4
:1018A8008DF832404046FFF721F9A1480268D50774
:1018B80028D4A04BA0491A6812F0010F05D19F4CFB
:1018C8000822C1E9004201221A609D4A9D4C136B0F
:1018D80043F0010313630B681A686FF311421A602F
:1018E800994B0022C3E904120121C3E90122C3E98B
:1018F80008121A731C601A765A769A76DA761A776C
:101908009A620160914A136813F0010F904B05D158
:101918008A480F21C3E900010121116088498D4CD3
:101928000A6B42F001020A631B681A684FF0010A49
:101938006AF39F721A609DF830609DF83220039216
:10194800C6F380030293C6F3C1030193BDF8307058
:10195800FFF73CF9804B039A1D6815EA0A0506EA69
:101968000A09C6F3400B4FEA561644D17B49216059
:101978007B4984F824207B4A2061C4E906157A480B
:10198800A26304F13801C4E901552573E5632464B1
:10199800039360612562E5842585658584F82C506C
:1019A8002586FEF755FC714A626404F14401A0697A
:1019B800A564E464FEF74CFC1022294604F15000AB
:1019C80000F0A6FA0E22294604F1600000F0A0FA01
:1019D8001022294604F16E0000F09AFA10222946D6
:1019E80004F17E0000F094FA039BC4F88E50C4F80A
:1019F8009250C3F800A0FFB217F0E00300F0F780A0
:101A0800202B00F0F68007F0C007402F14BF0123F9
:101A18000223504A136213693146D3F82421D3F8BC
:101A28001801FEF74BFEC3686BF34923C360C36814
:101A3800029A62F30C33C3600369019A62F30D33AF
:101A48000361C368B9F1000F00F0D58043F48063E7
:101A5800C360C36843F40053C3602069FFF7D0FB39
:101A68004FF4F570FFF7B8F90490FFF721FA0590E5
:101A78001020FFF797FA0690FFF710FB0923A4F848
:101A88006030BDF82E30A4F862309DF83230A4F8EA
:101A98006630BDF83030049DA4F86430FF23A4F804
:101AA8007E30A4F8803006ABCDE91535284B059E6D
:101AB8000790CDE91738244B1B960122CDE919343C
:101AC80000232093A4F870202193294A8DF87C30B4
:101AD800CDE91D331CA80A231C922093FFF706F8B2
:101AE8000698FEF791FFB3684FF4E1625A625B6AA9
:101AF8002B8BB3F5F57F12D0EB69DA89B2F5F57F58
:101B08000DD3198918684FF4F5722A834A434FF4A4
:101B18007A7192FBF1F2997A92B2FEF7B2FC154D06
:101B2800012429E0601F000800000C08003C024066
:101B3800E0020020100300201403002000000240EF
:101B480000380240541F0008E4020020D40200209C
:101B5800D8020020E8000020E4000020841F0008CC
:101B68009C0400206C1F0008BC040020781F00089B
:101B7800481F0008007A030A159B1A985B689B683F
:101B8800A0F86C30169B1B8BA0F86A3015A9FFF7DC
:101B9800E9FD1B9B1A9A9B685B6A03EB83035B0056
:101BA8009BB2A2F86830169A118A99420FD040F673
:101BB80002218B420BD913825069B5FBF3F3013B29
:101BC8005B08038150F8182BD362FEF76AFC199959
:101BD8008B7E002B54D04B698A6AB3F5FA6F0DDC03
:101BE800C73293421DDD8B620B6A4B622DE00423E2
:101BF8000FE703230DE769F38A2329E740F6B73097
:101C0800834201DC6332ECE7B3F57A6F01DA3132F3
:101C1800E7E741F28730834202F1180203DC9A4277
:101C2800E1DB0023E1E7086A9A42B4BF02460022DA
:101C38004FF47A76B8BF8B624A6293FBF6F206FBE2
:101C48001233002B08BF013008624A6A169B171C22
:101C5800997A186818BF0127FEF7FAFB06462AB1D9
:101C68001868997A002E3ED0FEF7D9FB179BD3E966
:101C78000023B74208BF103304FA03F393617BE7EC
:101C88000B691A685B68126904FA03F31342CA7E87
:101C980014BF012300239A4202D00846FEF726FF0C
:101CA8004B69092B04DD0B7E13B90C764C62CCE72B
:101CB8000B691A685B68126904FA03F31342CA7E57
:101CC80014BF012300239A4202D00846FEF70EFFF4
:101CD8004B69B3F57A7FA4DB4A7E002AA1D14C7602
:101CE8008C768B62E2E7FEF781FBBFE708B54FF41D
:101CF800847200213C4800F00BF93C4A0023232160
:101D0800136011713A4A242113601171394A332141
:101D180013601171384A252113601171374A262141
:101D280013601171364A272113601171354A0B214E
:101D380013601171344A0C2113601171334A0D215B
:101D480013601171324A0E2113601171314A0F214B
:101D580013601171304A1021136011712F4A11213B
:101D6800136011712E4A2F21136011712D4A3821E9
:101D7800136011712C4A3921136011712B4A3A21D1
:101D8800136011712A4A3B2113601171294A3C21C1
:101D980013601171284A442113601171274A4521A3
:101DA80013601171264A462113601171254A0121D9
:101DB800C2E90033C2E9023313615161224A116852
:101DC80063F300011160214951609360136843F087
:101DD80004031360136843F002031360136843F0AD
:101DE8000103136008BD00BF1C030020A4040020E9
:101DF800AC040020B4040020BC040020C40400206B
:101E0800CC040020240400202C04002034040020EA
:101E18003C040020440400204C040020540400200A
:101E28005C040020640400206C040020740400207A
:101E38007C040020840400208C04002094040020EA
:101E48009C040020D404002010E000E03F90020031
:101E5800DFF834D0002103E00C4B5B5843500431C9
:101E68000B480C4B42189A42F6D30B4A02E0002367
:101E780042F8043B094B9A42F9D3FEF761FE00F0A1
:101E880023F8FFF7E3FC704700000220A0210008B8
:101E9800000000200400002004000020EC040020C2
:101EA800FEE70B460146184600F000B810B5054C91
:101EB80013462CB10A4601460220AFF3008010BD3C
:101EC8002046FCE70000000070B50D4E0D4CA41B29
:101ED800A4100025A54209D10B4E0C4C00F020F8A7
:101EE800A41BA4100025A54205D170BD56F82530C5
:101EF80098470135EEE756F8253098470135F2E75F
:101F08009421000894210008942100089C210008CD
:101F180002440346934200D1704703F8011BF9E7D6
:101F2800F8B500BFF8BC08BC9E467047F8B500BFBE
:081F3800F8BC08BC9E4670478E
:101F40000000000000000000E101000800000000A7
:101F500000000000BD0A00080000000000000000B2
:101F6000990200080000000000000000150B0008A6
:101F700000000000000000006112000800000000E6
:101F8000000000000902000800C1814001C080413A
:101F900001C0804100C1814001C0804100C1814039
:101FA00000C1814001C0804101C0804100C1814029
:101FB00000C1814001C0804100C1814001C0804119
:101FC00001C0804100C1814001C0804100C1814009
:101FD00000C1814001C0804100C1814001C08041F9
:101FE00001C0804100C1814000C1814001C08041E9
:101FF00001C0804100C1814001C0804100C18140D9
:1020000000C1814001C0804101C0804100C18140C8
:1020100000C1814001C0804100C1814001C08041B8
:1020200001C0804100C1814000C1814001C08041A8
:1020300001C0804100C1814001C0804100C1814098
:1020400000C1814001C0804100C1814001C0804188
:1020500001C0804100C1814001C0804100C1814078
:1020600000C1814001C0804101C0804100C1814068
:1020700000C1814001C0804100C1814001C0804158
:1020800001C0804100C1814000C0C101C30302C240
:10209000C60607C705C5C404CC0C0DCD0FCFCE0EA8
:1020A0000ACACB0BC90908C8D81819D91BDBDA1A18
:1020B0001EDEDF1FDD1D1CDC14D4D515D71716D688
:1020C000D21213D311D1D010F03031F133F3F232F8
:1020D00036F6F737F53534F43CFCFD3DFF3F3EFE68
:1020E000FA3A3BFB39F9F83828E8E929EB2B2AEAD8
:1020F000EE2E2FEF2DEDEC2CE42425E527E7E62648
:1021000022E2E323E12120E0A06061A163A3A262B7
:1021100066A6A767A56564A46CACAD6DAF6F6EAE27
:10212000AA6A6BAB69A9A86878B8B979BB7B7ABA97
:10213000BE7E7FBF7DBDBC7CB47475B577B7B67607
:1021400072B2B373B17170B0509091519353529277
:1021500096565797559594549C5C5D9D5F9F9E5EE7
:102160005A9A9B5B99595898884849894B8B8A4A57
:102170004E8E8F4F8D4D4C8C4484854587474686C7
:102180008242438341818040000000000000000043
:042190001102000830
:08219400AD010008F51C000874
:04219C0089010008AD
:0421A000000000003B
:0400000508001E5978
:00000001FF
