:020000040800F2
:1000000000000220F9690008496A0008496A0008EE
:10001000496A0008496A0008496A000800000000AF
:10002000000000000000000000000000496A000815
:10003000496A000800000000496A000851170008DA
:1000400051190008531900085519000857190008DC
:10005000591900085B1900085D1900085F190008AC
:10006000611900086319000865190008151A0008CD
:10007000311A00084D1A0008691A0008851A00088C
:10008000A11A0008BD1A00086719000869190008BC
:100090006B1900086D1900086F1900087119000824
:1000A000A5190008A7190008A9190008AB1900082C
:1000B000AD190008AF190008B1190008731900083C
:1000C000751900087719000879190008D51B000870
:1000D000E11B0008C1190008DD190008F919000822
:1000E0007B1900087D1900087F190008B91900085C
:1000F000BB190008BD190008BF190008D91A00086B
:100100008119000883190008B3190008ED1B0008C5
:100110008519000887190008B5190008B7190008E3
:10012000F51A0008111B00082D1B0008491B0008C8
:10013000651B00080000000000000000891900088D
:100140008B1900088D1900088F19000891190008F3
:10015000811B00089D1B0008B91B000893190008AB
:100160009519000897190008991900089B190008AB
:100170009D1900089F190008000000000000000001
:08018000A1190008A3190008F1
:1001900010B5054C237833B9044B13B10448AFF3C1
:1001A00000800123237010BD6800002000000000C3
:1001B000B473000808B5034B1BB103490348AFF300
:1001C000008008BD000000006C000020B47300082F
:1001D000034613F8012B002AFBD1181A0138704787
:1001E00001F0FF01102A2BDB10F0070F08D010F8E8
:1001F000013B013A8B422DD010F0070F42B3F6D1EC
:10020000F0B441EA012141EA014122F007047FF004
:1002100000070023F0E80256083C85EA010586EA5B
:10022000010685FA47F5A3FA87F586FA47F6A5FA97
:1002300087F68EB9EED1F0BC01F0FF0102F00702A3
:1002400032B110F8013B013A83EA010313B1F8D14E
:100250000020704701387047002D06BF354603382F
:10026000073815F0010F07D1013015F4807F02BF68
:10027000013015F4C03F0130F0BC0138704700BFB9
:1002800081F0004102E000BF83F0004330B54FEA47
:1002900041044FEA430594EA050F08BF90EA020FB4
:1002A0001FBF54EA000C55EA020C7FEA645C7FEA47
:1002B000655C00F0E2804FEA5454D4EB5555B8BF6A
:1002C0006D420CDD2C4480EA020281EA030382EADB
:1002D000000083EA010180EA020281EA0303362D6D
:1002E00088BF30BD11F0004F4FEA01314FF4801C40
:1002F0004CEA113102D0404261EB410113F0004F52
:100300004FEA03334CEA133302D0524263EB430308
:1003100094EA050F00F0A780A4F10104D5F1200EA6
:100320000DDB02FA0EFC22FA05F2801841F1000101
:1003300003FA0EF2801843FA05F359410EE0A5F1D5
:1003400020050EF1200E012A03FA0EFC28BF4CF006
:10035000020C43FA05F3C01851EBE37101F00045BC
:1003600007D54FF0000EDCF1000C7EEB00006EEBC9
:100370000101B1F5801F1BD3B1F5001F0CD3490853
:100380005FEA30004FEA3C0C04F101044FEA4452AA
:1003900012F5800F80F09A80BCF1004F08BF5FEA31
:1003A000500C50F1000041EB045141EA050130BD11
:1003B0005FEA4C0C404141EB010111F4801FA4F1B4
:1003C0000104E9D191F0000F04BF01460020B1FA09
:1003D00081F308BF2033A3F10B03B3F120020CDA41
:1003E0000C3208DD02F1140CC2F10C0201FA0CF01F
:1003F00021FA02F10CE002F11402D8BFC2F1200C84
:1004000001FA02F120FA0CFCDCBF41EA0C01904039
:10041000E41AA2BF01EB0451294330BD6FEA040482
:100420001F3C1CDA0C340EDC04F11404C4F120026D
:1004300020FA04F001FA02F340EA030021FA04F37F
:1004400045EA030130BDC4F10C04C4F1200220FAD6
:1004500002F001FA04F340EA0300294630BD21FA14
:1004600004F0294630BD94F0000F83F4801306BFDA
:1004700081F480110134013D4EE77FEA645C18BFCE
:100480007FEA655C29D094EA050F08BF90EA020F65
:1004900005D054EA000C04BF1946104630BD91EA5D
:1004A000030F1EBF0021002030BD5FEA545C05D160
:1004B0004000494128BF41F0004130BD14F580049F
:1004C0003CBF01F5801130BD01F0004545F0FE4113
:1004D00041F470014FF0000030BD7FEA645C1ABF48
:1004E000194610467FEA655C1CBF0B46024650EA7F
:1004F000013406BF52EA033591EA030F41F40021AB
:1005000030BD00BF90F0000F04BF0021704730B530
:100510004FF4806404F132044FF000054FF0000105
:1005200050E700BF90F0000F04BF0021704730B5C6
:100530004FF4806404F1320410F0004548BF40429B
:100540004FF000013EE700BF42004FEAE2014FEAF0
:1005500031014FEA02701FBF12F07F4393F07F4FCB
:1005600081F06051704732F07F4208BF704793F0CE
:100570007F4F04BF41F40021704730B54FF46074E1
:1005800001F0004521F000411CE700BF50EA0102E4
:1005900008BF704730B54FF000050AE050EA01028D
:1005A00008BF704730B511F0004502D5404261EBFD
:1005B00041014FF4806404F132045FEA915C3FF43E
:1005C000D8AE4FF003025FEADC0C18BF03325FEADB
:1005D000DC0C18BF033202EBDC02C2F1200300FA8C
:1005E00003FC20FA02F001FA03FE40EA0E0021FAB1
:1005F00002F11444BDE600BF70B54FF0FF0C4CF49F
:10060000E06C1CEA11541DBF1CEA135594EA0C0F50
:1006100095EA0C0F00F0DEF82C4481EA030621EA8B
:100620004C5123EA4C5350EA013518BF52EA0335C6
:1006300041F4801143F4801338D0A0FB02CE4FF078
:100640000005E1FB02E506F00042E0FB03E54FF0A8
:100650000006E1FB03569CF0000F18BF4EF0010EA0
:10066000A4F1FF04B6F5007F64F5407404D25FEA9C
:100670004E0E6D4146EB060642EAC62141EA55514F
:100680004FEAC52040EA5E504FEACE2EB4F1FD0C91
:1006900088BFBCF5E06F1ED8BEF1004F08BF5FEA0F
:1006A000500E50F1000041EB045170BD06F00046C1
:1006B00046EA010140EA020081EA0301B4EB5C046E
:1006C000C2BFD4EB0C0541EA045170BD41F4801166
:1006D0004FF0000E013C00F3AB8014F1360FDEBF8B
:1006E000002001F0004170BDC4F10004203C35DA67
:1006F0000C341BDC04F11404C4F1200500FA05F3EA
:1007000020FA04F001FA05F240EA020001F000428A
:1007100021F0004110EBD37021FA04F642EB060100
:100720005EEA430E08BF20EAD37070BDC4F10C042A
:10073000C4F1200500FA04F320FA05F001FA04F2EE
:1007400040EA020001F0004110EBD37041F10001DA
:100750005EEA430E08BF20EAD37070BDC4F12005E5
:1007600000FA05F24EEA020E20FA04F301FA05F24D
:1007700043EA020321FA04F001F0004121FA04F2F5
:1007800020EA020000EBD3705EEA430E08BF20EAC5
:10079000D37070BD94F0000F0FD101F000464000FF
:1007A00041EB010111F4801F08BF013CF7D041EA81
:1007B000060195F0000F18BF704703F00046520085
:1007C00043EB030313F4801F08BF013DF7D043EA56
:1007D0000603704794EA0C0F0CEA135518BF95EA0C
:1007E0000C0F0CD050EA410618BF52EA4306D1D193
:1007F00081EA030101F000414FF0000070BD50EAB2
:10080000410606BF1046194652EA430619D094EA3B
:100810000C0F02D150EA013613D195EA0C0F05D125
:1008200052EA03361CBF104619460AD181EA030179
:1008300001F0004141F0FE4141F470014FF0000031
:1008400070BD41F0FE4141F4780170BD70B54FF0CC
:10085000FF0C4CF4E06C1CEA11541DBF1CEA13554C
:1008600094EA0C0F95EA0C0F00F0A7F8A4EB05042E
:1008700081EA030E52EA03354FEA013100F0888025
:100880004FEA03334FF0805545EA131343EA1263EE
:100890004FEA022245EA111545EA10654FEA0026A3
:1008A0000EF000419D4208BF964244F1FD0404F55C
:1008B000407402D25B084FEA3202B61A65EB0305B8
:1008C0005B084FEA32024FF480104FF4002CB6EB75
:1008D000020E75EB030E22BFB61A754640EA0C00F5
:1008E0005B084FEA3202B6EB020E75EB030E22BF35
:1008F000B61A754640EA5C005B084FEA3202B6EB76
:10090000020E75EB030E22BFB61A754640EA9C0034
:100910005B084FEA3202B6EB020E75EB030E22BF04
:10092000B61A754640EADC0055EA060E18D04FEAC2
:10093000051545EA16754FEA06164FEAC30343EA62
:1009400052734FEAC2025FEA1C1CC0D111F4801F2F
:100950000BD141EA00014FF000004FF0004CB6E728
:1009600011F4801F04BF01430020B4F1FD0C88BFC7
:10097000BCF5E06F3FF6AFAEB5EB030C04BFB6EBD2
:10098000020C5FEA500C50F1000041EB045170BDC5
:100990000EF0004E4EEA113114EB5C04C2BFD4EBF2
:1009A0000C0541EA045170BD41F480114FF0000E76
:1009B000013C90E645EA060E8DE60CEA135594EAF2
:1009C0000C0F08BF95EA0C0F3FF43BAF94EA0C0FF5
:1009D0000AD150EA01347FF434AF95EA0C0F7FF46A
:1009E00025AF104619462CE795EA0C0F06D152EABE
:1009F00003353FF4FDAE1046194622E750EA4106A2
:100A000018BF52EA43067FF4C5AE50EA41047FF4B2
:100A10000DAF52EA43057FF4EBAE12E74A0011D264
:100A200012F5001211D20DD56FF47873B3EB625248
:100A30000ED44FEAC12343F0004343EA505323FA54
:100A400002F070474FF00000704750EA013002D1C9
:100A50004FF0FF3070474FF000007047420901230C
:100A600000F01F0003FA00F0014B43F8220070472A
:100A700000E100E043690133436170477047036858
:100A8000D3F89420137883F0010313707047012A80
:100A900003D0022A03D0002070470160FBE70B68F7
:100AA0000360F8E77047012A03D0022A03D0002030
:100AB00070470160FBE70B680360F8E77047012AA5
:100AC00003D0022A03D0002070470160FBE70B68C7
:100AD0000360F8E7012A03D0022A03D00020704700
:100AE0000160FBE70B680360F8E77047012A03D059
:100AF000022A03D0002070470160FBE70B68036007
:100B0000F8E77047012A03D0022A03D0002070477B
:100B10000160FBE70B680360F8E7012A03D0022AB3
:100B200003D0002070470160FBE70B680360F8E723
:100B3000012A03D0022A03D0002070470160FBE79E
:100B40000B680360F8E7012A03D0022A03D00020D3
:100B500070470160FBE70B680360F8E7012A03D0E8
:100B6000022A03D0002070470160FBE70B68036096
:100B7000F8E7012A03D0022A03D000207047016061
:100B8000FBE70B680360F8E7012A03D0022A03D0D1
:100B9000002070470160FBE70B680360F8E7012A5B
:100BA00003D0022A03D0002070470160FBE70B68E6
:100BB0000360F8E7012A03D0022A03D0002070471F
:100BC0000160FBE70B680360F8E7012A03D0022A03
:100BD00003D0002070470160FBE70B680360F8E773
:100BE000012A03D0022A03D0002070470160FBE7EE
:100BF0000B680360F8E7012A03D0022A03D0002023
:100C000070470160FBE70B680360F8E7012A03D037
:100C1000022A03D0002070470160FBE70B680360E5
:100C2000F8E7012A03D0022A03D0002070470160B0
:100C3000FBE70B680360F8E7012A03D0022A03D020
:100C4000002070470160FBE70B680360F8E7012AAA
:100C500003D0022A03D0002070470160FBE70B6835
:100C60000360F8E7012A03D0022A03D0002070476E
:100C70000160FBE70B680360F8E7012A03D0022A52
:100C800003D0002070470160FBE70B680360F8E7C2
:100C9000012A03D0022A03D0002070470160FBE73D
:100CA0000B680360F8E7012A03D0022A03D0002072
:100CB00070470160FBE70B680360F8E7012A03D087
:100CC000022A03D0002070470160FBE70B68036035
:100CD000F8E7012A03D0022A03D000207047016000
:100CE000FBE70B680360F8E7012A03D0022A03D070
:100CF000002070470160FBE70B680360F8E7012AFA
:100D000003D0022A03D0002070470160FBE70B6884
:100D10000360F8E7012A03D0022A03D000207047BD
:100D20000160FBE70B680360F8E7012A03D0022AA1
:100D300003D0002070470160FBE70B680360F8E711
:100D4000012A03D0022A03D0002070470160FBE78C
:100D50000B680360F8E7012A03D0022A03D00020C1
:100D600070470160FBE70B680360F8E7012A03D0D6
:100D7000022A03D0002070470160FBE70B68036084
:100D8000F8E7012A03D0022A03D00020704701604F
:100D9000FBE70B680360F8E7012A03D0022A03D0BF
:100DA000002070470160FBE70B680360F8E7012A49
:100DB00003D0022A03D0002070470160FBE70B68D4
:100DC0000360F8E7012A03D0022A03D0002070470D
:100DD0000160FBE70B680360F8E7012A03D0022AF1
:100DE00003D0002070470160FBE70B680360F8E761
:100DF000012A03D0022A03D0002070470160FBE7DC
:100E00000B680360F8E7012A03D0022A03D0002010
:100E100070470160FBE70B680360F8E7012A03D025
:100E2000022A03D0002070470160FBE70B680360D3
:100E3000F8E7012A03D0022A03D00020704701609E
:100E4000FBE70B680360F8E7012A03D0022A03D00E
:100E5000002070470160FBE70B680360F8E7012A98
:100E600003D0022A03D0002070470160FBE70B6823
:100E70000360F8E7012A03D0022A03D0002070475C
:100E80000160FBE70B680360F8E7012A03D0022A40
:100E900003D0002070470160FBE70B680360F8E7B0
:100EA000012A03D0022A03D0002070470160FBE72B
:100EB0000B680360F8E77047012A08BF0160002053
:100EC0007047012A08BF016000207047012A03D043
:100ED000022A03D0002070470160FBE70B68036023
:100EE000F8E7012A08BF016000207047012A08BF07
:100EF000016000207047C3690133C36170477047C8
:100F0000704770477047704770477047012A03D099
:100F1000022A03D0002070470160FBE70B680360E2
:100F2000F8E7012A03D0022A03D0002070470160AD
:100F3000FBE70B680360F8E7012A03D0022A03D01D
:100F4000002070470160FBE70B680360F8E7012AA7
:100F500003D0022A03D0002070470160FBE70B6832
:100F60000360F8E7012A03D0022A03D0002070476B
:100F70000160FBE70B680360F8E7012A03D0022A4F
:100F800003D0002070470160FBE70B680360F8E7BF
:100F9000012A03D0022A03D0002070470160FBE73A
:100FA0000B680360F8E7012A03D0022A03D000206F
:100FB00070470160FBE70B680360F8E7012A03D084
:100FC000022A03D0002070470160FBE70B68036032
:100FD000F8E7012A03D0022A03D0002070470160FD
:100FE000FBE70B680360F8E7012A03D0022A03D06D
:100FF000002070470160FBE70B680360F8E7012AF7
:1010000003D0022A03D0002070470160FBE70B6881
:101010000360F8E7012A03D0022A03D000207047BA
:101020000160FBE70B680360F8E7012A03D0022A9E
:1010300003D0002070470160FBE70B680360F8E70E
:10104000012A03D0022A03D0002070470160FBE789
:101050000B680360F8E7012A03D0022A03D00020BE
:1010600070470160FBE70B680360F8E7012A03D0D3
:10107000022A03D0002070470160FBE70B68036081
:10108000F8E7012A03D0022A03D00020704701604C
:10109000FBE70B680360F8E7012A03D0022A03D0BC
:1010A000002070470160FBE70B680360F8E7012A46
:1010B00003D0022A03D0002070470160FBE70B68D1
:1010C0000360F8E7012A03D0022A03D0002070470A
:1010D0000160FBE70B680360F8E7012A03D0022AEE
:1010E00003D0002070470160FBE70B680360F8E75E
:1010F000012A03D0022A03D0002070470160FBE7D9
:101100000B680360F8E7012A03D0022A03D000200D
:1011100070470160FBE70B680360F8E7012A03D022
:10112000022A03D0002070470160FBE70B680360D0
:10113000F8E7012A03D0022A03D00020704701609B
:10114000FBE70B680360F8E7012A03D0022A03D00B
:10115000002070470160FBE70B680360F8E7012A95
:1011600003D0022A03D0002070470160FBE70B6820
:101170000360F8E7012A03D0022A03D00020704759
:101180000160FBE70B680360F8E7012A03D0022A3D
:1011900003D0002070470160FBE70B680360F8E7AD
:1011A000012A03D0022A03D0002070470160FBE728
:1011B0000B680360F8E7012A03D0022A03D000205D
:1011C00070470160FBE70B680360F8E7012A03D072
:1011D000022A03D0002070470160FBE70B68036020
:1011E000F8E7012A03D0022A03D0002070470160EB
:1011F000FBE70B680360F8E7012A03D0022A03D05B
:10120000002070470160FBE70B680360F8E7012AE4
:1012100003D0022A03D0002070470160FBE70B686F
:101220000360F8E770B50546006803680C469B68E4
:10123000984723682C6020461B68BDE8704018471B
:10124000006800F5C4718830FFF7ECBF006800F15A
:10125000F0018830FFF7E6BF006800F520718830A4
:10126000FFF7E0BF0168CB6F5B7D01F188001BB128
:1012700001F59461FFF7D6BF01F57C71FAE70068CC
:1012800000F553718830FFF7CDBF006800F6B42138
:101290008830FFF7C7BF006800F6EC118830FFF711
:1012A000C1BF006800F5C4718830FFF7BBBF00689C
:1012B00000F2FC518830FFF7B5BF006800F2A4616E
:1012C0008830FFF7AFBF006800F5E9618830FFF7AD
:1012D000A9BF006800F5C4718830FFF7A3BF00689C
:1012E00090F84833C26F003318BF012300F5C47172
:1012F00013758830FFF796BF006800F5C471883019
:10130000FFF790BF006800F254518830FFF78ABFA2
:101310000068C36F012200F1F0015A758830FFF7B1
:1013200081BF006800F5C4718830FFF77BBF00689B
:1013300000F254518830FFF775BF0068C36F002278
:1013400000F1F0015A758830FFF76CBF0168CB6F70
:101350005B7D01F188001BB101F59461FFF762BF6D
:1013600001F57C71FAE7016891F85035CA6F0033D6
:1013700018BF0123D374CB6F5B7D01F188001BB1D3
:1013800001F59461FFF74EBF01F57C71FAE7006843
:1013900000F520718830FFF745BF0068C36F90F8F3
:1013A000F8251A7400F520718830FFF73BBF0068FC
:1013B00000F520718830FFF735BF0068C36FB0F8C3
:1013C000A0261A8100F520718830FFF72BBF006836
:1013D00000F5C4718830FFF725BF006800F5016192
:1013E0008830FFF71FBF006800F50A618830FFF7FB
:1013F00019BF006800F648118830FFF713BF006876
:1014000000F5E9618830FFF70DBF006800F5E9617C
:101410008830FFF707BF0068C36F90F89C285A74A4
:1014200000F5E9618830FFF7FDBE006800F5E9616D
:101430008830FFF7F7BE0068C36F90F844299A74AC
:1014400000F5E9618830FFF7EDBE006800F5C47172
:101450008830FFF7E7BE006800F5C4718830FFF7F9
:10146000E1BE0B1A9B10002B10DD027812B34278FC
:101470000AB90130704782780AB902307047C278E1
:101480000AB9033070470430013BECE70B1A022B1A
:101490000BD0032B06D0012B0BD10378002B18BFE8
:1014A0000846704703782BB10130037813B101303F
:1014B000F3E7084670470B1A9B10002B10DD0278EB
:1014C00012BB42780AB10130704782780AB102300B
:1014D0007047C2780AB1033070470430013BECE733
:1014E0000B1A022B0BD0032B06D0012B0BD1037848
:1014F000002B08BF0846704703782BB901300378EA
:1015000013B90130F3E708467047FFF7A7BA03683D
:1015100013B90160704713465A68002AFBD159601D
:10152000704710B504462CB1236820461B689847C5
:101530006468F8E710BD0000A8235943037A43B15B
:101540000F4B9B680360994224BFCB1A4360002372
:10155000037203680A4A994207D892689B1A994213
:101560000CD8012303720020704791688B4205D884
:10157000536892689B1A42689342F2D201207047E6
:1015800010E000E0D0F88C203221531CC0F88C30E1
:10159000B2FBF1F301FB132323B9D0F888000368F1
:1015A0005B681847704770470A1A02D0202105F07F
:1015B000A6BA7047704770470369002BBFBF034B43
:1015C000436003F188334360704700BF23016745E0
:1015D000D0E9002101238B4093617047D0E90012CC
:1015E0000123103293408B617047036810B50446A5
:1015F0009869FFF7F3FFC8216068FFF79DFF002897
:10160000F9D123689869FFF7E3FFC8216068FFF705
:1016100093FF0028F9D110BD38B503680446186956
:101620000D46FFF7DBFF23686068DA699B6A53F8B1
:1016300035309361FFF7D9FF23686068996ADA69EA
:1016400001EBC5014B689361FFF7CFFF6421A068F0
:10165000FFF772FF0028F9D138BD0000437B012B52
:1016600010B5044622D002D3022B2AD010BD406907
:10167000FFF7B4FF2069FFF7ABFF626B206A531CD2
:1016800050216363B2FBF1F301FB1323114A52F8BB
:101690002330C25C636A03EBC20053F83210E26984
:1016A00043689161E36201236373DFE78069FFF7B9
:1016B0008FFFA069FFF792FFE369E26A9A61022354
:1016C000F2E78069FFF784FFA069FFF787FF002337
:1016D000EAE700BF4C750008036841681A690123F6
:1016E0008B40134214BF01200020704710B50468DE
:1016F0002CB1236820461B689847A468F8E710BD02
:1017000010B58368044613B103220146984720466A
:1017100010BD000010B5044B044640F8303BFFF705
:10172000EFFF204610BD00BF5C8A000810B50446DC
:101730000830FFF7DBFFD4E90421531C2361B2FB1F
:10174000F1F301FB132313B92046FFF7CFFF10BDC0
:101750000148FFF7EBBF00BFEC05002042690369B9
:101760009A424FF0000326BF43610120184670479C
:10177000037BC3B100230373D0E901236AB143B1F2
:10178000936083685A600023C0E9013370470B609F
:10179000F8E7054993604A60F5E70349002BF6D165
:1017A000C1E90033EFE77047EC05002000224261F9
:1017B000FFF7DEBF037B53B901230373044B5A6861
:1017C000426002B190601A68586002B918607047B0
:1017D000EC05002080680269D2F818311B68DB062E
:1017E00011D5D2F820315B6800219BB2C2F80011FC
:1017F000C3F1FF01FF2928BFFF21FF2BC2F804110D
:1018000001D0FFF7D7BF70470A2A10B501D00F2AC1
:1018100015D1204B9A68C2F34232D2B1042A1AD0B1
:10182000052A1AD01C4B1D4C062A08BF234607293F
:101830001AD8DFE801F0141A1D202326292C0B3AB0
:10184000032A04D8134B9A68C2F38222E5E70023E7
:10185000EDE7134BEBE7134BE9E7134BE7E74FF4E7
:101860001652B3FBF2F3836010BD4FF46152F8E7F8
:101870004FF49642F5E74FF4E142F2E74FF4164297
:10188000EFE74FF46142ECE74FF49632E9E74FF4AB
:10189000E132E6E700380240A037A000406F400187
:1018A000007A030A00BD010580DE800219B90068D4
:1018B000C0F340107047012903D10068C0F3C02075
:1018C0007047022903D10068C0F3405070470329D4
:1018D00003D10068C0F3C0607047042901D140689B
:1018E000E6E7052901D14068E8E7062901D140680B
:1018F000EAE7072901D14068ECE700207047012999
:1019000003D1006A00F001007047022903D1006A88
:10191000C0F300107047032903D1006AC0F3002010
:101920007047042906BF006AC0F3003000207047EA
:10193000012901D142637047022901D182637047B6
:10194000032901D1C2637047042908BF02647047AC
:10195000FEE7FEE7FEE7FEE7FEE7FEE7FEE7FEE75F
:10196000FEE7FEE7FEE7FEE7FEE7FEE7FEE7FEE74F
:10197000FEE7FEE7FEE7FEE7FEE7FEE7FEE7FEE73F
:10198000FEE7FEE7FEE7FEE7FEE7FEE7FEE7FEE72F
:10199000FEE7FEE7FEE7FEE7FEE7FEE7FEE7FEE71F
:1019A000FEE7FEE7FEE7FEE7FEE7FEE7FEE7FEE70F
:1019B000FEE7FEE7FEE7FEE7FEE7FEE7FEE7FEE7FF
:1019C00008B5044B1868FFF7ACFD034B1A685B6859
:1019D00008BD00BFCC0500200010014008B5044B35
:1019E0001868FFF79EFD034B1A685B6808BD00BFCF
:1019F000D40500200044004008B5044B1868FFF7E8
:101A000090FD034B1A685B6808BD00BFDC05002031
:101A10000048004008B5044B1868FFF782FD034BEF
:101A20003D229A6008BD00BF3405002000600240DE
:101A300008B5044B1868FFF774FD034B4FF474624C
:101A40009A6008BD3C0500200060024008B5044BC8
:101A50001868FFF766FD034B4FF474129A6008BDD7
:101A6000440500200060024008B5044B1868FFF7E9
:101A700058FD034B4FF074629A6008BD4C0500207E
:101A80000060024008B5044B1868FFF74AFD034B9D
:101A90004FF47462DA6008BD540500200060024013
:101AA00008B5044B1868FFF73CFD034B4FF4746214
:101AB000DA6008BD5C0500200060024008B5044BF8
:101AC0001868FFF72EFD034B4FF47412DA6008BD5F
:101AD000640500200060024008B5044B1868FFF759
:101AE00020FD034B4FF07462DA6008BD6C050020E6
:101AF0000060024008B5044B1868FFF712FD034B65
:101B00003D229A6008BD00BF7405002000640240B9
:101B100008B5044B1868FFF704FD034B4FF47462DB
:101B20009A6008BD7C0500200064024008B5044BA3
:101B30001868FFF7F6FC034B4FF474129A6008BD67
:101B4000840500200064024008B5044B1868FFF7C4
:101B5000E8FC034B4FF074629A6008BD8C050020CE
:101B60000064024008B5044B1868FFF7DAFC034B29
:101B70003D22DA6008BD00BF9405002000640240E9
:101B800008B5044B1868FFF7CCFC034B4FF47462A4
:101B9000DA6008BD9C0500200064024008B5044BD3
:101BA0001868FFF7BEFC034B4FF47412DA6008BDEF
:101BB000A40500200064024008B5044B1868FFF734
:101BC000B0FC034B4FF07462DA6008BDAC05002036
:101BD00000640240014B1868FFF7A3BCB405002065
:101BE000014B1868FFF79DBCBC050020014B18682D
:101BF000FFF797BCC4050020026810B5541C0244CE
:101C00000460517204685021B4FBF1F201FB1242EE
:101C1000026010BD10B504681421B4FBF1F201FBA1
:101C20001242034612B92021FFF7E6FF1424196877
:101C3000B1FBF4F204FB121222B120211846FFF787
:101C4000DBFFF4E7184610BD08B503461A6822B159
:101C500020211846FFF7D0FFF8E7184608BD38B531
:101C600005460C46084609B1FEF7B2FAC5E900047C
:101C7000284638BD10B514240368B3FBF4F304FB05
:101C800003115024B1FBF4F304FB1311016010BDE8
:101C900038B50468D4F8AC30F3B1013BC4F8AC30CB
:101CA000D4F8A830606814256B4303600F21FFF758
:101CB000E1FF2021FFF7A0FFD4F8A8306068013BC6
:101CC0005D43C4F8A8300F210560FFF7D3FF7E21E4
:101CD000BDE83840FFF790BF38BD38B50468D4F888
:101CE000AC30012B1ED00133C4F8AC30D4F8A8308E
:101CF000606814256B4303600F21FFF7BBFF2021B1
:101D0000FFF77AFFD4F8A830606801335D43C4F868
:101D1000A8300F210560FFF7ADFF7E21BDE83840F8
:101D2000FFF76ABF38BD437A70B5054600F10C066F
:101D30002BB100234372C1613046FFF73BFD3046B3
:101D4000FFF70CFD012428B13046FFF72FFD6C7220
:101D5000002070BD2046FCE770B58EB005AD0023B5
:101D6000CDE901500C93CDE90533CDE909330B934F
:101D7000394E0D930123044608968DF81D308DF8D9
:101D80001C300090CDF80CD0049564212846FFF754
:101D9000CAFF0028F9D12069FFF720FC6069FFF72E
:101DA0001DFCA069FFF714FCA26AE369D2699A617D
:101DB0006846FFF71AFC05212846FFF7B4FF002804
:101DC000F9D1A26AE369D2699A616846FFF70DFC0E
:101DD00064212846FFF7B0FB0028F9D1A26AE36925
:101DE000D2699A616846FFF700FC32212846FFF766
:101DF000A3FB0028F9D1A26AE36952699A61684697
:101E0000FFF7F3FB32212846FFF796FB0028F9D1B4
:101E1000282102A8FFF700FC0C2102A8FFF7FCFB19
:101E2000062102A8FFF7F8FB012102A8FFF7F4FB47
:101E3000802102A8FFF7F0FB01212846FFF773FF7E
:101E40000028F9D10EA8012384F8303040F8186D2D
:101E5000FFF78EFC0EB070BDEC73000810B50446A1
:101E60005030FFF74DFC04F14000FFF749FC04F14E
:101E70003000FFF745FC04F12000FFF741FC04F1BE
:101E80001000FFF73DFC2046FFF73AFC204610BD4E
:101E900003888B421AD040F60223994216D901805A
:101EA0000B4BB3FBF1F143680139D8691A68490853
:101EB0001981D16201891A8B4FF47A734A43817A6E
:101EC00092FBF3F2006892B2FFF732BD704700BF99
:101ED000007A030A08B50388194489B2FFF7D8FFCE
:101EE00008BD02888A4210B50B460FD04468E289CB
:101EF0008A420BD3228901804A4320684FF47A71C9
:101F000092FBF1F2A17A92B2FFF712FD184610BDD2
:101F100010B504468068A3691B7D18309BB1B4F8E6
:101F20008210FFF7DEFF0423A2692370A068236AF2
:101F3000D17C9B68103059B192895A62596A89B232
:101F4000FFF7A6FF10BD6421FFF7CBFF0523EBE7EA
:101F5000D289F2E7817A0068FFF7D1BC21B9036921
:101F600062F3020303617047012903D1036962F33D
:101F7000C503F7E7022903D1036962F38813F1E788
:101F8000032903D1036962F34B23EBE7042903D14F
:101F9000036962F30E33E5E7052903D1036962F3B0
:101FA000D133DFE7062903D1036962F39443D9E70C
:101FB000072903D1036962F35753D3E7082903D1F3
:101FC000036962F31A63CDE7092903D1036962F358
:101FD000DD63C7E70A2904D1C36862F30203C36063
:101FE00070470B2903D1C36862F3C503F7E70C29D7
:101FF00003D1C36862F38813F1E70D2903D1C368E5
:1020000062F34B23EBE70E2903D1C36862F30E336F
:10201000E5E70F2903D1C36862F3D133DFE7102965
:1020200003D1C36862F39443D9E7112903D1C3688C
:1020300062F35753D3E71229D2D1C36862F31A630C
:10204000CDE7012904D1436B62F304034363704776
:10205000022903D1436B62F34913F7E7032903D144
:10206000436B62F38E23F1E7042903D1436B62F3E0
:10207000D333EBE7052903D1436B62F31853E5E74C
:10208000062903D1436B62F35D63DFE7072904D1BF
:10209000036B62F3040303637047082903D1036BE6
:1020A00062F34913F7E7092903D1036B62F38E2327
:1020B000F1E70A2903D1036B62F3D333EBE70B2972
:1020C00003D1036B62F31853E5E70C2903D1036BCB
:1020D00062F35D63DFE70D2904D1C36A62F3040391
:1020E000C36270470E2903D1C36A62F34913F7E74D
:1020F0000F2903D1C36A62F38E23F1E71029F0D1CF
:10210000C36A62F3D333EBE7436A1A6842F0010211
:102110001A601A68D107FCD5036A9A6842F0010276
:102120009A609A68D207FCD59A6842F080429A6019
:1021300070470000204B1A68052161F302021A6003
:10214000A3F580631A6842F480321A601A68920319
:10215000FCD59A686FF307129A609A68052161F3BB
:102160008C229A609A68042161F34F329A609A68CF
:10217000022060F301029A605A6861F305025A6016
:102180005A68A82161F38E125A605A68072161F3D8
:102190001B625A605A686FF311425A605A6842F4DF
:1021A00080025A601A6842F080721A60034A13680B
:1021B0009B01FCD5704700BF003C02400038024044
:1021C000754A7649F8B5136813F0010F70D1744B56
:1021D000744C186810F0010F06D1DFF8E0E1092017
:1021E000C4E900E0012018606F4B186B40F001005B
:1021F000186320680568022666F393450560456A02
:10220000072666F307154562684D286810F0010F30
:10221000674806D1DFF8A4C10A26C0E900C6012636
:102220002E601D6B45F001051D6303681D680226C5
:1022300066F315551D605D6A072666F30B255D6222
:102240005C4D2B6813F0010F5B4B05D15B4F0C26E7
:10225000C3E9007601262E60534E356B45F001052B
:1022600035631E683768012565F319673760C1F863
:102270001031534BC1F81431A3F5AA33C1F818310A
:1022800003F5AA33B833C1F81C31783BC1F82031CB
:102290000A230026C1F824310723C1F80061C1F8E0
:1022A0000461C1F80841C1F80C0181F828311560BA
:1022B0003D4C636C43F010036364D1F81831DA6865
:1022C00042F00802DA60DA6842F00402DA605A6921
:1022D00042F080025A615A6942F040025A61394B19
:1022E00093F90400FFF711F9236B43F48003236390
:1022F000D1F81C311A68012060F387121A60D1F8F6
:1023000000210A44DA60D1F8182104329A601A6870
:1023100042F480621A601A686FF34E321A601A68CB
:102320006FF3CC221A601A6842F010021A60264B32
:1023300093F90400FFF7E9F8D1F820311A686FF338
:1023400087121A60D1F800210A44DA60D1F8182106
:1023500004329A60FF225A601A6842F480621A605E
:102360001A686FF34E321A601A686FF3CC221A6043
:102370001A6842F480721A60D1F820311A68042079
:1023800060F35B621A60D1F81C311A6860F35B621B
:102390001A600248F8BD00BFBC020020C002002045
:1023A000040400200804002000380240F803002044
:1023B000FC030020EC030020F0030020000002409A
:1023C00000640240CC050020AC05002070B5294E09
:1023D000294B326812F0010F2DD128490A6812F0FA
:1023E000010F274A05D1274D0924C2E900540124D1
:1023F0000C60254C216B41F00401216311680C68CD
:10240000022565F393440C604C6A65F307144C6233
:102410001E49D881C3E900124FF6FF721A810422C7
:102420009A724FF480529A8100221A821A830122F2
:102430005B61DB613260144915480A6C42F00202AC
:102440000A641B68DA69062161F30E32DA61DA691F
:1024500042F40062DA611A6842F080021A601A6877
:1024600042F001021A6040F60321FFF711FD024815
:1024700070BD00BFEC010020F00100201002002020
:10248000140200200008024000380240000400400E
:10249000000200203349344A0B6813F0010F70B575
:1024A0003DD1324B324C186810F0010F05D1314D3F
:1024B0000620C4E90050012018602F4B186B40F033
:1024C0000400186320680568022666F30D35056070
:1024D000056A032666F31B650562284D286810F01F
:1024E000010F274806D1DFF88CC00726C0E900C6D7
:1024F00001262E601D6B45F004051D6303681D68F1
:10250000022666F38F351D601D6A032666F31F756C
:102510001D621C4B9360C2E9004001230B60164909
:1025200011484B6C43F002034B6493689A68032193
:1025300061F302029A609A69012161F301029A61D2
:102540009A6961F309229A611A6A42F002021A62D8
:102550001A6A6FF3C3021A6200225A621A680A43A7
:102560001A6070BDC4010020C8010020E0010020F5
:10257000E40100200008024000380240D40100209D
:10258000D80100200004014010B50C1A134605D0F4
:1025900001462246184604F099FA0346181910BD60
:1025A0002DE9F34702AB03E906000768037A00F15F
:1025B00009080646DDE9004508EB070263B3132C62
:1025C00022D8C4F1140902EB590910464946FEF716
:1025D000EBFF29194A462846FFF7D6FF09EB040A04
:1025E00007F1140141445046FEF7DEFF33685021E5
:1025F0001433B3FBF1F201FB123333600023304696
:10260000337202B0BDE8F087143C05EB540000F1D2
:102610001401FFF7B9FFE9E7C7F15001A14205EB4B
:10262000040907D949462846FFF7AEFF306804443D
:102630003460E3E729442846FFF7A6FF3368A4F196
:1026400050071F44E41B2C44502F2046424604F1FF
:10265000500404D92146FFF797FF503FF4E749465D
:10266000FFF792FF336850221F44B7FBF2F302FBDF
:1026700013773760C2E7000030B589B00A460446D8
:10268000114905A804F040FB05A901A8FFF7E7FAE6
:102690006368019A934208D99B1A13F1FF3304D35C
:1026A00020212046FFF7A8FAF7E703AD05A9284641
:1026B000FFF7D5FA95E806002046FFF771FF0023E3
:1026C0002046636009B030BDBE780008F8B5054605
:1026D0000F464FF47A7691FBF6F42146FFF7CCFFD4
:1026E0002E212846FFF788FA06FB14740A2394FB70
:1026F000F3F4092C08DC00212846FFF7BDFF214632
:10270000FFF7BAFF2846F8BD21462846F8E7000043
:10271000F7B50546406802260660D5F8803019886E
:10272000FFF7D4FF6C46074627492046FFF797FA84
:1027300094E806003846FFF733FF68680D23C0E9C8
:102740000036EB6F19880523B1FBF3F1FFF794FF17
:102750002521FFF751FAD5F888306E681A781423CE
:102760003360EAB119492046FFF779FA94E8060088
:102770003046FFF715FF68681E220223C0E90023D8
:10278000AB6F1988FFF778FF114905462046FFF720
:1027900066FA94E806002846FFF702FF03B0F0BD92
:1027A0000C492046FFF75BFA94E806003046FFF735
:1027B000F7FE686816230360D5F884301988FFF7A0
:1027C00085FF05490646CEE7A4780008A8780008EA
:1027D000B6780008B1780008B478000838B500234E
:1027E00083608B6804460D462BB102229847EB6844
:1027F000E360AB68A360204638BD38B50023836032
:102800008B6804460D462BB102229847EB68E360C3
:10281000AB68A360204638BD38B504460D46FFF7C7
:10282000DDFF05F1100104F11000FFF7D7FF05F1FE
:10283000200104F12000FFF7D1FF05F1300104F180
:102840003000FFF7CBFF05F1400104F14000FFF736
:10285000D4FF05F1500104F15000FFF7CEFF2046F0
:1028600038BD38B5002383608B6804460D462BB114
:1028700002229847EB68E360AB68A360204638BD4E
:10288000826810B50AB904F0E5F8C368BDE81040E5
:10289000184730B585B004460025694608300295D2
:1028A000FFF7EEFF6846FEF72BFF694604F11800BC
:1028B0000295FFF7E5FF6846FEF722FF694604F13F
:1028C00038000295FFF7DCFF6846FEF719FF05B0F8
:1028D00030BD30B585B00446002569460830029504
:1028E000FFF7CEFF6846FEF70BFF694604F11800BC
:1028F0000295FFF7C5FF6846FEF702FF694604F13F
:1029000038000295FFF7BCFF6846FEF7F9FE05B0F8
:1029100030BD30B585B004460025694608300295C3
:10292000FFF7AEFF6846FEF7EBFE694604F11800BC
:102930000295FFF7A5FF6846FEF7E2FE694604F13F
:1029400028000295FFF79CFF6846FEF7D9FE69460E
:1029500004F138000295FFF793FF6846FEF7D0FEBA
:1029600005B030BD30B585B0044600256946083055
:102970000295FFF785FF6846FEF7C2FE694604F13F
:1029800018000295FFF77CFF6846FEF7B9FE69461E
:1029900004F128000295FFF773FF6846FEF7B0FECA
:1029A000694604F138000295FFF76AFF6846FEF7B2
:1029B000A7FE05B030BD30B585B004460025694698
:1029C00008300295FFF75CFF6846FEF799FE6946FE
:1029D00004F118000295FFF753FF6846FEF790FEDA
:1029E000694604F128000295FFF74AFF6846FEF7A2
:1029F00087FE694604F138000295FFF741FF6846FB
:102A0000FEF77EFE05B030BD1FB5224B0090044698
:102A1000694603930830204B0293FFF731FF684665
:102A2000FEF76EFE1D4B039369461D4B029304F1A6
:102A300018000094FFF724FF6846FEF761FE194B6B
:102A400003936946184B029304F138000094FFF792
:102A500017FF6846FEF754FE60680023036004F128
:102A6000780393E80600FFF79BFDFFF7D3F8606853
:102A700014230360D4F888301988FFF7FDFD04F1B2
:102A8000800393E80600FFF78BFD6068FFF7DCF832
:102A900004B010BDEB0A0008ED0A0008030B0008A3
:102AA000050B0008272C00081B0B0008F0B585B0AB
:102AB0006C464B4B00900546214603932830494B0A
:102AC0000293FFF7DDFE2046FEF71AFE464B039306
:102AD0002146464B029305F108000095FFF7D0FE12
:102AE0002046FEF70DFE424B03932146414B0293D5
:102AF00005F118000095FFF7C3FE2046FEF700FE23
:102B00003D4B039321463D4B029305F13800009560
:102B1000FFF7B6FE2046FEF7F3FD6E68384F06F16C
:102B2000590106F10900FEF73FFD002333606E688E
:102B3000344933602046FFF792F894E806003046A7
:102B4000FFF72EFD6E6830490B2333602046FFF7F8
:102B500086F894E806003046FFF722FD6E682B49A0
:102B6000142333602046FFF77AF894E806003046D5
:102B7000FFF716FD68681E220223C0E90023AB6F31
:102B80001988FFF779FD224906462046FFF767F8C6
:102B900094E806003046FFF703FD6E682223336099
:102BA000D5F890301B78204657F82310FFF757F8D8
:102BB00094E806003046FFF7F3FC6E682323336089
:102BC000D5F88C301B78204657F82310FFF747F8CC
:102BD00094E806003046FFF7E3FC05B0F0BD00BF07
:102BE0007F0A00088F0A0008A50A0008A70A000843
:102BF000BD0A0008BF0A0008332C0008D50A0008E7
:102C00008C780008B8780008BB780008B178000814
:102C1000B6780008826810B50AB903F01BFFC368D4
:102C2000BDE81040184708B500686830FFF7F2FFAC
:102C300008BD08B500686830FFF7ECFF08BD70B547
:102C4000816800220B4613B19A605B68FBE7D0E90C
:102C5000042302EB43050B469542144609D026880F
:102C60009C6834449C605B680232002B08BF0B46B2
:102C7000F2E7836B13B13030FFF7CCFF70BD006813
:102C800008B5D0F89C30B0F8A0201A80D0F8843075
:102C90001BB17C30FFF7BEFF08BD6C30FAE708B50A
:102CA00000686C30FFF7B6FF08BD08B50368D3F8BD
:102CB0009C2093F8A03013700068D0F884301BB1CA
:102CC0007C30FFF7A7FF08BD6C30FAE708B5006855
:102CD0006C30FFF79FFF08BD08B50368D3F89C2050
:102CE00093F8A03013700068D0F884301BB17C30AA
:102CF000FFF790FF08BD6C30FAE708B500686C304C
:102D0000FFF788FF08BD08B50368D3F8AC001822A8
:102D100002FB00308030FFF77DFF08BD08B500687A
:102D20006830FFF777FF08BD08B50368D3F89C202B
:102D300093F8A03013700068D0F884301BB17C3059
:102D4000FFF768FF08BD6C30FAE708B500686C3023
:102D5000FFF760FF08BD08B50368D3F8C400182268
:102D600002FB00308030FFF755FF08BD08B5006852
:102D70006830FFF74FFF08BD08B50368D3F8F400CB
:102D8000182202FB00308030FFF744FF08BD08B571
:102D900000686830FFF73EFF08BD000038B5354DCC
:102DA000354C2B6813F001031DD1344A2260344A9C
:102DB000226202F5A2321032C4E90603626231488F
:102DC000636022222146C4E90233C4E90433A062CD
:102DD000E262A363FEF79BFB01232B4A2B492B6086
:102DE000204603F032FE2A4A536C43F48073536446
:102DF000236A59686FF319615960996841F00201BB
:102E00009960996841F480719960996841F4007102
:102E10009960596841F480715960116B41F48001E7
:102E2000116303F14C02636A9A601A686FF38712A8
:102E30001A601A68012161F34E321A601A6861F350
:102E4000CC221A601A6842F480621A601A6842F052
:102E500010021A601A6842F480721A601A686FF3DE
:102E60005B621A60A36A93F90400FEF74EFB024806
:102E700038BD00BF80010020840100205C8A00086A
:102E800000200140740500200000002015170008F4
:102E90000038024001461A4A0A6020324A60194A44
:102EA0000023C1E902330B744B74CB61CB62CB635B
:102EB000CB64CB65136813F0010F10B500F104006B
:102EC000114B06D1DFF848C00824C3E900C401242F
:102ED00014600E4C226B42F0010222631A681468DF
:102EE0006FF3114414604B6601220023C1E91A32CA
:102EF00081F8703081F87130FEF75CFC084610BD37
:102F0000AC740008740100207801002000380240F1
:102F10000000024038B504460025C0F80051C0F852
:102F20000451D0F81001FEF759FBD4F81C311A688F
:102F300065F300021A60D4F820311A6865F30002C4
:102F40001A60FF225A60D4F820311A6842F0010258
:102F50001A601A68D207FCD5D4F81821D36843F058
:102F60001003D36038BD08B583681A6992F8281138
:102F7000D2F81401FEF79AFC10B11869FFF7CAFFE6
:102F800008BD10B50468A14207D1516001B10A60C3
:102F90004368026003B9426010BD41B943681360E1
:102FA00003B15A604260002CF6D10260F4E70B686E
:102FB000C2E900310A6013685A60EDE730B5046871
:102FC000164B6CB1D3F8002154F8045D043A521B3F
:102FD0009D18AC421ABF012283F80421C3F80021D6
:102FE0004268114441600E4AD3F80051914294BFA7
:102FF00049004FF0FF312C1D0C44B4F5807F03EBEA
:103000000502C3F8004107D893F8044124B90AB176
:1030100059510432026030BD0022FBE72C0400202D
:10302000FCFFFF3F70B5304D304B2A6812F0010FA6
:1030300004461BD12E490A6812F0010F2D4A05D112
:103040002D4E0220C2E90060012008602B48016B70
:1030500041F0010101631068016841F03001016035
:103060000021C3E90011DA6001222A60E26A206AC5
:10307000223A022A34BF02250025EEB20722314649
:103080001D61FEF76BFFE169206A0131E1613246A3
:10309000FEF7D7FFD4E90732D16A013B63F317513A
:1030A000D162A16804F1080021B10B699D4201DBE6
:1030B0004968F9E70D4AFFF764FFA16904F11000C0
:1030C000FFF77CFF636A1A686FF300021A602269D7
:1030D000DA60A28A5A601A6842F001021A601A681D
:1030E000D207FCD5014870BD380100203C0100200A
:1030F000500100205401002000000240003802402E
:1031000070B5304D304B2A6812F0010F04461BD1C8
:103110002E48026812F0010108BF2D4E2D4A02BF51
:10312000C2E90061012101602B48016B41F00201FD
:1031300001631068016841F0030101600021C3E9E7
:103140000011DA6001222A60E26A206A223A022A29
:1031500034BF08250025EEB2072231461D61FEF777
:10316000FDFEE169206A0131E1613246FEF769FF47
:10317000D4E90732D16A013B63F31751D162A168E8
:1031800004F1080021B10B699D4201DB4968F9E7B0
:103190000D4AFFF7F6FEA16904F11000FFF70EFFDC
:1031A000636A1A686FF300021A602269DA60A28A01
:1031B0005A601A6842F001021A601A68D207FCD5F8
:1031C000014870BD14010020180100202C010020CE
:1031D00000040240300100200038024038B50023CE
:1031E00083608B6804460D462BB102229847EB683A
:1031F000E360AB68A360204638BD10B50B460446BB
:10320000D1E9000184E8030003F1080104F108009A
:10321000FFF727FB204610BD38B51D460D4B044671
:10322000C0E9003111460830FFF7F6FA294604F1EB
:103230006800FFF716FB049904F17800FFF7DDFF43
:10324000059904F19000FFF7D8FF0023C4E92A3361
:10325000204638BD5C740008F0B5FF23074F084EC8
:103260001D4611F8014B5C4091423B5D83EA05032A
:10327000355DF6D105704370F0BD00BF8C76000857
:103280008C770008D0F80031D0F804219A4283BF2F
:103290005A1CC0F80021C05C00207047D0F80431EF
:1032A000FE2B9FBFC154D0F804310133C0F8043164
:1032B000704738B50C46090A0546FFF7EFFFE1B243
:1032C000FFF7ECFF284638BD10B50446D0F81001D2
:1032D000FEF77EF9D4F81831DA686FF30412DA6079
:1032E000D4F820311A686FF300021A60D4F81C3148
:1032F0001A686FF300021A60D4F80431D4F8001190
:10330000D4F81C215B1A02339BB25360D4F81C31F1
:103310001A6842F001021A601A68D207FCD510BD83
:10332000036937B501294FF0000204460D46C3F882
:103330000021C3F804210ED190F824100069FFF792
:10334000ADFF94F8251041F08001FFF7A7FF294653
:10335000FFF7A4FF0BE00229006906D194F82410BE
:10336000FFF79CFF94F82510EFE70329F6D02369B7
:10337000D3F80421D3F800111A44194401A8FFF727
:103380006BFF9DF805102069FFF788FF9DF804107A
:10339000FFF784FF2069FFF797FF03B030BD70B5DA
:1033A000D0F80031D0F8042101339A4204460D468A
:1033B0000ED9FFF767FF06462046FFF763FF4FF081
:1033C000000360F3070366F30F232B80204670BDD4
:1033D0000023FAE738B504460D4600F126010069DE
:1033E000FFF7DDFF04F12A012069FFF7D8FF638DA5
:1033F000E08C1844013880B2A8424FEA430320858C
:1034000084F82C302CBF0020012038BD13B50C21CE
:103410000446FFF7DFFF28B902212046FFF780FFAF
:1034200002B010BD23690022C3F80021C3F80421B3
:1034300094F824102069FFF731FF0321FFF72EFFD6
:1034400094F82C10FFF72AFF638D20695A1E6285BD
:103450004BB1E38C5A1C04EB4303E284B3F85E10D7
:10346000FFF727FFF0E7D0F80421D0F8001102445D
:10347000014401A8FFF7F0FE9DF805102069FFF751
:103480000DFF9DF80410FFF709FF2069FFF71CFFEF
:10349000C6E70000000000002DE9F04F394BADF603
:1034A000C47D27AE03F1100732463C4618685968C0
:1034B000154603C50833BB422A46F7D118689B88D6
:1034C000AB80314B28605193304B559300224FF421
:1034D00080312F4B2F48619163918DF89521529245
:1034E00053928DF850215D92ADF878215F926093F0
:1034F000629064938DF894218DF896218DF898212F
:103500005696FF2151AB13440132162A1976F9D190
:103510000DF1B4090021484603F0F1FA5598FEF781
:103520004BF8559B1A694FF0010868F309221A619C
:103530001A6942F080721A6151AD00274FF6FF7B85
:103540000DF1CA0AD5E90F3103EB410199420FD0C1
:103550001A78152A09D80DF5A27C6244587810769D
:103560001A7809F802800233F0E71A885A45FAD12E
:103570006493E96B99420FD15D970835CFB9012764
:10358000E0E700BFCC730008688A0008003C0240F6
:1035900000000A08000008082A6C01EB420293426E
:1035A00001F06782514648465D97FDF75AFF824514
:1035B000E3D15D9A51AB03EBC201D1E90F306499BD
:1035C00003EB4003994206D15EAB012199540023DD
:1035D0005D93609B64930DF1CA0529464846FDF74B
:1035E00040FFA842074641F04A82569B57AA0DF574
:1035F000B67E9446BCE80300F44518605960624604
:1036000003F10803F5D1DCF800001860BCF80420D1
:103610009A8000238DF896319DF878318BB95D9BA7
:103620007BB1609A619B4FF6FF7002EB43018A42C7
:10363000134641F02B820B465B1A18BF01238DF80D
:1036400078319DF87931B3B95D9B012B13D0629B22
:10365000639A4FF6FF7003EB42029A42194605D077
:10366000B1F800C0844503F10203F6D0521A18BF26
:1036700001228DF879210DF5BD7841465EA8FDF750
:103680001AFF804518BF0323559A18BF8DF895314E
:103690001369AF4243F0004313610DD0BE4B324675
:1036A00018685968154603C50833A3422A46F7D15E
:1036B00018689B882860AB8051A8FEF77BF8B74B51
:1036C000DFF818931A6812F0010F06D1DFF81083A3
:1036D0000A22C9E9008201221A60B14BDFF8048393
:1036E0001A6BB04C42F004021A63D9F8002010683B
:1036F000012161F315501060AB4A106810F0010F02
:1037000001BFDFF8E4E211600F20C8E900E01A6BA6
:1037100042F001021A63D8F800301A684FF0010B2A
:103720006BF39F721A607FA8FFF7B4FBB7787388BA
:10373000ADF81830C7F340030493C7F38003327920
:103740000593C7F3C10307920393FEF739FD974B27
:10375000079A1D6815EA0B0507EA0B0A4FEA571787
:1037600044D193492160934984F82420924A2061EE
:10377000C4E906159148A26304F13801C4E9015572
:103780002573E5632464079360612562E5842585DC
:10379000658584F82C502586FDF7B9FE884A626459
:1037A00004F14401A069A564E464FDF7B0FE0E22B3
:1037B000294604F1500003F0A2F91822294604F129
:1037C0005E0003F09CF90E22294604F1760003F016
:1037D00096F90E22294604F1840003F090F9079B24
:1037E000C4F89350C3F800B0C4F896509DF8183050
:1037F00013F0E00201F05381202A01F0538103F01D
:10380000C003402B14BF01230223664A13621369CD
:103810003946D3F82421D3F81801FDF7F5FF049AAF
:10382000C36862F34923C360C368059A62F30C332B
:10383000C3600369039A62F30D330361C368BAF18D
:10384000000F01F0328143F48063C360C36843F426
:103850000053C3602069FFF75DFB0994099B0922AF
:10386000A3F85E20099B3288A3F86020099B327977
:10387000A3F86420099B7288A3F86220099AFF23A9
:10388000A2F88430099A0127A2F87870099A4FF4B7
:10389000F570A2F88630FEF799FD0A90FEF7FAFD62
:1038A0000B901020FFF77AFA0C90FFF7BBFB0CADE2
:1038B00068602868FFF724FC0A99F591099A414944
:1038C0000B9BA8600024F891FB933F49F996642371
:1038D000FCA8FC91FA92CDF800448DF8CC43CDF8C9
:1038E00004448DF8CD43F495CDF8D893CDF8DC831E
:1038F000FD94FE948DF8FC43CDF80034FDF75AFF9B
:103900004FF47A730DF58160CDF80814CDF81844A2
:10391000CDF80C44CDF81C44CDF810448DF8144477
:10392000CDF81834FDF746FF4FF0FA63CDF8443474
:10393000264BCDF84834264BCDF84C340A23ADF84D
:10394000503421232868CDF8543441F2EC339CAE36
:10395000CDF82014CDF83044CDF82444CDF82844D7
:10396000CDF82C44CDF83444CDF83844CDF83C445F
:10397000CDF840448DF852448DF85344CDF8583476
:10398000FEF7C2FB134B144A336020337360136895
:10399000347413F0010F29E0CC7300081C040020DC
:1039A0000038024020020020100400201C020020E9
:1039B000F0740008AC050020D8740008CC05002085
:1039C000E4740008E4050020EC7300085046384A0F
:1039D000A861C800FC7400086801002020040020D1
:1039E00000080240140400200000024008BFDFF875
:1039F000D8C2B14B747404BF0E21C3E900C1C6E93B
:103A00000244F461F462F463F464F465AB4C08BFFF
:103A10001760226B42F0020222631A6811686FF38A
:103A20001D711160012500219DA8C6E91A1586F8AF
:103A3000701086F871107366FDF7BCFEA04BA14AAA
:103A4000B9932033BA931368BB9113F0010F08BFE9
:103A50009D4F9E4BBC918DF8F4128DF8F512C091DC
:103A6000C491C891CC91D09102BF0D21C3E90071DE
:103A70001560226B42F0020222631A6811686FF32C
:103A80009B61116000240DF25C45BAA84FF001095A
:103A9000D293D3948DF854438DF85543CDF8509379
:103AA0000DF27548FDF786FED6A8FFF7F3F9884BAF
:103AB0002C73C5E90144C5E904442C760DF2C541D7
:103AC0004046099F2B60FDF76FFD824A824C1368C8
:103AD00013F0010F07F15E0771D18049DFF83CC296
:103AE0000B687F4813F0010F04BF0D23CCF804309E
:103AF000724B04BFC1F80090CCF80000196BDFF8DE
:103B0000209241F004011963DCF80010D1F800E0C4
:103B10004FF0010A6AF39B6EC1F800E0D9F800107B
:103B2000DFF800E211F0010F01BF0F21C9F800A07A
:103B3000CEF80000CEF80410196BDFF8EC9141F0DC
:103B400004011963DEF8003019684FF0010A6AF3C6
:103B50009F711960D9F80030624913F0010F04BF5A
:103B6000C9F800A00E23DFF8549104BF08604B6031
:103B7000D9F8303043F00403C9F830300B68D3F87B
:103B800000A04FF0010969F31D7AC3F800A00023DB
:103B9000DFF898A12373C4E90133C4F800A063736C
:103BA000C4E904CEC4E906104F4961624F49C4F824
:103BB0002080A16284F830306363C2F800904C4BDF
:103BC0001A6812F0010F4B4A05D145480221C2E99B
:103BD000000101211960394B196B41F0040119638F
:103BE00012681168012060F30511116042490A68EA
:103BF00012F0010F08BFDFF8E8B0404A02BF0860CA
:103C00004FF0030CC2E900BC196B41F004011963C9
:103C100013683B491A68012060F387121A600B6829
:103C2000384A034002BFDFF8B8C00860C2E900C3E9
:103C3000224B196B41F004011963126810680121CD
:103C400061F3010010603048026812F0010F08BFF4
:103C5000DFF88CC02D4A04BF0160C2E900C1196BB6
:103C60001D4841F00401196313681A684FF00108F8
:103C700068F383021A60FEF76FF8237B002B5FD195
:103C8000234B84F80C80DA68626002B194609A6811
:103C9000DC6002B99C6002225A611E4B1A686FF305
:103CA00000021A601C4A5A6000229A601A6842F0A8
:103CB00004021A603CE000BF6C01002000380240A2
:103CC000287500085C01002000040240600100200B
:103CD000748A0008B4000020B80000200801002009
:103CE00000080240F4000020547A000854820008C2
:103CF000A8000020AC0000209C000020A0000020B4
:103D00009000002094000020840000208800002003
:103D1000EC05002010E000E01F4801000C0100202D
:103D2000FC00002000010020F0000020808A000834
:103D30001A6842F002021A601A6842F001021A6020
:103D4000B9AB6B67D6ABAB6727ABC5E91F37B84BD1
:103D5000C5F884300DF24C53C5E91B46C5F88830D0
:103D60004BAE0023C5F88C30B24B3560F360314662
:103D7000B14BB36067A845ACFEF730FDAF4B429343
:103D80003FA9AF4B3F9520464193FEF727FDAD4B32
:103D9000369333A9AC4B339539A83593FEF71EFD06
:103DA000AA4B22931FA9AA4B1F9523A82193FEF784
:103DB00015FDA84B1A9317A9A74B17951BA8199384
:103DC000FEF71BFDA54B12930FA9A54B0F9513A84A
:103DD0001193FEF712FD67A90DF2EC40FEF7FEFC11
:103DE00021460DF2FC40FEF7F9FC39A90DF20C500A
:103DF000FEF7F4FC23A90DF21C50FEF7EFFC1BA903
:103E00000DF22C50FEF7F9FC13A90DF23C50FEF711
:103E1000F4FC13A8FDF774FC0FA8FDF771FC1BA8B8
:103E2000FDF76EFC17A8FDF76BFC23A8FDF768FCF7
:103E30001FA8FDF765FC39A8FDF762FC33A8FDF764
:103E40005FFC2046FDF75CFC3FA8FDF759FC67A826
:103E5000FDF756FC3046FDF753FC0DF2EC4167A828
:103E6000FEF7DAFC7F4B2560E36021467E4BA360C2
:103E700030460DF26C47FEF7F4FCD5E9208A7B4B07
:103E8000C5F8F030C5F8F47067A90DF25450D5F8B4
:103E90007C90FEF7C1FC31460DF2B450FEF7E1FC18
:103EA00008F11403C5F8683108F10803C5F86C314E
:103EB00008F10A03C5F8703108F11003C5F8743130
:103EC0000AF10403C5F8783109F11403C5F87C310F
:103ED00009F11303C5F88031C5F884A13046FDF718
:103EE0000FFC2046FDF70CFC67A8FDF7B7FF0DF2AD
:103EF000EC4167A8FEF790FC5D4B22931FA95D4B38
:103F00001F9523A82193FEF7ACFC5B4BC5F88C7181
:103F1000C6E90135594B7361594B3361594B419592
:103F2000C4E90135584B6361584B23610C233F931F
:103F3000574B4093574B4493574B43930C23399320
:103F4000564BCDE93A35564B3E93564B3D93564B27
:103F5000CDE93435554B3893554B3793554BC5F810
:103F6000883106224FF0090B67A90DF2EC5033920D
:103F70000692C6F800B0C4F800B0FEF74DFC23A9C5
:103F80000DF24C60FEF76DFC31460DF25C60FFF700
:103F900034F921460DF27460FFF72FF93FA90DF2B5
:103FA0008C60FFF72AF939A90DF2A460FFF725F913
:103FB00033A90DF2BC60FFF720F90023C5F8783271
:103FC000C5F87C3235A8FDF79BFB3BA8FDF798FBB5
:103FD00041A8FDF795FB47A8FDF792FB4DA8FDF71B
:103FE0008FFB23A8FDF78CFB1FA8FDF789FB67A8B3
:103FF000FDF734FF0DF2EC4167A8FEF70DFC2E4BE8
:10400000369333A92D4B339539A83593FEF729FC08
:10401000082333602A4BC5F88472C6E90135294B61
:104020007361294B3361294B4195C4E901354FE058
:10403000E40500203D520008310B000875520008CD
:10404000470B0008AD5200085D0B00080552000840
:10405000730B000839530008890B0008015300084E
:104060009F0B000841120008B50B0008F873000808
:104070004D120008CB0B0008848A00085912000872
:10408000E10B00088E8A000865120008F70B000893
:10409000988A00087F1200080D0C0008A58A000805
:1040A0008B120008230C0008B28A0008971200083F
:1040B000390C000820740008A31200084F0C0008F7
:1040C000B98A0008AF120008650C0008C28A00080F
:1040D000BA4B6361BA4B23610B233F93B94B4093B7
:1040E000B94B4493B94B4393B94BC5F880324FF069
:1040F0000F0A67A90DF2E460C4F800A0FEF78CFB7C
:1041000039A90DF24470FEF7ACFB31460DF2547044
:10411000FFF773F821460DF26C70FFF76EF83FA9B8
:104120000DF28470FFF769F80022C5F84023C5F846
:10413000442341A8FDF7E4FA47A8FDF7E1FA4DA8AA
:10414000FDF7DEFA39A8FDF7DBFA33A8FDF7D8FA58
:1041500067A8FDF783FEEB6F0DF2EC411B7D85F840
:10416000483367A8FEF758FB9A4933A8FDF777FD57
:10417000994923A8FDF773FD984B2560E36021461C
:10418000974BA3603046FEF76CFB964B3C9339A9E6
:10419000954B39953FA84FF480783B93FEF761FB30
:1041A000349A9249C5F84C13A5F85083C5F8547356
:1041B000339B039267A9239A05930DF2B47004927E
:1041C000DDF89090FEF728FB31460DF61400FEF75F
:1041D00048FB3FA90DF62400FEF743FB059BC5F8FD
:1041E000D833039AC5F8DC230DF2A473C5F8E8337D
:1041F000049A95F84833C5F8E02385F8EC33C5F800
:10420000E4933FA8FDF77CFA39A8FDF779FA304628
:10421000FDF776FA2046FDF773FA67A8FDF71EFE54
:104220000DF2EC4167A8FEF7F7FA714B3C9339A900
:10423000704B39953FA83B93FEF713FB6E4B7361B0
:104240006E4B33616E4BDFF8F891069A2260C4E939
:1042500001356C4B63613FAA6B4BC6F800A0C6E901
:104260000195394623610DF64C001346CDE90064F3
:1042700067AAFEF7D1FF47A8FDF742FA4DA8FDF760
:104280003FFA3FA8FDF73CFA39A8FDF739FA67A8CD
:10429000FDF7E4FD0DF2EC4167A8FEF7BDFA5B4BBC
:1042A0003C9339A95A4B39953FA83B93FEF7D9FA6D
:1042B000584B7361584B3361584BB560C4E90135B5
:1042C000574B63613FAA574BC4F800B03946C6E963
:1042D00000A923610DF6FC001346CDE9006467AA2E
:1042E000FEF79AFF47A8FDF70BFA4DA8FDF708FA6D
:1042F0003FA8FDF705FA39A8FDF702FA67A8FDF710
:10430000ADFDEB6F0DF2EC41DB7C85F8503567A815
:10431000FEF782FA444933A8FDF7A1FC2E4923A8F1
:10432000FDF79DFC414B2560E3602146404BA360B7
:104330003046FEF796FA3F4B3C9339A93E4B3995F0
:104340003FA83B93FEF78DFA3C4AC5F85425A5F8E3
:104350005885C5F85C75339B039367A90DF6BC10AF
:10436000DDE923A9DDF8D0B0FEF756FA31460DF6A7
:104370001C20FEF776FA3FA90DF62C20FEF771FA05
:10438000039BC5F8E0350DF6AC13C5F8F03595F88C
:10439000503585F8F435C5F8E4B5C5F8E8A5C5F895
:1043A000EC953FA8FDF7ACF939A8FDF7A9F930461F
:1043B000FDF7A6F92046FDF7A3F943E0BB1200087C
:1043C0007B0C0008D28A0008C7120008910C000874
:1043D00034740008DE8A0008E68B0008D312000857
:1043E000A70C0008DF120008BD0C00084874000884
:1043F000F9120008D30C000805130008E90C0008A6
:10440000FB8A000811130008FF0C000823130008A2
:10441000150D00082F1300082B0D0008028B000853
:104420003B130008410D00088E8A00084D13000858
:10443000570D0008671300086D0D00087074000820
:10444000EB8A000867A8FDF709FDEB6F0DF2EC4160
:104450001B7C85F8F83567A8FEF7DEF9C14933A85B
:10446000FDF7FDFBC04923A8FDF7F9FBBF4B256015
:10447000E3602146BE4BA3603046FEF7F2F9BD4B28
:104480003C930DF25C45BC4B3B9339A93FA8399551
:10449000FEF7E7F9B94AC5F8FC254FF4C84167A80B
:1044A000A5F80016C5F8047601460DF66420DDE98E
:1044B00033BADDE92398FEF7AFF931460DF6C42093
:1044C000FEF7CFF93FA801460DF6D420FEF7C9F953
:1044D0000DF65423C5F8983695F8F83585F89C36CE
:1044E000C5F888B6C5F88CA6C5F89096C5F8948628
:1044F0003FA8FDF705F939A8FDF702F93046FDF7A9
:10450000FFF82046FDF7FCF867A8FDF7A7FCEB6F66
:104510000DF2EC401B89A5F8A036014667A8FEF70E
:104520007BF9974933A8FDF79AFB964923A8FDF735
:1045300096FB954B2560E3602146944BA360304683
:10454000FEF78FF9924B3C9339A8924B399501466F
:104550003FA83B93FEF785F98F4BC5F8A43667A8B3
:104560008E4BC5F8A8360146C5F8AC760DF60C3072
:10457000DDE92398DDE933BAFEF74EF931460DF651
:104580006C30FEF76EF93FA801460DF67C30FEF761
:1045900068F90DF6FC23C5F84037B5F8A036A5F844
:1045A0004437C5F830B7C5F834A7C5F83897C5F80B
:1045B0003C873FA8FDF7A4F839A8FDF7A1F83046DD
:1045C000FDF79EF82046FDF79BF867A8FDF746FC2F
:1045D0000DF2EC40014667A8FEF71EF9704B3693CA
:1045E00033A8704B3395014639A83593FEF739F956
:1045F0006D4BC5F84C77C6E901356C4B73616C4B5C
:1046000033616C4B4195C4E901356B4B63616B4B76
:1046100023610E233F936A4B40936A4B44930C20D3
:10462000694B2060439367A8684BC5F8483701463B
:104630004FF007090DF6AC30C6F80090FEF7ECF825
:1046400039A801460DF60C40FEF70BF931460DF680
:104650001C40FEF7D2FD21460DF63440FEF7CDFD9D
:104660003FA801460DF64C40FEF7C7FD0020C5F8F7
:104670000808C5F80C0841A8FDF742F847A8FDF75F
:104680003FF84DA8FDF73CF839A8FDF739F833A8F5
:10469000FDF736F867A8FDF7E1FB0DF2EC400146A7
:1046A00067A8FEF7B9F84A4B2560E3602146494BFD
:1046B000A3603046FEF7D5F847493FA8FDF7CFFA8B
:1046C000464939A8FDF7CBFAD5F8803044493F9ADE
:1046D000C5F8101867A8DDE939BA03F114080146D6
:1046E000409BC5F814780DF6744004920393FEF7CE
:1046F00093F831460DF6D440FEF7B3F8049A039BC5
:10470000C5F88828C5F88C38C5F890B8C5F894A8BD
:10471000C5F898883046FCF7F3FF2046FCF7F0FF19
:1047200067A8FDF79BFBEB6F0DF2EC405B7C85F817
:104730009C38014667A8FEF76FF82A4933A8FDF7B1
:104740008EFA264923A8FDF78AFA274B2560E360F5
:104750002146264BA3603046FEF783F8244B3C935A
:1047600039A847E00C8B00081D8B00088F13000848
:10477000830D00089B130008990D0008847400083D
:10478000C28A0008208B0008AF130008AF0D000894
:10479000BB130008C50D0008987400085046C8AF48
:1047A000CF130008DB0D0008248B0008DB13000882
:1047B000F10D00082C8B0008E7130008070E000815
:1047C000398B0008F31300081D0E0008347400082C
:1047D000FF130008330E0008488B0008588B0008B0
:1047E0000C7400085B8B00080B140008490E0008CD
:1047F00017140008AF4B399501463FA83B93FEF7CD
:1048000030F8AD4AC5F8A0284FF4C84167A8339BDB
:10481000A5F8A418C5F8A87801460DF6085003932A
:10482000DDE923A8DDF8D0B0FDF7F6FF31460DF63F
:104830006850FEF716F83FA801460DF67850FEF7CF
:1048400010F8039BC5F82C390DF6F843C5F83C3930
:1048500095F89C3885F84039C5F830B9C5F834A9C1
:10486000C5F838893FA8FCF74BFF39A8FCF748FF8B
:104870003046FCF745FF2046FCF742FF67A8FDF7EE
:10488000EDFAEB6F0DF2EC409B7C85F84439014664
:1048900067A8FDF7C1FF894933A8FDF7E0F988490A
:1048A00023A8FDF7DCF9874B2560E3602146864BA2
:1048B000A3603046FDF7D5FF844B3C9339A8844B69
:1048C000399501463FA83B93FDF7CBFF7A4AC5F8DF
:1048D00048294FF4C841339BA5F84C19C5F85079C5
:1048E00067A90DF55B600393DDE923A8DDF8D0B07F
:1048F000FDF792FF31460DF56160FDF7B2FF3FA96C
:104900000DF56260FDF7ADFF039BC5F8D4390DF5D9
:104910005A63C5F8E43995F8443985F8E839C5F89B
:10492000D8B9C5F8DCA9C5F8E0893FA8FCF7E8FECE
:1049300039A8FCF7E5FE3046FCF7E2FE2046FCF71E
:10494000DFFE67A8FDF78AFA0DF2EC4167A8FDF7D4
:1049500063FF604B3C9339A95F4B39953FA83B936C
:10496000FDF77FFF5D4B73605D4B73615D4B3361A2
:104970000A2323605C4B63605C4B63615C4B236187
:104980005C4BC5F8EC390822C5F8F07967A90DF53C
:1049900065603260FDF740FF3FA90DF56B60FDF7E4
:1049A00060FF31460DF56C60FEF727FC21460DF6E1
:1049B000D860FEF722FC0023C5F8943AC5F8983A6F
:1049C000C5F8A43AC5F8AC3AC5F8B03A47A8FCF720
:1049D00097FE4DA8FCF794FE3FA8FCF791FE39A87E
:1049E000FCF78EFE67A8FDF739FA0DF2EC4167A8D7
:1049F000FDF712FF404B3C9339A9404B39953FA836
:104A00003B93FDF72EFF082333603D4B73603D4B16
:104A100073613D4B33613D4B63603D4B63613D4B87
:104A2000236167AA3FAB3946C4F800900DF5716069
:104A3000CDE90064FEF7F0FB47A8FCF761FE4DA846
:104A4000FCF75EFE3FA8FCF75BFE39A8FCF758FEBA
:104A500067A8FDF703FA2846FCF7ACFED5F88800F6
:104A600003681B689847EB6E93F83050002D53D1C4
:104A7000FEE751AB3B4483F83480FEF77EBD5D9B7F
:104A80005EAA0121D1540523FEF7C4BDB3F800C0CE
:104A9000844502F102023EF4CAADFEF7CDBD042307
:104AA000FEF7B3BE0323FEF7B0BE6AF38A23FEF718
:104AB000CCBE00BF5F0E0008847400086B8B00083A
:104AC000588B00082B140008750E000837140008D6
:104AD0008B0E00084B140008A10E00087A8B00080A
:104AE000B70E0008B90E0008838B0008B715000840
:104AF000C30E00083474000857140008CD0E0008D7
:104B00008E8B0008A7150008E30E0008978B00089D
:104B1000B5150008ED0E0008F9A7D7E900674FF0BA
:104B200000084FF07F59F9999DF853244B7CBDF84C
:104B30003844F898A34238BF42F001028DF853245C
:104B40003AB18B7CA3422CBF002301238DF8533450
:104B500003710378002B00F0AE808B8923B99DF898
:104B60005234002B00F0A7809DF85334002B40F006
:104B7000A280F5990A688B89106A03431362F5983D
:104B8000FDF7E8F910B99DF853340BB1F89B1B7889
:104B9000F89AF7981370F99B5B7D8DF85234002BCF
:104BA00000F09080FCF714FDF598FDF7D3F9F69B23
:104BB000002800F08A801846FCF70AFDDDF8D0E3F3
:104BC000BDF83824DEF80430DFF844A319894FF02B
:104BD000000C090963469C00013354F80A00814225
:104BE00008D2043454F80A00814282BF03F1FF3234
:104BF00092B2AC46632BEED1BCF1000F01D0ADF800
:104C00003824DDF8D4A3FA9CBAF81030A4F8683040
:104C1000DEF808301889FBF785FCBBA3D3E9002335
:104C2000FBF7EAFC42464B46FBF7E6FC32463B46C6
:104C3000FBF70CFE0022B04BFBF7DEFCFBF7EEFEB1
:104C4000BDF83834A4F86E00A4F87230F99ABAF8B6
:104C50001830A4F86630BDF846141389ADF848340E
:104C6000581A0B44ADF84A04ADF84C34137C216952
:104C700003EB8303ADF84E34D1F82031D1F8042191
:104C80005B68D1F800119BB2521AC3F1FF039A423C
:104C90001FD20023E3612046FCF76AFD9DF8CC3368
:104CA000052B00F26981DFE813F0350179013E023E
:104CB0007F0283025002F5990A688989136A23EA00
:104CC00001035BE7FCF78AFC6EE71846FCF786FCFD
:104CD00074E7D4E907239A42E0DB4FF0000A20464C
:104CE000C4F81CA0FCF744FD2069D0F80431D0F8CA
:104CF0000021991A072902D8FEF70CF9CEE710F81F
:104D000002C094F824108C45F6D1934284BF03F17D
:104D1000FF33C0F80431226988BF10F803A0D2F82D
:104D20000011D2F804318B4282BF03F1FF33C2F885
:104D3000043112F803B02369D3F80421D3F8001129
:104D40001A44194467A898BF4FF0000BFEF784FA85
:104D50009DF89C31534504D19DF89D3120695B45F8
:104D600001D02069C8E7FEF78DFA2069FEF78AFABC
:104D7000032884F8250003D0102805D0012109E07C
:104D80002046FEF743FB89E707212046FEF722FB7A
:104D900020B902212046FEF7C3FA7FE72369D3F842
:104DA0000021D3F80411914283BF511CC3F80011B4
:104DB0009B5C002384F82C304FF0000A04F12E0B8A
:104DC000B4F82AC020691FFA8AF39C452DD95946A8
:104DD000FEF7E5FAE38C13FA8AF3E2185B0092F827
:104DE0009310E28D89B1234410B2B3F876100FFA14
:104DF00081FC604500DA31B9B3F884100FFA81FC08
:104E000060450DDD61B10321C4E72344B3F876109A
:104E10008A4201D20029F6D1B3F884108A42F1D82F
:104E2000A3F850200AF1010ACAE7344A00234FF0E0
:104E3000010E99B2614534D2B4F826A0514489B22A
:104E400003290BD8DFE801F0020C1520FA99B1F81C
:104E500050A0A1F862A0F999A1F802A00133E8E7F7
:104E6000FA99B1F852A0A1F864A0F99981F804A0C8
:104E7000F4E7FA99B1F85410A1F17F0ADAF10001D0
:104E800041EB0A011170E9E7117839B1FA99B1F8EB
:104E900056A0A1F860A0F999A1F800A082F800E05E
:104EA000DCE70023C0F80031C0F8043194F8241086
:104EB0002069FEF7F3F994F82510FEF7EFF9E18C7D
:104EC000FEF7F7F9618DFEF7F4F92369D3F80421B1
:104ED000D3F800111A44194467A8FEF7BDF99DF8EC
:104EE0009D112069FEF7DAF99DF89C11FEF7D6F9BD
:104EF0002069FEF7E9F9D1E600408F402804002040
:104F00000000000000FEEF406666666666660A40C6
:104F1000C47800089DF85234F5983BB3F99BDB7CCC
:104F2000183093B1BDF84E14FCF7DBFFFB9BBDF8C6
:104F300048249B68F5985A62596A103089B2FCF788
:104F4000A7FF02238DF8CC3316E06421ADF83A3484
:104F5000ADF83C34ADF83E34FCF7C3FFF598BDF82E
:104F60004C141030FCF794FF0123EBE7FCF7F2FF41
:104F700020B1F3A8FCF7CCFF30BFD4E5F99BFB9A36
:104F8000D97CF598926839B19B895362516A103087
:104F900089B2FCF77DFFEFE7DB89F6E7F598FCF7D0
:104FA000D9FF98B19DF8CD33042B0FD8DFE803F07B
:104FB000031934619A004FF47A730DF58460CDF8CB
:104FC0003034FCF7F7FB01238DF8CD33F598FCF76F
:104FD000C1FF0028D0D19DF85234002BCCD1002342
:104FE000B0E7DDF83424DDF830349A42EED30DF525
:104FF0008460FCF7DBFBF598BDF84C1400231030FF
:10500000ADF83A34ADF83C34ADF83E34ADF8403448
:10501000FCF73EFF0223D7E7F59864211830FCF730
:1050200060FFF49BBDF83E249B689B68934284BF5D
:10503000ADF83E34F59BFCA884BF1B8AADF8443420
:10504000FCF78CFB68B1F598BDF84A34028A9A42A5
:1050500083BFBDF85014494209B200211030FCF75B
:1050600039FFF59B1A8ABDF84A349A42AED1032320
:10507000AAE7F59864211830FCF733FFF49BBDF8DC
:105080003C249B689B68934284BFADF83C34F59BFD
:10509000FCA884BF1B8AADF84234FCF75FFB58B113
:1050A000F598BDF84C34028A9A4234BFBDF95014C9
:1050B00000211030FCF70EFFF59B1A8ABDF84C3426
:1050C0009A4283D1F99BBDF83C1400225A75BDF871
:1050D0003E2491428CBFBDF84224BDF84424DA81BD
:1050E000042371E7FCA8FCF739FB70B1F598F99B34
:1050F00030F8102FDB899A4212D383BFBDF85014C9
:10510000494209B20021FCF7E5FEF59AF99B128AA3
:10511000DB899A427FF45AAFF3A8FCF7F9FE55E712
:10512000BDF95014EFE7FB9BF5989B68596A103066
:1051300089B2FCF7ADFE9DF85234002B7FF446AFE8
:10514000F59B1A8AF99B9A81E6E7F49BBDF83A240D
:105150009B689B68934282BFF99A9BB2ADF83A3440
:105160000DF5816088BF5381FCF7F8FA68B1F598B6
:10517000BDF84E3430F8181F8B4294BF4FF0FF3308
:105180000123194489B2FCF7ACFEF598BDF84E3402
:10519000028B9A4202D303238DF8CC33FCF7DAFE5C
:1051A00000283FF41CAFE7E6F598FCF7D3FE38B1D2
:1051B000FB9BF5989B68596A103089B2FCF768FE32
:1051C000F598EBE713B50B460446D0E900016A46B3
:1051D00082E8030093E8030084E8030092E80300F8
:1051E00083E8030002B010BD38B505460C46FFF752
:1051F000E9FFAB68A268AA60A360E268EB68EA60B6
:10520000E36038BD30B5044689B0084600236946DE
:105210000293FFF7E9FF23689C6F2368694604A89F
:10522000DD68FDF71EFB04A92046A84704A8FCF78B
:1052300067FA6846FCF764FA09B030BD30B5044639
:1052400089B00846002369460293FFF7CDFF236823
:105250001C6F2368694604A89D68FDF702FB04A93A
:105260002046A84704A8FCF74BFA6846FCF748FA22
:1052700009B030BD30B5044689B008460023694600
:105280000293FFF7B1FF23685C6F2368694604A8A7
:105290009D68FDF7E6FA04A92046A84704A8FCF794
:1052A0002FFA6846FCF72CFA09B030BD30B5044639
:1052B00089B00846002369460293FFF795FF2368EB
:1052C0009C6F2368694604A89D68FDF7CAFA04A983
:1052D0002046A84704A8FCF713FA6846FCF710FA22
:1052E00009B030BD38B505460C46FFF76BFFAB681B
:1052F000A268AA60A360E268EB68EA60E36038BD78
:1053000030B5044689B00846002369460293FFF78A
:10531000E9FF23685C6F2368694604A81D69FDF7EF
:105320005DFF04A92046A84704A8FCF7E9F96846F0
:10533000FCF7E6F909B030BD30B5044689B008463F
:10534000002369460293FFF7CDFF23681C6F236893
:10535000694604A81D69FDF741FF04A92046A84736
:1053600004A8FCF7CDF96846FCF7CAF909B030BDCE
:105370001FB504466846FDF774FA21466846FFF7F4
:1053800033FF6846FCF7BCF9204604B010BD08B5F1
:105390004430FFF7EDFF08BD08B53430FFF7E8FFF4
:1053A00008BD08B52430FFF7E3FF08BD08B5143089
:1053B000FFF7DEFF08BD08B54430FFF7D9FF08BD91
:1053C00008B53430FFF7D4FF08BD08B52430FFF727
:1053D000CFFF08BD08B51430FFF7CAFF08BD08B5F8
:1053E0004430FFF7C5FF08BD08B53430FFF7C0FFF4
:1053F00008BD08B52430FFF7BBFF08BD08B5143061
:10540000FFF7B6FF08BD1FB504466846FDF7E6FE88
:1054100021466846FFF766FF6846FCF771F92046AB
:1054200004B010BD08B55430FFF7EDFF08BD08B556
:105430005430FFF7E8FF08BD08B55430FFF7E3FF2D
:1054400008BD1FB550B16846FDF70BFA029B13B1BA
:105450006846FDF7DFFB6846FCF752F905B05DF8DA
:1054600004FB07B5826801910AB901F0F3FAC36839
:1054700001A9984703B05DF804FB7FB50446406E70
:10548000FCF72AF908B9A36E8BB3606EFCF724F918
:10549000054680BB637C63BB94F8706004F1240113
:1054A0006846FDF7DEF969463046FFF7CAFF6846F1
:1054B000FCF726F9637C33B994F870501DB194F869
:1054C000715085F0010504F134016846FDF7C9F912
:1054D00069462846FFF7B5FF6846FCF711F9002337
:1054E0000122C4E91A3284F8703084F8713004B0B3
:1054F00070BD0646D2E7A36E0133092BA36622D9FD
:1055000094F870208AB9657C012384F870305D407E
:1055100004F114016846FDF7A4F928466946FFF72F
:1055200090FF6846FCF7ECF8E1E7B3F57A7F0AD321
:1055300094F871203AB9657C012384F871305D409C
:1055400004F14401E6E7E26D002AD0D0B3F57A7F9A
:10555000CDD9B3F5FA6F0CD8C821B3FBF1F201FB3A
:105560001233002BC3D1012104F15400FFF779FF5E
:10557000BDE740F6B832934201D86421EDE7B3F5B8
:105580007A6F01D83221E8E71921B3FBF1F201FB70
:10559000123241F288318B4202D8002AA7D1E2E7C9
:1055A000002AA4D1E16E04F15400FFF75AFFA16E66
:1055B0004FF47A72B1FBF2F302FB1313002B96D176
:1055C000E36E0133E36692E7A0F1040055E77FB58F
:1055D0000446406EFCF780F808B9A36E8BB3606E8A
:1055E000FCF77AF8054680BB637C63BB94F8706077
:1055F00004F124016846FDF734F969463046FFF7A7
:1056000020FF6846FCF77CF8637C33B994F870504F
:105610001DB194F8715085F0010504F1340168461C
:10562000FDF71FF969462846FFF70BFF6846FCF7B0
:1056300067F800230122C4E91A3284F8703084F834
:10564000713004B070BD0646D2E7A36E0133092B5A
:10565000A36622D994F870208AB9657C012384F866
:1056600070305D4004F114016846FDF7FAF82846F1
:105670006946FFF7E6FE6846FCF742F8E1E7B3F556
:105680007A7F0AD394F871203AB9657C012384F8B3
:1056900071305D4004F14401E6E7E26D002AD0D0AC
:1056A000B3F57A7FCDD9B3F5FA6F0CD8C821B3FB27
:1056B000F1F201FB1233002BC3D1012104F154009C
:1056C000FFF7CFFEBDE740F6B832934201D8642120
:1056D000EDE7B3F57A6F01D83221E8E71921B3FB82
:1056E000F1F201FB123241F288318B4202D8002ADA
:1056F000A7D1E2E7002AA4D1E16E04F15400FFF73C
:10570000B0FEA16E4FF47A72B1FBF2F302FB1313F9
:10571000002B96D1E36E0133E36692E7A0F104001B
:1057200055E77FB50446406EFBF7D6FF08B9A36E78
:105730008BB3606EFBF7D0FF054680BB637C63BB19
:1057400094F8706004F124016846FDF78AF8694610
:105750003046FFF776FE6846FBF7D2FF637C33B92D
:1057600094F870501DB194F8715085F0010504F162
:1057700034016846FDF775F869462846FFF761FE73
:105780006846FBF7BDFF00230122C4E91A3284F802
:10579000703084F8713004B070BD0646D2E7A36E55
:1057A0000133092BA36622D994F870208AB9657C4D
:1057B000012384F870305D4004F114016846FDF760
:1057C00050F828466946FFF73CFE6846FBF798FF0D
:1057D000E1E7B3F57A7F0AD394F871203AB9657C92
:1057E000012384F871305D4004F14401E6E7E26D85
:1057F000002AD0D0B3F57A7FCDD9B3F5FA6F0CD8A3
:10580000C821B3FBF1F201FB1233002BC3D10121FC
:1058100004F15400FFF725FEBDE740F6B83293428D
:1058200001D86421EDE7B3F57A6F01D83221E8E7BA
:105830001921B3FBF1F201FB123241F288318B42A4
:1058400002D8002AA7D1E2E7002AA4D1E16E04F130
:105850005400FFF706FEA16E4FF47A72B1FBF2F32B
:1058600002FB1313002B96D1E36E0133E36692E73C
:10587000A0F1040055E730B50B1A9B10002B15DD85
:1058800014780578A54203D04578A54201D10130AE
:1058900030BD8578A54201D10230F9E7C578A5422F
:1058A00001D10330F4E70430013BE7E70B1A022B88
:1058B0000ED0032B07D0012B10D1047813789C4213
:1058C00018BF0846E4E7047813789C42E0D0013022
:1058D000047813789C42DBD00130EEE70846D7E726
:1058E0002DE9F34190F8513041690446052B1BD84E
:1058F000DFE813F006001D004A008200B400E80053
:1059000090F85430C218C95C127E914240F0F68083
:105910000133DBB2162B28BF002380F85430B3FAD2
:1059200083F35B0980F8503002B0BDE8F081006974
:10593000C268C2F30042002AF6D10369002BF3DAF1
:10594000FBF73AFE2369186962F3410018611A698E
:1059500042F001021A6123691A69012060F30922E9
:105960001A611A6942F080721A6194F85430CA5C64
:1059700084F8532094F85310E26C43EA0123138017
:10598000022384F85130CFE70369DA68D107CBD519
:10599000DA6842F00102DA601A6942F000421A61E4
:1059A00090F8543090F8532003441A76C26C036B7D
:1059B0000232C26400EBC300D0E90F1501EB4501D0
:1059C0008A4203D094F85230DBB2DAE70122E118C0
:1059D0001344022B28BF002381F83420236304EBF7
:1059E000C303DB6BE364002384F8543084F8512054
:1059F000052384F8523097E70769FD68C5F3004531
:105A0000002D91D13B69002B8EDA02AA00F13606F7
:105A1000012300F1340802F8013D31464046FFF70A
:105A20002AFFB042CED0A0EB0800A0633846FBF7B7
:105A3000C3FDA36B324AD25C036965F300030361C3
:105A4000036943F002030361036962F3C603036160
:105A5000036943F480330361042392E70369DA683E
:105A6000D2077FF561AFDA6842F00102DA601A69A5
:105A700042F000421A61816B00EBC103D3E90F23AE
:105A80004FF6FF7502EB43039342104618D0068889
:105A9000AE4202F10202F7D01B1A214418BF0123C3
:105AA00004F1360581F8343004F134002946FBF75F
:105AB00002FD854214BF0320002084F8510033E723
:105AC0001846E9E790F854300133DBB2152B11D9B1
:105AD000002380F8543004F13605294604F13400DF
