:020000040800F2
:1000000000000220C1150008111600081116000892
:100010001116000811160008111600080000000053
:1000200000000000000000000000000011160008A1
:10003000111600080000000011160008C90300088E
:100040007F05000881050008830500088505000874
:1000500087050008890500088B0500088D05000844
:100060008F0500089105000893050008490600085F
:1000700065060008810600089D060008B90600080C
:10008000D5060008F1060008950500089705000848
:10009000990500089B0500089D0500089F050008BC
:1000A000D9050008DB050008DD050008DF050008AC
:1000B000E1050008E3050008E5050008A1050008C2
:1000C000A3050008A5050008A7050008A905000864
:1000D000AB050008F5050008110600082D0600080C
:1000E000AD050008AF050008B1050008ED050008E2
:1000F000EF050008F1050008F30500080D070008EA
:10010000B3050008B5050008E7050008B7050008B5
:10011000B9050008BB050008E9050008EB05000863
:100120002907000845070008610700087D07000847
:10013000990700080000000000000000BD0500084D
:10014000BF050008C1050008C3050008C505000873
:10015000B5070008D1070008ED070008C70500082B
:10016000C9050008CB050008CD050008CF0500082B
:10017000D1050008D30500080000000000000000C1
:08018000D5050008D7050008B1
:1001880010B5054C237833B9044B13B10448AFF3C9
:1001980000800123237010BD000000200000000033
:1001A8006C16000808B5034B1BB103490348AFF3AD
:1001B800008008BD00000000040000206C16000844
:1001C8004209012300F01F0003FA00F0014B43F835
:1001D8002200704700E100E0436901334361704742
:1001E800C3690133C361704710B504462CB1236855
:1001F80020461B6898476468F8E710BD0369002B20
:10020800BFBF034B436003F188334360704700BFAF
:100218002301674510B590F830300246052B15D8F4
:10022800DFE803F003153C5E769190F83330006AFE
:10023800D118C05C91F82410884240F095800133B1
:10024800DBB2082B28BF002382F8333010BDC06909
:10025800C368DC03FAD40369002BF7DAFFF7CEFF93
:10026800036943F001030361D3691969012060F34D
:1002780009211961196941F08071196192F83330C7
:10028800116AD06AC95C82F8321092F832409169DA
:1002980043EA042321F81030022366E0C369D968D1
:1002A800C907D3D5D96841F00101D960196941F06E
:1002B8000041196190F8333090F83210034483F804
:1002C8002410C36A0133B3F5803F03D30023C3620C
:1002D80003234AE0C362002BFAD090F8313044E09F
:1002E800C069C368DC03B1D40369002BAEDAFFF739
:1002F80085FF036943F0020303610369082161F381
:10030800C6030361036943F48033036104232CE0CB
:10031800C369D968C90799D5D96841F00101D9607D
:10032800196941F0004119614FF0FF33436283625C
:100338000023C36280F83330012380F8303005236E
:1003480082F8313082E790F833300133DBB2072B83
:1003580006D9002380F83330002382F83030EFE7E5
:1003680080F83330002BF7D0012382F830306DE766
:10037800012901D142637047022901D18263704784
:10038800032901D1C2637047042908BF026470477A
:1003980001800A4BB3FBF1F14368D8691A681981E7
:1003A80089B2D16201891A8B64234A43817A92FB0C
:1003B800F3F2006892B2FFF7DBBF00BF007A030ACE
:1003C800054B10B51C682CB1236820461B6898475C
:1003D800A468F8E710BD00BFC8020020426903699D
:1003E8009A424FF0000326BF436101201846704728
:1003F800037BC3B100230373D0E901236AB143B17E
:10040800936083685A600023C0E9013370470B602A
:10041800F8E7054993604A60F5E70349002BF6D1F0
:10042800C1E90033EFE77047C8020020037B53B9E6
:1004380001230373044B5A68426002B190601A6842
:10044800586002B918607047C802002080680269C5
:10045800D2F818311B68DB0611D5D2F820315B6859
:1004680000219BB2C2F80011C3F1FF01FF2928BF88
:10047800FF21FF2BC2F8041101D0FFF7D7BF704747
:100488000A2A10B501D00F2A15D1204B9A68C2F359
:100498004232D2B1042A1AD0052A1AD01C4B1D4C5C
:1004A800062A08BF234607291AD8DFE801F0141ADC
:1004B8001D202326292C0B3A032A04D8134B9A68AB
:1004C800C2F38222E5E70023EDE7134BEBE7134B7A
:1004D800E9E7134BE7E74FF41652B3FBF2F38360F7
:1004E80010BD4FF46152F8E74FF49642F5E74FF428
:1004F800E142F2E74FF41642EFE74FF46142ECE7CE
:100508004FF49632E9E74FF4E132E6E7003802406B
:10051800A037A000406F4001007A030A00BD010522
:1005280080DE800219B90068C0F3401070470129C5
:1005380003D10068C0F3C0207047022903D10068C6
:10054800C0F340507047032903D10068C0F3C0606E
:100558007047042901D14068E6E7052901D14068C0
:10056800E8E7062901D14068EAE7072901D1406890
:10057800ECE700207047FEE7FEE7FEE7FEE7FEE750
:10058800FEE7FEE7FEE7FEE7FEE7FEE7FEE7FEE73B
:10059800FEE7FEE7FEE7FEE7FEE7FEE7FEE7FEE72B
:1005A800FEE7FEE7FEE7FEE7FEE7FEE7FEE7FEE71B
:1005B800FEE7FEE7FEE7FEE7FEE7FEE7FEE7FEE70B
:1005C800FEE7FEE7FEE7FEE7FEE7FEE7FEE7FEE7FB
:1005D800FEE7FEE7FEE7FEE7FEE7FEE7FEE7FEE7EB
:1005E800FEE7FEE7FEE7FEE7FEE7FEE708B5044B99
:1005F8001868FFF7F9FD034B1A685B6808BD00BF70
:10060800B00200200010014008B5044B1868FFF73D
:10061800EBFD034B1A685B6808BD00BFB8020020F9
:100628000044004008B5044B1868FFF7DDFD034B94
:100638001A685B6808BD00BFC0020020004800407F
:1006480008B5044B1868FFF7CFFD034B3D229A60AD
:1006580008BD00BF300200200060024008B5044B0E
:100668001868FFF7C1FD034B4FF474629A6008BD28
:10067800380200200060024008B5044B1868FFF7F4
:10068800B3FD034B4FF474129A6008BD400200207A
:100698000060024008B5044B1868FFF7A5FD034B3E
:1006A8004FF074629A6008BD480200200060024062
:1006B80008B5044B1868FFF797FD034B4FF47462B5
:1006C800DA6008BD500200200060024008B5044B03
:1006D8001868FFF789FD034B4FF47462DA6008BDB0
:1006E800580200200060024008B5044B1868FFF764
:1006F8007BFD034B4FF47412DA6008BD60020020E2
:100708000060024008B5044B1868FFF76DFD034B05
:100718004FF07462DA6008BD680200200060024091
:1007280008B5044B1868FFF75FFD034B3D229A603C
:1007380008BD00BF700200200064024008B5044BE9
:100748001868FFF751FD034B4FF474629A6008BDB7
:10075800780200200064024008B5044B1868FFF7CF
:1007680043FD034B4FF474129A6008BD80020020C9
:100778000064024008B5044B1868FFF735FD034BC9
:100788004FF074629A6008BD88020020006402403D
:1007980008B5044B1868FFF727FD034B3D22DA60C4
:1007A80008BD00BF900200200064024008B5044B59
:1007B8001868FFF719FD034B4FF47462DA6008BD3F
:1007C800980200200064024008B5044B1868FFF73F
:1007D8000BFD034B4FF47412DA6008BDA002002031
:1007E8000064024008B5044B1868FFF7FDFC034B92
:1007F8004FF07462DA6008BDA8020020006402406D
:100808001D4B1A68052161F302021A60A3F5806383
:100818001A6842F480321A601A689203FCD59A6802
:100828006FF307129A609A68052161F38C229A6027
:100838009A68042161F34F329A609A68022060F343
:1008480001029A605A6861F305025A605A68A82141
:1008580061F38E125A605A686FF311425A605A68EF
:1008680042F480025A601A6842F080721A60034AA1
:1008780013689B01FCD57047003C024000380240D9
:10088800754A7649F8B5136813F0010F70D1744BA7
:10089800744C186810F0010F06D1DFF8E0E1092068
:1008A800C4E900E0012018606F4B186B40F00100AC
:1008B800186320680568022666F393450560456A53
:1008C800072666F307154562684D286810F0010F82
:1008D800674806D1DFF8A4C10A26C0E900C6012688
:1008E8002E601D6B45F001051D6303681D68022617
:1008F80066F315551D605D6A072666F30B255D6274
:100908005C4D2B6813F0010F5B4B05D15B4F0C2638
:10091800C3E9007601262E60534E356B45F001057C
:1009280035631E683768012565F319673760C1F8B4
:100938001031534BC1F81431A3F5AA33C1F818315B
:1009480003F5AA33B833C1F81C31783BC1F820311C
:100958000A230026C1F824310723C1F80061C1F831
:100968000461C1F80841C1F80C0181F8283115600B
:100978003D4C636C43F010036364D1F81831DA68B6
:1009880042F00802DA60DA6842F00402DA605A6972
:1009980042F080025A615A6942F040025A61394B6A
:1009A80093F90400FFF70CFC236B43F480032363E3
:1009B800D1F81C311A68012060F387121A60D1F847
:1009C80000210A44DA60D1F8182104329A601A68C2
:1009D80042F480621A601A686FF34E321A601A681D
:1009E8006FF3CC221A601A6842F010021A60264B84
:1009F80093F90400FFF7E4FBD1F820311A686FF38C
:100A080087121A60D1F800210A44DA60D1F8182157
:100A180004329A60FF225A601A6842F480621A60AF
:100A28001A686FF34E321A601A686FF3CC221A6094
:100A38001A6842F480721A60D1F820311A680420CA
:100A480060F35B621A60D1F81C311A6860F35B626C
:100A58001A600248F8BD00BFDC000020E00000205A
:100A6800240200202802002000380240180200203A
:100A78001C0200200C02002010020020000002408E
:100A880000640240B0020020A802002070B5284E81
:100A9800284B326812F0010F2DD127490A6812F04D
:100AA800010F264A05D1264D0924C2E90054012424
:100AB8000C60244C216B41F00401216311680C681F
:100AC800022565F393440C604C6A65F307144C6285
:100AD8001D49D881C3E900124FF6FF721A8104221A
:100AE8009A724FF480529A8100221A821A83012244
:100AF8005B61DB61326013490A6C42F002020A64EE
:100B08001A68D169062060F30E31D161116841F08D
:100B180080011160116841F0010111601B8A40F6E3
:100B280004218B4202D00948FFF732FC014870BD0E
:100B3800200000202400002044000020480000205D
:100B48000008024000380240000400403400002041
:100B5800D0F810210023C0F80031C0F8043110B5D6
:100B6800D2E90041012210318A40A261D0F81C214B
:100B7800116863F300011160D0F82021116863F354
:100B88000001FF2311605360D0F820311A6842F049
:100B980001021A601A68D207FCD5D0F81821D36868
:100BA80043F01003D36010BD08B583681A6992F842
:100BB8002811D2F81401FFF7B5FC10B11869FFF736
:100BC800C7FF08BD05294BD8DFE801F0030C152045
:100BD8002E3F0268D1689268B1F85030A1F86030B1
:100BE800138270470268D1689268B1F85230A1F850
:100BF8006230937470470368DB68B3F85430A3F12C
:100C0800D00253425341194A13707047174B1A7850
:100C18003AB10168C8688968B0F85620A0F85E2023
:100C2800CA8101221A7070470368DA685868B2F8F6
:100C38005810038AA2F864108B4211D040F603239F
:100C480099420DD91030FFF7A3BB02685168D268EA
:100C58000B68B2F85A2089891AB11A6A0A431A62CB
:100C680070471A6A22EA0102F9E700BF1C00002057
:100C7800F7B500F12406024633462C30FF2198428E
:100C880002D003F8011BFAE70023CDE9003393698A
:100C9800012003F500359C1CA71EBD42D16A1BD05C
:100CA8000131B1F5803F28BF0021D16214F8027CE0
:100CB800072F0CD8174414F8011C87F8241014F8CF
:100CC800021C02AF394401F8080C0234E4E7FF2F94
:100CD800FBD159B10139D162D06A50B9012382F8E8
:100CE8003030052382F8313003B0F0BD4FF4803145
:100CF800F1E703EB4003E91AC9104FF6FF7000292A
:100D08001ADD1C88844203D15C88844207D00233F0
:100D18009D421ED0032382F830300020E4E79C88EF
:100D2800844201D00433F3E7DC88844201D00633DF
:100D3800EEE708330139E2E7E91A4910022934D00D
:100D480003292CD0012937D118884FF6FF71884222
:100D5800DED19DF80030002BDCD09DF80130002B4F
:100D6800D8D09DF80230002BD4D09DF80330002B4A
:100D7800D0D09DF80430002BCCD09DF80530002B46
:100D8800C8D09DF80630002BC4D09DF80700002875
:100D9800C0D0126A3368136073685360A4E7188878
:100DA8004FF6FF718842B3D1023318884FF6FF71AE
:100DB8008842ADD10233C7E72B46A9E7F0B5FF2338
:100DC800074F084E1D4611F8014B5C4091423B5DB0
:100DD80083EA0503355DF6D105704370F0BD00BFA9
:100DE800B4160008B4170008D0F80031D0F8042170
:100DF8009A4283BF5A1CC0F80021C05C002070478B
:100E0800D0F80431FE2B9FBFC154D0F80431013310
:100E1800C0F80431704738B50C46090A0546FFF793
:100E2800EFFFE1B2FFF7ECFF284638BDD0F81031EC
:100E3800D3E9002101238B409361D0F81831DA6897
:100E48006FF30412DA60D0F820311A686FF30002E9
:100E58001A60D0F81C311A686FF300021A60D0F8D3
:100E68000431D0F80011D0F81C215B1A02339BB270
:100E78005360D0F81C311A6842F001021A601A68EF
:100E8800D207FCD57047036937B501294FF0000236
:100E980004460D46C3F80021C3F804210ED190F88A
:100EA80024100069FFF7ACFF94F8251041F0800189
:100EB800FFF7A6FF2946FFF7A3FF0BE00229006909
:100EC80006D194F82410FFF79BFF94F82510EFE75C
:100ED8000329F6D02369D3F80421D3F800111A4462
:100EE800194401A8FFF76AFF9DF805102069FFF76C
:100EF80087FF9DF80410FFF783FF2069FFF796FF2F
:100F080003B030BD70B5D0F80031D0F804210133FA
:100F18009A4204460D460ED9FFF766FF064620465C
:100F2800FFF762FF4FF0000360F3070366F30F2338
:100F38002B80204670BD0023FAE738B504460D46DD
:100F480000F126010069FFF7DDFF04F12A0120699D
:100F5800FFF7D8FF638DE08C1844013880B2A842AF
:100F68004FEA4303208584F82C302CBF0020012051
:100F780038BD13B507210446FFF7DFFF28B9022162
:100F88002046FFF780FF02B010BD23690022C3F896
:100F98000021C3F8042194F824102069FFF730FFDA
:100FA8000321FFF72DFF94F82C10FFF729FF638D1D
:100FB80020695A1E62854BB1E38C5A1C04EB43032B
:100FC800E284B3F85C10FFF726FFF0E7D0F80421BD
:100FD800D0F800110244014401A8FFF7EFFE9DF884
:100FE80005102069FFF70CFF9DF80410FFF708FFB4
:100FF8002069FFF71BFFC6E7F0B585B004460191ED
:101008000621FFF79AFF20B902212046FFF73BFF90
:1010180079E02369D3F80021D3F80411914283BF02
:10102800511CC3F800119B5C002384F82C30002568
:1010380004F12E06628DABB29A422BD93146206953
:10104800FFF760FFE38C13FA85F3E2185B0092F870
:101058008210E28D79B1234410B2B3F86A100FB24E
:10106800B84200DA29B9B3F876100FB2B8420DDDEC
:1010780061B10321C9E72344B3F86A108A4201D257
:101088000029F6D1B3F876108A42F1D8A3F8502097
:101098000135CFE70025638DA9B28B4205F1010523
:1010A80006D9E38C194489B201A8FFF78BFDF2E752
:1010B80023690022C3F80021C3F8042194F82410FE
:1010C8002069FFF79DFE94F82510FFF799FEE18C43
:1010D800FFF7A1FE618DFFF79EFE2369D3F8042177
:1010E800D3F800111A44194403A8FFF767FE9DF8C6
:1010F8000D102069FFF784FE9DF80C10FFF780FEA5
:101108002069FFF793FE05B0F0BDF7B50E460169FB
:10111800D1F82031D1F804215B68D1F800119BB2D5
:10112800521AC3F1FF039A42044605D20023C36151
:10113800FFF75EF903B0F0BDD0E907239A42F9DB67
:101148000025C561FFF754F90069D0F80431D0F8DB
:101158000021991A072902D8FFF7FAFCEAE7875C09
:1011680094F824108F42F7D19A423CBF03F1FF3321
:10117800C0F80431226938BFC55CD2F80011D2F832
:1011880004318B4282BF03F1FF33C2F80431D75CCC
:101198002369D3F80421D3F800111A44194401A88B
:1011A80098BF0027FFF70AFE9DF80430AB4211D123
:1011B8009DF805302069BB420CD1FFF715FE206968
:1011C800FFF712FE032884F8250005D12046FFF713
:1011D800D0FEAFE72069BFE7102804D1314620468A
:1011E800FFF70AFFA6E701212046FFF74CFEA1E71B
:1011F8002DE9F04F9DB09B4A0F929B499B4A0DF1F8
:101208003C09002301240DF14A054846ADF84A304F
:10121800ADF84C308DF84E40ADF85030CDE9103374
:101228008DF84830CDE9151217951A938DF86C3062
:101238008DF86D308DF86F30FFF71AFD20B96860B2
:10124800CDF84A008DF84E404846FFF7EFF89DF874
:101258004C709DF84E50BDF84C80854CC7F3800308
:101268000193C7F3C1030293FFF70AFB814B1A6886
:1012780012F0010207F0010AC7F3400B4FEA5717B3
:1012880051D17D497D4E21607D49206130682273AE
:10129800C4E90122C4E906122262E2842285628539
:1012A80084F82C202286E263764A666184F824500A
:1012B800A263246420B904F13802326005E01046C4
:1012C8004268002AFBD1704A42600022A2646F4A39
:1012D80062640A68E4641AB96D4A0A6005E00A465D
:1012E80051680029FBD16A4951606A4E0393002571
:1012F8000E22294606F10C002565C6E9015500F0C5
:10130800A9F9039BC4F86A500122C6F81E50C6F812
:101318002250C4F87650C6F82A50C6F82E50C4F8A1
:101328008250F5861A605FFA88F818F0E00300F03A
:101338009280202B00F0918008F0C008B8F1400F8F
:1013480014BF01230223236223693946D3F82421D9
:10135800D3F81801FFF794F8C3686BF34923C36007
:10136800C368019A62F30C33C3600369029A62F39B
:101378000D330361C368BAF1000F70D043F4806382
:10138800C360C36843F40053C3602069FFF7E0FB00
:101398000923A4F85C30BDF84A30A4F85E309DF803
:1013A8004E30A4F86230BDF84C30A4F86030012209
:1013B800FF236420A4F87630A4F86C20A4F87830D1
:1013C800FFF764FB1CAA002322F8603D0D93CDE9CA
:1013D80005200E93CDE90A338DF830302E4A099254
:1013E8000A2309A8CDE907940D93FFF71FF8642491
:1013F800089BB3F85A3023B309A8FEF7EFFF00B3F0
:10140800089D059BB5F85A201B88934294BF012379
:101418004FF0FF33069A118B0B449BB299420ED0C2
:101428006BB1D069C189994209D313830289817A42
:1014380000685A4392FBF4F292B2FEF799FFA5F8BE
:101448006630059B08981B88A0F8683005A9FFF747
:101458005CFE30BFCCE7042375E7032373E76AF328
:101468008A238DE78C16000800000808003C02401B
:101478005400002050000020B0160008B0020020E0
:10148800A8020020981600088C000020A416000866
:1014980098000020A4000020BC180008304A3149F8
:1014A8000023C2E90033304A51609360116841F06B
:1014B80004011160116841F002011160116841F0E6
:1014C80001011160294A252113601171284A26213A
:1014D80013601171274A272113601171264A0B21C5
:1014E80013601171254A0C2113601171244A0D21D2
:1014F80013601171234A0E2113601171224A0F21C2
:1015080013601171214A102113601171204A1121B1
:10151800136011711F4A2F21136011711E4A38215F
:10152800136011711D4A3921136011711C4A3A2147
:10153800136011711B4A3B21136011711A4A3C2137
:1015480013601171194A442113601171184A452119
:1015580013601171174A136046231371704700BF57
:10156800C80200203F90020010E000E0B002002016
:10157800B8020020C00200203002002038020020FB
:10158800400200204802002050020020580200209B
:10159800600200206802002070020020780200200B
:1015A800800200208802002090020020980200207B
:1015B800A0020020A8020020DFF834D0002103E0B8
:1015C8000C4B5B58435004310B480C4B42189A4261
:1015D800F6D30B4A02E0002342F8043B094B9A4237
:1015E800F9D3FFF70DF900F011F8FFF701FE704786
:1015F80000000220CC180008000000200000002095
:1016080000000020D0020020FEE7000070B50D4E5B
:101618000D4CA41BA4100025A54209D10B4E0C4C5F
:1016280000F020F8A41BA4100025A54205D170BD28
:1016380056F8253098470135EEE756F82530984793
:101648000135F2E7C0180008C0180008C0180008E3
:10165800C818000802440346934200D1704703F8B3
:10166800011BF9E7F8B500BFF8BC08BC9E467047F7
:0C167800F8B500BFF8BC08BC9E467047E7
:1016840000000000000000001D020008000000002F
:1016940000000000550400080000000000000000E5
:1016A400B10B00080000000000000000E901000880
:1016B40000C1814001C0804101C0804100C181401E
:1016C40001C0804100C1814000C1814001C080410E
:1016D40001C0804100C1814000C1814001C08041FE
:1016E40000C1814001C0804101C0804100C18140EE
:1016F40001C0804100C1814000C1814001C08041DE
:1017040000C1814001C0804101C0804100C18140CD
:1017140000C1814001C0804101C0804100C18140BD
:1017240001C0804100C1814000C1814001C08041AD
:1017340001C0804100C1814000C1814001C080419D
:1017440000C1814001C0804101C0804100C181408D
:1017540000C1814001C0804101C0804100C181407D
:1017640001C0804100C1814000C1814001C080416D
:1017740000C1814001C0804101C0804100C181405D
:1017840001C0804100C1814000C1814001C080414D
:1017940001C0804100C1814000C1814001C080413D
:1017A40000C1814001C0804101C0804100C181402D
:1017B40000C0C101C30302C2C60607C705C5C404ED
:1017C400CC0C0DCD0FCFCE0E0ACACB0BC90908C85D
:1017D400D81819D91BDBDA1A1EDEDF1FDD1D1CDC4D
:1017E40014D4D515D71716D6D21213D311D1D010BD
:1017F400F03031F133F3F23236F6F737F53534F4AD
:101804003CFCFD3DFF3F3EFEFA3A3BFB39F9F8381C
:1018140028E8E929EB2B2AEAEE2E2FEF2DEDEC2C0C
:10182400E42425E527E7E62622E2E323E12120E07C
:10183400A06061A163A3A26266A6A767A56564A46C
:101844006CACAD6DAF6F6EAEAA6A6BAB69A9A868DC
:1018540078B8B979BB7B7ABABE7E7FBF7DBDBC7CCC
:10186400B47475B577B7B67672B2B373B17170B03C
:10187400509091519353529296565797559594542C
:101884009C5C5D9D5F9F9E5E5A9A9B5B995958989C
:10189400884849894B8B8A4A4E8E8F4F8D4D4C8C8C
:1018A40044848545874746868242438341818040FC
:0C18B4000000000000000000E10100083E
:0818C000AD010008A5140008A9
:0418C800890100088A
:04000005080015C119
:00000001FF
