:020000040800F2
:1000000000000220A5460008F5460008F546000855
:10001000F5460008F5460008F54600080000000017
:10002000000000000000000000000000F54600088D
:10003000F546000800000000F5460008910B000896
:1000400083150008891500088F150008951500080C
:100050009B150008A1150008A7150008AD1500089C
:10006000B3150008B9150008BF15000845170008AA
:100070006517000885170008A5170008C5170008B0
:10008000E517000805180008C5150008CB1500087D
:10009000D1150008D7150008DD150008E315000884
:1000A00091160008971600089D160008A316000870
:1000B000A9160008AF160008B5160008E9150008D3
:1000C000EF150008F5150008FB15000801160008DB
:1000D00007160008E5160008051700082517000890
:1000E0000D1600081316000819160008CD16000892
:1000F000D3160008D9160008DF16000825180008D6
:100100001F16000825160008BB1600082B1600084D
:100110003116000837160008C1160008C716000877
:10012000451800086518000885180008A51800087B
:10013000C518000800000000000000003D1600087F
:1001400043160008491600084F1600085516000807
:10015000E518000805190008251900085B160008B5
:1001600061160008671600086D160008731600086F
:10017000791600087F16000800000000000000004B
:08018000851600088B1600082B
:1001880010B5054C237833B9044B13B10448AFF3C9
:1001980000800123237010BD6C00002000000000C7
:1001A8004848000808B5034B1BB103490348AFF39F
:1001B800008008BD000000007000002048480008CA
:1001C80080B483B000AF0346FB7197F9073003F0A2
:1001D8001F02074997F907305B09012000FA02F26C
:1001E80041F8232000BF0C37BD465DF8047B7047FB
:1001F80000E100E080B483B000AF78600B46FB708C
:10020800FB7803F00F03D9B27A68936861F3071398
:1002180093607B6818460C37BD465DF8047B7047D1
:1002280080B483B000AF78600B46FB70FB7803F0B6
:100238000703D9B27A68936861F38C2393607B686B
:1002480018460C37BD465DF8047B704780B483B010
:1002580000AF78600B46FB70FB7803F00703D9B258
:100268007A68936861F34F3393607B6818460C375C
:10027800BD465DF8047B704780B483B000AF7860FA
:100288000B46FB70FB7803F00303D9B27A689368D6
:1002980061F3010393607B6818460C37BD465DF82F
:1002A800047B704780B483B000AF78600B46FB7066
:1002B800FB7803F00303D9B27A68536861F31143FA
:1002C80053607B6818460C37BD465DF8047B704761
:1002D80080B483B000AF78600B46FB70FB7803F006
:1002E8000103D9B27A68536861F3965353607B6807
:1002F80018460C37BD465DF8047B704780B582B060
:1003080000AF78607B689B68C3F38223DBB2194631
:10031800786800F089F8034618460837BD4680BD5E
:1003280080B582B000AF78607B689B68C3F34233C6
:10033800DBB21946786800F077F8034618460837A4
:10034800BD4680BD80B483B000AF78607A6813681A
:1003580043F4803313607B6818460C37BD465DF85C
:10036800047B704780B483B000AF78607B681B68FB
:10037800C3F34043DBB283F00103DBB2002B00D0B0
:10038800F4E77B6818460C37BD465DF8047B704778
:1003980080B483B000AF78607A68136843F08073E4
:1003A80013607B6818460C37BD465DF8047B7047C0
:1003B80080B483B000AF78607B681B68C3F3406388
:1003C800DBB283F00103DBB2002B00D0F4E77B68DB
:1003D80018460C37BD465DF8047B704780B582B07F
:1003E80000AF786039603B680A2B02D03B680F2B5E
:1003F80004D17868FFF794FF034611E03B680B2BA4
:1004080008D03B680C2B05D03B680D2B02D03B680D
:100418000E2B04D17868FFF771FF034600E0002334
:1004280018460837BD4680BD80B483B000AF7860F9
:100438000B46FB70FB78002B10D0FB78042B0BD0FD
:10044800FB78052B06D0FB78062B01D1074B06E07D
:10045800074B04E0074B02E0074B00E0074B184648
:100468000C37BD465DF8047B704700BF406F400104
:10047800A037A00080DE800200BD0105007A030AD3
:1004880080B483B000AF78600B46FB70FB7803F054
:100498000703D9B27A68136861F3020313607B68B3
:1004A80018460C37BD465DF8047B704780B483B0AE
:1004B80000AF78607A68136943F0004313617B6882
:1004C80018460C37BD465DF8047B704780B483B08E
:1004D80000AF78607B681B69C3F3C073DBB2184652
:1004E8000C37BD465DF8047B704780B483B000AF1D
:1004F80078607A68136943F0010313617B681846D2
:100508000C37BD465DF8047B704780B483B000AFFC
:1005180078607B68DB68C3F30003DBB218460C37EE
:10052800BD465DF8047B704780B483B000AF786047
:100538007A68D36843F00103D3607B6818460C37A8
:10054800BD465DF8047B704780B483B000AF786027
:100558007B68DB68C3F30043DBB218460C37BD4643
:100568005DF8047B704780B483B000AF78600B46B9
:10057800FB70FB7803F00303D9B27A68136961F35F
:10058800092313617B6818460C37BD465DF8047B68
:10059800704780B483B000AF78607A68136943F01D
:1005A800807313617B6818460C37BD465DF8047B81
:1005B8007047000080B584B000AF78600A4BFB60DC
:1005C8000A4BBB607868FFF781FF0346002B05D014
:1005D8007B68054A5A607B68044A5A607B681846FB
:1005E8001037BD4680BD00BF23016745AB89EFCDFD
:1005F80080B483B000AF7860396001223B6802FAAA
:1006080003F31A467B689A6100BF0C37BD465DF854
:10061800047B704780B483B000AF786039603B6872
:100628001033012202FA03F31A467B689A6100BF6D
:100638000C37BD465DF8047B704780B485B000AFC9
:10064800F860B9607A60FB68BA681A60FB687A6813
:100658005A60FB6818461437BD465DF8047B70473E
:1006680080B582B000AF78607B681A687B685B6889
:1006780019461046FFF7BCFF00BF0837BD4680BDCE
:1006880080B582B000AF78607B681A687B685B6869
:1006980019461046FFF7BEFF00BF0837BD4680BDAC
:1006A80080B582B000AF78600B46FB70FB78002BFA
:1006B80003D07868FFF7D4FF02E07868FFF7E0FF1F
:1006C800FB7818460837BD4680BD80B483B000AFBC
:1006D80078607A68136843F0010313607B681846F2
:1006E8000C37BD465DF8047B704780B483B000AF1B
:1006F80078607A68136843F0800313607B68184653
:100708000C37BD465DF8047B704780B483B000AFFA
:1007180078600B467B807A887B68DA627B6818464B
:100728000C37BD465DF8047B704780B483B000AFDA
:10073800786039607B68203319687B6820333A68B1
:100748000A431A607B6818460C37BD465DF8047B7F
:10075800704780B483B000AF786039607B6820331D
:1007680019683B68DA437B6820330A401A607B6863
:1007780018460C37BD465DF8047B704780B483B0DB
:1007880000AF78600B46FB7013463B80FB78012B6B
:1007980003D13A887B685A6313E0FB78022B03D1B4
:1007A8003A887B689A630CE0FB78032B03D13A887C
:1007B8007B68DA6305E0FB78042B02D13A887B6812
:1007C8001A647B6818460C37BD465DF8047B704791
:1007D80080B483B000AF786039607B6800221A80EB
:1007E8007B683A685A607B6818460C37BD465DF8E6
:1007F800047B704780B582B000AF78600B467B8081
:100808007B681B887A889A4221D07B8840F603222D
:1008180093421CD97B687A881A807B681B881A46A1
:100828000D4BB3FBF2F27B685B6892B21A817B686E
:100838005B681A687B685B681B8919461046FFF776
:1008480064FF7B685B681833184600F063F800BFE4
:100858000837BD4680BD00BF007A030A80B483B064
:1008680000AF786039607B6800221A807B683A683C
:100878005A607B6818460C37BD465DF8047B7047A4
:1008880080B582B000AF78600B467B807B681A88A1
:100898007B8813449BB21946786800F005F8034634
:1008A80018460837BD4680BD80B582B000AF786075
:1008B8000B467B807B681B887A889A4223D07B888A
:1008C800002B20D07B685B68DB897A889A421AD82B
:1008D8007B687A881A807B685B6818687B685B68C5
:1008E800997A7B685B681B891A467B681B8803FBBF
:1008F80002F3074A82FB03C25211DB17D31A9BB2D9
:100908001A46FFF73BFF7B8818460837BD4680BD6F
:100918001F85EB5180B582B000AF78607B685B685B
:1009280018687B685B68997A7B685B681B891A46DC
:100938007B681B8803FB02F3064A82FB03C2521141
:10094800DB17D31A9BB21A46FFF718FF00BF083708
:10095800BD4680BD1F85EB5180B584B000AFF860FF
:10096800B9607A60FB70FB68BA681A60FB687A68DD
:100978005A60FB684FF6FF721A81FB68FA789A7220
:10098800FB683A8B9A81FB68BA8BDA81FB68103373
:10099800F9681846FFF71CFFFB681833F968184612
:1009A800FFF75CFFFB6818461037BD4680BD80B571
:1009B80082B000AF78607B681A687B689B891946AB
:1009C8001046FFF7B2FE00BF0837BD4680BD80B5B0
:1009D80082B000AF78607B681A687B689B8919468B
:1009E8001046FFF7B6FE00BF0837BD4680BD80B58C
:1009F80082B000AF786039607B683968184601F0CA
:100A08006BFA00BF0837BD4680BD80B582B000AF25
:100A1800786039607B683968184601F07EFA00BF53
:100A28000837BD4680BD80B586B000AF78607B686A
:100A38007B617B69184601F0C2FA0346FB607B695B
:100A4800184601F0DBFA0346BB6007F1080207F11C
:100A58000C031146184601F0E1FA0346002B10D0AA
:100A680007F10C03184601F0FDFA38613B691B6871
:100A78001B683869984707F10C03184601F0E2FA39
:100A8800E3E700BF1837BD4680BD80B483B000AF30
:100A9800786039607B683A685A6000BF0C37BD4699
:100AA8005DF8047B704780B483B000AF78607B68E2
:100AB80000229A6000BF0C37BD465DF8047B704782
:100AC80080B483B000AF78600B46FB70FB7803F00E
:100AD8000103D9B27A68136861F38203136000BF17
:100AE8000C37BD465DF8047B704780B483B000AF17
:100AF80078607A68136843F00203136000BF0C370C
:100B0800BD465DF8047B704780B483B000AF786061
:100B18007A68136843F00103136000BF0C37BD46C1
:100B28005DF8047B704780B483B000AF78607B6861
:100B380000221A607B6800225A607B6818460C37CE
:100B4800BD465DF8047B704780B582B000AF786021
:100B58007B681846FFF7E7FF7B6818460837BD46ED
:100B680080BD80B582B000AF78607B681846FFF71B
:100B7800EBFF01F083FA0346184601F089FA7B6817
:100B880018460837BD4680BD80B500AF0248FFF75C
:100B98004AFF00BF80BD00BF8800002080B483B03A
:100BA80000AF78607B6800221A607B6800225A6078
:100BB8007B6818460C37BD465DF8047B704700001B
:100BC80080B582B000AF78607B6804331846FFF7C1
:100BD800E5FF044A7B681A607B6818460837BD46FB
:100BE80080BD00BFBC4A000880B582B000AF786005
:100BF8007B681846FFF7E4FF054A7B681A607B6844
:100C080000221A737B6818460837BD4680BD00BFAE
:100C1800B04A000880B582B000AF786039607B6860
:100C28001846FFF7E1FF094A7B681A607B680022D3
:100C38001A617B6800225A613968786800F017F8F1
:100C48007B6818460837BD4680BD00BFA44A000827
:100C580080B483B000AF78607B685B695A1C7B689E
:100C68005A6100BF0C37BD465DF8047B704780B5FC
:100C780082B000AF786039607B683A681A617B6837
:100C8800184600F035F800BF0837BD4680BD80B46F
:100C980083B000AF78607B685A697B681B699A42A9
:100CA8002CBF01230023DBB2002B04D07B68002279
:100CB8005A61012300E0002318460C37BD465DF851
:100CC800047B704780B582B000AF78607B681B7B7F
:100CD800002B07D07B6800221A737B6819460348EB
:100CE800FFF793FE00BF0837BD4680BD880000208F
:100CF80080B582B000AF78607B681B7B83F001030E
:100D0800DBB2002B07D07B6801221A737B68194677
:100D18000348FFF76CFE00BF0837BD4680BD00BF23
:100D28008800002080B483B000AF786039603B68E9
:100D38001A687B681B689A4201D23B6800E07B68AE
:100D480018460C37BD465DF8047B704780B483B005
:100D580000AF78600B46FB70FB7803F00103D9B253
:100D68007A68D36861F34923D3607B6818460C37E7
:100D7800BD465DF8047B704780B483B000AF7860EF
:100D88000B46FB70FB7803F00103D9B27A68D3688D
:100D980061F30C33D3607B6818460C37BD465DF8A9
:100DA800047B704780B483B000AF78600B46FB705B
:100DB800FB7803F00303D9B27A68136961F30D3342
:100DC80013617B6818460C37BD465DF8047B704795
:100DD80080B483B000AF78607A68D36843F4005376
:100DE800D3607B6818460C37BD465DF8047B7047B6
:100DF80080B483B000AF78607A68D36843F00403A6
:100E0800D3607B6818460C37BD465DF8047B704795
:100E180080B483B000AF78607A68D36843F0080381
:100E2800D3607B6818460C37BD465DF8047B704775
:100E380080B483B000AF78607A68536943F0800368
:100E480053617B6818460C37BD465DF8047B7047D4
:100E580080B483B000AF78607A68536943F0400388
:100E680053617B6818460C37BD465DF8047B7047B4
:100E780080B483B000AF78607A68D36843F4806345
:100E8800D3607B6818460C37BD465DF8047B704715
:100E980080B483B000AF78607A68D3686FF38A2330
:100EA800D3607B6818460C37BD465DF8047B7047F5
:100EB80080B582B000AF78600B46FB70FB78002BE2
:100EC80003D07868FFF7D4FF02E07868FFF7E0FF07
:100ED8007B6818460837BD4680BD80B483B000AF34
:100EE80078600B46FB707A68D368F97861F304136D
:100EF800D3607B6818460C37BD465DF8047B7047A5
:100F080080B483B000AF78607B681B68C3F30013BC
:100F1800DBB218460C37BD465DF8047B704780B4D9
:100F280083B000AF78607B681B6818460C37BD46F5
:100F38005DF8047B704780B483B000AF78607B684D
:100F48005B6818460C37BD465DF8047B704780B572
:100F580084B000AF78607868FFF7E1FFF8607868E0
:100F6800FFF7E9FFF8607B6818461037BD4680BD7B
:100F780080B483B000AF78607B68043318460C37C0
:100F8800BD465DF8047B704780B483B000AF7860DD
:100F98007B68043318460C37BD465DF8047B704700
:100FA80080B586B000AFF8600B467A60FB7201F03E
:100FB8008DF8034679681846FFF710FA7861FB7ACE
:100FC800072B53D801A252F823F000BFF50F0008F1
:100FD8000510000815100008251000083510000835
:100FE8004510000855100008651000087B69224A62
:100FF800A2FB03239A0AFB689A6037E07B691F4AC1
:10100800A2FB03235A0BFB689A602FE07B691A4AFC
:10101800A2FB0323DA0AFB689A6027E07B69174A78
:10102800A2FB03239A0BFB689A601FE07B69124AB4
:10103800A2FB03231A0BFB689A6017E07B690F4A2F
:10104800A2FB0323DA0BFB689A600FE07B690A4A6C
:10105800A2FB03235A0BFB689A6007E07B69074AE7
:10106800A2FB03231A0CFB689A6000BFFB681846B2
:101078001837BD4680BD00BFB5814E1BC5B3A291D0
:1010880080B483B000AF78607B6818460C37BD46E3
:101098005DF8047B704780B483B000AF78607B68EC
:1010A80018460C37BD465DF8047B704780B582B0A2
:1010B80000AF78600B46FB70FB78002B08D17B688B
:1010C80008331846FFF7DCFF02463D23136058E05B
:1010D800FB78012B09D17B6808331846FFF7D0FF4E
:1010E80002464FF4746313604BE0FB78022B09D17E
:1010F8007B6808331846FFF7C3FF02464FF47413A2
:1011080013603EE0FB78032B09D17B68083318464F
:10111800FFF7B6FF02464FF07463136031E0FB78C7
:10112800042B08D17B680C331846FFF7B4FF02463E
:101138003D23136025E0FB78052B09D17B680C3330
:101148001846FFF7A8FF02464FF47463136018E0CF
:10115800FB78062B09D17B680C331846FFF79BFFF9
:1011680002464FF4741313600BE0FB78072B08D189
:101178007B680C331846FFF78EFF02464FF0746306
:10118800136000BF0837BD4680BD80B483B000AF90
:1011980078607B6818460C37BD465DF8047B70475D
:1011A80080B483B000AF78607B6818460C37BD46C2
:1011B8005DF8047B704780B582B000AF78600B465D
:1011C800FB70FB78002B0DD17B681846FFF7DDFF1D
:1011D80003461B6803F02003002B14BF01230023E0
:1011E800DBB27BE0FB78012B0DD17B681846FFF75B
:1011F800CCFF03461B6803F40063002B14BF0123D4
:101208000023DBB26AE0FB78022B0DD17B6818461D
:10121800FFF7BBFF03461B6803F40013002B14BF42
:1012280001230023DBB259E0FB78032B0DD17B6847
:101238001846FFF7AAFF03461B6803F00063002B5C
:1012480014BF01230023DBB248E0FB78042B0ED146
:101258007B6804331846FFF7A3FF03461B6803F0B7
:101268002003002B14BF01230023DBB236E0FB78F8
:10127800052B0ED17B6804331846FFF791FF034610
:101288001B6803F40063002B14BF01230023DBB2A7
:1012980024E0FB78062B0ED17B6804331846FFF751
:1012A8007FFF03461B6803F40013002B14BF0123C0
:1012B8000023DBB212E0FB78072B0ED17B680433E6
:1012C8001846FFF76DFF03461B6803F00063002B09
:1012D80014BF01230023DBB200E0002318460837BF
:1012E800BD4680BD80B483B000AF78607A6813686B
:1012F80043F0010313607B681B68C3F30003DBB290
:1013080083F00103DBB2002B00D0F4E77B681846BA
:101318000C37BD465DF8047B704780B483B000AFDE
:1013280078607A6813686FF3000313607B68184667
:101338000C37BD465DF8047B704780B483B000AFBE
:1013480078607A68136843F4806313607B68184692
:101358000C37BD465DF8047B704780B483B000AF9E
:1013680078607A68136843F4807313607B68184662
:101378000C37BD465DF8047B704780B483B000AF7E
:10138800786039607B683A68DA607B6818460C37A1
:10139800BD465DF8047B704780B483B000AF7860C9
:1013A80039607B683A689A607B6818460C37BD4696
:1013B8005DF8047B704780B483B000AF78600B465B
:1013C8007B807A887B685A607B6818460C37BD46F4
:1013D8005DF8047B704780B483B000AF78600B463B
:1013E800FB70FB7803F00303D9B27A68136861F3E2
:1013F800871313607B6818460C37BD465DF8047B7D
:10140800704780B483B000AF78600B46FB70FB7800
:1014180003F00303D9B27A68136861F34E3313609B
:101428007B6818460C37BD465DF8047B704780B46E
:1014380083B000AF78600B46FB70FB7803F00303C2
:10144800D9B27A68136861F3CC2313607B681846B5
:101458000C37BD465DF8047B704780B483B000AF9D
:1014680078600B46FB70FB7803F00703D9B27A6803
:10147800136861F35B6313607B6818460C37BD46DD
:101488005DF8047B704780B483B000AF78607A68F9
:10149800136843F0100313607B6818460C37BD4689
:1014A8005DF8047B704780B483B000AF78607B68D8
:1014B8005B689BB218460C37BD465DF8047B7047E5
:1014C80080B483B000AF78600B46FB707B68002265
:1014D8001A607B68FA781A717B6818460C37BD4623
:1014E8005DF8047B7047000080B582B000AF78607B
:1014F800054B1B687A6892F904201046984700BF8C
:101508000837BD4680BD00BF0000002080B485B00C
:1015180000AF786039607B681B68FB60FB68002B54
:101528000BD0FB685B68002B03D0FB685B68FB6033
:10153800F7E7FB683A685A6002E07B683A681A6025
:1015480000BF1437BD465DF8047B704780B584B092
:1015580000AF78607B681B68FB60FB68002B08D0D5
:10156800FB681B681B68F8689847FB685B68FB604A
:10157800F3E700BF1037BD4680BD80B400AFFEE77B
:1015880080B400AFFEE780B400AFFEE780B400AFE0
:10159800FEE780B400AFFEE780B400AFFEE780B49A
:1015A80000AFFEE780B400AFFEE780B400AFFEE70F
:1015B80080B400AFFEE780B400AFFEE780B400AFB0
:1015C800FEE780B400AFFEE780B400AFFEE780B46A
:1015D80000AFFEE780B400AFFEE780B400AFFEE7DF
:1015E80080B400AFFEE780B400AFFEE780B400AF80
:1015F800FEE780B400AFFEE780B400AFFEE780B43A
:1016080000AFFEE780B400AFFEE780B400AFFEE7AE
:1016180080B400AFFEE780B400AFFEE780B400AF4F
:10162800FEE780B400AFFEE780B400AFFEE780B409
:1016380000AFFEE780B400AFFEE780B400AFFEE77E
:1016480080B400AFFEE780B400AFFEE780B400AF1F
:10165800FEE780B400AFFEE780B400AFFEE780B4D9
:1016680000AFFEE780B400AFFEE780B400AFFEE74E
:1016780080B400AFFEE780B400AFFEE780B400AFEF
:10168800FEE780B400AFFEE780B400AFFEE780B4A9
:1016980000AFFEE780B400AFFEE780B400AFFEE71E
:1016A80080B400AFFEE780B400AFFEE780B400AFBF
:1016B800FEE780B400AFFEE780B400AFFEE780B479
:1016C80000AFFEE780B400AFFEE780B400AFFEE7EE
:1016D80080B400AFFEE780B400AFFEE780B500AF8E
:1016E8000548FFF733FF00F0FBFC03461846FFF7F9
:1016F8002EFC00BF80BD00BF9000002080B500AF69
:101708000548FFF723FF00F0F5FC03461846FFF7EE
:101718001EFC00BF80BD00BF9800002080B500AF50
:101728000548FFF713FF00F0EFFC03461846FFF7E4
:101738000EFC00BF80BD00BFA000002080B500AF38
:101748000548FFF703FF00F0E9FC034600211846AF
:10175800FFF7ACFC00BF80BDA800002080B500AF3B
:101768000548FFF7F3FE00F0D9FC034601211846AF
:10177800FFF79CFC00BF80BDB000002080B500AF23
:101788000548FFF7E3FE00F0C9FC034602211846AE
:10179800FFF78CFC00BF80BDB800002080B500AF0B
:1017A8000548FFF7D3FE00F0B9FC034603211846AD
:1017B800FFF77CFC00BF80BDC000002080B500AFF3
:1017C8000548FFF7C3FE00F0A9FC034605211846AB
:1017D800FFF76CFC00BF80BDC800002080B500AFDB
:1017E8000548FFF7B3FE00F099FC034605211846AB
:1017F800FFF75CFC00BF80BDD000002080B500AFC3
:101808000548FFF7A3FE00F089FC034606211846A9
:10181800FFF74CFC00BF80BDD800002080B500AFAA
:101828000548FFF793FE00F079FC034607211846A8
:10183800FFF73CFC00BF80BDE000002080B500AF92
:101848000548FFF783FE00F073FC034600211846A5
:10185800FFF72CFC00BF80BDE800002080B500AF7A
:101868000548FFF773FE00F063FC034601211846A4
:10187800FFF71CFC00BF80BDF000002080B500AF62
:101888000548FFF763FE00F053FC034602211846A3
:10189800FFF70CFC00BF80BDF800002080B500AF4A
:1018A8000548FFF753FE00F043FC034603211846A2
:1018B800FFF7FCFB00BF80BD0001002080B500AF32
:1018C8000548FFF743FE00F033FC034604211846A1
:1018D800FFF7ECFB00BF80BD0801002080B500AF1A
:1018E8000548FFF733FE00F023FC034605211846A0
:1018F800FFF7DCFB00BF80BD1001002080B500AF02
:101908000548FFF723FE00F013FC0346062118469E
:10191800FFF7CCFB00BF80BD1801002080B500AFE9
:101928000548FFF713FE00F003FC0346072118469D
:10193800FFF7BCFB00BF80BD2001002080B500AFD1
:1019480000F000FC00BF80BD80B500AF0F4B1B68E6
:1019580003F00103002B0AD100F0C8FC034609225A
:1019680019460B48FEF769FE084B01221A6000F081
:10197800ADFB0346184600F0C3FC054B1B68184630
:1019880000F0CDFC024B184680BD00BF300100209E
:101998002801002080B500AF0F4B1B6803F001033E
:1019A800002B0AD100F0A2FC03460A2219460B4874
:1019B800FEF743FE084B01221A6000F087FB03463E
:1019C800184600F09DFC054B1B68184600F0B7FC54
:1019D800024B184680BD00BF3C01002034010020A6
:1019E80080B500AF0F4B1B6803F00103002B0AD131
:1019F80000F07CFC03460C2219460B48FEF71DFE3E
:101A0800084B01221A6000F061FB0346184600F0FB
:101A180077FC054B1B68184600F0A1FC024B1846E2
:101A280080BD00BF480100204001002080B400AF05
:101A380007231846BD465DF8047B704780B400AFA5
:101A4800024B1846BD465DF8047B704790000020A5
:101A580080B483B000AF78607B6818460C37BD4609
:101A68005DF8047B704780B582B000AF7860786815
:101A7800FFF7EEFF0346184600F0F8FC02467B68C5
:101A8800D3F80031134418460837BD4680BD00001E
:101A980080B400AF024B1846BD465DF8047B704722
:101AA8002001002080B400AF04231846BD465DF82D
:101AB800047B704780B400AF04231846BD465DF828
:101AC800047B70472DE9F0478EB006AF00F006FCA6
:101AD8002123FB611C23BB6111237B610A233B612A
:101AE8000A23FB60684B1B6803F00103002B28D115
:101AF800FFF72AFF8046FFF74DFF8146FFF770FF8B
:101B0800824600F0EDFA044600F012FB054600F0AC
:101B180033FC064600F03AFC7860FFF787FF03467F
:101B280005930A2304937B68039302960195009416
:101B380053464A464146554800F045FC524B01225F
:101B48001A6000F0C3FAB860B86800F071FC4F4B37
:101B5800D3F818311846FFF75BF903461846FFF724
:101B680047F903461846FFF763F903461846FFF797
:101B78006FF9FFF763FF03461846FFF7B5FCB8682F
:101B880000F065FC414BD3F81C3101211846FFF7E2
:101B980022FC04463D48FFF766FF034619462046E7
:101BA800FFF7EBFB0446394BD3F818311846FFF71B
:101BB800EBF9034619462046FFF7EEFB03461846A5
:101BC800FFF7BBFB034600211846FFF71AFC034644
:101BD80000211846FFF72BFC03461846FFF753FC75
:101BE800FFF756FF03461846FFF77EFC274BD3F84E
:101BF800203100211846FFF7EEFB04462348FFF783
:101C080032FF034619462046FFF7B7FB04461F4B31
:101C1800D3F818311846FFF7ABF9034619462046A2
:101C2800FFF7BAFB0346FF211846FFF7C4FB03463C
:101C38001846FFF782FB034600211846FFF7E1FB31
:101C4800034600211846FFF7F2FB03461846FFF744
:101C580084FB0E4BD3F82041FFF724FF03461946B7
:101C68002046FFF7FAFB094BD3F81C41FFF722FF88
:101C7800034619462046FFF7F0FB044B1846203769
:101C8800BD46BDE8F08700BF780200204C01002067
:101C980090B587B002AF0346B980FB71FFF712FF1A
:101CA800F860254B1B6803F00103002B0FD1FFF7E9
:101CB800C5FE0446FFF7ECFE0346F9790093234678
:101CC800FA681E4800F0DEFB1B4B01221A603B79C4
:101CD80023F01F03DBB2002B19D03B7923F01F033D
:101CE800DBB2202B11D03B7923F01F03DBB2402B52
:101CF80009D03B7923F01F03DBB2602B01D102230B
:101D080006E0012304E0022302E0032300E00423A9
:101D18000A4A1362094B1B693A1D1146184600F01E
:101D280015FC064B1B69184600F054FC034B18467B
:101D38001437BD4690BD00BF040300207C0200207C
:101D480080B400AF04231846BD465DF8047B704795
:101D580080B500AF0F4B1B6803F00103002B0AD1BD
:101D680000F07AFC0346092219460B48FEF765FC89
:101D7800084B01221A6000F0A9F90346184600F042
:101D880075FC054B1B68184600F07FFC024B184693
:101D980080BD00BF100300200803002080B400AFFE
:101DA8004FF480531846BD465DF8047B7047000029
:101DB800F0B587B002AF0346FB8000F03CFC05237A
:101DC800FB600423FB721F4B1B6803F00103002B0D
:101DD80019D100F037FC0446FFF7BAFF0546FFF7B4
:101DE800AFFF03461E46FFF7D9FF03461A46FB8896
:101DF8000193009233462A4621461348FEF7ACFD6C
:101E0800104B01221A6000F061F90346184600F0F1
:101E18004CFC0D4B1B680621184600F055FC034688
:101E28001846FEF762FC03461846FEF74EFC40F6DD
:101E380004210648FEF7DEFC034B18461437BD465E
:101E4800F0BD00BF34030020140300202403002049
:101E580080B59CB002AF07F12C03184600F0E8F9F2
:101E680097F83E30B98F1846FFF712FF786664205E
:101E7800FFF79EFF386600233B857B6E0922A3F897
:101E88005C207A8F7B6EA3F85E2097F83E309AB27A
:101E98007B6EA3F862207B6EBA8FA3F860207B6EFE
:101EA800FF22A3F876207B6E0122A3F86C207B6EBC
:101EB800FF22A3F8782007F12C0207F12801384601
:101EC8007B6E009313463A6E00F014FC3B461846AE
:101ED80000F0DAFC30BFF9E780B483B000AF786077
:101EE80039607B685A683B685A607B685B68002B7E
:101EF80003D07B685B683A689A607B683A685A6086
:101F08007B681B68002B02D17B683A681A6000BFA7
:101F18000C37BD465DF8047B704780B483B000AFD2
:101F2800786039603B685B68002B0ED03B689B6823
:101F3800002B0AD03B685B683A6892689A603B68F5
:101F48009B683A6852685A602DE03B689B68002B92
:101F58000FD03B689A687B681A607B681B68002210
:101F68005A607B681B68002B1DD17B6800225A6071
:101F780019E03B685B68002B0FD03B685A687B68A8
:101F88005A607B685B6800229A607B685B68002BFC
:101F980009D17B6800221A6005E07B6800221A607C
:101FA8007B6800225A603B6800225A603B68002226
:101FB8009A6000BF0C37BD465DF8047B704780B55A
:101FC80084B000AF78607B681A6807F10C0311468B
:101FD800184600F0A5FCFB6818461037BD4680BDC2
:101FE80080B483B000AF78607B6800221A607B6899
:101FF80018460C37BD465DF8047B704780B584B041
:1020080000AF78600023FB6007F10C031846FFF768
:10201800E7FFFB6818461037BD4680BD80B483B023
:1020280000AF786039607B681A683B681B689A4221
:1020380014BF01230023DBB218460C37BD465DF8F8
:10204800047B704780B483B000AF78607B681B68FE
:102058009A687B681A607B6818460C37BD465DF83D
:10206800047B704780B483B000AF78607B681B68DE
:1020780018460C37BD465DF8047B704780B400AF46
:10208800024B1846BD465DF8047B704710E000E03F
:1020980080B584B000AF78600B4BFB600A49786864
:1020A800FEF7F3FC7868FEF7FEFC01217868FEF77E
:1020B80007FD7868FEF719FD7868FEF725FD00BF73
:1020C8001037BD4680BD00BF3F90020080B400AF0E
:1020D800024B1846BD465DF8047B70470038024045
:1020E80080B400AF024B1846BD465DF8047B7047CC
:1020F8000010014080B400AF024B1846BD465DF8A1
:10210800047B70470044004080B400AF024B18467F
:10211800BD465DF8047B70470048004080B400AFBE
:10212800024B1846BD465DF8047B704700600240CC
:1021380080B400AF024B1846BD465DF8047B70477B
:102148000064024080B500AF00F0FAFB03460521A9
:102158001846FEF795F9FFF7B9FF03461846FEF74C
:10216800F1F803461846FEF7FDF803460021184625
:10217800FEF740F8034605211846FEF751F80346D6
:1021880004211846FEF762F8034602211846FEF7B6
:1021980073F80346184600F0DDFB0346184600F0C6
:1021A800EAFB034600211846FEF77CF803460121A6
:1021B8001846FEF78DF803461846FEF7E9F8034679
:1021C8001846FEF7F5F800BF80BD80B483B000AFB5
:1021D80078607B6800221A807B6800225A807B68BE
:1021E80001221A717B680022DA807B6818460C3756
:1021F800BD465DF8047B704780B483B000AF78605B
:102208007B6800221A607B6818460C37BD465DF86B
:10221800047B704780B483B000AF78607B6800228D
:102228001A707B6818460C37BD465DF8047B70470A
:1022380080B582B000AF78607B680E331846FFF730
:10224800C4FF7B681846FEF7CFFC234A7B681A60F8
:1022580000F0A2FB03461A467B689A6100F070FB07
:1022680002467B68DA617B6803F10E027B681A62BA
:102278007B680022DA627B682C331846FFF7BCFFC4
:102288007B68002283F830207B68002283F83120A5
:102298007B68002283F833207B6833331846FFF7C6
:1022A800B9FF786800F099FB034683F00103DBB2BD
:1022B800002B07D07B680E3300221A605A607B68B7
:1022C80001229A747B681846FEF712FD7B6818464F
:1022D8000837BD4680BD00BF8C4A000880B400AFF7
:1022E80000BFBD465DF8047B7047000080B400AFB6
:1022F800024B1846BD465DF8047B7047000002405B
:1023080080B483B000AF78607A68136B43F0010340
:10231800136300BF0C37BD465DF8047B704780B57A
:1023280082B000AF78600221786800F014FC0721C1
:10233800786800F026FC00BF0837BD4680BD80B530
:1023480082B000AF78600221786800F030FC072185
:10235800786800F042FC00BF0837BD4680BD80B5F4
:1023680082B000AF78600121786800F04CFC00BFB3
:102378000837BD4680BD000080B400AF024B184648
:10238800BD465DF8047B7047B864024080B400AF76
:10239800024B1846BD465DF8047B70474064024016
:1023A80080B483B000AF78607B680022C3F8002156
:1023B8007B680022C3F804217B6818460C37BD46A9
:1023C8005DF8047B704780B584B000AFF860B960F1
:1023D8007A603B60FB681846FFF7E2FFFB68BA6863
:1023E800C3F80821FB687A68C3F80C21FB683A68CF
:1023F800C3F81021FB68FA69C3F81421FB68BA69AD
:10240800C3F81821FB683A6AC3F81C21FB687A6A8A
:10241800C3F82021FB68BA6AC3F82421FB6897F83F
:102428002C2083F82821FB6818461037BD4680BD4C
:1024380080B483B000AF78607A68536C43F01003BF
:10244800536400BF0C37BD465DF8047B704780B409
:1024580083B000AF78607A68136B43F4800313632A
:1024680000BF0C37BD465DF8047B704780B582B06D
:1024780000AF7860786800F0DCFB03461846083740
:10248800BD4680BD80B584B000AFF8607A603B601F
:102498000B46FB72FB681846FEF7A6FB2A4AFB6848
:1024A8001A60FB687A681A61FB683A685A61FB68C7
:1024B800BA699A61FB680022DA61FB6800221A6235
:1024C800FB68FA7A83F82420FB680022DA84FB6828
:1024D80000221A85FB6800225A85FB68002283F8CF
:1024E8002C20FB6800221A86FB683833F9681846E6
:1024F80000F0C0FBFB684433F968184600F0D8FBCD
:10250800FB68503300221A605A609A60FB685C339B
:1025180000221A605A609A609A81FB686A33002226
:102528001A605A609A60FB68763300221A605A6013
:102538009A60FB68823300221A609A80FB6818460A
:102548001037BD4680BD00BF684A000880B582B01C
:1025580000AF786039607B68D3F818013B681B7856
:10256800C3F34213DBB219467B68D3F824311A4609
:10257800FEF716FD02463B681B78C3F34003DBB247
:1025880019461046FEF7E2FB02463B681B78C3F388
:102598008003DBB219461046FEF7EEFB02463B68A5
:1025A8001B78C3F3C103DBB219461046FEF7FAFBEA
:1025B80002463B681B78C3F30003DBB2194610469A
:1025C800FEF776FC03461846FEF702FC00BF083704
:1025D800BD4680BD80B582B000AF78607B68184684
:1025E80000F084FB7B68D3F8103100211846FEF711
:1025F80057F87B68D3F81C311846FEF78EFE7B68C7
:10260800D3F820311846FEF788FE0346FF21184606
:10261800FEF7D1FE7B68D3F820311846FEF762FE3C
:102628007B68D3F8183101211846FEF756FC00BF25
:102638000837BD4680BD80B400AF00BFBD465DF819
:10264800047B704780B400AF024B1846BD465DF866
:10265800047B70470004004080B400AF024B18466A
:10266800BD465DF8047B70470008024080B483B023
:1026780000AF78607A68136B43F00403136300BFFC
:102688000C37BD465DF8047B704780B582B000AF5B
:1026980078600221786800F05EFA0221786800F01C
:1026A80070FA00BF0837BD4680BD80B483B000AF64
:1026B80078607A68136C43F00203136400BF0C3728
:1026C800BD465DF8047B704780B483B000AF786086
:1026D8000B46FB70FB7803F00703D9B27A68D3691D
:1026E80061F30E33D3617B6818460C37BD465DF83D
:1026F800047B704780B584B000AFF860B9607A6039
:102708003B60FB68BA681A60FB687A685A60FB68C5
:102718003A689A60FB68BA69DA60FB6810330A2184
:102728001846FEF777FAFB6818461037BD4680BD95
:1027380080B582B000AF78600B467B807B88052B24
:1027480000F29B8001A252F823F000BF6D27000819
:1027580097270008BB270008D52700080B28000882
:10276800352800087B681B68DA687B681B68DB68AB
:10277800B2F85020A3F860207B681B68DB6803F17F
:1027880060027B681B689B6812881A8275E07B6808
:102798001B68DA687B681B68DB68B2F85220A3F80C
:1027A8006220B3F862207B681B689B68D2B29A7477
:1027B80063E07B681B68DB68B3F85430D02B0CBF30
:1027C80001230023DAB22F4B1A7056E02D4B1B78E9
:1027D800002B12D02B4B00221A707B681B68DA681A
:1027E8007B681B68DB68B2F85620A3F85E207A681D
:1027F80012689268B3F85E30D381224B01221A70B6
:102808003BE07B681B68DA687B681B68DB68B2F8AA
:102818005820A3F86420B3F864207B681B685B68C1
:10282800103311461846FDF7E5FF26E07B681B6864
:10283800DA687B681B68DB68B2F85A20A3F868205E
:102848007B681B68DB68B3F86830002B06D07B68B0
:102858001B685B681846FEF7AAF80DE07B681B68E2
:102868005B681846FEF7B3F87B681B685B6818332B
:1028780000211846FEF718F800BF00BF0837BD460C
:1028880080BD00BF3803002090B583B000AF7860EA
:102898007B685B6803F118027B68DC6832211046AC
:1028A800FEF702F80346A4F866307B681B686422CA
:1028B8001A807A68D2681B88A2F868307B68DB685F
:1028C800B3F86830002B09D07B6810331846FEF740
:1028D800DEF90346002B01D0012300E00023002B82
:1028E80013D07B681B681A887B68DB68B3F868308C
:1028F8009A4202D94FF0FF3200E001227B685B6800
:10290800183311461846FDF7BBFF7B68DB687A6809
:102918001146184600F00DFA00BF0C37BD4690BDB1
:1029280080B483B000AF786039607B683A681A6019
:102938007B6818460C37BD465DF8047B704700007D
:1029480080B400AF024B1846BD465DF8047B704763
:10295800003C024080B483B000AF78607A68536866
:10296800042161F3050353607B6818460C37BD46A4
:102978005DF8047B704780B483B000AF78607A68F4
:102988005368A82161F38E1353607B6818460C378F
:10299800BD465DF8047B704780B400AF024B184613
:1029A800BD465DF8047B70470000060880B483B01C
:1029B80000AF78607B6818460C37BD465DF8047B2D
:1029C800704780B483B000AF78607B6808331846DE
:1029D8000C37BD465DF8047B7047F0B58BB000AF8F
:1029E80078607B682433184600F029FA04467B682F
:1029F8002433184600F02EFA0146FF233B6107F105
:102A080010031A46204600F031FA07F108030022A5
:102A18001A605A607B689B693B623B6A7B623B6ACF
:102A280003F50033FB617A6AFB699A422CD07B6A12
:102A3800BB617B682C330021184600F02EFABB6975
:102A48001B78072B11D8BB691B781946BB695A78C4
:102A58007B680B4483F82420BB691B7807F12802A4
:102A68001344012203F8202C0AE0BB691B78FF2BD2
:102A780006D17B682C330021184600F02BFA03E0BE
:102A88007B6A02337B62CEE77B682C33184600F002
:102A98003AFA0346002B0CBF01230023DBB2002BBC
:102AA80009D07B68012283F830207B68052283F8EF
:102AB800312000234BE07B689B69184600F02FFA11
:102AC80004467B682C33184600F01DFA03465B0069
:102AD8001C447B689B69184600F02CFA0346324672
:102AE8001946204600F033FA0346FB75FB7D83F058
:102AF8000103DBB2002B05D07B68032283F830206A
:102B0800002324E007F108031846FFF74FFF0446A7
:102B180007F108031846FFF754FF03462A461946EB
:102B2800204600F02AFA0346BB75BB7D002B09D06E
:102B38007B68186A7B6824330822194601F016FE60
:102B4800012304E07B68032283F830200023184621
:102B58002C37BD46F0BD80B483B000AF78600B461B
:102B6800FB70FB7803F00303D9B27A68136861F34A
:102B7800934313607B6818460C37BD465DF8047BA9
:102B8800704780B483B000AF78600B46FB70FB7869
:102B980003F00F03D9B27A68536A61F307135362DB
:102BA8007B6818460C37BD465DF8047B704780B4D7
:102BB80083B000AF78600B46FB70FB7803F003032B
:102BC800D9B27A68136861F3155313607B681846A5
:102BD8000C37BD465DF8047B704780B483B000AF06
:102BE80078600B46FB70FB7803F00F03D9B27A6864
:102BF800536A61F30B2353627B6818460C37BD4652
:102C08005DF8047B704780B483B000AF78600B46F2
:102C1800FB70FB7803F00303D9B27A68136861F399
:102C2800196313607B6818460C37BD465DF8047B52
:102C3800704780B582B000AF78607B68184600F0B6
:102C4800B2F9034618460837BD4680BD80B483B044
:102C580000AF7860064A7B681A607B6800225A6079
:102C68007B6818460C37BD465DF8047B704700BF8B
:102C7800984A000880B582B000AF786039607B68F8
:102C88001846FFF7E3FF094A7B681A607B683A68D1
:102C98009A603B685B697A6811461846FEF736FC0D
:102CA8007B6818460837BD4680BD00BF804A0008CB
:102CB80080B582B000AF786039607B681846FFF74E
:102CC800C5FF094A7B681A607B683A689A603B6866
:102CD8009B697A6811461846FEF718FC7B68184607
:102CE8000837BD4680BD00BF744A000880B483B071
:102CF80000AF78607B680022C3F800217B6800225F
:102D0800C3F8042100BF0C37BD465DF8047B70474B
:102D180080B483B000AF78607B68D3F804217B6807
:102D2800D3F80031D31A18460C37BD465DF8047B3A
:102D3800704780B582B000AF786039607B681B69E6
:102D4800184600F03BF90346002B07D07B680022A9
:102D5800DA617B681846FDF7B5FF6DE07B68DA69D4
:102D68007B681B6A9A4266DB7B680022DA617B68B3
:102D78001846FDF7A7FF7B681B691846FFF7C8FFD1
:102D88000346072B94BF01230023DBB2002B05D099
:102D98007B681B691846FFF71DFC4DE07B681B69C3
:102DA800184600F026F903461A787B6893F8243011
:102DB8009A4214BF01230023DBB2002B05D07B68A5
:102DC8001B691846FFF706FC36E0786800F0FAF948
:102DD800034683F00103DBB2002B05D07B681B6937
:102DE8001846FFF7F7FB27E07B681B69184600F0D9
:102DF8002AFA7B681B69184600F025FA03461A462A
:102E08007B6883F825207B6893F82530032B03D152
:102E1800786800F039FA0FE07B6893F82530102BBA
:102E280004D13968786800F0B3FA05E001217868C0
:102E380000F049FB00E000BF0837BD4680BD80B404
:102E480083B000AF78607B6818460C37BD465DF8E4
:102E5800047B704780B483B000AF78607B68083328
:102E680018460C37BD465DF8047B704790B585B0B1
:102E780000AFF860B9607A60F86800F0BEFB0446FD
:102E8800B86800F0BAFB03467A681946204600F095
:102E9800BFFB00BF1437BD4690BD80B483B000AF00
:102EA800786039607B681B685A1C7B681A607B688D
:102EB8001B68B3F5803F02D27B681B6800E00023E3
:102EC8007A6813607B681B6818460C37BD465DF846
:102ED800047B704780B483B000AF786039607B684A
:102EE8001B68002B03D07B681B68013B01E04FF493
:102EF80080337A6813607B681B6818460C37BD46B8
:102F08005DF8047B704780B483B000AF78607B685D
:102F18001B6818460C37BD465DF8047B704780B4C3
:102F280083B000AF78607B6818460C37BD465DF803
:102F3800047B704780B483B000AF78607B6803F58A
:102F4800003318460C37BD465DF8047B704780B5E2
:102F580084B000AFF860B9603A711A46B968F86889
:102F680000F071FB0246BB6893420CBF01230023AB
:102F7800DBB218461037BD4680BD80B584B000AFBF
:102F8800F860B9603A711A46B968F86800F06EFBE3
:102F98000246BB6893420CBF01230023DBB21846EC
:102FA8001037BD4680BD80B483B000AF78607B68C1
:102FB80018460C37BD465DF8047B704790B583B062
:102FC80000AF78607B681846FFF7A2FE04467B686E
:102FD800D3F820311846FEF766FA0346C3F1FF031B
:102FE8009C4234BF01230023DBB218460C37BD4690
:102FF80090BD80B582B000AF78607868FEF728FD94
:1030080002467B68D3F800311946104600F041FBB0
:10301800034618460837BD4680BD80B582B000AF6C
:1030280078607868FEF714FD03461846FFF71EFA25
:1030380002467B68D3F80431134418460837BD4666
:1030480080BD000080B586B000AFF860B9607A60D6
:10305800FF23BB75FF237B75BB685A1CBA601A78BF
:103068007B7D5340FB75FB7D0D4AD25CBB7D534095
:10307800DBB27B75FB7D0B4AD35CBB75BA687B689A
:103088009A4200D0E8E707F1160207F1150319463E
:10309800F86800F03CFBF8681837BD4680BD00BFF3
:1030A800604800086049000880B582B000AF7860C9
:1030B8007B68184600F005F8034618460837BD46F1
:1030C80080BD80B582B000AF7860786800F005F800
:1030D800034618460837BD4680BD80B582B000AFAC
:1030E80078607B680133184600F005F803461846F7
:1030F8000837BD4680BD80B483B000AF78607B6878
:1031080018460C37BD465DF8047B704780B582B021
:1031180000AF78607868FFF7C7FF0346184600F0ED
:1031280005F8034618460837BD4680BD80B483B00D
:1031380000AF78607B6818460C37BD465DF8047BA5
:10314800704780B582B000AF78607B68184600F0A1
:1031580005F8034618460837BD4680BD80B582B0DD
:1031680000AF7860786800F005F80346184608371D
:10317800BD4680BD80B582B000AF78607B681846D8
:1031880000F005F8034618460837BD4680BD80B4F0
:1031980083B000AF78607B6818460C37BD465DF891
:1031A800047B704780B582B000AF78607868FFF71D
:1031B800C8FF03461846FFF7B9FF03461846083705
:1031C800BD4680BD90B587B000AF78607B681B694D
:1031D800184600F06DFA0346FB757B681B691846B4
:1031E80000F066FA0346BB757B681B691846FEF754
:1031F8003AFC04467B681B691846FFF70EFF024637
:1032080007F1080321461846FFF71CFF07F10803DA
:103218001846FFF77BFF386107F108031846FFF7E8
:10322800C1FFF860FB681B78FA7D9A4206D13B69BA
:103238001B78BA7D9A4201D1012300E00023184689
:103248001C37BD4690BD80B582B000AF78607B6802
:10325800D3F804217B68D3F800319A420FD97868F3
:10326800FEF7F6FB7B68D3F80031591C7A68C2F880
:103278000011194600F00DFA03461B7800E0002300
:1032880018460837BD4680BD90B587B000AF786056
:103298000721786800F054FA034683F00103DBB293
:1032A800002B04D00221786800F00DF96DE07B68EE
:1032B8001B691846FFF71AFD7B681B691A467B686D
:1032C80093F824301946104600F072FA0346032199
:1032D800184600F06DFA02467B6893F82C301946C0
:1032E800104600F065FA7B685B8D5A1E91B27A68C9
:1032F8005185002B14BF01230023DBB2002B11D012
:103308007B681B6918467B68DB8C5A1C91B27A680B
:10331800D1847A682C335B0013449B88194600F0EB
:10332800A2FAE0E77B681B691846FEF79CFB044697
:103338007B681B691846FFF770FE024607F10C030D
:1033480021461846FFF77EFE07F10C031846FFF7E3
:10335800DDFE786107F10C031846FFF723FF38619B
:103368007B681B691A467B691B781946104600F072
:103378001FFA02463B691B781946104600F018FAF6
:103388007B681B69184600F099FA1C37BD4690BD4A
:1033980090B587B000AF786039600621786800F092
:1033A800CFF9034683F00103DBB2002B04D00221DE
:1033B800786800F088F883E07B681B691A467B68A8
:1033C8002C331946104600F0B0FA786800F0D4FAA9
:1033D800034683F00103DBB2002B04D00321786895
:1033E80000F071F86CE00023FB827B685B8DFA8A41
:1033F8009A420DD27B68DA8CFB8A13449AB23B4618
:1034080011461846FFF794F9FB8A0133FB82ECE773
:103418007B681B691846FFF769FC7B681B691A46BD
:103428007B6893F824301946104600F0C1F902462B
:103438007B6893F825301946104600F0B9F9024622
:103448007B68DB8C1946104600F00DFA02467B6853
:103458005B8D1946104600F006FA7B681B69184612
:10346800FEF701FB04467B681B691846FFF7D5FD8C
:10347800024607F1080321461846FFF7E3FD07F166
:1034880008031846FFF742FE386107F1080318469B
:10349800FFF788FEF8607B681B691A463B691B7852
:1034A8001946104600F084F90246FB681B78194655
:1034B800104600F07DF97B681B69184600F0FEF99C
:1034C8001C37BD4690BD90B587B000AF78600B46FD
:1034D800FB707B681B691846FFF708FCFB78012B1B
:1034E8001DD17B681B691A467B6893F824301946FE
:1034F800104600F05DF904467B6893F825301946BC
:10350800786800F0E9FA03461946204600F050F9B9
:103518000246FB781946104600F04AF936E0FB7877
:10352800022B18D17B681B691A467B6893F82430F4
:103538001946104600F03CF902467B6893F825309E
:103548001946104600F034F90246FB781946104631
:1035580000F02EF91AE0FB78032B17D17B681B6962
:103568001A467B6893F824301946104600F020F973
:1035780002467B6893F825301946104600F018F982
:103588000246FB781946104600F012F97B681B6961
:103598001846FEF768FA04467B681B691846FFF769
:1035A8003CFD024607F10C0321461846FFF74AFD89
:1035B80007F10C031846FFF7A9FD786107F10C0322
:1035C8001846FFF7EFFD38617B681B691A467B696F
:1035D8001B781946104600F0EBF802463B691B7849
:1035E8001946104600F0E4F87B681B69184600F09D
:1035F80065F900BF1C37BD4690BD80B483B000AFED
:1036080078607B6818460C37BD465DF8047B7047C8
:1036180080B487B000AFF860B9607A607B681B68D7
:103628007B61FA68BB689A4207D07B69DAB2FB68AB
:103638001A70FB680133FB60F3E700BF1C37BD4617
:103648005DF8047B704790B585B000AFF860B9604D
:103658003A71184600F05BFA2246B968F86800F03B
:1036680072FA034618461437BD4690BD90B585B02A
:1036780000AFF860B9603A71184600F089FA22463E
:10368800B968F86800F0A0FA034618461437BD4632
:1036980090BD80B582B000AF786039607B683968CA
:1036A800184600F0ABFA034618460837BD4680BDF9
:1036B80080B582B000AF78607B68D3F804217B685E
:1036C800D3F800319A4212D97868FEF7C1F97B68BD
:1036D800D3F804315A1E7B68C3F804217B68D3F8F9
:1036E80004311946FFF7D5FF03461B7800E0002395
:1036F80018460837BD4680BD80B483B000AF7860F7
:103708007B6818460C37BD465DF8047B7047B0B53A
:1037180084B000AFF860B9607A60FC68B868FFF7F9
:10372800EBFF05467868FFF7E7FF03461A46294688
:10373800204600F071FAFB6818461037BD46B0BD48
:1037480080B582B000AF78600B467B807B681B69D0
:103758001A467B6826331946104600F08EFA7B68B5
:103768001B691A467B682A331946104600F085FA09
:103778007B68DA8C7B685B8D13449BB2013B9AB201
:103788007B681A857B685B8DDBB25B00DAB27B688D
:1037980083F82C207B681B8D1A467B88013B9A4254
:1037A800D4BF01230023DBB218460837BD4680BDCD
:1037B80090B583B000AF78600B46FB707B68D3F898
:1037C8000431FE2B0DD8FC787868FFF726FC0346F9
:1037D80022461A707B68D3F804315A1C7B68C3F8F8
:1037E80004217B6818460C37BD4690BD80B582B071
:1037F80000AF786039607B683968184600F005F8D2
:10380800034618460837BD4680BD80B483B000AF74
:10381800786039607A683B68134418460C37BD46AF
:103828005DF8047B704790B587B000AFF860B96069
:103838001346FB80FB88BB8207F11403002118465E
:10384800FFF7D4FF044607F1140301211846FFF7D8
:10385800CDFF03461A462146F868FFF758FFF86877
:103868001C37BD4690BD80B586B000AF78600B466A
:103878007B8007F10C037A8879681846FFF7D3FF35
:1038880007F10C031846FFF741FC786107F10C03B8
:103898001846FFF787FC38613B691B78194678683A
:1038A800FFF786FF02467B691B7819461046FFF72B
:1038B8007FFF7B6818461837BD4680BD90B583B03A
:1038C80000AF78607B68D3F8103101211846FCF707
:1038D800E7FE7B68D3F8183100211846FDF7FDFA9A
:1038E8007B68D3F820311846FDF717FD7B68D3F8BD
:1038F8001C311846FDF711FD7B68D3F81C417B6825
:103908001846FFF705FA03469BB202339BB21946E5
:103918002046FDF750FD7B68D3F81C311846FDF7AB
:10392800E1FC00BF0C37BD4690BD80B582B000AF4A
:10393800786039607B68D3F804217B68D3F800315C
:103948009A4211D97868FEF783F87B68D3F800317A
:10395800591C7A68C2F800111946FFF79AFE034607
:103968001A783B681A7002E03B6800221A707B687C
:1039780018460837BD4680BD80B584B000AF786072
:103988000023FB817B685B8DFA899A4280F09F80D7
:103998007B681B691A467B682E331946104600F06F
:1039A8006CF97B68DB8C1A46FB8913447A681344EC
:1039B80093F88230002B45D07B68DB8D1AB27B6888
:1039C800DB8C1946FB890B44796834335B000B4464
:1039D8005B881BB29A420BDA7B68DB8C1A46FB8940
:1039E80013447A6834335B0013445B88002B1BD183
:1039F8007B68DB8D1AB27B68DB8C1946FB890B442C
:103A0800796838335B000B44DB881BB29A420DDDC2
:103A18007B68DB8C1A46FB8913447A6838335B0071
:103A28001344DB88002B01D0002351E07B68DB8C3A
:103A38001A46FB891A447B68D98D7B68283223F89B
:103A4800121040E07B68DA8D7B68DB8C1946FB89B5
:103A58000B44796834335B000B445B889A420BD281
:103A68007B68DB8C1A46FB8913447A6834335B0025
:103A780013445B88002B19D17B68DA8D7B68DB8C5B
:103A88001946FB890B44796838335B000B44DB88A3
:103A98009A420DD97B68DB8C1A46FB8913447A68F5
:103AA80038335B001344DB88002B01D000230FE080
:103AB8007B68DB8C1A46FB891A447B68D98D7B6846
:103AC800283223F81210FB890133FB815AE70123BE
:103AD80018461037BD4680BD80B483B000AF78600B
:103AE8000B46FB70FB7863F07F03DBB218460C379C
:103AF800BD465DF8047B704780B483B000AF786042
:103B08007B6818460C37BD465DF8047B7047B0B536
:103B180084B000AF38713B1D1846FFF7EDFF07F181
:103B28000C032946184600F0D3F820461037BD4646
:103B3800B0BD80B483B000AF786018460C37BD467E
:103B48005DF8047B7047F0B585B000AFF860B960E8
:103B58003A71FC68387900F0C9F807F10C03184687
:103B6800FFF7E7FF33462A46B968204600F0D0F849
:103B7800034618461437BD46F0BD80B483B000AF85
:103B880078607B6818460C37BD465DF8047B704743
:103B9800B0B584B000AF38713B1D1846FFF7EDFF94
:103BA80007F10C032946184600F031F92046103772
:103BB800BD46B0BD80B483B000AF786018460C37FE
:103BC800BD465DF8047B7047F0B585B000AFF8607E
:103BD800B9603A71FC68387900F027F907F10C03ED
:103BE8001846FFF7E7FF33462A46B968204600F033
:103BF8002EF9034618461437BD46F0BD80B483B08D
:103C080000AF786039607A683B68134418460C370F
:103C1800BD465DF8047B704790B585B000AFF8608D
:103C2800B9607A60FC687868FFF766FD0346194654
:103C3800204600F089F9FB685C1CB868FFF75CFD5A
:103C480003461946204600F092F9FB6818461437D7
:103C5800BD4690BD80B485B000AF78600B46FB7060
:103C68001346BB70BB783B73FB787B73BB891846E4
:103C78001437BD465DF8047B704780B584B000AF4B
:103C8800786039607B68D3F804217B68D3F8003109
:103C980001339A4214D97868FFF7D5FA0346FB73C3
:103CA8007868FFF7D0FA0346BB73BA7BFB7B1946EB
:103CB8007868FFF7CFFF03461A463B681A8002E090
:103CC8003B6800221A807B6818461037BD4680BDC5
:103CD80080B582B000AF786039703B461846FFF770
:103CE8000BFF7B6818460837BD4680BDB0B584B069
:103CF80000AF38713B1D1846FFF7FEFE07F10C03B5
:103D08002946184600F044F920461037BD46B0BD94
:103D180080B586B000AFF860B9603A713B70BA6898
:103D2800FB68D31A5B109B107B617B69002B37DD26
:103D38003B1DF968184600F04DF90346002B01D0E9
:103D4800FB6860E0FB680233FB603B1DF9681846BE
:103D580000F040F90346002B01D0FB6853E0FB68F4
:103D68000233FB603B1DF968184600F033F903463F
:103D7800002B01D0FB6846E0FB680233FB603B1D6B
:103D8800F968184600F026F90346002B01D0FB68B5
:103D980039E0FB680233FB607B69013B7B61C4E768
:103DA800BA68FB68D31A5B10022B11D0032B02D020
:103DB800012B1AD026E03B1DF968184600F00AF9D5
:103DC8000346002B01D0FB681DE0FB680233FB6053
:103DD8003B1DF968184600F0FDF80346002B01D09A
:103DE800FB6810E0FB680233FB603B1DF96818466E
:103DF80000F0F0F80346002B01D0FB6803E0FB68F5
:103E08000233FB60BB6818461837BD4680BD80B5D5
:103E180082B000AF786039703B461846FFF7ADFEB8
:103E28007B6818460837BD4680BDB0B584B000AF82
:103E380038713B1D1846FFF7A0FE07F10C03294611
:103E4800184600F0D9F820461037BD46B0BD80B5F9
:103E580086B000AFF860B9603A713B70BA68FB6829
:103E6800D31A9B107B617B69002B37DD3B1DF968FA
:103E7800184600F0DCF80346002B01D0FB685FE031
:103E8800FB680133FB603B1DF968184600F0CFF86A
:103E98000346002B01D0FB6852E0FB680133FB604E
:103EA8003B1DF968184600F0C2F80346002B01D004
:103EB800FB6845E0FB680133FB603B1DF968184669
:103EC80000F0B5F80346002B01D0FB6838E0FB682A
:103ED8000133FB607B69013B7B61C4E7BA68FB681F
:103EE800D31A022B11D0032B02D0012B1AD026E0B3
:103EF8003B1DF968184600F09AF80346002B01D0DC
:103F0800FB681DE0FB680133FB603B1DF968184640
:103F180000F08DF80346002B01D0FB6810E0FB6829
:103F28000133FB603B1DF968184600F080F8034632
:103F3800002B01D0FB6803E0FB680133FB60BB6822
:103F480018461837BD4680BD90B583B000AF78607D
:103F580039607C683868FFF7CFFB0346194620466E
:103F680000F077F87B6818460C37BD4690BD80B5E1
:103F780082B000AF786039603868FFF7BDFB034650
:103F88001A787B681A707B6818460837BD4680BD6A
:103F980080B582B000AF786039703B461846FFF7AD
:103FA800ABFD7B6818460837BD4680BD80B483B03A
:103FB80000AF786039603B681B884FF6FF72934208
:103FC8000CBF01230023DBB218460C37BD465DF851
:103FD800047B704780B582B000AF786039607B6839
:103FE80039681846FFF7E2FF034683F00103DBB2A6
:103FF80018460837BD4680BD80B582B000AF7860EE
:1040080039703B461846FFF7B8FD7B6818460837F5
:10401800BD4680BD80B483B000AF786039603B682E
:104028001B7818460C37BD465DF8047B704780B591
:1040380082B000AF786039607B6839681846FFF74E
:10404800E9FF034683F00103DBB218460837BD4693
:1040580080BD80B582B000AF786039603868FFF7FE
:104068004BFB03461A787B681A707B68184608373A
:10407800BD4680BD80B582B000AF786039607B688E
:10408800012B53D13B684FF6FF7293424ED129481A
:10409800FCF767FD25212848FDF712FA2621274855
:1040A800FDF70EFA27212648FDF70AFA0B212548C5
:1040B800FDF706FA0C212448FDF702FA0D212348E2
:1040C800FDF7FEF90E212248FDF7FAF90F212148E4
:1040D800FDF7F6F910212048FDF7F2F911211F48E4
:1040E800FDF7EEF92F211E48FDF7EAF938211D48A2
:1040F800FDF7E6F939211C48FDF7E2F93A211B489A
:10410800FDF7DEF93B211A48FDF7DAF93C21194899
:10411800FDF7D6F944211848FDF7D2F9452117488B
:10412800FDF7CEF946211648FDF7CAF900BF083752
:10413800BD4680BD88000020900000209800002027
:10414800A0000020A8000020B0000020B800002037
:10415800C0000020C8000020D0000020D8000020A7
:10416800E0000020E8000020F0000020F800002017
:104178000001002008010020100100201801002083
:104188002001002080B483B000AF78607B68DB69D1
:104198005A1C7B68DA6100BF0C37BD465DF8047BAA
:1041A800704780B582B000AF78607B689B6818461E
:1041B80000F06EF900BF0837BD4680BD80B582B0FB
:1041C80000AF78607B689B68184600F076F900BFFE
:1041D8000837BD4680BD0000B0B584B000AF786038
:1041E8007B6893F83030052B00F24D8101A252F81C
:1041F80023F000BF1542000865420008214300086B
:10420800A3430008EF430008494400087B681C6A80
:104218007B683333184600F064F9034623441C785E
:104228007B6803F124057B683333184600F059F99D
:1042380003462B441B789C420CBF01230023DBB2AE
:10424800002B06D07B6833330021184600F055F95F
:1042580019E17B68012283F8302014E17B68DB696F
:104268001846FCF771F9034683F00103DBB2002B13
:1042780009D07B68DB691846FCF728F90346002B50
:1042880001D0012300E00023002B00F0F5807B68BB
:10429800DB691846FCF78EF903461846FCF725F942
:1042A8007B68DB6901211846FCF75DF9034618466F
:1042B800FCF76FF97B681C6A7B683333184600F09B
:1042C80010F9034623441A787B6883F832207B6808
:1042D8003333184600F005F903463B737B6893F8BF
:1042E8003230DBB27B7307F10C03184600F022F979
:1042F80003461D467B689B691C467B682C33184621
:10430800FEF701FE03465B0023442A461A807B68B9
:10431800022283F83020AFE07B68DB691846FCF79F
:10432800F4F80346002B00F0A9807B68DB69184687
:10433800FCF7FAF803461846FCF7B8F87B6893F8D8
:104348003230DDB27B6803F124047B6833331846CE
:1043580000F0C7F8034623442A461A707B682C33BA
:1043680000211846FEF799FD7B682C331846FEF7A6
:10437800CAFD0346002B14BF01230023DBB2002B28
:1043880006D07B6893F831207B6883F8302075E08D
:104398007B68032283F8302070E07B68DB6918466D
:1043A800FCF7D2F8034683F00103DBB2002B09D0F7
:1043B8007B68DB691846FCF789F80346002B01D0B7
:1043C800012300E00023002B5AD07B68DB691846E4
:1043D800FCF7F0F80346184600F0C0F87B680422A2
:1043E80083F830204CE07B68DB691846FCF78DF8D1
:1043F8000346002B46D07B68DB691846FCF794F827
:1044080003461846FCF752F87B6824330822FF213C
:10441800184600F0B6F97B682C330021184600F0E6
:10442800B8F87B6833330021184600F0C2F87B687F
:10443800012283F830207B68052283F8312021E0AF
:104448007B6833330021184600F057F80346002BE9
:1044580014BF01230023DBB2002B04D07B680122A8
:1044680083F830200FE07B68002283F830207B68D7
:10447800002283F8312006E000BF04E000BF02E01C
:1044880000BF00E000BF00BF1037BD46B0BD00BF91
:1044980080B582B000AF78607B681B69184600F071
:1044A80099F80346002B04D07B681B691846FEF771
:1044B80091F800BF0837BD4680BD80B582B000AF17
:1044C80078607B681B69184600F097F80346002B54
:1044D80003D07B681846FCF70BFC00BF0837BD46C5
:1044E80080BD80B483B000AF78607B681B781846C5
:1044F8000C37BD465DF8047B704780B483B000AFCD
:10450800786039607B681B780133DAB27B681A708F
:104518007B681B78072B02D87B681A7800E000229A
:104528007B681A707B681B7818460C37BD465DF8A7
:10453800047B704780B483B000AF78607B685B7899
:104548001B021AB27B681B781BB213431BB29BB2C7
:1045580018460C37BD465DF8047B704780B483B0BD
:1045680000AF78607A68136943F0020313617A68D0
:104578001369072161F3C60313617A68136943F469
:10458800803313617B6818460C37BD465DF8047BA1
:10459800704780B483B000AF786039607B683A6850
:1045A8001A607B681B6818460C37BD465DF8047BAB
:1045B800704780B483B000AF78600B46FB707B68AF
:1045C800FA781A707B681B7818460C37BD465DF878
:1045D800047B704780B582B000AF78607B68D3F801
:1045E80014217B6893F8283119461046FCF7E3FD3F
:1045F800034618460837BD4680BD90B585B000AF64
:1046080078607B68D3F818311846FCF779FC0346C4
:10461800FB73FB7B002B0DD07C687B68D3F82031C3
:104628001846FCF740FF0346C3F1FF03194620462E
:1046380000F011F8FB7B002B08D07B681846FEF7CA
:1046480067FB0346002B01D0012300E00023184636
:104658001437BD4690BD80B584B000AF786039602E
:104668007B680022C3F80021FF23FB6007F10C02DE
:104678003B4611461846FCF755FB03461A687B680B
:10468800C3F8042100BF1037BD4680BD80B500AF18
:104698004FF6FF710120FFF7EDFC80BDDFF834D045
:1046A800002103E00C4B5B58435004310B480C4B82
:1046B80042189A42F6D30B4A02E0002342F8043B20
:1046C800094B9A42F9D3FDF739F900F02BF8FDF7B9
:1046D800BFFB704700000220CC4A00080000002001
:1046E8006C0000206C00002040030020FEE708B5A5
:1046F80000F00CF808B5804700F00DF8024B186878
:10470800BFF35B8F704700BF0400002008B5FFF7B8
:10471800F5FFFFF7EFFF08B5062000F063F801206A
:1047280000F08CF870B50D4E0D4CA41BA41000259C
:10473800A54209D10B4E0C4C00F082F8A41BA41022
:104748000025A54205D170BD56F82530984701359A
:10475800EEE756F8253098470135F2E7C04A0008D9
:10476800C04A0008C04A0008C84A000810B5431EDD
:104778000A44914200D110BD11F8014B03F8014FD2
:10478800F7E702440346934200D1704703F8011B40
:10479800F9E71F2938B504460D4604D916230360E6
:1047A8004FF0FF3038BD426C12B152F821304BB98E
:1047B800204600F031F82A4601462046BDE8384038
:1047C80000F018B8012B0AD0591C03D11623036036
:1047D8000120E7E7002442F82540284698470020B2
:1047E800E0E70000024B01461868FFF7D2BF00BFA0
:1047F8000800002038B5074C002305460846114636
:10480800236000F013F8431C02D1236803B12B6026
:1048180038BD00BF3C03002000F000B8024B58220E
:104828001A604FF0FF3070473C030020024B5822BB
:104838001A604FF0FF3070473C030020FEE700BFCE
:10484800F8B500BFF8BC08BC9E467047F8B500BF75
:08485800F8BC08BC9E46704745
:1048600000C1814001C0804101C0804100C1814040
:1048700001C0804100C1814000C1814001C0804130
:1048800001C0804100C1814000C1814001C0804120
:1048900000C1814001C0804101C0804100C1814010
:1048A00001C0804100C1814000C1814001C0804100
:1048B00000C1814001C0804101C0804100C18140F0
:1048C00000C1814001C0804101C0804100C18140E0
:1048D00001C0804100C1814000C1814001C08041D0
:1048E00001C0804100C1814000C1814001C08041C0
:1048F00000C1814001C0804101C0804100C18140B0
:1049000000C1814001C0804101C0804100C181409F
:1049100001C0804100C1814000C1814001C080418F
:1049200000C1814001C0804101C0804100C181407F
:1049300001C0804100C1814000C1814001C080416F
:1049400001C0804100C1814000C1814001C080415F
:1049500000C1814001C0804101C0804100C181404F
:1049600000C0C101C30302C2C60607C705C5C4040F
:10497000CC0C0DCD0FCFCE0E0ACACB0BC90908C87F
:10498000D81819D91BDBDA1A1EDEDF1FDD1D1CDC6F
:1049900014D4D515D71716D6D21213D311D1D010DF
:1049A000F03031F133F3F23236F6F737F53534F4CF
:1049B0003CFCFD3DFF3F3EFEFA3A3BFB39F9F8383F
:1049C00028E8E929EB2B2AEAEE2E2FEF2DEDEC2C2F
:1049D000E42425E527E7E62622E2E323E12120E09F
:1049E000A06061A163A3A26266A6A767A56564A48F
:1049F0006CACAD6DAF6F6EAEAA6A6BAB69A9A868FF
:104A000078B8B979BB7B7ABABE7E7FBF7DBDBC7CEE
:104A1000B47475B577B7B67672B2B373B17170B05E
:104A2000509091519353529296565797559594544E
:104A30009C5C5D9D5F9F9E5E5A9A9B5B99595898BE
:104A4000884849894B8B8A4A4E8E8F4F8D4D4C8CAE
:104A5000448485458747468682424383418180401E
:104A600000000000000000008D4100080000000070
:104A700000000000AB410008000000000000000042
:104A8000C54100080000000000000000E1410008EE
:104A90000000000000000000F746000800000000D1
:104AA00000000000590C0008000000000000000099
:104AB000F74600080000000000000000F74600086C
:084AC000AD0100089546000855
:044AC8008901000858
:104ACC00C90100081F4700080C000020000000006E
:104ADC0000000000000000000000000000000000CA
:104AEC0000000000000000000000000000000000BA
:104AFC0000000000000000000000000000000000AA
:104B0C000000000000000000000000000000000099
:104B1C000000000000000000000000000000000089
:0C4B2C000000000000000000000000007D
:04000005080046A504
:00000001FF
