:020000040800F2
:1000000000000220A93F0008F93F0008F93F00085E
:10001000F93F0008F93F0008F93F00080000000020
:10002000000000000000000000000000F93F000890
:10003000F93F000800000000F93F0008D50900085A
:10004000A30B0008A50B0008A70B0008A90B0008CC
:10005000AB0B0008AD0B0008AF0B0008B10B00089C
:10006000B30B0008B50B0008B70B0008690C0008BB
:10007000850C0008A10C0008BD0C0008D90C000874
:10008000F50C0008110D0008B90B0008BB0B0008A7
:10009000BD0B0008BF0B0008C10B0008C30B000814
:1000A000F70B0008F90B0008FB0B0008FD0B00081C
:1000B000FF0B0008010C0008030C0008C50B00082A
:1000C000C70B0008C90B0008CB0B0008290E00085D
:1000D000350E0008150C0008310C00084D0C000806
:1000E000CD0B0008CF0B0008D10B00080B0C00084B
:1000F0000D0C00080F0C0008110C00082D0D000855
:10010000D30B0008D50B0008050C0008410E0008B1
:10011000D70B0008D90B0008070C0008090C0008D1
:10012000490D0008650D0008810D00089D0D0008AF
:10013000B90D00080000000000000000DB0B000803
:10014000DD0B0008DF0B0008E10B0008E30B0008E3
:10015000D50D0008F10D00080D0E0008E50B000894
:10016000E70B0008E90B0008EB0B0008ED0B00089B
:10017000EF0B0008F10B0008000000000000000079
:08018000F30B0008F50B000869
:1001900010B5054C237833B9044B13B10448AFF3C1
:1001A00000800123237010BD6800002000000000C3
:1001B0006449000808B5034B1BB103490348AFF37A
:1001C000008008BD000000006C00002064490008A9
:1001D000034613F8012B002AFBD1181A0138704787
:1001E00001F0FF01102A2BDB10F0070F08D010F8E8
:1001F000013B013A8B422DD010F0070F42B3F6D1EC
:10020000F0B441EA012141EA014122F007047FF004
:1002100000070023F0E80256083C85EA010586EA5B
:10022000010685FA47F5A3FA87F586FA47F6A5FA97
:1002300087F68EB9EED1F0BC01F0FF0102F00702A3
:1002400032B110F8013B013A83EA010313B1F8D14E
:100250000020704701387047002D06BF354603382F
:10026000073815F0010F07D1013015F4807F02BF68
:10027000013015F4C03F0130F0BC0138704700BFB9
:100280004209012300F01F0003FA00F0014B43F87C
:100290002200704700E100E0436901334361704789
:1002A000012A03D0022A03D0002070470160FBE737
:1002B0000B680360F8E7012A03D0022A03D000206C
:1002C00070470160FBE70B680360F8E7012A03D081
:1002D000022A03D0002070470160FBE70B6803602F
:1002E000F8E7012A03D0022A03D0002070470160FA
:1002F000FBE70B680360F8E7012A03D0022A03D06A
:10030000002070470160FBE70B680360F8E7012AF3
:1003100003D0022A03D0002070470160FBE70B687E
:100320000360F8E7012A03D0022A03D000207047B7
:100330000160FBE70B680360F8E7012A03D0022A9B
:1003400003D0002070470160FBE70B680360F8E70B
:10035000012A03D0022A03D0002070470160FBE786
:100360000B680360F8E7012A03D0022A03D00020BB
:1003700070470160FBE70B680360F8E7012A03D0D0
:10038000022A03D0002070470160FBE70B6803607E
:10039000F8E7012A03D0022A03D000207047016049
:1003A000FBE70B680360F8E7012A03D0022A03D0B9
:1003B000002070470160FBE70B680360F8E7012A43
:1003C00003D0022A03D0002070470160FBE70B68CE
:1003D0000360F8E7012A03D0022A03D00020704707
:1003E0000160FBE70B680360F8E77047012A08BF6C
:1003F000016000207047012A08BF0160002070479B
:10040000012A08BF016000207047012A03D0022A98
:1004100003D0002070470160FBE70B680360F8E73A
:10042000012A08BF016000207047012A08BF01604F
:1004300000207047012A03D0022A03D00020704711
:100440000160FBE70B680360F8E7012A08BF016061
:1004500000207047012A08BF016000207047012A70
:1004600008BF016000207047012A03D0022A03D090
:10047000002070470160FBE70B680360F8E7012A82
:1004800003D0022A03D0002070470160FBE70B680D
:100490000360F8E7C3690133C36170477047704771
:1004A00070477047012A03D0022A03D0002070470A
:1004B0000160FBE70B680360F8E7012A03D0022A1A
:1004C00003D0002070470160FBE70B680360F8E78A
:1004D000012A03D0022A03D0002070470160FBE705
:1004E0000B680360F8E7012A03D0022A03D000203A
:1004F00070470160FBE70B680360F8E7012A03D04F
:10050000022A03D0002070470160FBE70B680360FC
:10051000F8E7012A03D0022A03D0002070470160C7
:10052000FBE70B680360F8E7012A03D0022A03D037
:10053000002070470160FBE70B680360F8E7012AC1
:1005400003D0022A03D0002070470160FBE70B684C
:100550000360F8E7012A03D0022A03D00020704785
:100560000160FBE70B680360F8E7012A03D0022A69
:1005700003D0002070470160FBE70B680360F8E7D9
:10058000012A03D0022A03D0002070470160FBE754
:100590000B680360F8E7012A03D0022A03D0002089
:1005A00070470160FBE70B680360F8E7012A03D09E
:1005B000022A03D0002070470160FBE70B6803604C
:1005C000F8E7012A03D0022A03D000207047016017
:1005D000FBE70B680360F8E7012A03D0022A03D087
:1005E000002070470160FBE70B680360F8E7012A11
:1005F00003D0022A03D0002070470160FBE70B689C
:100600000360F8E7012A03D0022A03D000207047D4
:100610000160FBE70B680360F8E7012A03D0022AB8
:1006200003D0002070470160FBE70B680360F8E728
:1006300070B50546006803680C469B6898472368B8
:100640002C6020461B68BDE870401847006800F524
:1006500092718430FFF7ECBF006800F1EC01843048
:10066000FFF7E6BF006800F589618430FFF7E0BF5F
:10067000006800F501718430FFF7DABF006800F50B
:1006800033718430FFF7D4BF006800F55F718430A8
:10069000FFF7CEBF006800F592718430FFF7C8BF46
:1006A000006800F592718430FFF7C2BF006800F562
:1006B00092718430FFF7BCBF006800F592718430FE
:1006C000FFF7B6BF006890F84434C26F003318BF1C
:1006D000012300F5927113728430FFF7A9BF0B1A42
:1006E0009B10002B10DD027812B342780AB901305A
:1006F000704782780AB902307047C2780AB903306D
:1007000070470430013BECE70B1A022B0BD0032B94
:1007100006D0012B0BD10378002B18BF0846704779
:1007200003782BB10130037813B10130F3E70846A9
:1007300070470B1A9B10002B10DD027812BB427819
:100740000AB10130704782780AB102307047C2782E
:100750000AB1033070470430013BECE70B1A022B5F
:100760000BD0032B06D0012B0BD10378002B08BF35
:100770000846704703782BB90130037813B901306C
:10078000F3E708467047FFF77BBD036813B90160C4
:10079000704713465A68002AFBD15960704710B55C
:1007A00004462CB1236820461B6898476468F8E724
:1007B00010BD0000A8235943037A43B10F4B9B6837
:1007C0000360994224BFCB1A43600023037203687D
:1007D0000A4A994207D892689B1A99420CD8012379
:1007E00003720020704791688B4205D85368926865
:1007F0009B1A42689342F2D20120704710E000E059
:10080000D0F888203221531CC0F88830B2FBF1F3B5
:1008100001FB132323B9D0F8840003685B681847F1
:10082000704770470A1A02D0202103F040BC70477D
:100830007047704770477047704770470369002BD7
:10084000BFBF034B436003F188334360704700BF71
:1008500023016745D0E9002101238B409361704754
:10086000D0E900120123103293408B617047036876
:1008700010B504469869FFF7F3FFC8216068FFF7D9
:1008800099FF0028F9D123689869FFF7E3FFC82191
:100890006068FFF78FFF0028F9D110BD38B50368F5
:1008A000044618690D46FFF7DBFF23686068DA69C4
:1008B0009B6A53F835309361FFF7D9FF236860686E
:1008C000996ADA6901EBC5014B689361FFF7CFFFC5
:1008D0006421A068FFF76EFF0028F9D138BD000041
:1008E000437B012B10B5044622D002D3022B2AD021
:1008F00010BD4069FFF7B4FF2069FFF7ABFF626BE3
:10090000206A531C50216363B2FBF1F301FB1323F4
:10091000114A52F82330C25C636A03EBC20053F8F9
:100920003210E26943689161E36201236373DFE798
:100930008069FFF78FFFA069FFF792FFE369E26A22
:100940009A610223F2E78069FFF784FFA069FFF74D
:1009500087FF0023EAE700BF704A00080368416888
:100960001A6901238B40134214BF012000207047F5
:1009700010B504682CB1236820461B689847A4680A
:10098000F8E710BD10B58368044613B10322014691
:100990009847204610BD000010B5044B044640F8AF
:1009A000303BFFF7EFFF204610BD00BFF85B0008AB
:1009B00010B504460830FFF7DBFFD4E90421531CCF
:1009C0002361B2FBF1F301FB132313B92046FFF7B8
:1009D000CFFF10BD0148FFF7EBBF00BFB0050020FF
:1009E000426903699A424FF0000326BF4361012028
:1009F00018467047037BC3B100230373D0E901237A
:100A00006AB143B1936083685A600023C0E901333F
:100A100070470B60F8E7054993604A60F5E70349C2
:100A2000002BF6D1C1E90033EFE77047B005002095
:100A300000224261FFF7DEBF037B53B9012303733A
:100A4000044B5A68426002B190601A68586002B95B
:100A500018607047B005002080680269D2F818312C
:100A60001B68DB0611D5D2F820315B6800219BB2F0
:100A7000C2F80011C3F1FF01FF2928BFFF21FF2B9E
:100A8000C2F8041101D0FFF7D7BF70470A2A10B58A
:100A900001D00F2A15D1204B9A68C2F34232D2B14D
:100AA000042A1AD0052A1AD01C4B1D4C062A08BF4E
:100AB000234607291AD8DFE801F0141A1D2023263F
:100AC000292C0B3A032A04D8134B9A68C2F38222CA
:100AD000E5E70023EDE7134BEBE7134BE9E7134B97
:100AE000E7E74FF41652B3FBF2F3836010BD4FF407
:100AF0006152F8E74FF49642F5E74FF4E142F2E72E
:100B00004FF41642EFE74FF46142ECE74FF49632B0
:100B1000E9E74FF4E132E6E700380240A037A000F1
:100B2000406F4001007A030A00BD010580DE8002AB
:100B300019B90068C0F340107047012903D100685B
:100B4000C0F3C0207047022903D10068C0F34050B1
:100B50007047032903D10068C0F3C06070470429BF
:100B600001D14068E6E7052901D14068E8E7062998
:100B700001D14068EAE7072901D14068ECE700208D
:100B80007047012901D142637047022901D1826374
:100B90007047032901D1C2637047042908BF02646A
:100BA0007047FEE7FEE7FEE7FEE7FEE7FEE7FEE74B
:100BB000FEE7FEE7FEE7FEE7FEE7FEE7FEE7FEE70D
:100BC000FEE7FEE7FEE7FEE7FEE7FEE7FEE7FEE7FD
:100BD000FEE7FEE7FEE7FEE7FEE7FEE7FEE7FEE7ED
:100BE000FEE7FEE7FEE7FEE7FEE7FEE7FEE7FEE7DD
:100BF000FEE7FEE7FEE7FEE7FEE7FEE7FEE7FEE7CD
:100C0000FEE7FEE7FEE7FEE7FEE7FEE7FEE7FEE7BC
:100C1000FEE7000008B5044B1868FFF7C0FD034B62
:100C20001A685B6808BD00BF9805002000100140ED
:100C300008B5044B1868FFF7B2FD034B1A685B68F0
:100C400008BD00BFA00500200044004008B5044BCB
:100C50001868FFF7A4FD034B1A685B6808BD00BF66
:100C6000A80500200048004008B5044B1868FFF7AD
:100C700096FD034B3D229A6008BD00BF0005002091
:100C80000060024008B5044B1868FFF788FD034B6D
:100C90004FF474629A6008BD0805002000600240AD
:100CA00008B5044B1868FFF77AFD034B4FF4741234
:100CB0009A6008BD100500200060024008B5044B92
:100CC0001868FFF76CFD034B4FF074629A6008BD23
:100CD000180500200060024008B5044B1868FFF7B3
:100CE0005EFD034B4FF47462DA6008BD20050020FE
:100CF0000060024008B5044B1868FFF750FD034B35
:100D00004FF47462DA6008BD2805002000600240DC
:100D100008B5044B1868FFF742FD034B4FF47412FB
:100D2000DA6008BD300500200060024008B5044BC1
:100D30001868FFF734FD034B4FF07462DA6008BDAA
:100D4000380500200060024008B5044B1868FFF722
:100D500026FD034B3D229A6008BD00BF40050020E0
:100D60000064024008B5044B1868FFF718FD034BF8
:100D70004FF474629A6008BD480500200064024088
:100D800008B5044B1868FFF70AFD034B4FF47412C3
:100D90009A6008BD500500200064024008B5044B6D
:100DA0001868FFF7FCFC034B4FF074629A6008BDB3
:100DB000580500200064024008B5044B1868FFF78E
:100DC000EEFC034B3D22DA6008BD00BF6005002049
:100DD0000064024008B5044B1868FFF7E0FC034BC1
:100DE0004FF47462DA6008BD6805002000640240B8
:100DF00008B5044B1868FFF7D2FC034B4FF474128C
:100E0000DA6008BD700500200064024008B5044B9C
:100E10001868FFF7C4FC034B4FF07462DA6008BD3A
:100E20007805002000640240014B1868FFF7B7BC4A
:100E300080050020014B1868FFF7B1BC8805002031
:100E4000014B1868FFF7ABBC90050020026810B595
:100E5000541C02440460517204685021B4FBF1F246
:100E600001FB1242026010BD10B504681421B4FBEE
:100E7000F1F201FB1242034612B92021FFF7E6FF0F
:100E800014241968B1FBF4F204FB121222B12021E0
:100E90001846FFF7DBFFF4E7184610BD38B50546E6
:100EA0000C46084609B1FFF793F9C5E90004284646
:100EB00038BD10B514240368B3FBF4F304FB03112D
:100EC0005024B1FBF4F304FB1311016010BD38B5DD
:100ED0000468D4F8AC30F3B1013BC4F8AC30D4F8BA
:100EE000A830606814256B4303600F21FFF7E1FF12
:100EF0002021FFF7ABFFD4F8A8306068013B5D43C9
:100F0000C4F8A8300F210560FFF7D3FF7E21BDE8AC
:100F10003840FFF79BBF38BD38B50468D4F8AC3013
:100F2000012B1ED00133C4F8AC30D4F8A83060686F
:100F300014256B4303600F21FFF7BBFF2021FFF750
:100F400085FFD4F8A830606801335D43C4F8A83049
:100F50000F210560FFF7ADFF7E21BDE83840FFF7A8
:100F600075BF38BD437A70B5054600F10C062BB14C
:100F700000234372C1613046FFF75EFD3046FFF744
:100F80002FFD012428B13046FFF752FD6C7200207E
:100F900070BD2046FCE7000070B58EB005AD0023A3
:100FA000CDE901500C93CDE90533CDE909330B931D
:100FB000394E0D930123044608968DF81D308DF8A7
:100FC0001C300090CDF80CD0049564212846FFF722
:100FD000C9FF0028F9D12069FFF742FC6069FFF7DB
:100FE0003FFCA069FFF736FCA26AE369D2699A6107
:100FF0006846FFF73CFC05212846FFF7B3FF0028B1
:10100000F9D1A26AE369D2699A616846FFF72FFCB9
:1010100064212846FFF7CEFB0028F9D1A26AE369D4
:10102000D2699A616846FFF722FC32212846FFF711
:10103000C1FB0028F9D1A26AE36952699A61684646
:10104000FFF715FC32212846FFF7B4FB0028F9D141
:10105000282102A8FFF722FC0C2102A8FFF71EFCA2
:10106000062102A8FFF71AFC012102A8FFF716FCCF
:10107000802102A8FFF712FC01212846FFF772FF2A
:101080000028F9D10EA8012384F8303040F8186DFB
:10109000FFF7B0FC0EB070BD8449000821B90369A8
:1010A00062F3020303617047012903D1036962F30C
:1010B000C503F7E7022903D1036962F38813F1E757
:1010C000032903D1036962F34B23EBE7042903D11E
:1010D000036962F30E33E5E7052903D1036962F37F
:1010E000D133DFE7062903D1036962F39443D9E7DB
:1010F000072903D1036962F35753D3E7082903D1C2
:10110000036962F31A63CDE7092903D1036962F326
:10111000DD63C7E70A2904D1C36862F30203C36031
:1011200070470B2903D1C36862F3C503F7E70C29A5
:1011300003D1C36862F38813F1E70D2903D1C368B3
:1011400062F34B23EBE70E2903D1C36862F30E333E
:10115000E5E70F2903D1C36862F3D133DFE7102934
:1011600003D1C36862F39443D9E7112903D1C3685B
:1011700062F35753D3E71229D2D1C36862F31A63DB
:10118000CDE7012904D1436B62F304034363704745
:10119000022903D1436B62F34913F7E7032903D113
:1011A000436B62F38E23F1E7042903D1436B62F3AF
:1011B000D333EBE7052903D1436B62F31853E5E71B
:1011C000062903D1436B62F35D63DFE7072904D18E
:1011D000036B62F3040303637047082903D1036BB5
:1011E00062F34913F7E7092903D1036B62F38E23F6
:1011F000F1E70A2903D1036B62F3D333EBE70B2941
:1012000003D1036B62F31853E5E70C2903D1036B99
:1012100062F35D63DFE70D2904D1C36A62F304035F
:10122000C36270470E2903D1C36A62F34913F7E71B
:101230000F2903D1C36A62F38E23F1E71029F0D19D
:10124000C36A62F3D333EBE74368028819891868ED
:101250004A434FF47A7192FBF1F2997A92B2FFF716
:1012600090BC0000204B1A68052161F302021A604D
:10127000A3F580631A6842F480321A601A689203F8
:10128000FCD59A686FF307129A609A68052161F39A
:101290008C229A609A68042161F34F329A609A68AE
:1012A000022060F301029A605A6861F305025A60F5
:1012B0005A68A82161F38E125A605A68072161F3B7
:1012C0001B625A605A686FF311425A605A6842F4BE
:1012D00080025A601A6842F080721A60034A1368EA
:1012E0009B01FCD5704700BF003C02400038024023
:1012F000754A7649F8B5136813F0010F70D1744B35
:10130000744C186810F0010F06D1DFF8E0E10920F5
:10131000C4E900E0012018606F4B186B40F0010039
:10132000186320680568022666F393450560456AE0
:10133000072666F307154562684D286810F0010F0F
:10134000674806D1DFF8A4C10A26C0E900C6012615
:101350002E601D6B45F001051D6303681D680226A4
:1013600066F315551D605D6A072666F30B255D6201
:101370005C4D2B6813F0010F5B4B05D15B4F0C26C6
:10138000C3E9007601262E60534E356B45F001050A
:1013900035631E683768012565F319673760C1F842
:1013A0001031534BC1F81431A3F5AA33C1F81831E9
:1013B00003F5AA33B833C1F81C31783BC1F82031AA
:1013C0000A230026C1F824310723C1F80061C1F8BF
:1013D0000461C1F80841C1F80C0181F82831156099
:1013E0003D4C636C43F010036364D1F81831DA6844
:1013F00042F00802DA60DA6842F00402DA605A6900
:1014000042F080025A615A6942F040025A61394BF7
:1014100093F90400FFF7B7F9236B43F480032363C8
:10142000D1F81C311A68012060F387121A60D1F8D4
:1014300000210A44DA60D1F8182104329A601A684F
:1014400042F480621A601A686FF34E321A601A68AA
:101450006FF3CC221A601A6842F010021A60264B11
:1014600093F90400FFF78FF9D1F820311A686FF370
:1014700087121A60D1F800210A44DA60D1F81821E5
:1014800004329A60FF225A601A6842F480621A603D
:101490001A686FF34E321A601A686FF3CC221A6022
:1014A0001A6842F480721A60D1F820311A68042058
:1014B00060F35B621A60D1F81C311A6860F35B62FA
:1014C0001A600248F8BD00BFF8010020FC010020AE
:1014D0004003002044030020003802403403002071
:1014E00038030020280300202C03002000000240C5
:1014F00000640240980500207805002070B52E4E4B
:101500002E4B326812F0010F2DD12D490A6812F0CE
:10151000010F2C4A05D12C4D0924C2E900540124A5
:101520000C602A4C216B41F00401216311680C68A6
:10153000022565F393440C604C6A65F307144C6212
:101540002349D881C3E900124FF6FF721A810422A1
:101550009A724FF480529A8100221A821A830122D1
:101560005B61DB61326019490A6C42F002020A6475
:101570001A68D169062060F30E31D161D16941F456
:101580000061D161116841F080011160116841F082
:1015900001011160198A40F60322914209D058696D
:1015A0001A8248F20503038150F8182BD362FFF723
:1015B0004BFE024870BD00BFC8010020CC010020D6
:1015C000EC010020F0010020000802400038024039
:1015D000000400403349344A0B6813F0010F70B522
:1015E0003DD1324B324C186810F0010F05D1314D0E
:1015F0000620C4E90050012018602F4B186B40F002
:101600000400186320680568022666F30D3505603E
:10161000056A032666F31B650562284D286810F0ED
:10162000010F274806D1DFF88CC00726C0E900C6A5
:1016300001262E601D6B45F004051D6303681D68BF
:10164000022666F38F351D601D6A032666F31F753B
:101650001D621C4B9360C2E9004001230B601649D8
:1016600011484B6C43F002034B6493689A68032162
:1016700061F302029A609A69012161F301029A61A1
:101680009A6961F309229A611A6A42F002021A62A7
:101690001A6A6FF3C3021A6200225A621A680A4376
:1016A0001A6070BDA0010020A4010020BC01002030
:1016B000C00100200008024000380240B0010020B4
:1016C000B40100200004014010B504465030FFF77B
:1016D00059F904F14000FFF755F904F13000FFF724
:1016E00051F904F12000FFF74DF904F11000FFF764
:1016F00049F92046FFF746F9204610BD10B50C1AEF
:10170000134605D001462246184602F0B7FC0346B0
:10171000181910BD2DE9F34702AB03E9060007686D
:10172000037A00F109080646DDE9004508EB0702E7
:1017300063B3132C22D8C4F1140902EB59091046E3
:101740004946FFF76FF829194A462846FFF7D6FFA2
:1017500009EB040A07F1140141445046FFF762F80F
:10176000336850211433B3FBF1F201FB12333360C1
:1017700000233046337202B0BDE8F087143C05EB1D
:10178000540000F11401FFF7B9FFE9E7C7F1500178
:10179000A14205EB040907D949462846FFF7AEFFE9
:1017A000306804443460E3E729442846FFF7A6FF85
:1017B0003368A4F150071F44E41B2C44502F2046EB
:1017C000424604F1500404D92146FFF797FF503FE9
:1017D000F4E74946FFF792FF336850221F44B7FBF6
:1017E000F2F302FB13773760C2E7000030B589B02F
:1017F0000A460446114905A802F05EFD05A901A8A4
:10180000FFF74CFB6368019A934208D99B1A13F1C6
:10181000FF3304D320212046FFF718FBF7E703AD81
:1018200005A92846FFF73AFB95E806002046FFF792
:1018300071FF00232046636009B030BDEB4B000808
:10184000F7B50546406802260660EB6A1988FFF77F
:10185000CDFF6C46074613492046FFF71FFB94E86F
:1018600006003846FFF756FF68680C23C0E90036CB
:10187000AB6A1988FFF7BAFF4321FFF7E7FA6868F8
:10188000162303602B6B1988FFF7B0FF0649054646
:101890002046FFF703FB94E806002846FFF73AFFCF
:1018A00003B0F0BDDD4B0008E04B000838B5002365
:1018B00083608B6804460D462BB102229847EB6883
:1018C000E360AB68A360204638BD38B50023836071
:1018D0008B6804460D462BB102229847EB68E36003
:1018E000AB68A360204638BD38B5002383608B68A1
:1018F00004460D462BB102229847EB68E360AB68C3
:10190000A360204638BD826810B50AB902F07AFBA0
:10191000C368BDE81040184708B500681830FFF7E5
:10192000F2FF08BD70B5816800220B4613B19A60C2
:101930005B68FBE7D0E9042302EB43050B469542C5
:10194000144609D026889C6834449C605B68023247
:10195000002B08BF0B46F2E7836B13B13030FFF763
:10196000D2FF70BD08B50368D3F8942093F898307F
:1019700013700068D0F884301BB17C30FFF7C3FFD0
:1019800008BD6C30FAE708B500686C30FFF7BBFFA4
:1019900008BD08B50368D3F8AC00182202FB00307C
:1019A0008030FFF7B0FF08BD08B500686830FFF76A
:1019B000AAFF08BD08B50368D3F8C400182202FBCB
:1019C00000308030FFF79FFF08BD08B50068683021
:1019D000FFF799FF08BD08B50368D3F8DC001822AB
:1019E00002FB00308030FFF78EFF08BD08B50068AD
:1019F0006830FFF788FF08BD826810B50AB902F0A9
:101A000001FBC368BDE8104018471FB500236946B5
:101A100008300293FFF7F0FF6846FEF7B3FF05B00A
:101A20005DF804FB30B585B00446002569460830F2
:101A30000295FFF7E1FF6846FEF7A4FF694604F14F
:101A400018000295FFF7D8FF6846FEF79BFF69462E
:101A500004F128000295FFF7CFFF6846FEF792FFDA
:101A6000694604F138000295FFF7C6FF6846FEF7A5
:101A700089FF05B030BD30B585B004460025694604
:101A800008300295FFF7B8FF6846FEF77BFF69460E
:101A900004F118000295FFF7AFFF6846FEF772FFEA
:101AA000694604F128000295FFF7A6FF6846FEF795
:101AB00069FF694604F138000295FFF79DFF68460B
:101AC000FEF760FF05B030BD30B585B00446002597
:101AD000694608300295FFF78FFF6846FEF752FF10
:101AE000694604F118000295FFF786FF6846FEF785
:101AF00049FF694604F128000295FFF77DFF68461B
:101B0000FEF740FF694604F138000295FFF774FFC5
:101B10006846FEF737FF05B030BD00007FB52C4B9F
:101B200000906C460546214603930830294B0293EA
:101B3000FFF762FF2046FEF725FF6E6806F15901A8
:101B400006F10900FEF76EFE002333606E6822493D
:101B500033602046FFF7A2F994E806003046FFF70D
:101B6000D9FDEB6A1988FFF741FE6E681B490A230D
:101B700033602046FFF792F994E806003046FFF7FD
:101B8000C9FDAB6A1988FFF731FE6E68144914234A
:101B900033602046FFF782F994E806003046FFF7ED
:101BA000B9FD2B6B1988FFF721FE6E681E23336089
:101BB0006B6B1A780B4B204653F82210FFF76EF927
:101BC00094E806003046FFF7A5FD04B070BD00BFE5
:101BD00019190008A1020008E24B0008E54B0008B3
:101BE000E84B0008B04B000838B504460025C0F8A3
:101BF0000051C0F80451D0F81001FEF731FED4F8BE
:101C00001C311A6865F300021A60D4F820311A6892
:101C100065F300021A60FF225A60D4F820311A6876
:101C200042F001021A601A68D207FCD5D4F81821D4
:101C3000D36843F01003D36038BD08B583681A69D0
:101C400092F82811D2F81401FEF772FF10B118694A
:101C5000FFF7CAFF08BD000038B5354D354C2B687D
:101C600013F001031DD1344A2260344A226202F586
:101C7000A2321032C4E90603626231486360222254
:101C80002146C4E90233C4E90433A062E262A363DB
:101C9000FEF77BFD01232B4A2B492B60204602F0E7
:101CA000ACF92A4A536C43F480735364236A59682D
:101CB0006FF319615960996841F002019960996860
:101CC00041F480719960996841F400719960596894
:101CD00041F480715960116B41F48001116303F18B
:101CE0004C02636A9A601A686FF387121A601A6866
:101CF000012161F34E321A601A6861F3CC221A6036
:101D00001A6842F480621A601A6842F010021A607F
:101D10001A6842F480721A601A686FF35B621A6084
:101D2000A36A93F90400FEF72EFD024838BD00BFF8
:101D30005C01002060010020F85B000800200140E9
:101D400040050020000000209909000800380240EA
:101D5000F8B504464F48504D026812F0010F1BD1F0
:101D60004E490B6813F0010208BF4D4E4D4B02BFA8
:101D7000C3E9006201220A604B490A6B42F0020289
:101D80000A6319680A6842F003020A600022C5E982
:101D90000022EB6001230360E36A206A223B012BEF
:101DA0008CBF00260826F7B2072239462E61FFF7BE
:101DB00075F9E169206A0131E1613A46FFF7E1F91D
:101DC000D4E90732D16A013B63F31751D162A268AB
:101DD0001346002B55D019698E424DDB5B68F8E73E
:101DE0006A60E368A56003B9E5602069A2692F4BCA
:101DF00068B1D3F8001150F8045D0439491B5D182F
:101E0000A8421ABF012183F80411C3F800116169C7
:101E10000A4462612649D3F800518A4294BF5200B5
:101E20004FF0FF32281D1044B0F5807F03EB050111
:101E3000C3F800011ED893F80401D8B909B15A516A
:101E40000431636A21611A686FF300021A60A28A82
:101E5000D9605A601A6842F001021A601A68D20703
:101E6000FCD50D48F8BD1A68C5E900231D602B6834
:101E70005D60BAE70021E4E79A42F4D16A60156038
:101E8000AFE7002AACD0E3682B60002BACD05D60DC
:101E9000AAE700BF14010020180100202C01002037
:101EA000000402403001002000380240F803002006
:101EB000FCFFFF3F38B504460D46FFF7F7FC05F180
:101EC000100104F11000FFF7F1FC05F1200104F10D
:101ED0002000FFF7EBFC05F1300104F13000FFF7C3
:101EE000E5FC05F1400104F14000FFF7EEFC05F1CF
:101EF000500104F15000FFF7E8FC204638BD38B52A
:101F0000002383608B6804460D462BB1022298475C
:101F1000EB68E360AB68A360204638BD10B50B46A4
:101F20000446D1E9000184E8030003F1080104F14B
:101F30000800FFF7D9FC204610BD00002DE9F04F46
:101F4000ADF2F47D07AE00230122C6E90033327101
:101F5000294A4192294A45924FF48031284A29481A
:101F60004E9150918DF849313381429343938DF8CE
:101F700010314A93ADF82C314C934D924F905192C1
:101F80008DF848318DF84A318DF84C314696FF2155
:101F900041AA1A4401330A2B1176F9D10AAD002463
:101FA00045982C81C5E90044FEF748FC41AF4FF647
:101FB000FF7A4FF001080DF13209D7E90C3103EB3C
:101FC000410199420FD01A78092A09D80DF5827C6F
:101FD0006244587810761A7805F802800233F0E7E8
:101FE0001A885245FAD151933A6B9A420CD14A94CD
:101FF0000837B4B90124E0E7105C0008003C024057
:1020000000000A0800000C08796B02EB41029342C1
:1020100000F05686494628464A94FEF760FB814503
:10202000E6D14A9A41AB03EBC201D1E90C30519998
:1020300003EB4003994206D14BAB01219954002395
:102040004A934D9B51930DF1320428462146FEF7E9
:1020500046FBA042054640F0398647AB03CB469A83
:10206000106051601B88138100238DF84A319DF860
:102070002C318BB94A9B7BB14D9A4E9B4FF6FF702A
:1020800002EB43039A42114640F0278619465B1A39
:1020900018BF01238DF82C319DF82D31B3B94A9B1F
:1020A000012B13D04F9A509B4FF6FF7002EB430366
:1020B0009342114600F019860F88874202F102020E
:1020C000F6D05B1A18BF01238DF82D310DF59777E7
:1020D00039464BA8FEF72DFB874218BF0323459ACC
:1020E00018BF8DF849311369A54243F000431361CD
:1020F00005D00023C6E9003333810123337141A8A1
:10210000FEF79AFCAF4B1A6812F0010FAE4A05D1E8
:10211000AE4F0A21C2E9007101211960AC4B196B65
:1021200041F00401196312681168012060F3155130
:102130001160A8490A6812F0010F08BFA64DA74A0E
:1021400002BF08600F24C2E90054196BA44C41F08F
:102150000101196313681A684FF0010A6AF39F724C
:102160001A60B77832790392C7F380030293C7F3FA
:10217000C1030193B6F80280FFF7BAF8994B039AAE
:102180001D6815EA0A0507EA0A09C7F3400B4FEA7A
:1021900057173BD194492160944984F82420944AEC
:1021A0002061C4E906159348A26304F13801C4E92B
:1021B00001552573E5632464039360612562E5841A
:1021C0002585658584F82C502586FEF7DEFA8A4A37
:1021D000626404F14401A069A564E464FEF7D5FAE1
:1021E0001422294604F15C00C4E91455A56501F0E8
:1021F0005EFF039BC4F88950C4E91C55C4E91E5511
:10220000C4E92055A4F88D50C3F800A05FFA88F8FF
:1022100018F0E00300F06C85202B00F06C8508F0CE
:10222000C008B8F1400F14BF012302236C4A1362A7
:1022300013693946D3F82421D3F81801FEF726FC98
:10224000C3686BF34923C360C368029A62F30C331B
:10225000C3600369019A62F30D330361C368B9F186
:10226000000F00F04B8543F48063C360C36843F400
:102270000053C3602069FFF7B7FC0494049B092254
:10228000A3F85C20049B3288A3F85E20049B32797B
:10229000A3F86220049B7288A3F86020049AFF23AD
:1022A000A2F87C30049A0124A2F87240049A4FF4F8
:1022B000F570A2F87E30FFF721F9059005990A68BC
:1022C0008B89106A03431362FFF784F90690069B1B
:1022D0009B6844F250625A6210206CAE5B6AFFF752
:1022E000BBFCFFF735FD0023444A3374C6E90233D3
:1022F0007374F361F362F363F364F365404B32602C
:10230000203272601A6812F0010F08BFDFF80CB1BA
:102310003C4A02BF1C600E21C2E900B12C4C216B6B
:1023200041F002012163116808686FF31D700860B5
:10233000012500216DA8C6E91A15726686F870108D
:1023400086F87110FEF778FB8B918C918DF8341222
:102350008DF835129091949198919C91A0912A4971
:102360002A4A0B68899213F0010F02F120028A9227
:1023700008BFDFF8A8A0264A02BF0D600D20C2E901
:1023800000A0216B124D41F002012163136819680E
:102390006FF39B611960012400218AA8A494A39182
:1023A0008DF894128DF89512A292FEF745FB194B09
:1023B000194AA6932033A7931368A89113F0010F2D
:1023C0002EE000BF580300205C03002000080240FC
:1023D000003802404C03002000000240500300205F
:1023E0006803002064030020045C000878050020D6
:1023F000405C000898050020345C0008F44900089F
:10240000500100205401002044010020204A00080F
:10241000480100204C4A0008380100200004024016
:1024200008BFDFF83493B04BA9918DF8A8128DF84E
:10243000A912AD91B191B591B991BD9102BF082199
:10244000C3E9009114602A6B42F001022A631A6802
:1024500011686FF311411160A7A800214FF0010925
:10246000BF93C0918DF808138DF80913CDF804932C
:10247000FEF7E2FAC3AC0DF225389C4B2173C4E998
:102480000111C4E90411217640460DF27531049F13
:102490002360FEF7C7F9964B1A6812F0010F284621
:1024A00007F15C07934D73D19349DFF8B0C20A6816
:1024B000DFF8ACB212F0010F08BF4FF00D0E8F4ADB
:1024C00002BFC1F80090CCF80020CCF804E0016B0A
:1024D00041F004010163DCF8001008684FF0010EC0
:1024E0006EF39B6008608648016811F0010F854912
:1024F00002BFC0F800E04FF00F09C1F80490DFF808
:10250000189208BF0A60D9F8300040F00400C9F8FA
:1025100030000868D0F800E04FF0010A6AF39F7EAF
:10252000C0F800E0DFF83CE2DEF8000010F0010F38
:1025300001BF0E20CBF80020CBF80400CEF800A09D
:10254000D9F8300040F00400C9F83000DBF8000092
:10255000D0F800E04FF0010969F31D7EC0F800E0FB
:102560000020DFF804E22873C5E90100C5F800E0A7
:102570006873C5E904C1C5E906B2634A6A62634A81
:10258000C5F82080AA6285F830006863C3F800901F
:102590005F4B1A6812F0010F5E4A06D1DFF85C81CA
:1025A0000221C2E90081012119605B4B196B41F0E6
:1025B0000401196312681168012060F305111160AC
:1025C00056490A6812F0010F08BFDFF830E1544A9B
:1025D00002BF08604FF0030CC2E900EC196B41F038
:1025E0000401196313684F491A68012060F38712C8
:1025F0001A600B684C4A034002BFDFF800C1086054
:10260000C2E900C3444B196B41F00401196312681D
:102610001068012161F3010010604448026812F063
:10262000010F08BFDFF8D4C0414A04BF0160C2E90E
:1026300000C1196B2F4841F00401196313681A682F
:102640004FF0010868F383021A60FEF7A5FC2B7BAC
:102650000BBB384B85F80C80DA686A6002B1956074
:102660009A68DD6002B99D6002225A61324B1A6895
:102670006FF300021A60314A5A6000229A601A68A9
:1026800042F004021A601A6842F002021A601A68E4
:1026900042F001021A6089AB6367A6ABA36707AB80
:1026A000C4E91F37FEABC4F88430254B14930027D0
:1026B000244B139311A90DA8C4E91B56C4F88870C4
:1026C0001194FFF7F3F8204B1C9319A91F4B1B9390
:1026D00015A81994FFF7EAF81D4B249321A91D4B67
:1026E00023931DA8219441E03C0100201C5C0008BC
:1026F000B4000020B80000200801002000080240BB
:10270000FC00002000010020F04B0008F0530008FE
:10271000A8000020AC000020003802409C000020EF
:10272000A0000020900000209400002084000020E1
:1027300088000020B005002010E000E01F480100E4
:10274000392E0008B7020008712E0008CD020008DB
:10275000A92E0008E3020008000002400C0100203E
:10276000F4000020F0000020285C0008FFF79EF82D
:10277000AF4B2C9329A9AF4B2B9325A82994FFF796
:1027800095F8AD4B389335A9AC4B37932FA83594BA
:10279000FFF79BF8AA4B579354A9AA4B56933BA813
:1027A0005494FFF792F80DA9E6A8FFF77FF815A952
:1027B000EAA8FFF77BF81DA9EEA8FFF777F825A98F
:1027C000F2A8FFF773F82FA9F6A8FFF77EF83BA948
:1027D000FAA8FFF77AF83BA8FEF7D4F854A8FEF75A
:1027E000D1F82FA8FEF7CEF835A8FEF7CBF825A82C
:1027F000FEF7C8F829A8FEF7C5F81DA8FEF7C2F82D
:1028000021A8FEF7BFF815A8FEF7BCF819A8FEF737
:10281000B9F80DA8FEF7B6F811A8FEF7B3F88A4B81
:10282000389335A9894B37932FA83594FFF73EF895
:10283000874B579354A9874B56933BA85494FFF763
:1028400053F8D4E91F350DF5477803F10806824B9C
:10285000C4F8EC302FA9C4F8F0800DF58060FFF7C4
:1028600025F83BA90DF58260FFF73EF805F112034C
:10287000C4F8143105F10A030E35C4F81831C4F850
:102880001C51C4F820613BA8FEF77CF854A8FEF761
:1028900079F82FA8FEF776F835A8FEF773F8E6A9C1
:1028A00054A8FFF707FB6D4B289325A96C4B279382
:1028B00021A82594FFF718F86A4BDFF80892C4F8AE
:1028C0002881CDE92A34684B2E93684B2D9306233B
:1028D0002F93674BCDE93034664B3493664B33937B
:1028E000664B3A93664B3993664BCDE93C34664B65
:1028F0004093664B3F93664BC4F824310C25092660
:1029000054A90DF58760299535963B95CDE9369408
:10291000FFF7D0FA21A90DF59360FEF7E5FF29A98D
:102920000DF59560FFF7FAFA2FA90DF59860FFF7FE
:10293000F5FA35A90DF59B60FFF7F0FA3BA90DF507
:102940009E60FFF7EBFAC4F8FC71C4F800723DA872
:10295000FEF718F837A8FEF715F831A8FEF712F8B9
:102960002BA8FEF70FF821A8FEF70CF825A8FEF714
:1029700009F854A8FEF7A8FEE6A954A8FFF79AFAAA
:10298000444B2C9329A9444B2B9325A82994FEF75B
:10299000ABFF0D232F93414B3093414B3493414B6D
:1029A0003393414B3693414B3A93414B3993414BCF
:1029B00035953B953C93404D404B4093C4F80452B1
:1029C0003F4BC4F8088254A90DF5A3603F93FFF76D
:1029D00071FA25A90DF5AF60FEF786FF2FA90DF559
:1029E000B160FFF79BFA35A90DF5B460FFF796FAD1
:1029F0003BA90DF5B760FFF791FAC4F8C472C4F8AB
:102A0000C8723DA8FDF7BEFF37A8FDF7BBFF31A890
:102A1000FDF7B8FF25A8FDF7B5FF29A8FDF7B2FF20
:102A200054A8FEF751FEE6A954A8FFF743FA4BE07D
:102A3000E12E0008F90200086D2F00080F030008BE
:102A4000352F000825030008012E00083B0300086D
:102A50004D06000851030008904900085906000877
:102A600067030008445C0008650600087D03000851
:102A7000515C000871060008930300087D060008F9
:102A8000A9030008625C000889060008BF0300086B
:102A9000A449000895060008D50300086F5C0008EB
:102AA000EB030008ED0300087D5C00083308000814
:102AB000F70300088A5C0008B849000835080008D8
:102AC00001040008585C0008A14B32932FA9A14BC8
:102AD000319329A82F94FEF707FF9F4B3A939F4B02
:102AE000399312233B939E4B3C939E4B40939E4BBA
:102AF0003F939E4BC4F8CC3254A9C4F8D0820DF554
:102B0000BC60CDE93569FFF7D5F929A90DF5C86095
:102B1000FEF7EAFE35A90DF5CA60FFF7FFF93BA9FC
:102B20000DF5CD60FFF7FAF9C4F87473C4F8787343
:102B30003DA8FDF727FF37A8FDF724FF29A8FDF7DB
:102B400021FF2FA8FDF71EFF54A8FEF7BDFDE6A943
:102B500054A8FFF7AFF9864B2C9329A9854B2B93EB
:102B600025A82994FEF7C0FE08232F93824B3093AB
:102B7000824B3493824B339307233593814B3693A7
:102B8000814B3A93814B3993814B3C93814B4093DA
:102B9000C4F87C53804BC4F8808354A90DF5D260EF
:102BA0003F933B96FFF786F925A90DF5DE60FEF70A
:102BB0009BFE2FA90DF5E060FFF7B0F935A90DF5E3
:102BC000E360FFF7ABF93BA90DF5E660FFF7A6F967
:102BD000C4F83C74C4F840743DA8FDF7D3FE37A890
:102BE000FDF7D0FE31A8FDF7CDFE25A8FDF7CAFE02
:102BF00029A8FDF7C7FE54A8FEF766FDE36F9B7892
:102C0000E6A9C3F3000354A884F84434FFF752F94B
:102C1000624925A8FEF742F9614B32932FA9614B17
:102C2000319329A82F94FEF75FFE5F4B3E933BA99B
:102C30005E4B3D9335A83B94FEF756FE5C4BC4F8C3
:102C400048344FF48073A4F84C3454A9C4F8508429
:102C50000DF5EC60DDE92565FFF72CF929A90DF5E7
:102C6000F860FEF741FE35A90DF5FA60FEF73CFE6F
:102C70000DF5EA63C4F8DC3494F8443484F8E034A5
:102C8000C4F8D464C4F8D85435A8FDF77BFE3BA83B
:102C9000FDF778FE29A8FDF775FE2FA8FDF772FE57
:102CA00054A8FEF711FD2046FDF7C6FED4F88400B7
:102CB00003681B689847E36E93F8303013BBFEE758
:102CC00041AB234483F82880FFF792B94A9B4BAA73
:102CD0000121D1540523FFF7C8B90F88874202F1BB
:102CE00002023FF4CFA9FFF7D2B91946FFF7E9B9BD
:102CF0000423FFF79BBA0323FFF798BA69F38A23EB
:102D0000FFF7B3BA2B4C069B9B685B6A059A108A47
:102D100099B2884210D040F6022081420CD9B4FB0F
:102D2000F1F350691182013B5B08038150F8182BC5
:102D30009BB2D362FEF788FA059B1F481A8A049B50
:102D4000A3F86620FDF786FD1C48FDF783FDDAE752
:102D5000A10600080B040008370800082104000839
:102D6000975C0008390800082B040008CC490008CB
:102D7000AD06000835040008AA5C00083B080008FE
:102D80004B040008B35C0008230800085504000841
:102D9000BB5C0008310800085F040008C55C00083F
:102DA000B906000869040008C50600087F04000889
:102DB000E0490008007A030A5C0300205003002069
:102DC00013B50B460446D0E900016A4682E80300C9
:102DD00093E8030084E8030092E8030083E803001B
:102DE00002B010BD38B505460C46FFF7E9FFAB68E9
:102DF000A268AA60A360E268EB68EA60E36038BD9D
:102E000030B5044689B00846002369460293FFF7AF
:102E1000E9FF23689C6F2368694604A89D68FEF754
:102E200063FD04A92046A84704A8FDF7ABFD68464A
:102E3000FDF7A8FD09B030BD30B5044689B008469D
:102E4000002369460293FFF7CDFF23681C6F2368B8
:102E5000694604A89D68FEF747FD04A92046A847D7
:102E600004A8FDF78FFD6846FDF78CFD09B030BD65
:102E700030B5044689B00846002369460293FFF73F
:102E8000B1FF23685C6F2368694604A89D68FEF75C
:102E90002BFD04A92046A84704A8FDF773FD68464A
:102EA000FDF770FD09B030BD30B5044689B0084665
:102EB000002369460293FFF795FF23689C6F236800
:102EC000694604A89D68FEF70FFD04A92046A8479F
:102ED00004A8FDF757FD6846FDF754FD09B030BD65
:102EE00030B5044689B00846002369460293FFF7CF
:102EF00079FF23689C6F2368694604A8DD68FEF7A4
:102F0000F3FC04A92046A84704A8FDF73BFD68464A
:102F1000FDF738FD09B030BD38B505460C46FFF762
:102F20004FFFAB68A268AA60A360E268EB68EA6042
:102F3000E36038BD30B5044689B0084600236946D1
:102F40000293FFF7E9FF23685C6F2368694604A8D2
:102F50001D69FEF7D4FF04A92046A84704A8FDF781
:102F600011FD6846FDF70EFD09B030BD30B50446D1
:102F700089B00846002369460293FFF7CDFF236816
:102F80001C6F2368694604A81D69FEF7B8FF04A9F1
:102F90002046A84704A8FDF7F5FC6846FDF7F2FCBB
:102FA00009B030BD1FB504466846FEF79DFC2146BA
:102FB0006846FFF717FF6846FDF7E4FC204604B0BB
:102FC00010BD08B54430FFF7EDFF08BD08B534303B
:102FD000FFF7E8FF08BD08B52430FFF7E3FF08BDA1
:102FE00008B51430FFF7DEFF08BD08B54430FFF721
:102FF000D9FF08BD08B53430FFF7D4FF08BD08B5C8
:103000002430FFF7CFFF08BD08B51430FFF7CAFF23
:1030100008BD08B54430FFF7C5FF08BD08B534301A
:10302000FFF7C0FF08BD08B52430FFF7BBFF08BDA0
:1030300008B51430FFF7B6FF08BD1FB50446684653
:10304000FEF75DFF21466846FFF766FF6846FDF71D
:1030500099FC204604B010BD08B55430FFF7EDFFD1
:1030600008BD08B55430FFF7E8FF08BD08B5543077
:10307000FFF7E3FF08BD1FB550B16846FEF734FC0B
:10308000029B13B16846FEF73EFC6846FDF77AFCEA
:1030900005B05DF804FB07B5826801910AB900F03C
:1030A000B1FFC36801A9984703B05DF804FB7FB581
:1030B0000446406EFDF752FC08B9A36E8BB3606EF8
:1030C000FDF74CFC054680BB637C63BB94F87060E5
:1030D00004F124016846FEF707FC69463046FFF715
:1030E000CAFF6846FDF74EFC637C33B994F8705014
:1030F0001DB194F8715085F0010504F13401684662
:10310000FEF7F2FB69462846FFF7B5FF6846FDF774
:1031100039FC00230122C4E91A3284F8703084F8A3
:10312000713004B070BD0646D2E7A36E0133092B9F
:10313000A36622D994F870208AB9657C012384F8AB
:1031400070305D4004F114016846FEF7CDFB28465F
:103150006946FFF790FF6846FDF714FCE1E7B3F519
:103160007A7F0AD394F871203AB9657C012384F8F8
:1031700071305D4004F14401E6E7E26D002AD0D0F1
:10318000B3F57A7FCDD9B3F5FA6F0CD8C821B3FB6C
:10319000F1F201FB1233002BC3D1012104F15400E1
:1031A000FFF779FFBDE740F6B832934201D86421BA
:1031B000EDE7B3F57A6F01D83221E8E71921B3FBC7
:1031C000F1F201FB123241F288318B4202D8002A1F
:1031D000A7D1E2E7002AA4D1E16E04F15400FFF781
:1031E0005AFFA16E4FF47A72B1FBF2F302FB131394
:1031F000002B96D1E36E0133E36692E7A0F1040061
:1032000055E77FB50446406EFDF7A8FB08B9A36EED
:103210008BB3606EFDF7A2FB054680BB637C63BB8E
:1032200094F8706004F124016846FEF75DFB69467E
:103230003046FFF720FF6846FDF7A4FB637C33B9F7
:1032400094F870501DB194F8715085F0010504F1A7
:1032500034016846FEF748FB69462846FFF70BFF36
:103260006846FDF78FFB00230122C4E91A3284F877
:10327000703084F8713004B070BD0646D2E7A36E9A
:103280000133092BA36622D994F870208AB9657C92
:10329000012384F870305D4004F114016846FEF7A4
:1032A00023FB28466946FFF7E6FE6846FDF76AFB02
:1032B000E1E7B3F57A7F0AD394F871203AB9657CD7
:1032C000012384F871305D4004F14401E6E7E26DCA
:1032D000002AD0D0B3F57A7FCDD9B3F5FA6F0CD8E8
:1032E000C821B3FBF1F201FB1233002BC3D1012142
:1032F00004F15400FFF7CFFEBDE740F6B832934229
:1033000001D86421EDE7B3F57A6F01D83221E8E7FF
:103310001921B3FBF1F201FB123241F288318B42E9
:1033200002D8002AA7D1E2E7002AA4D1E16E04F175
:103330005400FFF7B0FEA16E4FF47A72B1FBF2F3C6
:1033400002FB1313002B96D1E36E0133E36692E781
:10335000A0F1040055E77FB50446406EFDF7FEFA84
:1033600008B9A36E8BB3606EFDF7F8FA054680BB13
:10337000637C63BB94F8706004F124016846FEF737
:10338000B3FA69463046FFF776FE6846FDF7FAFA6B
:10339000637C33B994F870501DB194F8715085F086
:1033A000010504F134016846FEF79EFA6946284695
:1033B000FFF761FE6846FDF7E5FA00230122C4E944
:1033C0001A3284F8703084F8713004B070BD06464B
:1033D000D2E7A36E0133092BA36622D994F870209B
:1033E0008AB9657C012384F870305D4004F11401D2
:1033F0006846FEF779FA28466946FFF73CFE6846BC
:10340000FDF7C0FAE1E7B3F57A7F0AD394F87120AB
:103410003AB9657C012384F871305D4004F14401C0
:10342000E6E7E26D002AD0D0B3F57A7FCDD9B3F5C7
:10343000FA6F0CD8C821B3FBF1F201FB1233002B59
:10344000C3D1012104F15400FFF725FEBDE740F68A
:10345000B832934201D86421EDE7B3F57A6F01D811
:103460003221E8E71921B3FBF1F201FB123241F2FC
:1034700088318B4202D8002AA7D1E2E7002AA4D1E2
:10348000E16E04F15400FFF706FEA16E4FF47A726C
:10349000B1FBF2F302FB1313002B96D1E36E013361
:1034A000E36692E7A0F1040055E730B50B1A9B10D4
:1034B000002B15DD14780578A54203D04578A54288
:1034C00001D1013030BD8578A54201D10230F9E744
:1034D000C578A54201D10330F4E70430013BE7E7AA
:1034E0000B1A022B0ED0032B07D0012B10D104781E
:1034F00013789C4218BF0846E4E7047813789C428E
:10350000E0D00130047813789C42DBD00130EEE744
:103510000846D7E72DE9F34190F845304169044664
:10352000052B1BD8DFE813F006001D004A008200BF
:10353000B400E80090F84830C218C95C127E91428D
:1035400040F0F6800133DBB20A2B28BF002380F85D
:103550004830B3FA83F35B0980F8443002B0BDE829
:10356000F0810069C268C2F30042002AF6D1036903
:10357000002BF3DAFDF762F92369186962F3410061
:1035800018611A6942F001021A6123691A6901205F
:1035900060F309221A611A6942F080721A6194F884
:1035A0004830CA5C84F8472094F84710226C43EAFC
:1035B00001231380022384F84530CFE70369DA68DA
:1035C000D107CBD5DA6842F00102DA601A6942F01D
:1035D00000421A6190F8483090F8472003441A7668
:1035E000026C436A0232026400EBC300D0E90C159E
:1035F00001EB45018A4203D094F84630DBB2DAE7AA
:103600000122E1181344022B28BF002381F828204F
:10361000636204EBC3031B6B2364002384F848300C
:1036200084F84520052384F8463097E70769FD684C
:10363000C5F30045002D91D13B69002B8EDA02AA1B
:1036400000F12A06012300F1280802F8013D314665
:103650004046FFF72AFFB042CED0A0EB0800E06260
:103660003846FDF7EBF8E36A324AD25C036965F34A
:1036700000030361036943F002030361036962F31A
:10368000C6030361036943F480330361042392E7B3
:103690000369DA68D2077FF561AFDA6842F00102A8
:1036A000DA601A6942F000421A61C16A00EBC10394
:1036B000D3E90C234FF6FF7502EB43039342104608
:1036C00018D00688AE4202F10202F7D01B1A21443C
:1036D00018BF012304F12A0581F8283004F12800DD
:1036E0002946FDF726F8854214BF0320002084F800
:1036F000450033E71846E9E790F848300133DBB27C
:10370000092B11D9002380F8483004F12A052946F5
:1037100004F12800FDF70DF8854214BF03200020B6
:1037200084F8450000237EE780F84830002BECD079
:10373000012340E7EE4B000837B590F898308568D4
:1037400019444379C9B28B4238BF037980F8981085
:1037500038BF80F8983014232B6090F89820084BDD
:103760006C4653F822102046FDF798FB94E80600BB
:103770002846FDF7CFFFFDF777FB03B030BD00BF54
:10378000B04B000808B501210068FFF7D5FF08BD60
:1037900008B509680068FFF7CFFF08BD37B590F896
:1037A0009830591A0379C9B28B4280F8981001D821
:1037B000FF2902D1437980F89830856814232B6063
:1037C00090F89820074B6C4653F822102046FDF7DE
:1037D00065FB94E806002846FDF79CFFFDF744FBD7
:1037E00003B030BDB04B000808B501210068FFF7F9
:1037F000D5FF08BD08B509680068FFF7CFFF08BD11
:10380000826810B50AB900F0FDFBC368BDE810403E
:10381000184730B585B00446002569460C3002953E
:10382000FEF7EAF86846FDF7ADF8694604F11C00BA
:103830000295FEF7E1F86846FDF7A4F8694604F141
:103840002C000295FEF7D8F86846FDF79BF869460C
:1038500004F13C000295FEF7CFF86846FDF792F8B8
:10386000694604F14C000295FFF7CAFF6846FDF770
:1038700089F8694604F15C000295FFF7C1FF6846CC
:10388000FDF780F805B030BDF0B589B004AD534BFD
:1038900004900446294607930C30514B0693FEF7DB
:1038A000ABF82846FDF76EF84E4B079329464E4B72
:1038B000069304F11C000494FEF79EF82846FDF7D9
:1038C00061F84A4B07932946494B069304F14C0093
:1038D0000494FFF795FF2846FDF754F8454B0793EE
:1038E0002946454B069304F15C000494FFF788FFDA
:1038F0002846FDF747F8414B07932946404B06936E
:1039000004F12C000494FEF777F82846FDF73AF806
:103910003C4B079329463C4B069304F13C0004942E
:10392000FEF76AF82846FDF72DF8A068002303602B
:1039300004F18C0393E80600FDF7ECFEFDF794FA22
:10394000D4F89430A6681B7884F898301423336038
:1039500094F898202D4B284653F82210FDF79EFA34
:1039600095E806003046FDF7D5FEFDF77DFA6E4678
:10397000A56827493046FDF791FA96E806002846E3
:10398000FDF7C8FE7E21FDF761FA02AD0746214929
:103990002846FDF783FA95E806003846FDF7BAFE9B
:1039A000FDF762FAA4681C493046FDF777FA96E8FD
:1039B00006002046FDF7AEFE7E21FDF747FA1749C7
:1039C00004462846FDF76AFA95E806002046FDF70A
:1039D000A1FEFDF749FA09B0F0BD00BF8537000828
:1039E000A5040008E9370008BB0400089137000867
:1039F000D1040008F5370008E7040008651900083D
:103A0000FD0400088719000813050008B04B0008E2
:103A1000B84B0008C34B0008CB4B0008D64B00083E
:103A20000246D0F8AC3052F8A81F70B55B1A00F10E
:103A30007804182101FB034404F1300696424368E0
:103A400028BF1646002205461A60B442686807D0AF
:103A500094E80600FDF75EFEFDF706FA1834F4E779
:103A6000D5F8A820142353430F210360FDF721FA52
:103A70007E21BDE87040FDF7E9B900001FB51C4B81
:103A8000009004466946039308301A4B0293FDF7F1
:103A9000B3FF6846FCF776FF174B03936946174B55
:103AA000029304F118000094FDF7A6FF6846FCF7A6
:103AB00069FF134B03936946124B029304F12800EC
:103AC0000094FDF799FF6846FCF75CFF0E4B0393EB
:103AD00069460E4B029304F138000094FDF78CFF09
:103AE0006846FCF74FFF2046FFF79AFF04B010BD71
:103AF000CF0E000829050008190F00083F0500082F
:103B00009319000855050008A91900086B0500085D
:103B10000246D0F8C43052F8C01F70B55B1A00F1ED
:103B20007804182101FB034404F1300696424368EF
:103B300028BF1646002205461A60B442686807D0BE
:103B400094E80600FDF7E6FDFDF78EF91834F4E77A
:103B5000D5F8C020142353430F210360FDF7A9F9C2
:103B60007E21BDE87040FDF771B938B50468D4F81E
:103B7000C4301BB3013BC4F8C430E3B9D4F8C0303F
:103B8000CBB1606814256B4303600F21FDF791F9F9
:103B90002021FDF75BF9D4F8C0306068013B5D433C
:103BA000C4F8C0300F210560FDF783F97E21BDE820
:103BB0003840FDF74BB92046FFF7AAFF38BD38B5AE
:103BC0000468D4F8C430022B25D00133022BC4F88A
:103BD000C4301DD1D4F8C030012B19D06068142531
:103BE0006B4303600F21FDF764F92021FDF72EF9E7
:103BF000D4F8C030606801335D43C4F8C0300F2191
:103C00000560FDF756F97E21BDE83840FDF71EB985
:103C10002046FFF77DFF38BD1FB51C4B00900446C2
:103C20006946039308301A4B0293FDF7E5FE684698
:103C3000FCF7A8FE174B03936946174B029304F158
:103C400018000094FDF7D8FE6846FCF79BFE134B66
:103C500003936946124B029304F128000094FDF788
:103C6000CBFE6846FCF78EFE0E4B039369460E4B67
:103C7000029304F138000094FDF7BEFE6846FCF79D
:103C800081FE2046FFF744FF04B010BD6B3B0008E7
:103C900081050008BF3B000897050008B51900081A
:103CA000AD050008CB190008C30500080246D0F88E
:103CB000DC3052F8D81F70B55B1A00F17804182177
:103CC00001FB034404F130069642436828BF1646C0
:103CD000002205461A60B442686807D094E80600DE
:103CE000FDF718FDFDF7C0F81834F4E7D5F8D82033
:103CF000142353430F210360FDF7DBF87E21BDE859
:103D00007040FDF7A3B838B50468D4F8DC301BB3B5
:103D1000013BC4F8DC30E3B9D4F8D830CBB16068EB
:103D200014256B4303600F21FDF7C3F82021FDF735
:103D30008DF8D4F8D8306068013B5D43C4F8D830C2
:103D40000F210560FDF7B5F87E21BDE83840FDF78D
:103D50007DB82046FFF7AAFF38BD38B50468D4F80F
:103D6000DC30032B25D00133032BC4F8DC301DD10C
:103D7000D4F8D830012B19D0606814256B43036048
:103D80000F21FDF796F82021FDF760F8D4F8D83020
:103D9000606801335D43C4F8D8300F210560FDF73A
:103DA00088F87E21BDE83840FDF750B82046FFF77F
:103DB0007DFF38BD1FB51C4B009004466946039338
:103DC00008301A4B0293FDF717FE6846FCF7DAFD40
:103DD000174B03936946174B029304F118000094A4
:103DE000FDF70AFE6846FCF7CDFD134B03936946C9
:103DF000124B029304F128000094FDF7FDFD684684
:103E0000FCF7C0FD0E4B039369460E4B029304F181
:103E100038000094FDF7F0FD6846FCF7B3FD20463E
:103E2000FFF744FF04B010BD073D0008D9050008A6
:103E30005B3D0008EF050008D719000805060008DB
:103E4000ED1900081B06000808B53D4B3D48002150
:103E5000C3E900110122C3E9021119615A613A4B09
:103E60001A6861F300021A60384A5A6099601A6849
:103E700042F004021A601A6842F002021A601A68DC
:103E800042F001021A60324B232219601A71314B41
:103E9000242219601A71304B332219601A712F4B8A
:103EA000252219601A712E4B262219601A712D4B8A
:103EB000272219601A712C4B0B2219601A712B4B97
:103EC0000C2219601A712A4B0D2219601A71294BA4
:103ED0000E2219601A71284B0F2219601A71274B94
:103EE000102219601A71264B112219601A71254B84
:103EF0002F2219601A71244B382219601A71234B32
:103F0000392219601A71224B3A2219601A71214B19
:103F10003B2219601A71204B3C2219601A711F4B09
:103F2000442219601A711E4B452219601A711D4BEB
:103F300046221A714FF48472196000F0B8F808BD77
:103F4000B0050020F803002010E000E03F900200E0
:103F5000800500208805002090050020980500209D
:103F6000A0050020A805002000050020080500206D
:103F7000100500201805002020050020280500203D
:103F800030050020380500204005002048050020AD
:103F9000500500205805002060050020680500201D
:103FA0007005002078050020DFF834D0002103E000
:103FB0000C4B5B58435004310B480C4B42189A424F
:103FC000F6D30B4A02E0002342F8043B094B9A4225
:103FD000F9D3FDF747F900F02DF8FDF7AFFF704773
:103FE00000000220205D0008000000206800002082
:103FF00068000020D8050020FEE70B460146184661
:1040000000F00AB808B500F000F808B5062000F086
:1040100037F9012000F0A4FC10B5054C13462CB173
:104020000A4601460220AFF3008010BD2046FCE79F
:104030000000000070B50D4E0D4CA41BA41000250F
:10404000A54209D10B4E0C4C00F08CFCA41BA41013
:104050000025A54205D170BD56F825309847013599
:10406000EEE756F8253098470135F2E7145D000871
:10407000145D0008145D00081C5D0008884210B53E
:1040800001EB020307D8421E99420AD011F8014BF6
:1040900002F8014FF8E78342F5D98118D21AD342CA
:1040A00000D110BD13F8014D01F8014DF7E70244AE
:1040B0000346934200D1704703F8011BF9E7000063
:1040C00038B50546002945D051F8043C0C1F002B9B
:1040D000B8BFE41800F010F91F4A1368104633B94E
:1040E000636014602846BDE8384000F006B9A3427A
:1040F0000CD921686218934204BF1A685B68636038
:1041000004BF521822600460ECE713465A680AB1F3
:10411000A242FAD919685818A0420BD1206801446C
:10412000581882421960DDD1106852685A60014403
:104130001960D7E702D90C232B60D3E72068211838
:104140008A4204BF11685268626004BF0918216086
:104150005C60C7E738BD00BFC805002070B5CD1C46
:1041600025F0030508350C2D38BF0C25002D06461B
:1041700001DBA94203D90C233360002070BD00F09D
:10418000BBF8214A1468214691B9204C23681BB919
:10419000304600F03DF820602946304600F038F8FF
:1041A000431C24D10C233360304600F0A6F8E4E72A
:1041B0000B685B1B18D40B2B0FD90B60CD50CC18A0
:1041C000304600F09AF804F10B00231D20F00700A0
:1041D000C31AD3D05A42E250D0E78C424B6816BF84
:1041E000636013600C46EBE70C464968CCE7C41CDF
:1041F00024F00304A04205D0211A304600F008F84C
:104200000130CFD02560DBE7C8050020CC050020B9
:1042100038B5064C002305460846236000F092FBA3
:10422000431C02D1236803B12B6038BDD4050020A4
:104230001F2938B504460D4604D9162303604FF0F4
:10424000FF3038BD426C12B152F821304BB92046D4
:1042500000F030F82A4601462046BDE8384000F01C
:1042600017B8012B0AD0591C03D116230360012073
:10427000E7E7002442F82540284698470020E0E779
:10428000024B01461868FFF7D3BF00BF04000020AF
:1042900038B5074C0023054608461146236000F058
:1042A00049FB431C02D1236803B12B6038BD00BF1A
:1042B000D405002000F036BB0EB400B59CB01DAB99
:1042C000029006906FF00041094807910491094956
:1042D00053F8042B05910068019302A900F068F8D7
:1042E000029B00221A701CB05DF804EB03B070470B
:1042F000040000200802FFFF704770472DE9F047D7
:104300008E689E4282460C469046994637D88A89E6
:1043100012F4906F31D0256809696F1A656902231C
:1043200005EB450595FBF3F509F101033B449D427F
:1043300038BF1D46530530D52946FFF70FFF064607
:1043400050B90C23CAF80030A38943F04003A3817D
:104350004FF0FF30BDE8F0873A46216900F0A8FA37
:10436000A38923F4906343F08003A38126616561F0
:104370003E44ED1B2660A5604E464E4500D94E4694
:10438000324641462068FFF779FEA3689B1BA36075
:1043900023681E4426600020DCE72A4600F093FADA
:1043A00006460028E2D121695046FFF789FEC8E79A
:1043B0002DE9F04F1D468B891F069DB080460C46A7
:1043C00016460FD50B696BB94021FFF7C7FE206079
:1043D000206128B90C23C8F800304FF0FF30C8E046
:1043E000402363610023099320238DF82930302373
:1043F0008DF82A3003954FF0010B37463D4615F8EE
:10440000013B0BB1252B3ED1B7EB060A0BD053462F
:10441000324621464046FFF771FF013000F0A4808C
:10442000099B534409933B78002B00F09D800023A7
:104430004FF0FF32CDE90523049307938DF85330F5
:104440001A932F46052217F8011B5048FBF7C8FEA8
:10445000049BD0B9D90644BF20228DF853201A07F7
:1044600044BF2B228DF853202A782A2A15D0079A88
:104470002F4600200A25394611F8013B303B092B15
:104480004DD9B8B10FE02F46B8E7404A801A0BFA71
:1044900000F0184304903D46D3E7039A111D1268BB
:1044A0000391002A01DB079204E0524243F0020329
:1044B000079204933B782E2B0CD17B782A2B33D197
:1044C000039B1A1D1B680392002BB8BF4FF0FF33EC
:1044D000023705932E4D397803222846FBF780FEDC
:1044E00038B14023401B03FA00F0049B034301371B
:1044F0000493397827488DF8281006227E1CFBF794
:104500006FFE002838D0244B13BB039B073323F0E6
:10451000070308330393099B4B4409936DE705FB9D
:10452000023201200F46A6E7002301370593194602
:104530000A25384610F8012B303A092A03D9002BF6
:10454000C8D00591C6E705FB012101230746F0E726
:1045500003AB00932246114B04A94046AFF3008001
:10456000B0F1FF3F8146D6D1A3895B063FF535AF59
:1045700009981DB0BDE8F08F03AB00932246074BAE
:1045800004A9404600F082F8EAE700BFE05C0008BA
:10459000E65C0008EA5C000800000000FD4200083C
:1045A0002DE9F04791461F468A680B69DDF82080A7
:1045B0009342B8BF1346C9F8003091F8432006462D
:1045C0000C4612B10133C9F800302368990642BF86
:1045D000D9F800300233C9F80030256815F0060517
:1045E00007D104F1190AE368D9F800209B1AAB42FD
:1045F00028DC94F843302268003318BF0123920668
:104600002DD404F1430239463046C047013020D052
:104610002368E568D9F8002003F00603042B08BFDF
:10462000AD1AA36822690CBF25EAE57500259342FF
:10463000C4BF9B1AED184FF000091A344D451AD12A
:10464000002008E00123524639463046C047013079
:1046500003D14FF0FF30BDE8F0870135C3E7E11823
:104660005A1C302081F84300224494F8451082F807
:1046700043100233C5E70123224639463046C0477E
:104680000130E6D009F10109D8E700002DE9F04337
:1046900001F1430C0C46097E85B06E29174606468B
:1046A00098460C9A00F0B38022D8632936D00AD8F5
:1046B000002900F0B980582900F0838004F14205F8
:1046C00084F8421032E0642901D06929F6D12068CB
:1046D0001368050603F104012AD51B681160002B3D
:1046E00003DA2D225B4284F843206F480A2239E026
:1046F000732900F09D8008D86F2920D07029DDD162
:10470000236843F02003236003E0752917D078293C
:10471000D4D1782384F84530644855E01368191DD6
:104720001B68116004F1420584F8423001238CE0DB
:104730001B68116010F0400F18BF1BB2CFE7136861
:104740002568181D1060280601D51B6802E0680660
:10475000FBD51B8854486F2914BF0A220822002168
:1047600084F843106568A560002DC0F2958021682B
:1047700021F004012160002B3DD1002D40F08E80FE
:104780006546082A0BD12368DB0708D523696268D0
:104790009A42DEBF302305F8013C05F1FF35ACEB52
:1047A00005032361CDF800803B4603AA214630462D
:1047B000FFF7F6FE01304DD14FF0FF3005B0BDE8F8
:1047C000F083394884F84510136821681D1D1B6863
:1047D00015600A060BD5CA0744BF41F020012160CD
:1047E0001BB9226822F0200222601022B7E74D0692
:1047F00048BF9BB2EFE76546B3FBF2F102FB113312
:10480000C35C05F8013D0B460029F5D1B9E71368F3
:1048100025686169181D106028061B6801D519609C
:1048200002E06A06FBD51980002323616546B9E7DB
:104830001368191D11601D68626800212846FBF786
:10484000CFFC08B1401B606063682361002384F8DB
:104850004330A7E723692A4639463046C04701302E
:10486000AAD023689B0713D4E068039B9842B8BF83
:104870001846A3E701234A4639463046C04701306F
:104880009AD00135E368039A9B1AAB42F2DCEBE75E
:10489000002504F11909F5E7002BACD1037884F861
:1048A000423004F142056CE7F15C0008025D00084B
:1048B00010B5431E0A44914200D110BD11F8014BBE
:1048C00003F8014FF7E7F8B5074614460E4621B93D
:1048D0001146BDE8F840FFF741BC22B9FFF7F0FBF5
:1048E00025462846F8BD00F014F8A0420FD2214614
:1048F0003846FFF733FC05460028F2D03146224601
:10490000FFF7D6FF31463846FFF7DAFBE9E73546D1
:10491000E7E751F8043C181F002BBCBF0B58C01828
:1049200070470000024B58221A604FF0FF3070476A
:10493000D4050020024B58221A604FF0FF30704718
:10494000D4050020044A05491368002B08BF0B4614
:104950001844106018467047D0050020D805002084
:10496000FEE700BFF8B500BFF8BC08BC9E46704724
:0C497000F8B500BFF8BC08BC9E467047BC
:10497C000000000000000000990200080000000088
:10498C00000000001D1B0008411800080B1A00084D
:10499C000000000000000000B53D0008A304000862
:1049AC00C91A00080000000000000000193C0008B3
:1049BC00A1040008771A00080000000000000000A5
:1049CC007D3A00089F040008251A0008000000002A
:1049DC0000000000893800089D0400081338000806
:1049EC000000000000000000E12F0008D72F000895
:1049FC00CD2F0008C32F000859300008573300088A
:104A0C00FCFFFFFF00000000A534000800000000C0
:104A1C000000000009300008FF2F0008F52F0008E7
:104A2C00EB2F00086330000803320008FCFFFFFF87
:104A3C0000000000513300080000000000000000DE
:104A4C0031300008273000081D30000813300008F2
:104A5C006D300008AF300008FCFFFFFF00000000C5
:104A6C00FD31000800000000010000000200000001
:104A7C000300000004000000050000000600000018
:104A8C000700000008000000090000000A000000F8
:104A9C000B0000000C0000000D0000000E000000D8
:104AAC000F000000100000001100000012000000B8
:104ABC001300000028000000290000002A0000005C
:104ACC002B0000002C0000002D0000002E00000028
:104ADC002F00000030000000310000003200000008
:104AEC0033000000340000003500000036000000E8
:104AFC003700000038000000390000003A000000C8
:104B0C003B0000001400000015000000160000001F
:104B1C001700000018000000190000001A00000027
:104B2C001B0000001C0000001D0000001E00000007
:104B3C001F000000200000002100000022000000E7
:104B4C0023000000240000002500000026000000C7
:104B5C00270000003C0000003D0000003E0000006B
:104B6C003F00000040000000410000004200000037
:104B7C004300000044000000450000004600000017
:104B8C004700000048000000490000004A000000F7
:104B9C004B0000004C0000004D0000004E000000D7
:104BAC004F000000D25C0008D95C0008CDE0E6E0C4
:104BBC00F2E8E520202000D1EEF5F0E0ED2E00D358
:104BCC00E4E5F0E6E0EDE8E52000CEF2ECE5EDE022
:104BDC0000C3F600C000463D00743D00493D002571
:104BEC006400090A00000F0000000F0000000F0015
:104BFC0004000B0000000F000800070000000F006D
:104C0C000C00030000000F0001000E0000000F005C
:104C1C0005000A0000000F000900060000000F004C
:104C2C000D00020000000F0002000D0000000F003C
:104C3C000600090000000F000A00050000000F002C
:104C4C000E00010000000F0003000C0000000F001C
:104C5C000700080000000F000B00040000000F000C
:104C6C000F00000004000B0000000F0004000B00FC
:104C7C0004000B0004000B000800070004000B00EC
:104C8C000C00030004000B0001000E0004000B00DC
:104C9C0005000A0004000B000900060004000B00CC
:104CAC000D00020004000B0002000D0004000B00BC
:104CBC000600090004000B000A00050004000B00AC
:104CCC000E00010004000B0003000C0004000B009C
:104CDC000700080004000B000B00040004000B008C
:104CEC000F0000000800070000000F00080007007C
:104CFC0004000B000800070008000700080007006C
:104D0C000C0003000800070001000E00080007005B
:104D1C0005000A000800070009000600080007004B
:104D2C000D0002000800070002000D00080007003B
:104D3C0006000900080007000A000500080007002B
:104D4C000E0001000800070003000C00080007001B
:104D5C0007000800080007000B000400080007000B
:104D6C000F0000000C00030000000F000C000300FB
:104D7C0004000B000C000300080007000C000300EB
:104D8C000C0003000C00030001000E000C000300DB
:104D9C0005000A000C000300090006000C000300CB
:104DAC000D0002000C00030002000D000C000300BB
:104DBC00060009000C0003000A0005000C000300AB
:104DCC000E0001000C00030003000C000C0003009B
:104DDC00070008000C0003000B0004000C0003008B
:104DEC000F00000001000E0000000F0001000E007B
:104DFC0004000B0001000E000800070001000E006B
:104E0C000C00030001000E0001000E0001000E005A
:104E1C0005000A0001000E000900060001000E004A
:104E2C000D00020001000E0002000D0001000E003A
:104E3C000600090001000E000A00050001000E002A
:104E4C000E00010001000E0003000C0001000E001A
:104E5C000700080001000E000B00040001000E000A
:104E6C000F00000005000A0000000F0005000A00FA
:104E7C0004000B0005000A000800070005000A00EA
:104E8C000C00030005000A0001000E0005000A00DA
:104E9C0005000A0005000A000900060005000A00CA
:104EAC000D00020005000A0002000D0005000A00BA
:104EBC000600090005000A000A00050005000A00AA
:104ECC000E00010005000A0003000C0005000A009A
:104EDC000700080005000A000B00040005000A008A
:104EEC000F0000000900060000000F00090006007A
:104EFC0004000B000900060008000700090006006A
:104F0C000C0003000900060001000E000900060059
:104F1C0005000A0009000600090006000900060049
:104F2C000D0002000900060002000D000900060039
:104F3C0006000900090006000A0005000900060029
:104F4C000E0001000900060003000C000900060019
:104F5C0007000800090006000B0004000900060009
:104F6C000F0000000D00020000000F000D000200F9
:104F7C0004000B000D000200080007000D000200E9
:104F8C000C0003000D00020001000E000D000200D9
:104F9C0005000A000D000200090006000D000200C9
:104FAC000D0002000D00020002000D000D000200B9
:104FBC00060009000D0002000A0005000D000200A9
:104FCC000E0001000D00020003000C000D00020099
:104FDC00070008000D0002000B0004000D00020089
:104FEC000F00000002000D0000000F0002000D0079
:104FFC0004000B0002000D000800070002000D0069
:10500C000C00030002000D0001000E0002000D0058
:10501C0005000A0002000D000900060002000D0048
:10502C000D00020002000D0002000D0002000D0038
:10503C000600090002000D000A00050002000D0028
:10504C000E00010002000D0003000C0002000D0018
:10505C000700080002000D000B00040002000D0008
:10506C000F0000000600090000000F0006000900F8
:10507C0004000B00060009000800070006000900E8
:10508C000C0003000600090001000E0006000900D8
:10509C0005000A00060009000900060006000900C8
:1050AC000D0002000600090002000D0006000900B8
:1050BC0006000900060009000A00050006000900A8
:1050CC000E0001000600090003000C000600090098
:1050DC0007000800060009000B0004000600090088
:1050EC000F0000000A00050000000F000A00050078
:1050FC0004000B000A000500080007000A00050068
:10510C000C0003000A00050001000E000A00050057
:10511C0005000A000A000500090006000A00050047
:10512C000D0002000A00050002000D000A00050037
:10513C00060009000A0005000A0005000A00050027
:10514C000E0001000A00050003000C000A00050017
:10515C00070008000A0005000B0004000A00050007
:10516C000F0000000E00010000000F000E000100F7
:10517C0004000B000E000100080007000E000100E7
:10518C000C0003000E00010001000E000E000100D7
:10519C0005000A000E000100090006000E000100C7
:1051AC000D0002000E00010002000D000E000100B7
:1051BC00060009000E0001000A0005000E000100A7
:1051CC000E0001000E00010003000C000E00010097
:1051DC00070008000E0001000B0004000E00010087
:1051EC000F00000001000E0004000B000A00050077
:1051FC0000000F0001000E00080007000A00050067
:10520C0004000B000B00040000000F0001000E0056
:10521C0005000A000A0005000C0003000A00050046
:10522C0001000E000A00050005000A000A00050036
:10523C000900060001000E000E0001000A00050026
:10524C000D00020001000E000700080001000E0016
:10525C0002000D0001000E000F0000000A00050006
:10526C0002000D0005000A0000000F0001000E00F6
:10527C000C00030005000A0001000E000A000500E6
:10528C00060009000A0005000A00050005000A00D6
:10529C0002000D000B00040004000B000A000500C6
:1052AC000E0001000A00050003000C000B000400B6
:1052BC00080007000A000500070008000A000500A6
:1052CC000B0004000A000500070008000A00050096
:1052DC000F0000000E00010000000F000E00010086
:1052EC0004000B000900060004000B000E00010076
:1052FC00080007000E0001000C0003000E00010066
:10530C0001000E000B0004000C0003000900060055
:10531C0005000A000E000100090006000E00010045
:10532C000D0002000E00010002000D000E00010035
:10533C00060009000E0001000A0005000E00010025
:10534C000E0001000E00010003000C000E00010015
:10535C0007000800090006000F0000000E00010005
:10536C000B0004000D00020000000F0009000600F5
:10537C000C0003000E0001000F0000000D000200E5
:10538C00060009000B00040001000E000D000200D5
:10539C0002000D000B00040005000A0003000C00C5
:1053AC0000000F0003000C0004000B000B000400B5
:1053BC000900060003000C000800070003000C00A5
:1053CC000C00030003000C0001000E0003000C0095
:1053DC0005000A0003000C000900060003000C0085
:1053EC000D00020000000F0000000F0000000F0075
:1053FC0004000B0000000F000800070000000F0065
:10540C000C00030000000F0001000E0000000F0054
:10541C0005000A0000000F000900060000000F0044
:10542C000D00020000000F0002000D0000000F0034
:10543C000600090000000F000A00050000000F0024
:10544C000E00010000000F0003000C0000000F0014
:10545C000700080000000F000B00040000000F0004
:10546C000F00000004000B0000000F0004000B00F4
:10547C0004000B0004000B000800070004000B00E4
:10548C000C00030004000B0001000E0004000B00D4
:10549C0005000A0004000B000900060004000B00C4
:1054AC000D00020004000B0002000D0004000B00B4
:1054BC000600090004000B000A00050004000B00A4
:1054CC000E00010004000B0003000C0004000B0094
:1054DC000700080004000B000B00040004000B0084
:1054EC000F0000000800070000000F000800070074
:1054FC0004000B0008000700080007000800070064
:10550C000C0003000800070001000E000800070053
:10551C0005000A0008000700090006000800070043
:10552C000D0002000800070002000D000800070033
:10553C0006000900080007000A0005000800070023
:10554C000E0001000800070003000C000800070013
:10555C0007000800080007000B0004000800070003
:10556C000F0000000C00030000000F000C000300F3
:10557C0004000B000C000300080007000C000300E3
:10558C000C0003000C00030001000E000C000300D3
:10559C0005000A000C000300090006000C000300C3
:1055AC000D0002000C00030002000D000C000300B3
:1055BC00060009000C0003000A0005000C000300A3
:1055CC000E0001000C00030003000C000C00030093
:1055DC00070008000C0003000B0004000C00030083
:1055EC000F00000001000E0000000F0001000E0073
:1055FC0004000B0001000E000800070001000E0063
:10560C000C00030001000E0001000E0001000E0052
:10561C0005000A0001000E000900060001000E0042
:10562C000D00020001000E0002000D0001000E0032
:10563C000600090001000E000A00050001000E0022
:10564C000E00010001000E0003000C0001000E0012
:10565C000700080001000E000B00040001000E0002
:10566C000F00000005000A0000000F0005000A00F2
:10567C0004000B0005000A000800070005000A00E2
:10568C000C00030005000A0001000E0005000A00D2
:10569C0005000A0005000A000900060005000A00C2
:1056AC000D00020005000A0002000D0005000A00B2
:1056BC000600090005000A000A00050005000A00A2
:1056CC000E00010005000A0003000C0005000A0092
:1056DC000700080005000A000B00040005000A0082
:1056EC000F0000000900060000000F000900060072
:1056FC0004000B0009000600080007000900060062
:10570C000C0003000900060001000E000900060051
:10571C0005000A0009000600090006000900060041
:10572C000D0002000900060002000D000900060031
:10573C0006000900090006000A0005000900060021
:10574C000E0001000900060003000C000900060011
:10575C0007000800090006000B0004000900060001
:10576C000F0000000D00020000000F000D000200F1
:10577C0004000B000D000200080007000D000200E1
:10578C000C0003000D00020001000E000D000200D1
:10579C0005000A000D000200090006000D000200C1
:1057AC000D0002000D00020002000D000D000200B1
:1057BC00060009000D0002000A0005000D000200A1
:1057CC000E0001000D00020003000C000D00020091
:1057DC00070008000D0002000B0004000D00020081
:1057EC000F00000002000D0000000F0002000D0071
:1057FC0004000B0002000D000800070002000D0061
:10580C000C00030002000D0001000E0002000D0050
:10581C0005000A0002000D000900060002000D0040
:10582C000D00020002000D0002000D0002000D0030
:10583C000600090002000D000A00050002000D0020
:10584C000E00010002000D0003000C0002000D0010
:10585C000700080002000D000B00040002000D0000
:10586C000F0000000600090000000F0006000900F0
:10587C0004000B00060009000800070006000900E0
:10588C000C0003000600090001000E0006000900D0
:10589C0005000A00060009000900060006000900C0
:1058AC000D0002000600090002000D0006000900B0
:1058BC0006000900060009000A00050006000900A0
:1058CC000E0001000600090003000C000600090090
:1058DC0007000800060009000B0004000600090080
:1058EC000F0000000A00050000000F000A00050070
:1058FC0004000B000A000500080007000A00050060
:10590C000C0003000A00050001000E000A0005004F
:10591C0005000A000A000500090006000A0005003F
:10592C000D0002000A00050002000D000A0005002F
:10593C00060009000A0005000A0005000A0005001F
:10594C000E0001000A00050003000C000A0005000F
:10595C00070008000A0005000B0004000A000500FF
:10596C000F0000000E00010000000F000E000100EF
:10597C0004000B000E000100080007000E000100DF
:10598C000C0003000E00010001000E000E000100CF
:10599C0005000A000E000100090006000E000100BF
:1059AC000D0002000E00010002000D000E000100AF
:1059BC00060009000E0001000A0005000E0001009F
:1059CC000E0001000E00010003000C000E0001008F
:1059DC00070008000E0001000B0004000E0001007F
:1059EC000F00000003000C0000000F0003000C006F
:1059FC0004000B0003000C000800070003000C005F
:105A0C000C00030003000C0001000E0003000C004E
:105A1C0005000A0003000C000900060003000C003E
:105A2C000D00020003000C0002000D0003000C002E
:105A3C000600090003000C000A00050003000C001E
:105A4C000E00010003000C0003000C0003000C000E
:105A5C000700080003000C000B00040003000C00FE
:105A6C000F0000000700080000000F0007000800EE
:105A7C0004000B00070008000800070007000800DE
:105A8C000C0003000700080001000E0007000800CE
:105A9C0005000A00070008000900060007000800BE
:105AAC000D0002000700080002000D0007000800AE
:105ABC0006000900070008000A000500070008009E
:105ACC000E0001000700080003000C00070008008E
