:020000040800F2
:100000000000022055660008A5660008A5660008E5
:10001000A5660008A5660008A566000800000000A7
:10002000000000000000000000000000A5660008BD
:10003000A566000800000000A5660008E11600089B
:10004000E1180008E3180008E5180008E7180008A0
:10005000E9180008EB180008ED180008EF18000870
:10006000F1180008F3180008F5180008A519000891
:10007000C1190008DD190008F9190008151A00084F
:10008000311A00084D1A0008F7180008F91800087E
:10009000FB180008FD180008FF18000801190008E7
:1000A0003519000837190008391900083B190008EC
:1000B0003D1900083F1900084119000803190008FC
:1000C000051900080719000809190008651B000830
:1000D000711B0008511900086D19000889190008E2
:1000E0000B1900080D1900080F190008491900081C
:1000F0004B1900084D1900084F190008691A00082B
:100100001119000813190008431900087D1B000885
:1001100015190008171900084519000847190008A3
:10012000851A0008A11A0008BD1A0008D91A00088B
:10013000F51A00080000000000000000191900086E
:100140001B1900081D1900081F19000821190008B3
:10015000111B00082D1B0008491B0008231900086B
:100160002519000827190008291900082B1900086B
:100170002D1900082F1900080000000000000000E1
:080180003119000833190008D1
:1001900010B5054C237833B9044B13B10448AFF3C1
:1001A00000800123237010BD6800002000000000C3
:1001B0001070000808B5034B1BB103490348AFF3A7
:1001C000008008BD000000006C00002010700008D6
:1001D000034613F8012B002AFBD1181A0138704787
:1001E00001F0FF01102A2BDB10F0070F08D010F8E8
:1001F000013B013A8B422DD010F0070F42B3F6D1EC
:10020000F0B441EA012141EA014122F007047FF004
:1002100000070023F0E80256083C85EA010586EA5B
:10022000010685FA47F5A3FA87F586FA47F6A5FA97
:1002300087F68EB9EED1F0BC01F0FF0102F00702A3
:1002400032B110F8013B013A83EA010313B1F8D14E
:100250000020704701387047002D06BF354603382F
:10026000073815F0010F07D1013015F4807F02BF68
:10027000013015F4C03F0130F0BC0138704700BFB9
:1002800081F0004102E000BF83F0004330B54FEA47
:1002900041044FEA430594EA050F08BF90EA020FB4
:1002A0001FBF54EA000C55EA020C7FEA645C7FEA47
:1002B000655C00F0E2804FEA5454D4EB5555B8BF6A
:1002C0006D420CDD2C4480EA020281EA030382EADB
:1002D000000083EA010180EA020281EA0303362D6D
:1002E00088BF30BD11F0004F4FEA01314FF4801C40
:1002F0004CEA113102D0404261EB410113F0004F52
:100300004FEA03334CEA133302D0524263EB430308
:1003100094EA050F00F0A780A4F10104D5F1200EA6
:100320000DDB02FA0EFC22FA05F2801841F1000101
:1003300003FA0EF2801843FA05F359410EE0A5F1D5
:1003400020050EF1200E012A03FA0EFC28BF4CF006
:10035000020C43FA05F3C01851EBE37101F00045BC
:1003600007D54FF0000EDCF1000C7EEB00006EEBC9
:100370000101B1F5801F1BD3B1F5001F0CD3490853
:100380005FEA30004FEA3C0C04F101044FEA4452AA
:1003900012F5800F80F09A80BCF1004F08BF5FEA31
:1003A000500C50F1000041EB045141EA050130BD11
:1003B0005FEA4C0C404141EB010111F4801FA4F1B4
:1003C0000104E9D191F0000F04BF01460020B1FA09
:1003D00081F308BF2033A3F10B03B3F120020CDA41
:1003E0000C3208DD02F1140CC2F10C0201FA0CF01F
:1003F00021FA02F10CE002F11402D8BFC2F1200C84
:1004000001FA02F120FA0CFCDCBF41EA0C01904039
:10041000E41AA2BF01EB0451294330BD6FEA040482
:100420001F3C1CDA0C340EDC04F11404C4F120026D
:1004300020FA04F001FA02F340EA030021FA04F37F
:1004400045EA030130BDC4F10C04C4F1200220FAD6
:1004500002F001FA04F340EA0300294630BD21FA14
:1004600004F0294630BD94F0000F83F4801306BFDA
:1004700081F480110134013D4EE77FEA645C18BFCE
:100480007FEA655C29D094EA050F08BF90EA020F65
:1004900005D054EA000C04BF1946104630BD91EA5D
:1004A000030F1EBF0021002030BD5FEA545C05D160
:1004B0004000494128BF41F0004130BD14F580049F
:1004C0003CBF01F5801130BD01F0004545F0FE4113
:1004D00041F470014FF0000030BD7FEA645C1ABF48
:1004E000194610467FEA655C1CBF0B46024650EA7F
:1004F000013406BF52EA033591EA030F41F40021AB
:1005000030BD00BF90F0000F04BF0021704730B530
:100510004FF4806404F132044FF000054FF0000105
:1005200050E700BF90F0000F04BF0021704730B5C6
:100530004FF4806404F1320410F0004548BF40429B
:100540004FF000013EE700BF42004FEAE2014FEAF0
:1005500031014FEA02701FBF12F07F4393F07F4FCB
:1005600081F06051704732F07F4208BF704793F0CE
:100570007F4F04BF41F40021704730B54FF46074E1
:1005800001F0004521F000411CE700BF50EA0102E4
:1005900008BF704730B54FF000050AE050EA01028D
:1005A00008BF704730B511F0004502D5404261EBFD
:1005B00041014FF4806404F132045FEA915C3FF43E
:1005C000D8AE4FF003025FEADC0C18BF03325FEADB
:1005D000DC0C18BF033202EBDC02C2F1200300FA8C
:1005E00003FC20FA02F001FA03FE40EA0E0021FAB1
:1005F00002F11444BDE600BF70B54FF0FF0C4CF49F
:10060000E06C1CEA11541DBF1CEA135594EA0C0F50
:1006100095EA0C0F00F0DEF82C4481EA030621EA8B
:100620004C5123EA4C5350EA013518BF52EA0335C6
:1006300041F4801143F4801338D0A0FB02CE4FF078
:100640000005E1FB02E506F00042E0FB03E54FF0A8
:100650000006E1FB03569CF0000F18BF4EF0010EA0
:10066000A4F1FF04B6F5007F64F5407404D25FEA9C
:100670004E0E6D4146EB060642EAC62141EA55514F
:100680004FEAC52040EA5E504FEACE2EB4F1FD0C91
:1006900088BFBCF5E06F1ED8BEF1004F08BF5FEA0F
:1006A000500E50F1000041EB045170BD06F00046C1
:1006B00046EA010140EA020081EA0301B4EB5C046E
:1006C000C2BFD4EB0C0541EA045170BD41F4801166
:1006D0004FF0000E013C00F3AB8014F1360FDEBF8B
:1006E000002001F0004170BDC4F10004203C35DA67
:1006F0000C341BDC04F11404C4F1200500FA05F3EA
:1007000020FA04F001FA05F240EA020001F000428A
:1007100021F0004110EBD37021FA04F642EB060100
:100720005EEA430E08BF20EAD37070BDC4F10C042A
:10073000C4F1200500FA04F320FA05F001FA04F2EE
:1007400040EA020001F0004110EBD37041F10001DA
:100750005EEA430E08BF20EAD37070BDC4F12005E5
:1007600000FA05F24EEA020E20FA04F301FA05F24D
:1007700043EA020321FA04F001F0004121FA04F2F5
:1007800020EA020000EBD3705EEA430E08BF20EAC5
:10079000D37070BD94F0000F0FD101F000464000FF
:1007A00041EB010111F4801F08BF013CF7D041EA81
:1007B000060195F0000F18BF704703F00046520085
:1007C00043EB030313F4801F08BF013DF7D043EA56
:1007D0000603704794EA0C0F0CEA135518BF95EA0C
:1007E0000C0F0CD050EA410618BF52EA4306D1D193
:1007F00081EA030101F000414FF0000070BD50EAB2
:10080000410606BF1046194652EA430619D094EA3B
:100810000C0F02D150EA013613D195EA0C0F05D125
:1008200052EA03361CBF104619460AD181EA030179
:1008300001F0004141F0FE4141F470014FF0000031
:1008400070BD41F0FE4141F4780170BD70B54FF0CC
:10085000FF0C4CF4E06C1CEA11541DBF1CEA13554C
:1008600094EA0C0F95EA0C0F00F0A7F8A4EB05042E
:1008700081EA030E52EA03354FEA013100F0888025
:100880004FEA03334FF0805545EA131343EA1263EE
:100890004FEA022245EA111545EA10654FEA0026A3
:1008A0000EF000419D4208BF964244F1FD0404F55C
:1008B000407402D25B084FEA3202B61A65EB0305B8
:1008C0005B084FEA32024FF480104FF4002CB6EB75
:1008D000020E75EB030E22BFB61A754640EA0C00F5
:1008E0005B084FEA3202B6EB020E75EB030E22BF35
:1008F000B61A754640EA5C005B084FEA3202B6EB76
:10090000020E75EB030E22BFB61A754640EA9C0034
:100910005B084FEA3202B6EB020E75EB030E22BF04
:10092000B61A754640EADC0055EA060E18D04FEAC2
:10093000051545EA16754FEA06164FEAC30343EA62
:1009400052734FEAC2025FEA1C1CC0D111F4801F2F
:100950000BD141EA00014FF000004FF0004CB6E728
:1009600011F4801F04BF01430020B4F1FD0C88BFC7
:10097000BCF5E06F3FF6AFAEB5EB030C04BFB6EBD2
:10098000020C5FEA500C50F1000041EB045170BDC5
:100990000EF0004E4EEA113114EB5C04C2BFD4EBF2
:1009A0000C0541EA045170BD41F480114FF0000E76
:1009B000013C90E645EA060E8DE60CEA135594EAF2
:1009C0000C0F08BF95EA0C0F3FF43BAF94EA0C0FF5
:1009D0000AD150EA01347FF434AF95EA0C0F7FF46A
:1009E00025AF104619462CE795EA0C0F06D152EABE
:1009F00003353FF4FDAE1046194622E750EA4106A2
:100A000018BF52EA43067FF4C5AE50EA41047FF4B2
:100A10000DAF52EA43057FF4EBAE12E74A0011D264
:100A200012F5001211D20DD56FF47873B3EB625248
:100A30000ED44FEAC12343F0004343EA505323FA54
:100A400002F070474FF00000704750EA013002D1C9
:100A50004FF0FF3070474FF000007047420901230C
:100A600000F01F0003FA00F0014B43F8220070472A
:100A700000E100E043690133436170477047036858
:100A8000D3F89020137883F0010313707047012A84
:100A900003D0022A03D0002070470160FBE70B68F7
:100AA0000360F8E77047012A03D0022A03D0002030
:100AB00070470160FBE70B680360F8E77047012AA5
:100AC00003D0022A03D0002070470160FBE70B68C7
:100AD0000360F8E7012A03D0022A03D00020704700
:100AE0000160FBE70B680360F8E77047012A03D059
:100AF000022A03D0002070470160FBE70B68036007
:100B0000F8E77047012A03D0022A03D0002070477B
:100B10000160FBE70B680360F8E7012A03D0022AB3
:100B200003D0002070470160FBE70B680360F8E723
:100B3000012A03D0022A03D0002070470160FBE79E
:100B40000B680360F8E7012A03D0022A03D00020D3
:100B500070470160FBE70B680360F8E7012A03D0E8
:100B6000022A03D0002070470160FBE70B68036096
:100B7000F8E7012A03D0022A03D000207047016061
:100B8000FBE70B680360F8E7012A03D0022A03D0D1
:100B9000002070470160FBE70B680360F8E7012A5B
:100BA00003D0022A03D0002070470160FBE70B68E6
:100BB0000360F8E7012A03D0022A03D0002070471F
:100BC0000160FBE70B680360F8E7012A03D0022A03
:100BD00003D0002070470160FBE70B680360F8E773
:100BE000012A03D0022A03D0002070470160FBE7EE
:100BF0000B680360F8E7012A03D0022A03D0002023
:100C000070470160FBE70B680360F8E7012A03D037
:100C1000022A03D0002070470160FBE70B680360E5
:100C2000F8E7012A03D0022A03D0002070470160B0
:100C3000FBE70B680360F8E7012A03D0022A03D020
:100C4000002070470160FBE70B680360F8E7012AAA
:100C500003D0022A03D0002070470160FBE70B6835
:100C60000360F8E7012A03D0022A03D0002070476E
:100C70000160FBE70B680360F8E7012A03D0022A52
:100C800003D0002070470160FBE70B680360F8E7C2
:100C9000012A03D0022A03D0002070470160FBE73D
:100CA0000B680360F8E7012A03D0022A03D0002072
:100CB00070470160FBE70B680360F8E7012A03D087
:100CC000022A03D0002070470160FBE70B68036035
:100CD000F8E7012A03D0022A03D000207047016000
:100CE000FBE70B680360F8E7012A03D0022A03D070
:100CF000002070470160FBE70B680360F8E7012AFA
:100D000003D0022A03D0002070470160FBE70B6884
:100D10000360F8E7012A03D0022A03D000207047BD
:100D20000160FBE70B680360F8E7012A03D0022AA1
:100D300003D0002070470160FBE70B680360F8E711
:100D4000012A03D0022A03D0002070470160FBE78C
:100D50000B680360F8E7012A03D0022A03D00020C1
:100D600070470160FBE70B680360F8E7012A03D0D6
:100D7000022A03D0002070470160FBE70B68036084
:100D8000F8E7012A03D0022A03D00020704701604F
:100D9000FBE70B680360F8E7012A03D0022A03D0BF
:100DA000002070470160FBE70B680360F8E7012A49
:100DB00003D0022A03D0002070470160FBE70B68D4
:100DC0000360F8E7012A03D0022A03D0002070470D
:100DD0000160FBE70B680360F8E7012A03D0022AF1
:100DE00003D0002070470160FBE70B680360F8E761
:100DF000012A03D0022A03D0002070470160FBE7DC
:100E00000B680360F8E7012A03D0022A03D0002010
:100E100070470160FBE70B680360F8E7012A03D025
:100E2000022A03D0002070470160FBE70B680360D3
:100E3000F8E7012A03D0022A03D00020704701609E
:100E4000FBE70B680360F8E7012A03D0022A03D00E
:100E5000002070470160FBE70B680360F8E7012A98
:100E600003D0022A03D0002070470160FBE70B6823
:100E70000360F8E77047012A08BF0160002070474F
:100E8000012A08BF016000207047012A03D0022A0E
:100E900003D0002070470160FBE70B680360F8E7B0
:100EA000012A08BF016000207047012A08BF0160C5
:100EB00000207047C3690133C361704770477047B2
:100EC00070477047704770477047012A03D0022A65
:100ED00003D0002070470160FBE70B680360F8E770
:100EE000012A03D0022A03D0002070470160FBE7EB
:100EF0000B680360F8E7012A03D0022A03D0002020
:100F000070470160FBE70B680360F8E7012A03D034
:100F1000022A03D0002070470160FBE70B680360E2
:100F2000F8E7012A03D0022A03D0002070470160AD
:100F3000FBE70B680360F8E7012A03D0022A03D01D
:100F4000002070470160FBE70B680360F8E7012AA7
:100F500003D0022A03D0002070470160FBE70B6832
:100F60000360F8E7012A03D0022A03D0002070476B
:100F70000160FBE70B680360F8E7012A03D0022A4F
:100F800003D0002070470160FBE70B680360F8E7BF
:100F9000012A03D0022A03D0002070470160FBE73A
:100FA0000B680360F8E7012A03D0022A03D000206F
:100FB00070470160FBE70B680360F8E7012A03D084
:100FC000022A03D0002070470160FBE70B68036032
:100FD000F8E7012A03D0022A03D0002070470160FD
:100FE000FBE70B680360F8E7012A03D0022A03D06D
:100FF000002070470160FBE70B680360F8E7012AF7
:1010000003D0022A03D0002070470160FBE70B6881
:101010000360F8E7012A03D0022A03D000207047BA
:101020000160FBE70B680360F8E7012A03D0022A9E
:1010300003D0002070470160FBE70B680360F8E70E
:10104000012A03D0022A03D0002070470160FBE789
:101050000B680360F8E7012A03D0022A03D00020BE
:1010600070470160FBE70B680360F8E7012A03D0D3
:10107000022A03D0002070470160FBE70B68036081
:10108000F8E7012A03D0022A03D00020704701604C
:10109000FBE70B680360F8E7012A03D0022A03D0BC
:1010A000002070470160FBE70B680360F8E7012A46
:1010B00003D0022A03D0002070470160FBE70B68D1
:1010C0000360F8E7012A03D0022A03D0002070470A
:1010D0000160FBE70B680360F8E7012A03D0022AEE
:1010E00003D0002070470160FBE70B680360F8E75E
:1010F000012A03D0022A03D0002070470160FBE7D9
:101100000B680360F8E7012A03D0022A03D000200D
:1011100070470160FBE70B680360F8E7012A03D022
:10112000022A03D0002070470160FBE70B680360D0
:10113000F8E7012A03D0022A03D00020704701609B
:10114000FBE70B680360F8E7012A03D0022A03D00B
:10115000002070470160FBE70B680360F8E7012A95
:1011600003D0022A03D0002070470160FBE70B6820
:101170000360F8E7012A03D0022A03D00020704759
:101180000160FBE70B680360F8E7012A03D0022A3D
:1011900003D0002070470160FBE70B680360F8E7AD
:1011A000012A03D0022A03D0002070470160FBE728
:1011B0000B680360F8E7012A03D0022A03D000205D
:1011C00070470160FBE70B680360F8E7012A03D072
:1011D000022A03D0002070470160FBE70B68036020
:1011E000F8E770B50546006803680C469B689847A9
:1011F00023682C6020461B68BDE8704018470068D3
:1012000000F5C2718830FFF7ECBF006800F1F00113
:101210008830FFF7E6BF006800F51F718830FFF7E0
:10122000E0BF0168CB6F1B7D01F188001BB101F2AB
:101230009C41FFF7D6BF01F57B71FAE7006800F526
:1012400052718830FFF7CDBF006800F51F6188300C
:10125000FFF7C7BF006800F628118830FFF7C1BF4D
:10126000006800F5C2718830FFF7BBBF006800F569
:10127000BF618830FFF7B5BF006800F5D4618830E2
:10128000FFF7AFBF006800F244718830FFF7A9BFD5
:10129000006800F5C2718830FFF7A3BF006890F8BE
:1012A0004433C26F003318BF012300F5C271D374F9
:1012B0008830FFF796BF006800F5C2718830FFF7ED
:1012C00090BF006800F5AA618830FFF78ABF006808
:1012D000C36F012200F1F0011A758830FFF781BF5A
:1012E000006800F5C2718830FFF77BBF006800F529
:1012F000AA618830FFF775BF0068C36F002200F154
:10130000F0011A758830FFF76CBF0168CB6F1B7D49
:1013100001F188001BB101F29C41FFF762BF01F5AA
:101320007B71FAE7016891F84C35CA6F003318BF3A
:1013300001239374CB6F1B7D01F188001BB101F277
:101340009C41FFF74EBF01F57B71FAE7006800F59D
:101350001F718830FFF745BF0068C36F90F8F42510
:101360001A7400F51F718830FFF73BBF006800F565
:101370001F718830FFF735BF0068C36FB0F89C2637
:101380001A8100F51F718830FFF72BBF006800F548
:10139000C2718830FFF725BF006800F2F471883011
:1013A000FFF71FBF006800F684018830FFF719BF00
:1013B000006800F244718830FFF713BF006800F244
:1013C00044718830FFF70DBF0068C36F90F8802824
:1013D0005A7400F244718830FFF703BF006800F5CB
:1013E000C2718830FFF7FDBE006800F5C271883019
:1013F000FFF7F7BE0B1A9B10002B10DD027812B31B
:1014000042780AB90130704782780AB902307047D1
:10141000C2780AB9033070470430013BECE70B1A7D
:10142000022B0BD0032B06D0012B0BD10378002B02
:1014300018BF0846704703782BB10130037813B109
:101440000130F3E7084670470B1A9B10002B10DDA4
:10145000027812BB42780AB10130704782780AB133
:1014600002307047C2780AB1033070470430013B44
:10147000ECE70B1A022B0BD0032B06D0012B0BD160
:101480000378002B08BF0846704703782BB901305A
:10149000037813B90130F3E708467047FFF7DEBA67
:1014A000036813B90160704713465A68002AFBD1DC
:1014B0005960704710B504462CB1236820461B685C
:1014C00098476468F8E710BDA8235943037A43B1ED
:1014D0000F4B9B680360994224BFCB1A43600023E3
:1014E000037203680A4A994207D892689B1A994284
:1014F0000CD8012303720020704791688B4205D8F5
:10150000536892689B1A42689342F2D20120704756
:1015100010E000E0D0F88C203221531CC0F88C3051
:10152000B2FBF1F301FB132323B9D0F88800036861
:101530005B681847704770470A1A02D0202105F0EF
:101540000CB97047704770470369002BBFBF034B4E
:10155000436003F188334360704700BF2301674550
:10156000D0E9002101238B4093617047D0E900123C
:101570000123103293408B617047036810B5044615
:101580009869FFF7F3FFC8216068FFF79DFF002807
:10159000F9D123689869FFF7E3FFC8216068FFF776
:1015A00093FF0028F9D110BD38B5036804461869C7
:1015B0000D46FFF7DBFF23686068DA699B6A53F822
:1015C00035309361FFF7D9FF23686068996ADA695B
:1015D00001EBC5014B689361FFF7CFFF6421A06861
:1015E000FFF772FF0028F9D138BD0000437B012BC3
:1015F00010B5044622D002D3022B2AD010BD406978
:10160000FFF7B4FF2069FFF7ABFF626B206A531C42
:1016100050216363B2FBF1F301FB1323114A52F82B
:101620002330C25C636A03EBC20053F83210E269F4
:1016300043689161E36201236373DFE78069FFF729
:101640008FFFA069FFF792FFE369E26A9A610223C4
:10165000F2E78069FFF784FFA069FFF787FF0023A7
:10166000EAE700BFA8710008036841681A6901230E
:101670008B40134214BF01200020704710B504684E
:101680002CB1236820461B689847A468F8E710BD72
:1016900010B58368044613B10322014698472046DB
:1016A00010BD000010B5044B044640F8303BFFF776
:1016B000EFFF204610BD00BF2085000810B504468E
:1016C0000830FFF7DBFFD4E90421531C2361B2FB90
:1016D000F1F301FB132313B92046FFF7CFFF10BD31
:1016E0000148FFF7EBBF00BFC40500204269036952
:1016F0009A424FF0000326BF43610120184670470D
:10170000037BC3B100230373D0E901236AB143B162
:10171000936083685A600023C0E9013370470B600F
:10172000F8E7054993604A60F5E70349002BF6D1D5
:10173000C1E90033EFE77047C40500200022426191
:10174000FFF7DEBF037B53B901230373044B5A68D1
:10175000426002B190601A68586002B91860704720
:10176000C405002080680269D2F818311B68DB06C6
:1017700011D5D2F820315B6800219BB2C2F800116C
:10178000C3F1FF01FF2928BFFF21FF2BC2F804117D
:1017900001D0FFF7D7BF70470A2A10B501D00F2A32
:1017A00015D1204B9A68C2F34232D2B1042A1AD022
:1017B000052A1AD01C4B1D4C062A08BF23460729B0
:1017C0001AD8DFE801F0141A1D202326292C0B3A21
:1017D000032A04D8134B9A68C2F38222E5E7002358
:1017E000EDE7134BEBE7134BE9E7134BE7E74FF458
:1017F0001652B3FBF2F3836010BD4FF46152F8E769
:101800004FF49642F5E74FF4E142F2E74FF4164207
:10181000EFE74FF46142ECE74FF49632E9E74FF41B
:10182000E132E6E700380240A037A000406F4001F7
:10183000007A030A00BD010580DE800219B9006844
:10184000C0F340107047012903D10068C0F3C020E5
:101850007047022903D10068C0F340507047032944
:1018600003D10068C0F3C0607047042901D140680B
:10187000E6E7052901D14068E8E7062901D140687B
:10188000EAE7072901D14068ECE700207047012909
:1018900003D1006A00F001007047022903D1006AF9
:1018A000C0F300107047032903D1006AC0F3002081
:1018B0007047042906BF006AC0F30030002070475B
:1018C000012901D142637047022901D18263704727
:1018D000032901D1C2637047042908BF026470471D
:1018E000FEE7FEE7FEE7FEE7FEE7FEE7FEE7FEE7D0
:1018F000FEE7FEE7FEE7FEE7FEE7FEE7FEE7FEE7C0
:10190000FEE7FEE7FEE7FEE7FEE7FEE7FEE7FEE7AF
:10191000FEE7FEE7FEE7FEE7FEE7FEE7FEE7FEE79F
:10192000FEE7FEE7FEE7FEE7FEE7FEE7FEE7FEE78F
:10193000FEE7FEE7FEE7FEE7FEE7FEE7FEE7FEE77F
:10194000FEE7FEE7FEE7FEE7FEE7FEE7FEE7FEE76F
:1019500008B5044B1868FFF7ADFD034B1A685B68C8
:1019600008BD00BFA80500200010014008B5044BC9
:101970001868FFF79FFD034B1A685B6808BD00BF3E
:10198000B00500200044004008B5044B1868FFF77C
:1019900091FD034B1A685B6808BD00BFB8050020C5
:1019A0000048004008B5044B1868FFF783FD034B5F
:1019B0003D229A6008BD00BF100500200060024073
:1019C00008B5044B1868FFF775FD034B4FF47462BC
:1019D0009A6008BD180500200060024008B5044B5D
:1019E0001868FFF767FD034B4FF474129A6008BD47
:1019F000200500200060024008B5044B1868FFF77E
:101A000059FD034B4FF074629A6008BD2805002011
:101A10000060024008B5044B1868FFF74BFD034B0C
:101A20004FF47462DA6008BD3005002000600240A7
:101A300008B5044B1868FFF73DFD034B4FF4746283
:101A4000DA6008BD380500200060024008B5044B8C
:101A50001868FFF72FFD034B4FF47412DA6008BDCE
:101A6000400500200060024008B5044B1868FFF7ED
:101A700021FD034B4FF07462DA6008BD4805002079
:101A80000060024008B5044B1868FFF713FD034BD4
:101A90003D229A6008BD00BF50050020006402404E
:101AA00008B5044B1868FFF705FD034B4FF474624B
:101AB0009A6008BD580500200064024008B5044B38
:101AC0001868FFF7F7FC034B4FF474129A6008BDD7
:101AD000600500200064024008B5044B1868FFF759
:101AE000E9FC034B4FF074629A6008BD6805002062
:101AF0000064024008B5044B1868FFF7DBFC034B99
:101B00003D22DA6008BD00BF70050020006402407D
:101B100008B5044B1868FFF7CDFC034B4FF4746213
:101B2000DA6008BD780500200064024008B5044B67
:101B30001868FFF7BFFC034B4FF47412DA6008BD5E
:101B4000800500200064024008B5044B1868FFF7C8
:101B5000B1FC034B4FF07462DA6008BD88050020C9
:101B600000640240014B1868FFF7A4BC90050020F8
:101B7000014B1868FFF79EBC98050020014B1868C0
:101B8000FFF798BCA0050020026810B5541C024461
:101B90000460517204685021B4FBF1F201FB12425F
:101BA000026010BD10B504681421B4FBF1F201FB12
:101BB0001242034612B92021FFF7E6FF14241968E8
:101BC000B1FBF4F204FB121222B120211846FFF7F8
:101BD000DBFFF4E7184610BD08B503461A6822B1CA
:101BE00020211846FFF7D0FFF8E7184608BD38B5A2
:101BF00005460C46084609B1FEF7EAFAC5E90004B5
:101C0000284638BD10B514240368B3FBF4F304FB75
:101C100003115024B1FBF4F304FB1311016010BD58
:101C200038B50468D4F8AC30F3B1013BC4F8AC303B
:101C3000D4F8A830606814256B4303600F21FFF7C8
:101C4000E1FF2021FFF7A0FFD4F8A8306068013B36
:101C50005D43C4F8A8300F210560FFF7D3FF7E2154
:101C6000BDE83840FFF790BF38BD38B50468D4F8F8
:101C7000AC30012B1ED00133C4F8AC30D4F8A830FE
:101C8000606814256B4303600F21FFF7BBFF202121
:101C9000FFF77AFFD4F8A830606801335D43C4F8D9
:101CA000A8300F210560FFF7ADFF7E21BDE8384069
:101CB000FFF76ABF38BD437A70B5054600F10C06E0
:101CC0002BB100234372C1613046FFF73BFD304624
:101CD000FFF70CFD012428B13046FFF72FFD6C7291
:101CE000002070BD2046FCE770B58EB005AD002326
:101CF000CDE901500C93CDE90533CDE909330B93C0
:101D0000394E0D930123044608968DF81D308DF849
:101D10001C300090CDF80CD0049564212846FFF7C4
:101D2000CAFF0028F9D12069FFF720FC6069FFF79E
:101D30001DFCA069FFF714FCA26AE369D2699A61ED
:101D40006846FFF71AFC05212846FFF7B4FF002874
:101D5000F9D1A26AE369D2699A616846FFF70DFC7E
:101D600064212846FFF7B0FB0028F9D1A26AE36995
:101D7000D2699A616846FFF700FC32212846FFF7D6
:101D8000A3FB0028F9D1A26AE36952699A61684607
:101D9000FFF7F3FB32212846FFF796FB0028F9D125
:101DA000282102A8FFF700FC0C2102A8FFF7FCFB8A
:101DB000062102A8FFF7F8FB012102A8FFF7F4FBB8
:101DC000802102A8FFF7F0FB01212846FFF773FFEF
:101DD0000028F9D10EA8012384F8303040F8186D9E
:101DE000FFF78EFC0EB070BD4870000810B50446B9
:101DF0005030FFF74DFC04F14000FFF749FC04F1BF
:101E00003000FFF745FC04F12000FFF741FC04F12E
:101E10001000FFF73DFC2046FFF73AFC204610BDBE
:101E200003888B421AD040F60223994216D90180CA
:101E30000B4BB3FBF1F143680139D8691A684908C3
:101E40001981D16201891A8B4FF47A734A43817ADE
:101E500092FBF3F2006892B2FFF732BD704700BF09
:101E6000007A030A08B50388194489B2FFF7D8FF3E
:101E700008BD02888A4210B50B460FD04468E2893B
:101E80008A420BD3228901804A4320684FF47A7139
:101E900092FBF1F2A17A92B2FFF712FD184610BD43
:101EA00010B504468068A369DB7C18309BB1B4F898
:101EB0008010FFF7DEFF0423A2692370A068236A65
:101EC000917C9B68103059B192895A62596A89B2E3
:101ED000FFF7A6FF10BD6421FFF7CBFF0523EBE75B
:101EE000D289F2E7817A0068FFF7D1BC21B9036992
:101EF00062F3020303617047012903D1036962F3AE
:101F0000C503F7E7022903D1036962F38813F1E7F8
:101F1000032903D1036962F34B23EBE7042903D1BF
:101F2000036962F30E33E5E7052903D1036962F320
:101F3000D133DFE7062903D1036962F39443D9E77C
:101F4000072903D1036962F35753D3E7082903D163
:101F5000036962F31A63CDE7092903D1036962F3C8
:101F6000DD63C7E70A2904D1C36862F30203C360D3
:101F700070470B2903D1C36862F3C503F7E70C2947
:101F800003D1C36862F38813F1E70D2903D1C36855
:101F900062F34B23EBE70E2903D1C36862F30E33E0
:101FA000E5E70F2903D1C36862F3D133DFE71029D6
:101FB00003D1C36862F39443D9E7112903D1C368FD
:101FC00062F35753D3E71229D2D1C36862F31A637D
:101FD000CDE7012904D1436B62F3040343637047E7
:101FE000022903D1436B62F34913F7E7032903D1B5
:101FF000436B62F38E23F1E7042903D1436B62F351
:10200000D333EBE7052903D1436B62F31853E5E7BC
:10201000062903D1436B62F35D63DFE7072904D12F
:10202000036B62F3040303637047082903D1036B56
:1020300062F34913F7E7092903D1036B62F38E2397
:10204000F1E70A2903D1036B62F3D333EBE70B29E2
:1020500003D1036B62F31853E5E70C2903D1036B3B
:1020600062F35D63DFE70D2904D1C36A62F3040301
:10207000C36270470E2903D1C36A62F34913F7E7BD
:102080000F2903D1C36A62F38E23F1E71029F0D13F
:10209000C36A62F3D333EBE7436A1A6842F0010282
:1020A0001A601A68D107FCD5036A9A6842F00102E7
:1020B0009A609A68D207FCD59A6842F080429A608A
:1020C00070470000204B1A68052161F302021A6074
:1020D000A3F580631A6842F480321A601A6892038A
:1020E000FCD59A686FF307129A609A68052161F32C
:1020F0008C229A609A68042161F34F329A609A6840
:10210000022060F301029A605A6861F305025A6086
:102110005A68A82161F38E125A605A68072161F348
:102120001B625A605A686FF311425A605A6842F44F
:1021300080025A601A6842F080721A60034A13687B
:102140009B01FCD5704700BF003C024000380240B4
:10215000754A7649F8B5136813F0010F70D1744BC6
:10216000744C186810F0010F06D1DFF8E0E1092087
:10217000C4E900E0012018606F4B186B40F00100CB
:10218000186320680568022666F393450560456A72
:10219000072666F307154562684D286810F0010FA1
:1021A000674806D1DFF8A4C10A26C0E900C60126A7
:1021B0002E601D6B45F001051D6303681D68022636
:1021C00066F315551D605D6A072666F30B255D6293
:1021D0005C4D2B6813F0010F5B4B05D15B4F0C2658
:1021E000C3E9007601262E60534E356B45F001059C
:1021F00035631E683768012565F319673760C1F8D4
:102200001031534BC1F81431A3F5AA33C1F818317A
:1022100003F5AA33B833C1F81C31783BC1F820313B
:102220000A230026C1F824310723C1F80061C1F850
:102230000461C1F80841C1F80C0181F8283115602A
:102240003D4C636C43F010036364D1F81831DA68D5
:1022500042F00802DA60DA6842F00402DA605A6991
:1022600042F080025A615A6942F040025A61394B89
:1022700093F90400FFF712F9236B43F480032363FF
:10228000D1F81C311A68012060F387121A60D1F866
:1022900000210A44DA60D1F8182104329A601A68E1
:1022A00042F480621A601A686FF34E321A601A683C
:1022B0006FF3CC221A601A6842F010021A60264BA3
:1022C00093F90400FFF7EAF8D1F820311A686FF3A8
:1022D00087121A60D1F800210A44DA60D1F8182177
:1022E00004329A60FF225A601A6842F480621A60CF
:1022F0001A686FF34E321A601A686FF3CC221A60B4
:102300001A6842F480721A60D1F820311A680420E9
:1023100060F35B621A60D1F81C311A6860F35B628B
:102320001A600248F8BD00BF980200209C020020FD
:10233000E0030020E403002000380240D403002022
:10234000D8030020C8030020CC0300200000024076
:1023500000640240A80500208805002070B5294EC1
:10236000294B326812F0010F2DD128490A6812F06A
:10237000010F274A05D1274D0924C2E90054012441
:102380000C60254C216B41F00401216311680C683D
:10239000022565F393440C604C6A65F307144C62A4
:1023A0001E49D881C3E900124FF6FF721A81042238
:1023B0009A724FF480529A8100221A821A83012263
:1023C0005B61DB613260144915480A6C42F002021D
:1023D0000A641B68DA69062161F30E32DA61DA6990
:1023E00042F40062DA611A6842F080021A601A68E8
:1023F00042F001021A6040F60321FFF711FD024886
:1024000070BD00BFC8010020CC010020EC010020FD
:10241000F0010020000802400038024000040040A3
:10242000DC0100203349344A0B6813F0010F70B50A
:102430003DD1324B324C186810F0010F05D1314DAF
:102440000620C4E90050012018602F4B186B40F0A3
:102450000400186320680568022666F30D350560E0
:10246000056A032666F31B650562284D286810F08F
:10247000010F274806D1DFF88CC00726C0E900C647
:1024800001262E601D6B45F004051D6303681D6861
:10249000022666F38F351D601D6A032666F31F75DD
:1024A0001D621C4B9360C2E9004001230B6016497A
:1024B00011484B6C43F002034B6493689A68032104
:1024C00061F302029A609A69012161F301029A6143
:1024D0009A6961F309229A611A6A42F002021A6249
:1024E0001A6A6FF3C3021A6200225A621A680A4318
:1024F0001A6070BDA0010020A4010020BC010020D2
:10250000C00100200008024000380240B001002055
:10251000B40100200004014010B50C1A134605D088
:1025200001462246184604F0FFF80346181910BD6C
:102530002DE9F34702AB03E906000768037A00F1CF
:1025400009080646DDE9004508EB070263B3132CD2
:1025500022D8C4F1140902EB590910464946FEF786
:10256000EBFF29194A462846FFF7D6FF09EB040A74
:1025700007F1140141445046FEF7DEFF3368502155
:102580001433B3FBF1F201FB123333600023304606
:10259000337202B0BDE8F087143C05EB540000F143
:1025A0001401FFF7B9FFE9E7C7F15001A14205EBBC
:1025B000040907D949462846FFF7AEFF30680444AE
:1025C0003460E3E729442846FFF7A6FF3368A4F107
:1025D00050071F44E41B2C44502F2046424604F170
:1025E000500404D92146FFF797FF503FF4E74946CE
:1025F000FFF792FF336850221F44B7FBF2F302FB50
:1026000013773760C2E7000030B589B00A46044648
:10261000114905A804F0A6F905A901A8FFF7E7FAF2
:102620006368019A934208D99B1A13F1FF3304D3CC
:1026300020212046FFF7A8FAF7E703AD05A92846B1
:10264000FFF7D5FA95E806002046FFF771FF002353
:102650002046636009B030BD11750008F8B5054625
:102660000F464FF47A7691FBF6F42146FFF7CCFF44
:102670002E212846FFF788FA06FB14740A2394FBE0
:10268000F3F4092C08DC00212846FFF7BDFF2146A2
:10269000FFF7BAFF2846F8BD21462846F8E70000B4
:1026A000F7B50546406802260660D5F880301988DF
:1026B000FFF7D4FF6C4607461E492046FFF797FAFE
:1026C00094E806003846FFF733FF68680D23C0E939
:1026D0000036EB6F19880523B1FBF3F1FFF794FF88
:1026E0002521FFF751FA686816230360D5F8843076
:1026F0001988FFF7B3FF104907462046FFF777FA1E
:1027000094E806003846FFF713FF68681E23C0E907
:102710000036AB6F1988FFF777FF0849054620465A
:10272000FFF765FA94E806002846FFF701FF03B0BB
:10273000F0BD00BF007500080475000806750008AC
:1027400038B5002383608B6804460D462BB1022206
:102750009847EB68E360AB68A360204638BD38B5A6
:10276000002383608B6804460D462BB102229847F4
:10277000EB68E360AB68A360204638BD38B504461B
:102780000D46FFF7DDFF05F1100104F11000FFF722
:10279000D7FF05F1200104F12000FFF7D1FF05F17B
:1027A000300104F13000FFF7CBFF05F1400104F1E7
:1027B0004000FFF7D4FF05F1500104F15000FFF78E
:1027C000CEFF204638BD38B5002383608B680446B1
:1027D0000D462BB102229847EB68E360AB68A3601B
:1027E000204638BD826810B50AB903F061FFC3689E
:1027F000BDE81040184730B585B00446002569464D
:1028000008300295FFF7EEFF6846FEF741FF694684
:1028100004F118000295FFF7E5FF6846FEF738FF60
:10282000694604F138000295FFF7DCFF6846FEF7C1
:102830002FFF05B030BD30B585B004460025694690
:1028400008300295FFF7CEFF6846FEF721FF694684
:1028500004F118000295FFF7C5FF6846FEF718FF60
:10286000694604F138000295FFF7BCFF6846FEF7A1
:102870000FFF05B030BD30B585B004460025694670
:1028800008300295FFF7AEFF6846FEF701FF694684
:1028900004F118000295FFF7A5FF6846FEF7F8FE61
:1028A000694604F128000295FFF79CFF6846FEF791
:1028B000EFFE694604F138000295FFF793FF684682
:1028C000FEF7E6FE05B030BD30B585B00446002504
:1028D000694608300295FFF785FF6846FEF7D8FE87
:1028E000694604F118000295FFF77CFF6846FEF781
:1028F000CFFE694604F128000295FFF773FF684692
:10290000FEF7C6FE694604F138000295FFF76AFF3C
:102910006846FEF7BDFE05B030BD30B585B0044653
:102920000025694608300295FFF75CFF6846FEF710
:10293000AFFE694604F118000295FFF753FF6846A1
:10294000FEF7A6FE694604F128000295FFF74AFF4C
:102950006846FEF79DFE694604F138000295FFF7D0
:1029600041FF6846FEF794FE05B030BD1FB5224B0F
:1029700000900446694603930830204B0293FFF70A
:1029800031FF6846FEF784FE1D4B039369461D4BDD
:10299000029304F118000094FFF724FF6846FEF745
:1029A00077FE194B03936946184B029304F13800E4
:1029B0000094FFF717FF6846FEF76AFE6068002381
:1029C000036004F1780393E80600FFF7B1FDFFF719
:1029D000E9F8606814230360D4F888301988FFF799
:1029E00013FE04F1800393E80600FFF7A1FD606881
:1029F000FFF7F2F804B010BDEB0A0008ED0A00087A
:102A0000030B0008050B00088B2B00081B0B0008AC
:102A1000F0B585B06C464B4B0090054621460393BC
:102A20002830494B0293FFF7DDFE2046FEF730FECB
:102A3000464B03932146464B029305F1080000954F
:102A4000FFF7D0FE2046FEF723FE424B03932146BC
:102A5000414B029305F118000095FFF7C3FE204695
:102A6000FEF716FE3D4B039321463D4B029305F1C5
:102A700038000095FFF7B6FE2046FEF709FE6E68A7
:102A8000384F06F1590106F10900FEF755FD002304
:102A900033606E68344933602046FFF7A8F894E845
:102AA00006003046FFF744FD6E6830490B23336063
:102AB0002046FFF79CF894E806003046FFF738FD03
:102AC0006E682B49142333602046FFF790F894E892
:102AD00006003046FFF72CFD68681E220223C0E97D
:102AE0000023AB6F1988FFF78FFD22490646204669
:102AF000FFF77DF894E806003046FFF719FD6E6891
:102B000022233360D5F88C301B78204657F82310E9
:102B1000FFF76DF894E806003046FFF709FD6E6890
:102B200023233360D5F888301B78204657F82310CC
:102B3000FFF75DF894E806003046FFF7F9FC05B0B2
:102B4000F0BD00BF7F0A00088F0A0008A50A000830
:102B5000A70A0008BD0A0008BF0A0008972B000852
:102B6000D50A0008E8740008087500080B7500080D
:102B70000E75000806750008826810B50AB903F0E2
:102B800097FDC368BDE81040184708B50068683075
:102B9000FFF7F2FF08BD08B500686830FFF7ECFFEB
:102BA00008BD70B5816800220B4613B19A605B685E
:102BB000FBE7D0E9042302EB43050B46954214469C
:102BC00009D026889C6834449C605B680232002BE4
:102BD00008BF0B46F2E7836B13B13030FFF7CCFF31
:102BE00070BD006808B5D0F89C30B0F8A0201A80FD
:102BF000D0F884301BB17C30FFF7BEFF08BD6C30CD
:102C0000FAE708B500686C30FFF7B6FF08BD08B5F5
:102C10000368D3F89C2093F8A03013700068D0F8B4
:102C200084301BB17C30FFF7A7FF08BD6C30FAE79A
:102C300008B500686C30FFF79FFF08BD08B5036852
:102C4000D3F89C2093F8A03013700068D0F884303B
:102C50001BB17C30FFF790FF08BD6C30FAE708B578
:102C600000686C30FFF788FF08BD08B50368D3F82B
:102C7000AC00182202FB00308030FFF77DFF08BD5A
:102C800008B500686830FFF777FF08BD08B503682E
:102C9000D3F89C2093F8A03013700068D0F88430EB
:102CA0001BB17C30FFF768FF08BD6C30FAE708B550
:102CB00000686C30FFF760FF08BD08B50368D3F803
:102CC000C400182202FB00308030FFF755FF08BD1A
:102CD00008B500686830FFF74FFF08BD08B5036806
:102CE000D3F8F400182202FB00308030FFF744FFD5
:102CF00008BD08B500686830FFF73EFF08BD00005A
:102D000038B5354D354C2B6813F001031DD1344ACD
:102D10002260344A226202F5A2321032C4E906036C
:102D200062623148636022222146C4E90233C4E969
:102D30000433A062E262A363FEF7B2FB01232B4AD5
:102D40002B492B60204603F0AEFC2A4A536C43F417
:102D500080735364236A59686FF3196159609968E5
:102D600041F002019960996841F480719960996815
:102D700041F400719960596841F480715960116B98
:102D800041F48001116303F14C02636A9A601A688E
:102D90006FF387121A601A68012161F34E321A60CC
:102DA0001A6861F3CC221A601A6842F480621A60D1
:102DB0001A6842F010021A601A6842F480721A60AF
:102DC0001A686FF35B621A60A36A93F90400FEF756
:102DD00065FB024838BD00BF5C0100206001002097
:102DE0002085000800200140500500200000002040
:102DF000A516000800380240F8B504464F48504D6B
:102E0000026812F0010F1BD14E490B6813F001024A
:102E100008BF4D4E4D4B02BFC3E9006201220A605C
:102E20004B490A6B42F002020A6319680A6842F0D1
:102E300003020A600022C5E90022EB60012303605F
:102E4000E36A206A223B012B8CBF00260826F7B2DA
:102E5000072239462E61FFF749F8E169206A0131FE
:102E6000E1613A46FFF7B5F8D4E90732D16A013B90
:102E700063F31751D162A2681346002B55D019692C
:102E80008E424DDB5B68F8E76A60E368A56003B9D2
:102E9000E5602069A2692F4B68B1D3F8001150F8A2
:102EA000045D0439491B5D18A8421ABF012183F84B
:102EB0000411C3F8001161690A4462612649D3F81C
:102EC00000518A4294BF52004FF0FF32281D104437
:102ED000B0F5807F03EB0501C3F800011ED893F81D
:102EE0000401D8B909B15A510431636A21611A68E1
:102EF0006FF300021A60A28AD9605A601A6842F021
:102F000001021A601A68D207FCD50D48F8BD1A688C
:102F1000C5E900231D602B685D60BAE70021E4E786
:102F20009A42F4D16A601560AFE7002AACD0E3683A
:102F30002B60002BACD05D60AAE700BF140100201D
:102F4000180100202C010020000402403001002064
:102F50000038024008040020FCFFFF3F01461A4AE7
:102F60000A6020324A60194A0023C1E902330B7417
:102F70004B74CB61CB62CB63CB64CB65136813F02E
:102F8000010F10B500F10400114B06D1DFF848C065
:102F90000824C3E900C4012414600E4C226B42F0E3
:102FA000010222631A6814686FF3114414604B66BF
:102FB00001220023C1E91A3281F8703081F87130A2
:102FC000FEF7C0FB084610BD087100085001002044
:102FD00054010020003802400000024038B5044689
:102FE0000025C0F80051C0F80451D0F81001FEF7D8
:102FF000BDFAD4F81C311A6865F300021A60D4F8DF
:1030000020311A6865F300021A60FF225A60D4F872
:1030100020311A6842F001021A601A68D207FCD502
:10302000D4F81821D36843F01003D36038BD08B535
:1030300083681A6992F82811D2F81401FEF7FEFB92
:1030400010B11869FFF7CAFF08BD38B500238360C7
:103050008B6804460D462BB102229847EB68E3606B
:10306000AB68A360204638BD10B50B460446D1E9D5
:10307000000184E8030003F1080104F10800FFF7F0
:10308000A2FB204610BD000038B51D460D4B04467E
:10309000C0E9003111460830FFF770FB294604F102
:1030A0006800FFF790FB049904F17800FFF7DCFF5C
:1030B000059904F19000FFF7D7FF0023C4E92A33F4
:1030C000204638BDB8700008F0B5FF23074F084E02
:1030D0001D4611F8014B5C4091423B5D83EA0503BC
:1030E000355DF6D105704370F0BD00BFE872000891
:1030F000E8730008D0F80031D0F804219A4283BF69
:103100005A1CC0F80021C05C00207047D0F8043180
:10311000FE2B9FBFC154D0F804310133C0F80431F5
:10312000704738B50C46090A0546FFF7EFFFE1B2D4
:10313000FFF7ECFF284638BD10B50446D0F8100163
:10314000FEF70EFAD4F81831DA686FF30412DA6079
:10315000D4F820311A686FF300021A60D4F81C31D9
:103160001A686FF300021A60D4F80431D4F8001121
:10317000D4F81C215B1A02339BB25360D4F81C3183
:103180001A6842F001021A601A68D207FCD510BD15
:10319000036937B501294FF0000204460D46C3F814
:1031A0000021C3F804210ED190F824100069FFF724
:1031B000ADFF94F8251041F08001FFF7A7FF2946E5
:1031C000FFF7A4FF0BE00229006906D194F8241050
:1031D000FFF79CFF94F82510EFE70329F6D0236949
:1031E000D3F80421D3F800111A44194401A8FFF7B9
:1031F0006BFF9DF805102069FFF788FF9DF804100C
:10320000FFF784FF2069FFF797FF03B030BD70B56B
:10321000D0F80031D0F8042101339A4204460D461B
:103220000ED9FFF767FF06462046FFF763FF4FF012
:10323000000360F3070366F30F232B80204670BD65
:103240000023FAE738B504460D4600F1260100696F
:10325000FFF7DDFF04F12A012069FFF7D8FF638D36
:10326000E08C1844013880B2A8424FEA430320851D
:1032700084F82C302CBF0020012038BD13B50C2160
:103280000446FFF7DFFF28B902212046FFF780FF41
:1032900002B010BD23690022C3F80021C3F8042145
:1032A00094F824102069FFF731FF0321FFF72EFF68
:1032B00094F82C10FFF72AFF638D20695A1E62854F
:1032C0004BB1E38C5A1C04EB4303E284B3F85E1069
:1032D000FFF727FFF0E7D0F80421D0F800110244EF
:1032E000014401A8FFF7F0FE9DF805102069FFF7E3
:1032F0000DFF9DF80410FFF709FF2069FFF71CFF81
:10330000C6E70000000000002DE9F04F394BADF694
:10331000F46D26AE03F1100732463C461868596832
:10332000154603C50833BB422A46F7D118689B8867
:10333000AB80314B28605093304B549300224FF4B4
:1033400080312F4B2F48609162918DF891215192DD
:1033500052928DF84C215C92ADF874215E925F938D
:10336000619063938DF890218DF892218DF89421CE
:103370005596FF2150AB13440132162A1976F9D124
:103380000DF1B0090021484603F0E7F95498FEF723
:10339000DBF8549B1A694FF0010868F309221A619F
:1033A0001A6942F080721A6150AD00274FF6FF7B18
:1033B0000DF1C60AD5E90F3103EB410199420FD057
:1033C0001A78152A09D80DF5A07C62445878107631
:1033D0001A7809F802800233F0E71A885A45FAD1C0
:1033E0006393E96B99420FD15C970835CFB90127F8
:1033F000E0E700BF287000082C850008003C024070
:1034000000000A08000008082A6C01EB42029342FF
:1034100001F0C381514648465C97FDF7EBFF8245BA
:10342000E3D15C9A50AB03EBC201D1E90F30639951
:1034300003EB4003994206D15DAB0121995400236F
:103440005C935F9B63930DF1C60529464846FDF7E3
:10345000D1FFA842074641F0A681559B56AA0DF51B
:10346000B47E9446BCE80300F44518605960624697
:1034700003F10803F5D1DCF800001860BCF8042063
:103480009A8000238DF892319DF8743183B95C9B4A
:1034900073B15F9B609A4FF6FF7003EB42018B4262
:1034A0001A4641F08781521A18BF01228DF8742103
:1034B0009DF87531BBB95C9B012B14D0619A629B5E
:1034C0004FF6FF7002EB43039342114601F07B81FC
:1034D000B1F800C0844502F10202F5D05B1A18BFB2
:1034E00001238DF875310DF5BB7841465DA8FDF7D8
:1034F000ABFF804518BF0323549A18BF8DF8913154
:103500001369AF4243F0004313610DD0BB4B324609
:1035100018685968154603C50833A3422A46F7D1EF
:1035200018689B882860AB8050A8FEF70BF9B44B55
:10353000DFF81C931A6812F0010F05D1B14D0A2271
:10354000C9E9005201221A60AF4BDFF808831A6BF9
:1035500042F004021A63D9F800201068012161F3D7
:1035600015501060A94A106810F0010F01BFA84C57
:1035700011600F20C8E900401A6BA64C42F001020E
:103580001A63D8F800301A684FF0010B6BF39F7282
:103590001A607EA8FFF7E2FCB7787388ADF81830A0
:1035A000C7F340030593C7F3800332790493C7F34D
:1035B000C10307920393FEF7CBFD974B079A1D6853
:1035C00015EA0B0507EA0B0A4FEA571744D193494E
:1035D0002160934984F82420924A2061C4E90615A9
:1035E0009148A26304F13801C4E901552573E563EC
:1035F0002464079360612562E5842585658584F8E8
:103600002C502586FDF74CFF884A626404F1440182
:10361000A069A564E464FDF743FF0E22294604F186
:10362000500003F09AF81822294604F15E0003F0D6
:1036300094F80E22294604F1760003F08EF80E224B
:10364000294604F1840003F088F8079BC4F89350DE
:10365000C3F800B0C4F896509DF8183013F0E0029B
:1036600001F0B480202A01F0B48003F0C003402BA5
:1036700014BF01230223674A136213693946D3F842
:103680002421D3F81801FEF787F8059AC36862F37E
:103690004923C360C368049A62F30C33C3600369AF
:1036A000039A62F30D330361C368BAF1000F01F0AE
:1036B000938043F48063C360C36843F40053C360E2
:1036C0002069FFF78BFC0994099B0922A3F85E206F
:1036D000099B3288A3F86020099B3279A3F8642003
:1036E000099B7288A3F86220099AFF23A2F884300C
:1036F000099A0127A2F87870099A4FF4F570A2F898
:103700008630FEF72BFE0A90FEF78CFE0B90102001
:10371000FFF7F6FA0C90FFF76FFB0CAD0A99F491E6
:10372000099A43490B9B68600024F791FA93414939
:10373000F3956423FBA8FB91F992FF948DF8C8439D
:10374000CDF800448DF8C943CDF8D493CDF8D88393
:10375000F896FC94FD948DF8F843FF93FDF7F2FF83
:103760004FF47A730DF20440CDF80414CDF81444EC
:10377000CDF80844CDF81844CDF80C448DF8104429
:10378000CDF81434FDF7DEFF2B4BCDF840342B4B36
:103790002868CDF844342A4BCDF81C149BADCDF8E5
:1037A0002C44CDF82044CDF82444CDF82844CDF85D
:1037B0003044CDF83444CDF83844CDF83C44CDF80D
:1037C00048348DF84C44FEF767FC1E4B1E4A2B60B4
:1037D00020336B6013682C7413F0010F08BFDFF8FF
:1037E00078B01A4B6C7404BF0E21C3E900B1C5E96F
:1037F0000244EC61EC62EC6330E000BF287000082A
:10380000F80300200008024000380240EC030020CA
:1038100000000240FC010020F80100204C7100086B
:103820008805002034710008A805002040710008B8
:10383000C005002048700008D0075046384AA861EB
:10384000C8000A0058710008440100204801002007
:10385000FC030020F003002000040240EC64EC654F
:10386000AF4C08BF1760226B42F0020222631A6855
:1038700011686FF31D711160012600219CA8C5E934
:103880001A1685F8701085F871106B66FDF75AFFEF
:10389000A44BA54AB8932033B9931368BA9113F097
:1038A000010F08BFDFF8D4A2A04BBB918DF8F01236
:1038B0008DF8F112BF91C391C791CB91CF9102BF07
:1038C0000D21C3E900A11660226B42F002022263BF
:1038D0001A6811686FF39B61116000240DF58A6608
:1038E000B9A84FF00109D193D2948DF850438DF8C7
:1038F0005143CDF84C930DF26948FDF723FFD5A84D
:10390000FFF72CFB8A4B3473C6E90144C6E9044433
:1039100034760DF2B9414046099F3360FDF70CFE45
:10392000844A854C136813F0010F07F15E0771D1CB
:103930008249DFF84CC20B68814813F0010F04BFC5
:103940000D23CCF80430764B04BFC1F80090CCF8BE
:103950000000196BDFF82C9241F004011963DCF8C8
:103960000010D1F800E04FF0010A6AF39B6EC1F835
:1039700000E0D9F80010DFF810E211F0010F01BFEC
:103980000F21C9F800A0CEF80000CEF80410196B82
:10399000DFF8F89141F004011963DEF8003019688E
:1039A0004FF0010A6AF39F711960D9F80030654938
:1039B00013F0010F04BFC9F800A00E23DFF86091D7
:1039C00004BF08604B60D9F8303043F00403C9F8F5
:1039D00030300B68D3F800A04FF0010969F31D7A6D
:1039E000C3F800A00023DFF8A8A12373C4E90133C2
:1039F000C4F800A06373C4E904CEC4E906105249B8
:103A000061625249C4F82080A16284F83030636357
:103A1000C2F800904E4B1A6812F0010F4D4A06D1C1
:103A2000DFF81C910221C2E90091012119603C4B91
:103A3000196B41F00401196312681168012060F3E9
:103A40000511116044490A6812F0010F08BFDFF840
:103A5000F080424A02BF08604FF0030CC2E9008CBC
:103A6000196B41F00401196313683D491A6801207C
:103A700060F387121A600B683A4A034002BFDFF80E
:103A8000C0C00860C2E900C3254B196B41F00401B6
:103A9000196312681068012161F301001060324857
:103AA000026812F0010F08BFDFF894C02F4A04BF6C
:103AB0000160C2E900C1196B1F4841F0040119639C
:103AC00013681A684FF0010868F383021A60FEF762
:103AD0000BF9237B002B5DD1254B84F80C80DA6831
:103AE000626002B194609A68DC6002B99C60022254
:103AF0005A61204B1A686FF300021A601E4A5A601E
:103B000000229A601A6842F004021A601A6842F0B1
:103B100002021A601A6842F001021A603AE000BF1D
:103B20000038024084710008380100203C01002068
:103B300038850008B4000020B800002008010020EB
:103B400000080240F400002018750008187D0008E5
:103B5000A8000020AC0000209C000020A000002055
:103B600090000020940000208400002088000020A5
:103B7000C405002010E000E01F48010000040240DE
:103B80000C010020FC00002000010020F0000020BB
:103B900044850008B8AB7367D5ABB36726ABC6E9FD
:103BA0001F37B74BC6F884300DF5A863C6E91B452F
:103BB000C6F888304AAD0023C6F88C30B14B2E6071
:103BC000EB602946B04BAB6066A844ACFEF7B8FD8D
:103BD000AE4B41933EA9AE4B3E9620464093FEF736
:103BE000AFFDAC4B359332A9AB4B329638A834932A
:103BF000FEF7A6FDA94B21931EA9A94B1E9622A84C
:103C00002093FEF79DFDA74B199316A9A64B169678
:103C10001AA81893FEF7A3FDA44B11930EA9A44B69
:103C20000E9612A81093FEF79AFD66A90DF59C60FA
:103C3000FEF786FD21460DF59E60FEF781FD38A951
:103C40000DF5A060FEF77CFD22A90DF5A260FEF740
:103C500077FD1AA90DF5A460FEF781FD12A90DF5F7
:103C6000A660FEF77CFD12A8FDF712FD0EA8FDF779
:103C70000FFD1AA8FDF70CFD16A8FDF709FD22A8F7
:103C8000FDF706FD1EA8FDF703FD38A8FDF700FDB2
:103C900032A8FDF7FDFC2046FDF7FAFC3EA8FDF733
:103CA000F7FC66A8FDF7F4FC2846FDF7F1FC0DF5DE
:103CB0009C6166A8FEF762FD7E4B2660E3602146AC
:103CC0007D4BA36028460DF58C67FEF77CFDD6E999
:103CD0001F987A4BC6F8F030C6F8F47066A90DF557
:103CE000A960D6F884A0FEF749FD29460DF5B56018
:103CF000FEF769FD08F11403C6F8683108F10803FE
:103D0000C6F86C3108F10A03C6F8703108F11003E7
:103D1000C6F8743109F11303C6F8783109F11203BA
:103D2000C6F87C31C6F880A12846FDF7B1FC2046D4
:103D3000FDF7AEFC66A8FEF759F80DF59C6166A884
:103D4000FEF71CFD5E4B21931EA95E4B1E9622A81A
:103D50002093FEF738FD5C4BC6F88871C5E9013643
:103D60005A4B6B615A4B2B615A4B4096C4E9013652
:103D7000594B6361594B23610C233E93584B3F933E
:103D8000584B4393584B42930C233893574BCDE9F0
:103D90003936574B3D93574B3C93574BCDE9333610
:103DA000564B3793564B3693564BC6F88431062202
:103DB0004FF0090B66A90DF2DC5032920692C5F85D
:103DC00000B0C4F800B0FEF7D9FC22A90DF23C60A7
:103DD000FEF7F9FC29460DF24C60FFF745F9214644
:103DE0000DF26460FFF740F93EA90DF27C60FFF729
:103DF0003BF938A90DF29460FFF736F932A90DF2BC
:103E0000AC60FFF731F90023C6F87432C6F8783297
:103E100034A8FDF73DFC3AA8FDF73AFC40A8FDF7B1
:103E200037FC46A8FDF734FC4CA8FDF731FC22A86E
:103E3000FDF72EFC1EA8FDF72BFC66A8FDF7D6FFAC
:103E40000DF59C6166A8FEF799FC2F4B359332A9BE
:103E50002E4B329638A83493FEF7B5FC08232B601E
:103E60002B4BC6F88072C5E901362A4B6B612A4B91
:103E70002B612A4B4096C4E90136294B636151E01E
:103E8000C0050020994E0008310B0008D14E0008F3
:103E9000470B0008094F00085D0B0008614E000841
:103EA000730B0008954F0008890B00085D4F000850
:103EB0009F0B0008FF110008B50B000854700008A4
:103EC0000B120008CB0B00084885000817120008E9
:103ED000E10B00085285000823120008F70B0008C8
:103EE0005C8500083D1200080D0C0008698500087B
:103EF00049120008230C00087685000855120008B6
:103F0000390C00087C700008611200084F0C000892
:103F10007D8500086D120008650C00088685000884
:103F200079120008BB4B23610B233E93BA4B3F939E
:103F3000BA4B4393BA4B4293BA4BC6F87C324FF01C
:103F40000F0A66A90DF2D460C4F800A0FEF716FCB3
:103F500038A90DF23470FEF736FC29460DF2447094
:103F6000FFF782F821460DF25C70FFF77DF83EA95D
:103F70000DF27470FFF778F80022C6F83C23C6F8FB
:103F8000402340A8FDF784FB46A8FDF781FB4CA821
:103F9000FDF77EFB38A8FDF77BFB32A8FDF778FB29
:103FA00066A8FDF723FFF36F0DF59C61DB7C86F8B7
:103FB000443366A8FEF7E2FB9B4932A8FDF717FEE3
:103FC0009A4922A8FDF713FE994B2660E36021462B
:103FD000984BA3602846FEF7F6FB974B3B9338A916
:103FE000964B38963EA84FF480783A93FEF7EBFB59
:103FF000339A9349C6F84813A6F84C83C6F8507311
:10400000329B049266A9229A05930DF2A470039242
:10401000DDF88C90FEF7B2FB29460DF60400FEF7A2
:10402000D2FB3EA90DF61400FEF7CDFB059BC6F8AA
:10403000D433049AC6F8D8230DF29473C6F8E43347
:10404000039A96F84433C6F8DC2386F8E833C6F8BA
:10405000E0933EA8FDF71CFB38A8FDF719FB2846A6
:10406000FDF716FB2046FDF713FB66A8FDF7BEFE25
:104070000DF59C6166A8FEF781FB724B3B9338A956
:10408000714B38963EA83A93FEF79DFB6F4B6B61E0
:104090006F4B2B616F4BDFF8FC91069A2260C4E9ED
:1040A00001366D4B63613EAA6C4BC5F800A0C5E9B3
:1040B0000196394623610DF63C001346CDE90054C4
:1040C00066AAFEF7E1FF46A8FDF7E2FA4CA8FDF765
:1040D000DFFA3EA8FDF7DCFA38A8FDF7D9FA66A8A2
:1040E000FDF784FE0DF59C6166A8FEF747FB5C4B6F
:1040F0003B9338A95B4B38963EA83A93FEF763FB97
:10410000594B6B61594B2B61594BAE60C4E9013679
:10411000584B63613EAA584BC4F800B03946C5E914
:1041200000A923610DF6EC001346CDE9005466AA00
:10413000FEF7AAFF46A8FDF7ABFA4CA8FDF7A8FAD0
:104140003EA8FDF7A5FA38A8FDF7A2FA66A8FDF784
:104150004DFEF36F0DF59C619B7C86F84C3566A88F
:10416000FEF70CFB454932A8FDF741FD2F4922A877
:10417000FDF73DFD424B2660E3602146414BA360C5
:104180002846FEF720FB404B3B9338A93F4B38961F
:104190003EA83A93FEF717FB3D4AC6F85025A6F80D
:1041A0005485C6F85875329B039366A90DF6AC107A
:1041B000DDE922A9DDF8CCB0FEF7E0FA29460DF6DC
:1041C0000C20FEF700FB3EA90DF61C20FEF7FBFAC3
:1041D000039BC6F8DC350DF69C13C6F8EC3596F853
:1041E0004C3586F8F035C6F8E0B5C6F8E4A5C6F853
:1041F000E8953EA8FDF74CFA38A8FDF749FA28469D
:10420000FDF746FA2046FDF743FA66A8FDF7EEFDF6
:1042100042E000BF7B0C000896850008851200086C
:10422000910C000890700008A28500088C86000898
:1042300091120008A70C00089D120008BD0C000890
:10424000A4700008B7120008D30C0008C3120008BD
:10425000E90C0008BF850008CF120008FF0C000819
:10426000E1120008150D0008ED1200082B0D0008E2
:10427000C6850008F9120008410D000852850008A3
:104280000B130008570D0008251300086D0D0008DA
:10429000CC700008AF850008F36F0DF59C611B7CA6
:1042A00086F8F43566A8FEF769FAC24932A8FDF728
:1042B0009EFCC14922A8FDF79AFCC04B2660E36032
:1042C0002146BF4BA3602846FEF77DFABD4B3B93CA
:1042D0000DF58A66BC4B3A9338A93EA83896FEF78E
:1042E00072FABA4AC6F8F8254FF4C84166A8A6F88B
:1042F000FC15C6F8007601460DF65420DDE932BA09
:10430000DDE92298FEF73AFA29460DF6B420FEF7C9
:104310005AFA3EA801460DF6C420FEF754FA0DF6EF
:104320004423C6F8943696F8F43586F89836C6F8DD
:1043300084B6C6F888A6C6F88C96C6F890863EA8BD
:10434000FDF7A6F938A8FDF7A3F92846FDF7A0F96F
:104350002046FDF79DF966A8FDF748FDF36F0DF5C2
:104360009C601B89A6F89C36014666A8FEF706FAF3
:10437000974932A8FDF73BFC964922A8FDF737FC88
:10438000954BE3602146954B26602846A360FEF7D7
:104390001AFA934B3B9338A8924B3A9301463EA8A6
:1043A0003896FEF710FA904BC6F8A03666A88F4BE9
:1043B000C6F8A4360146C6F8A8760DF6FC20DDE95D
:1043C0002298DDE932BAFEF7D9F929460DF65C30BC
:1043D000FEF7F9F93EA801460DF66C30FEF7F3F949
:1043E0000DF6EC23C6F83C37B6F89C36A6F84037F5
:1043F000C6F82CB7C6F830A7C6F83497C6F8388781
:104400003EA8FDF745F938A8FDF742F92846FDF723
:104410003FF92046FDF73CF966A8FDF7E7FC0DF5EE
:104420009C60014666A8FEF7A9F9714B3B9338A83A
:10443000704B3A9301463EA83896FEF7C4F96E4B8E
:10444000C5E901366D4B6B616D4B2B616D4B0C20DB
:10445000C4E901366C4B206063613EA86B4B23615D
:104460004FF00709034666A802463946C5F8009092
:104470000DF69430CDE90054FEF706FE46A8FDF790
:1044800007F94CA8FDF704F93EA8FDF701F938A893
:10449000FDF7FEF866A8FDF7A9FC0DF59C60014646
:1044A00066A8FEF76BF95A4BE3602146594B26602C
:1044B0002846A360FEF787F957493EA8FDF797FB0A
:1044C000564938A8FDF793FBD6F8803054493E9AF8
:1044D000C6F8F41766A8DDE938BA03F114080146F6
:1044E0003F9BC6F8F8770DF64C4004920393FEF715
:1044F00045F929460DF6AC40FEF765F9049A039B91
:10450000C6F86C28C6F87038C6F874B8C6F878A82B
:10451000C6F87C882846FDF7BBF82046FDF7B8F8BA
:1045200066A8FDF763FCF36F0DF59C605B7C86F875
:104530008038014666A8FEF721F93A4932A8FDF70E
:1045400056FB364922A8FDF752FB374BE360214664
:10455000364B26602846A360FEF735F9344B3B9373
:1045600038A8344B3A9301463EA83896FEF72BF90B
:10457000164AC6F884284FF4C841329BA6F888181A
:10458000C6F88C7866A90DF54E600393DDE922A884
:10459000DDF8CCB0FEF7F2F829460DF55460FEF7D1
:1045A00012F93EA90DF55560FEF70DF9039BC6F80B
:1045B000103941E0D0850008E18500084D1300085E
:1045C000830D000859130008990D0008E0700008D9
:1045D00086850008E48500086D130008AF0D00080B
:1045E00079130008C50D0008F47000085046C8AFE4
:1045F0008D130008DB0D0008E885000899130008FA
:10460000F10D0008F0850008A5130008070E00084A
:10461000B11300081D0E0008FD8500080D86000876
:104620006870000810860008BD130008330E0008EB
:10463000C9130008490E00080DF54D63C6F820396E
:1046400096F8803886F82439C6F814B9C6F818A93F
:10465000C6F81C893EA8FDF71BF838A8FDF718F826
:104660002846FDF715F82046FDF712F866A8FDF775
:10467000BDFB0DF59C6166A8FEF780F8B04B3B933F
:1046800038A9B04B3A933EA83896FEF79CF8AE4B4B
:104690006B60AE4B6B61AE4B2B610A232360AD4B5D
:1046A0006360AD4B6361AD4B2361AD4BC6F82839F8
:1046B000082266A9C6F82C790DF558602A60FEF725
:1046C0005DF83EA90DF55E60FEF77DF829460DF513
:1046D0005F60FEF7C9FC21460DF60860FEF7C4FCDA
:1046E0000023C6F8D039C6F8D439C6F8E039C6F880
:1046F000E839C6F8EC3946A8FCF7CAFF4CA8FCF725
:10470000C7FF3EA8FCF7C4FF38A8FCF7C1FF66A8A6
:10471000FDF76CFB0DF59C6166A8FEF72FF8914B39
:104720003B9338A9904B3A933EA83896FEF74BF846
:1047300008232B608D4B6B608D4B6B618D4B2B6118
:104740008D4B63608D4B63618D4B236166AA3EABDD
:104750003946C4F800900DF56460CDE90054FEF7C9
:1047600093FC46A8FCF794FF4CA8FCF791FF3EA8E9
:10477000FCF78EFF38A8FCF78BFF66A8FDF736FB29
:104780003046FCF7DFFFD6F8880003681B689847BF
:10479000F36E93F830301BBBFEE750AB3B4483F81D
:1047A0003480FEF722BE5C9B5DAA0121D154052313
:1047B000FEF768BEB2F800C0844503F102033EF480
:1047C0006EAEFEF770BE1946FEF788BE0423FEF7F4
:1047D00052BF0323FEF74FBF6AF38A23FEF76BBF76
:1047E0000FF24C19D9E9008900264FF07F57F79B4B
:1047F0001B78002B79D0F89B9B891BB99DF84C3412
:10480000002B72D0F4990A688B89106A03431362F3
:10481000F498FDF767FB08B1F79B1878F79B1870C1
:10482000F89BF6981B7D8DF84C34002B64D0FCF778
:1048300097FEF498FDF756FBF59B00285FD01846CD
:10484000FCF78EFEF49DF99C2B8AA4F86830F39B4C
:104850005B681889FBF766FE37A3D3E90023FBF7F3
:10486000CBFE32463B46FBF7C7FE42464B46FBF7C4
:10487000EDFF0022434BFBF7BFFEFCF7CFF8F89AA1
:10488000A4F86E002B8BA4F86630BDF84014138991
:10489000ADF84234581A0B44ADF84404ADF8463430
:1048A000137C216903EB8303ADF84834D1F8203140
:1048B000D1F804215B68D1F800119BB2521AC3F100
:1048C000FF039A421FD20023E3612046FCF718FF42
:1048D0009DF8C833052B00F27E81DFE813F04C0110
:1048E0008E015202930297026402F4990A68898940
:1048F000136A23EA01038AE7FCF738FE99E71846B2
:10490000FCF734FE9EE7D4E907239A42E0DB00255A
:104910002046E561FCF7F4FE2069D0F80431D0F8B8
:104920000021991A07292FD8FEF758FBD0E700BFBE
:104930000000000000FEEF406666666666660A409C
:10494000DD1300085F0E000820860008750E0008C1
:10495000770E00082986000847150008810E000818
:1049600090700008E91300088B0E000834860008D8
:1049700037150008A10E00083D86000845150008FF
:10498000AB0E000800408F4010F802C094F82410CD
:104990008C45C9D1934284BF03F1FF33C0F8043181
:1049A000226988BFC55CD2F80011D2F804318B426D
:1049B00082BF03F1FF33C2F8043112F803A0236968
:1049C000D3F80421D3F800111A44194466A898BFFB
:1049D0004FF0000AFEF778FB9DF89831AB4204D106
:1049E0009DF899312069534501D020699CE7FEF775
:1049F00081FB2069FEF77EFB032884F8250003D0A5
:104A0000102805D0012109E02046FEF737FC5FE7BA
:104A100007212046FEF716FC20B902212046FEF7AA
:104A2000B7FB55E72369D3F80021D3F8041191426D
:104A300083BF511CC3F800119B5C002384F82C3009
:104A4000002504F12E0AB4F82AC02069ABB29C45B7
:104A50002CD95146FEF7DBFBE38C13FA85F3E21801
:104A60005B0092F89310E28D89B1234410B2B3F841
:104A700076100FFA81FC604500DA31B9B3F8841082
:104A80000FFA81FC60450DDD61B10321C6E72344C7
:104A9000B3F876108A4201D20029F6D1B3F8841017
:104AA0008A42F1D8A3F850200135CCE7A34A00236D
:104AB000012599B2614533D2B4F826E0714489B238
:104AC00003290BD8DFE801F0020C1520F999B1F8A1
:104AD00050E0A1F862E0F899A1F802E00133E8E7BC
:104AE000F999B1F852E0A1F864E0F89981F804E08E
:104AF000F4E7F999B1F85410A1F17F0EDEF100014D
:104B000041EB0E011170E9E7117839B1F999B1F86B
:104B100056E0A1F860E0F899A1F800E01570DDE733
:104B20000023C0F80031C0F8043194F82410206943
:104B3000FEF7ECFA94F82510FEF7E8FAE18CFEF7A0
:104B4000F0FA618DFEF7EDFA2369D3F80421D3F86A
:104B500000111A44194466A8FEF7B6FA9DF8991197
:104B60002069FEF7D3FA9DF89811FEF7CFFA206975
:104B7000FEF7E2FAACE69DF84C34F4982BB3F89BC0
:104B80009B7C183093B1BDF84814FDF772F9FA9B7D
:104B9000BDF842249B68F4985A62596A103089B271
:104BA000FDF73EF902238DF8C83314E06421CDF8F7
:104BB0003434ADF83834FDF75CF9F498BDF8461498
:104BC0001030FDF72DF90123EDE7FDF78BF920B14A
:104BD000F2A8FDF765F930BF09E6F89BFA9A997CCF
:104BE000F498926839B19B895362516A103089B246
:104BF000FDF716F9EFE7DB89F6E7F498FDF772F9B0
:104C000098B19DF8C933042B0FD8DFE803F00319DE
:104C1000305D99004FF47A730DF21C40CDF82C34BE
:104C2000FCF790FD01238DF8C933F498FDF75AF98C
:104C30000028D0D19DF84C34002BCCD10023B2E712
:104C4000DDF83024DDF82C349A42EED30DF21C400E
:104C5000FCF774FDF498BDF8461400231030CDF82D
:104C60003434CDF83834FDF7DBF80223DBE7F49871
:104C700064211830FDF7FDF8F39BBDF838245B681C
:104C80009B68934284BFADF83834F49BFBA884BF83
:104C90001B8AADF83E34FCF729FD68B1F498BDF8E5
:104CA0004434028A9A4283BFBDF84A14494209B289
:104CB00000211030FDF7D6F8F49B1A8ABDF8443471
:104CC0009A42B2D10323AEE7F49864211830FDF77D
:104CD000D0F8F39BBDF836245B689B68934284BF91
:104CE000ADF83634F49BFBA884BF1B8AADF83C3486
:104CF000FCF7FCFC58B1F498BDF84634028A9A429D
:104D000034BFBDF94A1400211030FDF7ABF8F49B15
:104D10001A8ABDF846349A4287D1F89BBDF83614FA
:104D200000221A75BDF8382491428CBFBDF83C248E
:104D3000BDF83E24DA81042375E700BF0404002097
:104D4000FBA8FCF7D3FC70B1F498F89B30F8102F57
:104D5000DB899A4212D383BFBDF84A14494209B293
:104D60000021FDF77FF8F49AF89B128ADB899A42BA
:104D70007FF45BAFF2A8FDF793F856E7BDF94A144C
:104D8000EFE7FA9BF4989B68596A103089B2FDF7F7
:104D900047F89DF84C34002B7FF447AFF49B1A8AF8
:104DA000F89B9A81E6E7F39BBDF834245B689B6827
:104DB000934282BFF89A9BB2ADF834340DF20440AE
:104DC00088BF5381FCF792FC68B1F498BDF8483471
:104DD00030F8181F8B4294BF4FF0FF330123194462
:104DE00089B2FDF746F8F498BDF84834028B9A4230
:104DF00002D303238DF8C833FDF774F800283FF47D
:104E00001DAFE8E6F498FDF76DF838B1FA9BF49819
:104E10009B68596A103089B2FDF702F8F498EBE705
:104E200013B50B460446D0E900016A4682E8030048
:104E300093E8030084E8030092E8030083E803009A
:104E400002B010BD38B505460C46FFF7E9FFAB6868
:104E5000A268AA60A360E268EB68EA60E36038BD1C
:104E600030B5044689B00846002369460293FFF72F
:104E7000E9FF23689C6F2368694604A8DD68FDF795
:104E8000A2FC04A92046A84704A8FCF701FC684638
:104E9000FCF7FEFB09B030BD30B5044689B00846CA
:104EA000002369460293FFF7CDFF23681C6F236838
:104EB000694604A89D68FDF786FC04A92046A8471A
:104EC00004A8FCF7E5FB6846FCF7E2FB09B030BD3F
:104ED00030B5044689B00846002369460293FFF7BF
:104EE000B1FF23685C6F2368694604A89D68FDF7DD
:104EF0006AFC04A92046A84704A8FCF7C9FB684639
:104F0000FCF7C6FB09B030BD30B5044689B0084691
:104F1000002369460293FFF795FF23689C6F23687F
:104F2000694604A89D68FDF74EFC04A92046A847E1
:104F300004A8FCF7ADFB6846FCF7AAFB09B030BD3E
:104F400038B505460C46FFF76BFFAB68A268AA6050
:104F5000A360E268EB68EA60E36038BD30B5044600
:104F600089B00846002369460293FFF7E9FF2368EA
:104F70005C6F2368694604A81D69FEF766F804A9FA
:104F80002046A84704A8FCF783FB6846FCF780FB93
:104F900009B030BD30B5044689B0084600236946E3
:104FA0000293FFF7CDFF23681C6F2368694604A8AE
:104FB0001D69FEF74AF804A92046A84704A8FCF793
:104FC00067FB6846FCF764FB09B030BD1FB50446BB
:104FD0006846FDF7F8FB21466846FFF733FF684651
:104FE000FCF756FB204604B010BD08B54430FFF76F
:104FF000EDFF08BD08B53430FFF7E8FF08BD08B580
:105000002430FFF7E3FF08BD08B51430FFF7DEFFDB
:1050100008BD08B54430FFF7D9FF08BD08B53430E6
:10502000FFF7D4FF08BD08B52430FFF7CFFF08BD58
:1050300008B51430FFF7CAFF08BD08B54430FFF7C4
:10504000C5FF08BD08B53430FFF7C0FF08BD08B57F
:105050002430FFF7BBFF08BD08B51430FFF7B6FFDB
:1050600008BD1FB504466846FDF7EFFF21466846B8
:10507000FFF766FF6846FCF70BFB204604B010BD47
:1050800008B55430FFF7EDFF08BD08B55430FFF701
:10509000E8FF08BD08B55430FFF7E3FF08BD1FB5B2
:1050A00050B16846FDF78FFB029B13B16846FDF7D0
:1050B00063FD6846FCF7ECFA05B05DF804FB07B544
:1050C000826801910AB901F0F3FAC36801A998470F
:1050D00003B05DF804FB7FB50446406EFCF7C4FAEC
:1050E00008B9A36E8BB3606EFCF7BEFA054680BBB1
:1050F000637C63BB94F8706004F124016846FDF79B
:1051000062FB69463046FFF7CAFF6846FCF7C0FA03
:10511000637C33B994F870501DB194F8715085F0E8
:10512000010504F134016846FDF74DFB6946284648
:10513000FFF7B5FF6846FCF7ABFA00230122C4E98C
:105140001A3284F8703084F8713004B070BD0646AD
:10515000D2E7A36E0133092BA36622D994F87020FD
:105160008AB9657C012384F870305D4004F1140134
:105170006846FDF728FB28466946FFF790FF68461A
:10518000FCF786FAE1E7B3F57A7F0AD394F8712049
:105190003AB9657C012384F871305D4004F1440123
:1051A000E6E7E26D002AD0D0B3F57A7FCDD9B3F52A
:1051B000FA6F0CD8C821B3FBF1F201FB1233002BBC
:1051C000C3D1012104F15400FFF779FFBDE740F698
:1051D000B832934201D86421EDE7B3F57A6F01D874
:1051E0003221E8E71921B3FBF1F201FB123241F25F
:1051F00088318B4202D8002AA7D1E2E7002AA4D145
:10520000E16E04F15400FFF75AFFA16E4FF47A7279
:10521000B1FBF2F302FB1313002B96D1E36E0133C3
:10522000E36692E7A0F1040055E77FB50446406EBF
:10523000FCF71AFA08B9A36E8BB3606EFCF714FA88
:10524000054680BB637C63BB94F8706004F1240165
:105250006846FDF7B8FA69463046FFF720FF684612
:10526000FCF716FA637C33B994F870501DB194F8CA
:10527000715085F0010504F134016846FDF7A3FA89
:1052800069462846FFF70BFF6846FCF701FA002342
:105290000122C4E91A3284F8703084F8713004B005
:1052A00070BD0646D2E7A36E0133092BA36622D94F
:1052B00094F870208AB9657C012384F870305D40D1
:1052C00004F114016846FDF77EFA28466946FFF7A7
:1052D000E6FE6846FCF7DCF9E1E7B3F57A7F0AD32E
:1052E00094F871203AB9657C012384F871305D40EF
:1052F00004F14401E6E7E26D002AD0D0B3F57A7FED
:10530000CDD9B3F5FA6F0CD8C821B3FBF1F201FB8C
:105310001233002BC3D1012104F15400FFF7CFFE5B
:10532000BDE740F6B832934201D86421EDE7B3F50A
:105330007A6F01D83221E8E71921B3FBF1F201FBC2
:10534000123241F288318B4202D8002AA7D1E2E71B
:10535000002AA4D1E16E04F15400FFF7B0FEA16E63
:105360004FF47A72B1FBF2F302FB1313002B96D1C8
:10537000E36E0133E36692E7A0F1040055E77FB5E1
:105380000446406EFCF770F908B9A36E8BB3606EEB
:10539000FCF76AF9054680BB637C63BB94F87060D8
:1053A00004F124016846FDF70EFA69463046FFF71E
:1053B00076FE6846FCF76CF9637C33B994F870505C
:1053C0001DB194F8715085F0010504F1340168466F
:1053D000FDF7F9F969462846FFF761FE6846FCF7D4
:1053E00057F900230122C4E91A3284F8703084F896
:1053F000713004B070BD0646D2E7A36E0133092BAD
:10540000A36622D994F870208AB9657C012384F8B8
:1054100070305D4004F114016846FDF7D4F9284668
:105420006946FFF73CFE6846FCF732F9E1E7B3F561
:105430007A7F0AD394F871203AB9657C012384F805
:1054400071305D4004F14401E6E7E26D002AD0D0FE
:10545000B3F57A7FCDD9B3F5FA6F0CD8C821B3FB79
:10546000F1F201FB1233002BC3D1012104F15400EE
:10547000FFF725FEBDE740F6B832934201D864211C
:10548000EDE7B3F57A6F01D83221E8E71921B3FBD4
:10549000F1F201FB123241F288318B4202D8002A2C
:1054A000A7D1E2E7002AA4D1E16E04F15400FFF78E
:1054B00006FEA16E4FF47A72B1FBF2F302FB1313F6
:1054C000002B96D1E36E0133E36692E7A0F104006E
:1054D00055E730B50B1A9B10002B15DD14780578B5
:1054E000A54203D04578A54201D1013030BD857871
:1054F000A54201D10230F9E7C578A54201D10330B8
:10550000F4E70430013BE7E70B1A022B0ED0032B24
:1055100007D0012B10D1047813789C4218BF08469D
:10552000E4E7047813789C42E0D0013004781378E3
:105530009C42DBD00130EEE70846D7E72DE9F34186
:1055400090F8513041690446052B1BD8DFE813F071
:1055500006001D004A008200B400E80090F85430B4
:10556000C218C95C127E914240F0F6800133DBB272
:10557000162B28BF002380F85430B3FA83F35B095D
:1055800080F8503002B0BDE8F0810069C268C2F313
:105590000042002AF6D10369002BF3DAFBF7D4FFAF
:1055A0002369186962F3410018611A6942F0010227
:1055B0001A6123691A69012060F309221A611A69C4
:1055C00042F080721A6194F85430CA5C84F8532017
:1055D00094F85310E26C43EA01231380022384F809
:1055E0005130CFE70369DA68D107CBD5DA6842F0EA
:1055F0000102DA601A6942F000421A6190F85430F0
:1056000090F8532003441A76C26C036B0232C264D2
:1056100000EBC300D0E90F1501EB45018A4203D02E
:1056200094F85230DBB2DAE70122E1181344022B7E
:1056300028BF002381F83420236304EBC303DB6B12
:10564000E364002384F8543084F85120052384F85F
:10565000523097E70769FD68C5F30045002D91D1E9
:105660003B69002B8EDA02AA00F13606012300F115
:10567000340802F8013D31464046FFF72AFFB042A8
:10568000CED0A0EB0800A0633846FBF75DFFA36B0C
:10569000324AD25C036965F300030361036943F096
:1056A00002030361036962F3C6030361036943F400
:1056B00080330361042392E70369DA68D2077FF538
:1056C00061AFDA6842F00102DA601A6942F0004222
:1056D0001A61816B00EBC103D3E90F234FF6FF750D
:1056E00002EB43039342104618D00688AE4202F103
:1056F0000202F7D01B1A214418BF012304F136051A
:1057000081F8343004F134002946FBF79DFE8542D0
:1057100014BF0320002084F8510033E71846E9E75E
:1057200090F854300133DBB2152B11D9002380F8E7
:10573000543004F13605294604F13400FBF784FEA9
:10574000854214BF0320002084F8510000237EE727
:1057500080F85430002BECD0012340E7147500088A
:10576000B0F8A0301944C38889B28B4238BF83880F
:1057700010B5A0F8A010044638BFA0F8A03080688B
:1057800014230360B4F8A0109434FCF73DFF94E8B0
:105790000600FCF7CDFEBDE81040FCF703BA08B5E3
:1057A00001210068FFF7DCFF08BD08B50968006843
:1057B000FFF7D6FF08BDB0F8A030591A838889B228
:1057C0008B4210B50446A0F8A01003D84FF6FF7323
:1057D000994202D1E388A4F8A030A06814230360A2
:1057E000B4F8A0109434FCF70FFF94E80600FCF71F
:1057F0009FFEBDE81040FCF7D5B908B5012100684F
:10580000FFF7D9FF08BD08B509680068FFF7D3FFA7
:1058100008BD826810B50AB900F04AFFC368BDE848
:105820001040184730B585B00446002569460C3055
:105830000295FCF7D7FF6846FBF72AFF694604F19B
:105840001C000295FCF7CEFF6846FBF721FF694676
:1058500004F12C000295FCF7C5FF6846FBF718FF22
:10586000694604F13C000295FCF7BCFF6846FBF773
:105870000FFF694604F14C000295FFF7CAFF684626
:10588000FBF706FF694604F15C000295FFF7C1FFD4
:105890006846FBF7FDFE05B030BD30B585B0044667
:1058A000002569460C300295FCF79CFF6846FBF723
:1058B000EFFE694604F11C000295FCF793FF684671
:1058C000FBF7E6FE694604F12C000295FCF78AFF1F
:1058D0006846FBF7DDFE694604F13C000295FCF7E3
:1058E00081FF6846FBF7D4FE694604F14C0002953F
:1058F000FFF78FFF6846FBF7CBFE694604F15C00BB
:105900000295FFF786FF6846FBF7C2FE05B030BD83
:1059100030B585B00446002569460C300295FCF789
:1059200061FF6846FBF7B4FE694604F11C0002956E
:10593000FCF758FF6846FBF7ABFE694604F12C0004
:105940000295FCF74FFF6846FBF7A2FE694604F19B
:105950003C000295FCF746FF6846FBF799FE694656
:1059600004F14C000295FFF754FF6846FBF790FEE8
:10597000694604F15C000295FFF74BFF6846FBF7B0
:1059800087FE05B030BD30B585B0044600256946B8
:105990000C300295FCF726FF6846FBF779FE694656
:1059A00004F11C000295FCF71DFF6846FBF770FE32
:1059B000694604F12C000295FCF714FF6846FBF7DA
:1059C00067FE694604F13C000295FCF70BFF684650
:1059D000FBF75EFE694604F14C000295FFF719FFE4
:1059E0006846FBF755FE694604F15C000295FFF737
:1059F00010FF6846FBF74CFE05B030BD1FB5354BB8
:105A000000900446694603930C30334B0293FCF735
:105A1000E9FE6846FBF73CFE304B03936946304B8A
:105A2000029304F11C000094FCF7DCFE6846FBF7CF
:105A30002FFE2C4B039369462B4B029304F14C0031
:105A40000094FFF7E6FE6846FBF722FE274B039320
:105A50006946274B029304F15C000094FFF7D9FEDE
:105A60006846FBF715FE234B03936946224B0293CE
:105A700004F12C000094FCF7B5FE6846FBF708FE25
:105A80001E4B039369461E4B029304F13C000094A5
:105A9000FCF7A8FE6846FBF7FBFDA0680023036047
:105AA00004F18C0393E80600FCF742FDFCF77AF85A
:105AB000D4F89C30A0681988A4F8A0109434FCF79E
:105AC000A3FD94E80600FCF733FDFCF76BF804B087
:105AD00010BD00BF9F570008CB0E0008FB57000801
