:020000040800F2
:1000000000000220E16A0008316B0008316B000833
:10001000316B0008316B0008316B000800000000F4
:10002000000000000000000000000000316B00082C
:10003000316B000800000000316B000881170008D8
:10004000811900088319000885190008871900081C
:10005000891900088B1900088D1900088F190008EC
:10006000911900089319000895190008451A00080D
:10007000611A00087D1A0008991A0008B51A0008CC
:10008000D11A0008ED1A00089719000899190008FC
:100090009B1900089D1900089F190008A119000864
:1000A000D5190008D7190008D9190008DB1900086C
:1000B000DD190008DF190008E1190008A31900087C
:1000C000A5190008A7190008A9190008051C0008AF
:1000D000111C0008F11900080D1A0008291A00085F
:1000E000AB190008AD190008AF190008E91900089C
:1000F000EB190008ED190008EF190008091B0008AA
:10010000B1190008B3190008E31900081D1C000804
:10011000B5190008B7190008E5190008E719000823
:10012000251B0008411B00085D1B0008791B000807
:10013000951B00080000000000000000B91900082D
:10014000BB190008BD190008BF190008C119000833
:10015000B11B0008CD1B0008E91B0008C3190008EB
:10016000C5190008C7190008C9190008CB190008EB
:10017000CD190008CF1900080000000000000000A1
:08018000D1190008D319000891
:1001900010B5054C237833B9044B13B10448AFF3C1
:1001A00000800123237010BD6800002000000000C3
:1001B0009C74000808B5034B1BB103490348AFF317
:1001C000008008BD000000006C0000209C74000846
:1001D000034613F8012B002AFBD1181A0138704787
:1001E00001F0FF01102A2BDB10F0070F08D010F8E8
:1001F000013B013A8B422DD010F0070F42B3F6D1EC
:10020000F0B441EA012141EA014122F007047FF004
:1002100000070023F0E80256083C85EA010586EA5B
:10022000010685FA47F5A3FA87F586FA47F6A5FA97
:1002300087F68EB9EED1F0BC01F0FF0102F00702A3
:1002400032B110F8013B013A83EA010313B1F8D14E
:100250000020704701387047002D06BF354603382F
:10026000073815F0010F07D1013015F4807F02BF68
:10027000013015F4C03F0130F0BC0138704700BFB9
:1002800081F0004102E000BF83F0004330B54FEA47
:1002900041044FEA430594EA050F08BF90EA020FB4
:1002A0001FBF54EA000C55EA020C7FEA645C7FEA47
:1002B000655C00F0E2804FEA5454D4EB5555B8BF6A
:1002C0006D420CDD2C4480EA020281EA030382EADB
:1002D000000083EA010180EA020281EA0303362D6D
:1002E00088BF30BD11F0004F4FEA01314FF4801C40
:1002F0004CEA113102D0404261EB410113F0004F52
:100300004FEA03334CEA133302D0524263EB430308
:1003100094EA050F00F0A780A4F10104D5F1200EA6
:100320000DDB02FA0EFC22FA05F2801841F1000101
:1003300003FA0EF2801843FA05F359410EE0A5F1D5
:1003400020050EF1200E012A03FA0EFC28BF4CF006
:10035000020C43FA05F3C01851EBE37101F00045BC
:1003600007D54FF0000EDCF1000C7EEB00006EEBC9
:100370000101B1F5801F1BD3B1F5001F0CD3490853
:100380005FEA30004FEA3C0C04F101044FEA4452AA
:1003900012F5800F80F09A80BCF1004F08BF5FEA31
:1003A000500C50F1000041EB045141EA050130BD11
:1003B0005FEA4C0C404141EB010111F4801FA4F1B4
:1003C0000104E9D191F0000F04BF01460020B1FA09
:1003D00081F308BF2033A3F10B03B3F120020CDA41
:1003E0000C3208DD02F1140CC2F10C0201FA0CF01F
:1003F00021FA02F10CE002F11402D8BFC2F1200C84
:1004000001FA02F120FA0CFCDCBF41EA0C01904039
:10041000E41AA2BF01EB0451294330BD6FEA040482
:100420001F3C1CDA0C340EDC04F11404C4F120026D
:1004300020FA04F001FA02F340EA030021FA04F37F
:1004400045EA030130BDC4F10C04C4F1200220FAD6
:1004500002F001FA04F340EA0300294630BD21FA14
:1004600004F0294630BD94F0000F83F4801306BFDA
:1004700081F480110134013D4EE77FEA645C18BFCE
:100480007FEA655C29D094EA050F08BF90EA020F65
:1004900005D054EA000C04BF1946104630BD91EA5D
:1004A000030F1EBF0021002030BD5FEA545C05D160
:1004B0004000494128BF41F0004130BD14F580049F
:1004C0003CBF01F5801130BD01F0004545F0FE4113
:1004D00041F470014FF0000030BD7FEA645C1ABF48
:1004E000194610467FEA655C1CBF0B46024650EA7F
:1004F000013406BF52EA033591EA030F41F40021AB
:1005000030BD00BF90F0000F04BF0021704730B530
:100510004FF4806404F132044FF000054FF0000105
:1005200050E700BF90F0000F04BF0021704730B5C6
:100530004FF4806404F1320410F0004548BF40429B
:100540004FF000013EE700BF42004FEAE2014FEAF0
:1005500031014FEA02701FBF12F07F4393F07F4FCB
:1005600081F06051704732F07F4208BF704793F0CE
:100570007F4F04BF41F40021704730B54FF46074E1
:1005800001F0004521F000411CE700BF50EA0102E4
:1005900008BF704730B54FF000050AE050EA01028D
:1005A00008BF704730B511F0004502D5404261EBFD
:1005B00041014FF4806404F132045FEA915C3FF43E
:1005C000D8AE4FF003025FEADC0C18BF03325FEADB
:1005D000DC0C18BF033202EBDC02C2F1200300FA8C
:1005E00003FC20FA02F001FA03FE40EA0E0021FAB1
:1005F00002F11444BDE600BF70B54FF0FF0C4CF49F
:10060000E06C1CEA11541DBF1CEA135594EA0C0F50
:1006100095EA0C0F00F0DEF82C4481EA030621EA8B
:100620004C5123EA4C5350EA013518BF52EA0335C6
:1006300041F4801143F4801338D0A0FB02CE4FF078
:100640000005E1FB02E506F00042E0FB03E54FF0A8
:100650000006E1FB03569CF0000F18BF4EF0010EA0
:10066000A4F1FF04B6F5007F64F5407404D25FEA9C
:100670004E0E6D4146EB060642EAC62141EA55514F
:100680004FEAC52040EA5E504FEACE2EB4F1FD0C91
:1006900088BFBCF5E06F1ED8BEF1004F08BF5FEA0F
:1006A000500E50F1000041EB045170BD06F00046C1
:1006B00046EA010140EA020081EA0301B4EB5C046E
:1006C000C2BFD4EB0C0541EA045170BD41F4801166
:1006D0004FF0000E013C00F3AB8014F1360FDEBF8B
:1006E000002001F0004170BDC4F10004203C35DA67
:1006F0000C341BDC04F11404C4F1200500FA05F3EA
:1007000020FA04F001FA05F240EA020001F000428A
:1007100021F0004110EBD37021FA04F642EB060100
:100720005EEA430E08BF20EAD37070BDC4F10C042A
:10073000C4F1200500FA04F320FA05F001FA04F2EE
:1007400040EA020001F0004110EBD37041F10001DA
:100750005EEA430E08BF20EAD37070BDC4F12005E5
:1007600000FA05F24EEA020E20FA04F301FA05F24D
:1007700043EA020321FA04F001F0004121FA04F2F5
:1007800020EA020000EBD3705EEA430E08BF20EAC5
:10079000D37070BD94F0000F0FD101F000464000FF
:1007A00041EB010111F4801F08BF013CF7D041EA81
:1007B000060195F0000F18BF704703F00046520085
:1007C00043EB030313F4801F08BF013DF7D043EA56
:1007D0000603704794EA0C0F0CEA135518BF95EA0C
:1007E0000C0F0CD050EA410618BF52EA4306D1D193
:1007F00081EA030101F000414FF0000070BD50EAB2
:10080000410606BF1046194652EA430619D094EA3B
:100810000C0F02D150EA013613D195EA0C0F05D125
:1008200052EA03361CBF104619460AD181EA030179
:1008300001F0004141F0FE4141F470014FF0000031
:1008400070BD41F0FE4141F4780170BD70B54FF0CC
:10085000FF0C4CF4E06C1CEA11541DBF1CEA13554C
:1008600094EA0C0F95EA0C0F00F0A7F8A4EB05042E
:1008700081EA030E52EA03354FEA013100F0888025
:100880004FEA03334FF0805545EA131343EA1263EE
:100890004FEA022245EA111545EA10654FEA0026A3
:1008A0000EF000419D4208BF964244F1FD0404F55C
:1008B000407402D25B084FEA3202B61A65EB0305B8
:1008C0005B084FEA32024FF480104FF4002CB6EB75
:1008D000020E75EB030E22BFB61A754640EA0C00F5
:1008E0005B084FEA3202B6EB020E75EB030E22BF35
:1008F000B61A754640EA5C005B084FEA3202B6EB76
:10090000020E75EB030E22BFB61A754640EA9C0034
:100910005B084FEA3202B6EB020E75EB030E22BF04
:10092000B61A754640EADC0055EA060E18D04FEAC2
:10093000051545EA16754FEA06164FEAC30343EA62
:1009400052734FEAC2025FEA1C1CC0D111F4801F2F
:100950000BD141EA00014FF000004FF0004CB6E728
:1009600011F4801F04BF01430020B4F1FD0C88BFC7
:10097000BCF5E06F3FF6AFAEB5EB030C04BFB6EBD2
:10098000020C5FEA500C50F1000041EB045170BDC5
:100990000EF0004E4EEA113114EB5C04C2BFD4EBF2
:1009A0000C0541EA045170BD41F480114FF0000E76
:1009B000013C90E645EA060E8DE60CEA135594EAF2
:1009C0000C0F08BF95EA0C0F3FF43BAF94EA0C0FF5
:1009D0000AD150EA01347FF434AF95EA0C0F7FF46A
:1009E00025AF104619462CE795EA0C0F06D152EABE
:1009F00003353FF4FDAE1046194622E750EA4106A2
:100A000018BF52EA43067FF4C5AE50EA41047FF4B2
:100A10000DAF52EA43057FF4EBAE12E74A0011D264
:100A200012F5001211D20DD56FF47873B3EB625248
:100A30000ED44FEAC12343F0004343EA505323FA54
:100A400002F070474FF00000704750EA013002D1C9
:100A50004FF0FF3070474FF000007047420901230C
:100A600000F01F0003FA00F0014B43F8220070472A
:100A700000E100E043690133436170477047036858
:100A8000D3F89820137883F0010313707047012A7C
:100A900003D0022A03D0002070470160FBE70B68F7
:100AA0000360F8E7012A03D0022A03D00020704730
:100AB0000160FBE70B680360F8E7012A03D0022A14
:100AC00003D0002070470160FBE70B680360F8E784
:100AD000012A03D0022A03D0002070470160FBE7FF
:100AE0000B680360F8E77047012A03D0022A03D09D
:100AF000002070470160FBE70B680360F8E7704770
:100B0000012A03D0022A03D0002070470160FBE7CE
:100B10000B680360F8E7012A03D0022A03D0002003
:100B200070470160FBE70B680360F8E7012A03D018
:100B3000022A03D0002070470160FBE70B680360C6
:100B4000F8E7012A03D0022A03D000207047016091
:100B5000FBE70B680360F8E7012A03D0022A03D001
:100B6000002070470160FBE70B680360F8E7012A8B
:100B700003D0022A03D0002070470160FBE70B6816
:100B80000360F8E7012A03D0022A03D0002070474F
:100B90000160FBE70B680360F8E7012A03D0022A33
:100BA00003D0002070470160FBE70B680360F8E7A3
:100BB000012A03D0022A03D0002070470160FBE71E
:100BC0000B680360F8E7012A03D0022A03D0002053
:100BD00070470160FBE70B680360F8E7012A03D068
:100BE000022A03D0002070470160FBE70B68036016
:100BF000F8E7012A03D0022A03D0002070470160E1
:100C0000FBE70B680360F8E7012A03D0022A03D050
:100C1000002070470160FBE70B680360F8E7012ADA
:100C200003D0022A03D0002070470160FBE70B6865
:100C30000360F8E7012A03D0022A03D0002070479E
:100C40000160FBE70B680360F8E7012A03D0022A82
:100C500003D0002070470160FBE70B680360F8E7F2
:100C6000012A03D0022A03D0002070470160FBE76D
:100C70000B680360F8E7012A03D0022A03D00020A2
:100C800070470160FBE70B680360F8E7012A03D0B7
:100C9000022A03D0002070470160FBE70B68036065
:100CA000F8E7012A03D0022A03D000207047016030
:100CB000FBE70B680360F8E7012A03D0022A03D0A0
:100CC000002070470160FBE70B680360F8E7012A2A
:100CD00003D0022A03D0002070470160FBE70B68B5
:100CE0000360F8E7012A03D0022A03D000207047EE
:100CF0000160FBE70B680360F8E7012A03D0022AD2
:100D000003D0002070470160FBE70B680360F8E741
:100D1000012A03D0022A03D0002070470160FBE7BC
:100D20000B680360F8E7012A03D0022A03D00020F1
:100D300070470160FBE70B680360F8E7012A03D006
:100D4000022A03D0002070470160FBE70B680360B4
:100D5000F8E7012A03D0022A03D00020704701607F
:100D6000FBE70B680360F8E7012A03D0022A03D0EF
:100D7000002070470160FBE70B680360F8E7012A79
:100D800003D0022A03D0002070470160FBE70B6804
:100D90000360F8E7012A03D0022A03D0002070473D
:100DA0000160FBE70B680360F8E7012A03D0022A21
:100DB00003D0002070470160FBE70B680360F8E791
:100DC000012A03D0022A03D0002070470160FBE70C
:100DD0000B680360F8E7012A03D0022A03D0002041
:100DE00070470160FBE70B680360F8E7012A03D056
:100DF000022A03D0002070470160FBE70B68036004
:100E0000F8E7012A03D0022A03D0002070470160CE
:100E1000FBE70B680360F8E7012A03D0022A03D03E
:100E2000002070470160FBE70B680360F8E7012AC8
:100E300003D0022A03D0002070470160FBE70B6853
:100E40000360F8E7012A03D0022A03D0002070478C
:100E50000160FBE70B680360F8E7012A03D0022A70
:100E600003D0002070470160FBE70B680360F8E7E0
:100E7000012A03D0022A03D0002070470160FBE75B
:100E80000B680360F8E7012A03D0022A03D0002090
:100E900070470160FBE70B680360F8E7012A03D0A5
:100EA000022A03D0002070470160FBE70B68036053
:100EB000F8E77047012A08BF016000207047012A47
:100EC00008BF016000207047012A03D0022A03D026
:100ED000002070470160FBE70B680360F8E7012A18
:100EE00008BF016000207047012A08BF0160002090
:100EF0007047C3690133C3617047704770477047DB
:100F00007047704770477047012A03D0022A03D008
:100F1000002070470160FBE70B680360F8E7012AD7
:100F200003D0022A03D0002070470160FBE70B6862
:100F30000360F8E7012A03D0022A03D0002070479B
:100F40000160FBE70B680360F8E7012A03D0022A7F
:100F500003D0002070470160FBE70B680360F8E7EF
:100F6000012A03D0022A03D0002070470160FBE76A
:100F70000B680360F8E7012A03D0022A03D000209F
:100F800070470160FBE70B680360F8E7012A03D0B4
:100F9000022A03D0002070470160FBE70B68036062
:100FA000F8E7012A03D0022A03D00020704701602D
:100FB000FBE70B680360F8E7012A03D0022A03D09D
:100FC000002070470160FBE70B680360F8E7012A27
:100FD00003D0022A03D0002070470160FBE70B68B2
:100FE0000360F8E7012A03D0022A03D000207047EB
:100FF0000160FBE70B680360F8E7012A03D0022ACF
:1010000003D0002070470160FBE70B680360F8E73E
:10101000012A03D0022A03D0002070470160FBE7B9
:101020000B680360F8E7012A03D0022A03D00020EE
:1010300070470160FBE70B680360F8E7012A03D003
:10104000022A03D0002070470160FBE70B680360B1
:10105000F8E7012A03D0022A03D00020704701607C
:10106000FBE70B680360F8E7012A03D0022A03D0EC
:10107000002070470160FBE70B680360F8E7012A76
:1010800003D0022A03D0002070470160FBE70B6801
:101090000360F8E7012A03D0022A03D0002070473A
:1010A0000160FBE70B680360F8E7012A03D0022A1E
:1010B00003D0002070470160FBE70B680360F8E78E
:1010C000012A03D0022A03D0002070470160FBE709
:1010D0000B680360F8E7012A03D0022A03D000203E
:1010E00070470160FBE70B680360F8E7012A03D053
:1010F000022A03D0002070470160FBE70B68036001
:10110000F8E7012A03D0022A03D0002070470160CB
:10111000FBE70B680360F8E7012A03D0022A03D03B
:10112000002070470160FBE70B680360F8E7012AC5
:1011300003D0022A03D0002070470160FBE70B6850
:101140000360F8E7012A03D0022A03D00020704789
:101150000160FBE70B680360F8E7012A03D0022A6D
:1011600003D0002070470160FBE70B680360F8E7DD
:10117000012A03D0022A03D0002070470160FBE758
:101180000B680360F8E7012A03D0022A03D000208D
:1011900070470160FBE70B680360F8E7012A03D0A2
:1011A000022A03D0002070470160FBE70B68036050
:1011B000F8E7012A03D0022A03D00020704701601B
:1011C000FBE70B680360F8E7012A03D0022A03D08B
:1011D000002070470160FBE70B680360F8E7012A15
:1011E00003D0022A03D0002070470160FBE70B68A0
:1011F0000360F8E7012A03D0022A03D000207047D9
:101200000160FBE70B680360F8E7012A03D0022ABC
:1012100003D0002070470160FBE70B680360F8E72C
:1012200070B50546006803680C469B6898472368BC
:101230002C6020461B68BDE870401847006800F528
:10124000CC719030FFF7ECBF006800F1F8019030EE
:10125000FFF7E6BF006800F524719030FFF7E0BFAC
:101260000168D1F880305B7D01F190001BB101F580
:101270009661FFF7D5BF01F58061FAE7006800F5D8
:1012800057719030FFF7CCBF006800F6C421903052
:10129000FFF7C6BF006800F6FC119030FFF7C0BF33
:1012A000006800F5CC719030FFF7BABF006800F21B
:1012B0000C619030FFF7B4BF006800F2B461903069
:1012C000FFF7AEBF006800F5EB619030FFF7A8BFF5
:1012D000006800F5CC719030FFF7A2BF006890F86D
:1012E0005833D0F88020003318BF012300F5CC71AB
:1012F00013759030FFF794BF006800F5CC71903003
:10130000FFF78EBF006800F264519030FFF788BF8E
:101310000068D0F88030012200F1F8015A75903051
:10132000FFF77EBF006800F5CC719030FFF778BF03
:10133000006800F264519030FFF772BF0068D0F887
:101340008030002200F1F8015A759030FFF768BF35
:101350000168D1F880305B7D01F190001BB101F58F
:101360009661FFF75DBF01F58061FAE7016891F8CA
:101370006035D1F88020003318BF0123D374D1F831
:1013800080305B7D01F190001BB101F59661FFF7A4
:1013900047BF01F58061FAE7006800F524719030DD
:1013A000FFF73EBF0068D0F8803090F808261A7426
:1013B00000F524719030FFF733BF006800F5247109
:1013C0009030FFF72DBF0068D0F88030B0F8B0261D
:1013D0001A8100F524719030FFF722BF006800F5F4
:1013E000CC719030FFF71CBF006800F502619030AF
:1013F000FFF716BF006800F50B619030FFF710BFD4
:10140000006800F658119030FFF70ABF006800F539
:10141000EB619030FFF704BF006800F5EB6190309E
:10142000FFF7FEBE0068D0F8803090F8AC285A7400
:1014300000F5EB619030FFF7F3BE006800F5EB615B
:101440009030FFF7EDBE0068D0F8803090F8542956
:101450009A7400F5EB619030FFF7E2BE006800F58A
:10146000CC719030FFF7DCBE006800F5CC71903095
:10147000FFF7D6BE0B1A9B10002B10DD027812B3BB
:1014800042780AB90130704782780AB90230704751
:10149000C2780AB9033070470430013BECE70B1AFD
:1014A000022B0BD0032B06D0012B0BD10378002B82
:1014B00018BF0846704703782BB10130037813B189
:1014C0000130F3E7084670470B1A9B10002B10DD24
:1014D000027812BB42780AB10130704782780AB1B3
:1014E00002307047C2780AB1033070470430013BC4
:1014F000ECE70B1A022B0BD0032B06D0012B0BD1E0
:101500000378002B08BF0846704703782BB90130D9
:10151000037813B90130F3E708467047FFF79EBA26
:10152000036813B90160704713465A68002AFBD15B
:101530005960704710B504462CB1236820461B68DB
:1015400098476468F8E710BDA8235943037A43B16C
:101550000F4B9B680360994224BFCB1A4360002362
:10156000037203680A4A994207D892689B1A994203
:101570000CD8012303720020704791688B4205D874
:10158000536892689B1A42689342F2D201207047D6
:1015900010E000E0D0F894203221531CC0F89430C1
:1015A000B2FBF1F301FB132323B9D0F890000368D9
:1015B0005B681847704770470A1A02D0202105F06F
:1015C00012BB7047704770470369002BBFBF034BC6
:1015D000436003F188334360704700BF23016745D0
:1015E000D0E9002101238B4093617047D0E90012BC
:1015F0000123103293408B617047036810B5044695
:101600009869FFF7F3FFC8216068FFF79DFF002886
:10161000F9D123689869FFF7E3FFC8216068FFF7F5
:1016200093FF0028F9D110BD38B503680446186946
:101630000D46FFF7DBFF23686068DA699B6A53F8A1
:1016400035309361FFF7D9FF23686068996ADA69DA
:1016500001EBC5014B689361FFF7CFFF6421A068E0
:10166000FFF772FF0028F9D138BD0000437B012B42
:1016700010B5044622D002D3022B2AD010BD4069F7
:10168000FFF7B4FF2069FFF7ABFF626B206A531CC2
:1016900050216363B2FBF1F301FB1323114A52F8AB
:1016A0002330C25C636A03EBC20053F83210E26974
:1016B00043689161E36201236373DFE78069FFF7A9
:1016C0008FFFA069FFF792FFE369E26A9A61022344
:1016D000F2E78069FFF784FFA069FFF787FF002327
:1016E000EAE700BF40760008036841681A690123F1
:1016F0008B40134214BF01200020704710B50468CE
:101700002CB1236820461B689847A468F8E710BDF1
:1017100010B58368044613B103220146984720465A
:1017200010BD000010B5064B044640F8243BFFF7FF
:10173000EFFF04F11400FFF7EBFF204610BD00BFE0
:101740000875000810B5044B044640F8303BFFF71D
:10175000DFFF204610BD00BF508B000810B50446C7
:101760000830FFF7CBFFD4E90421531C2361B2FBFF
:10177000F1F301FB132313B92046FFF7BFFF10BDA0
:101780000148FFF7EBBF00BF240600204269036950
:101790009A424FF0000326BF43610120184670476C
:1017A000037BC3B100230373D0E901236AB143B1C2
:1017B000936083685A600023C0E9013370470B606F
:1017C000F8E7054993604A60F5E70349002BF6D135
:1017D000C1E90033EFE77047240600200022426190
:1017E000FFF7DEBF037B53B901230373044B5A6831
:1017F000426002B190601A68586002B91860704780
:101800002406002080680269D2F818311B68DB06C4
:1018100011D5D2F820315B6800219BB2C2F80011CB
:10182000C3F1FF01FF2928BFFF21FF2BC2F80411DC
:1018300001D0FFF7D7BF70470A2A10B501D00F2A91
:1018400015D1204B9A68C2F34232D2B1042A1AD081
:10185000052A1AD01C4B1D4C062A08BF234607290F
:101860001AD8DFE801F0141A1D202326292C0B3A80
:10187000032A04D8134B9A68C2F38222E5E70023B7
:10188000EDE7134BEBE7134BE9E7134BE7E74FF4B7
:101890001652B3FBF2F3836010BD4FF46152F8E7C8
:1018A0004FF49642F5E74FF4E142F2E74FF4164267
:1018B000EFE74FF46142ECE74FF49632E9E74FF47B
:1018C000E132E6E700380240A037A000406F400157
:1018D000007A030A00BD010580DE800219B90068A4
:1018E000C0F340107047012903D10068C0F3C02045
:1018F0007047022903D10068C0F3405070470329A4
:1019000003D10068C0F3C0607047042901D140686A
:10191000E6E7052901D14068E8E7062901D14068DA
:10192000EAE7072901D14068ECE700207047012968
:1019300003D1006A00F001007047022903D1006A58
:10194000C0F300107047032903D1006AC0F30020E0
:101950007047042906BF006AC0F3003000207047BA
:10196000012901D142637047022901D18263704786
:10197000032901D1C2637047042908BF026470477C
:10198000FEE7FEE7FEE7FEE7FEE7FEE7FEE7FEE72F
:10199000FEE7FEE7FEE7FEE7FEE7FEE7FEE7FEE71F
:1019A000FEE7FEE7FEE7FEE7FEE7FEE7FEE7FEE70F
:1019B000FEE7FEE7FEE7FEE7FEE7FEE7FEE7FEE7FF
:1019C000FEE7FEE7FEE7FEE7FEE7FEE7FEE7FEE7EF
:1019D000FEE7FEE7FEE7FEE7FEE7FEE7FEE7FEE7DF
:1019E000FEE7FEE7FEE7FEE7FEE7FEE7FEE7FEE7CF
:1019F00008B5044B1868FFF79DFD034B1A685B6838
:101A000008BD00BF040600200010014008B5044BCB
:101A10001868FFF78FFD034B1A685B6808BD00BFAD
:101A20000C0600200044004008B5044B1868FFF77E
:101A300081FD034B1A685B6808BD00BF14060020D7
:101A40000048004008B5044B1868FFF773FD034BCE
:101A50003D229A6008BD00BF6C0500200060024076
:101A600008B5044B1868FFF765FD034B4FF474622B
:101A70009A6008BD740500200060024008B5044B60
:101A80001868FFF757FD034B4FF474129A6008BDB6
:101A90007C0500200060024008B5044B1868FFF781
:101AA00049FD034B4FF074629A6008BD8405002025
:101AB0000060024008B5044B1868FFF73BFD034B7C
:101AC0004FF47462DA6008BD8C05002000600240AB
:101AD00008B5044B1868FFF72DFD034B4FF47462F3
:101AE000DA6008BD940500200060024008B5044B90
:101AF0001868FFF71FFD034B4FF47412DA6008BD3E
:101B00009C0500200060024008B5044B1868FFF7F0
:101B100011FD034B4FF07462DA6008BDA40500208C
:101B20000060024008B5044B1868FFF703FD034B43
:101B30003D229A6008BD00BFAC0500200064024051
:101B400008B5044B1868FFF7F5FC034B4FF47462BB
:101B50009A6008BDB40500200064024008B5044B3B
:101B60001868FFF7E7FC034B4FF474129A6008BD46
:101B7000BC0500200064024008B5044B1868FFF75C
:101B8000D9FC034B4FF074629A6008BDC405002075
:101B90000064024008B5044B1868FFF7CBFC034B08
:101BA0003D22DA6008BD00BFCC0500200064024081
:101BB00008B5044B1868FFF7BDFC034B4FF4746283
:101BC000DA6008BDD40500200064024008B5044B6B
:101BD0001868FFF7AFFC034B4FF47412DA6008BDCE
:101BE000DC0500200064024008B5044B1868FFF7CC
:101BF000A1FC034B4FF07462DA6008BDE4050020DD
:101C000000640240014B1868FFF794BCEC0500200B
:101C1000014B1868FFF78EBCF4050020014B1868D3
:101C2000FFF788BCFC050020026810B5541C024474
:101C30000460517204685021B4FBF1F201FB1242BE
:101C4000026010BD10B504681421B4FBF1F201FB71
:101C50001242034612B92021FFF7E6FF1424196847
:101C6000B1FBF4F204FB121222B120211846FFF757
:101C7000DBFFF4E7184610BD08B503461A6822B129
:101C800020211846FFF7D0FFF8E7184608BD38B501
:101C900005460C46084609B1FEF79AFAC5E9000464
:101CA000284638BD10B514240368B3FBF4F304FBD5
:101CB00003115024B1FBF4F304FB1311016010BDB8
:101CC00038B50468D4F8AC30F3B1013BC4F8AC309B
:101CD000D4F8A830606814256B4303600F21FFF728
:101CE000E1FF2021FFF7A0FFD4F8A8306068013B96
:101CF0005D43C4F8A8300F210560FFF7D3FF7E21B4
:101D0000BDE83840FFF790BF38BD38B50468D4F857
:101D1000AC30012B1ED00133C4F8AC30D4F8A8305D
:101D2000606814256B4303600F21FFF7BBFF202180
:101D3000FFF77AFFD4F8A830606801335D43C4F838
:101D4000A8300F210560FFF7ADFF7E21BDE83840C8
:101D5000FFF76ABF38BD437A70B5054600F10C063F
:101D60002BB100234372C1613046FFF73BFD304683
:101D7000FFF70CFD012428B13046FFF72FFD6C72F0
:101D8000002070BD2046FCE770B58EB005AD002385
:101D9000CDE901500C93CDE90533CDE909330B931F
:101DA000394E0D930123044608968DF81D308DF8A9
:101DB0001C300090CDF80CD0049564212846FFF724
:101DC000CAFF0028F9D12069FFF710FC6069FFF70E
:101DD0000DFCA069FFF704FCA26AE369D2699A616D
:101DE0006846FFF70AFC05212846FFF7B4FF0028E4
:101DF000F9D1A26AE369D2699A616846FFF7FDFBEF
:101E000064212846FFF7A0FB0028F9D1A26AE36904
:101E1000D2699A616846FFF7F0FB32212846FFF746
:101E200093FB0028F9D1A26AE36952699A61684676
:101E3000FFF7E3FB32212846FFF786FB0028F9D1A4
:101E4000282102A8FFF7F0FB0C2102A8FFF7ECFB0A
:101E5000062102A8FFF7E8FB012102A8FFF7E4FB37
:101E6000802102A8FFF7E0FB01212846FFF773FF5E
:101E70000028F9D10EA8012384F8303040F8186DFD
:101E8000FFF78EFC0EB070BDD474000803888B423F
:101E90001AD040F60223994216D901800B4BB3FBAE
:101EA000F1F143680139D8691A6849081981D1628A
:101EB00001891A8B4FF47A734A43817A92FBF3F2C9
:101EC000006892B2FFF74CBD704700BF007A030A6A
:101ED00008B50388194489B2FFF7D8FF08BD08B5D3
:101EE0000368D3F8942012781AB1D3F88C201278B2
:101EF00062B9D3F890201278002A14BF0A21002179
:101F0000D3F89C001030FFF7E3FF08BD0A21F7E784
:101F100008B50368D3F8942012781AB1D3F88C204E
:101F200012786AB9D3F890201278002A14BF6FF0A3
:101F300009010021D3F89C001030FFF7C9FF08BD4C
:101F40006FF00901F6E702888A4210B50B460FD000
:101F50004468E2898A420BD3228901804A4320687F
:101F60004FF47A7192FBF1F2A17A92B2FFF7F8FC8A
:101F7000184610BD10B504468068A3691B7D183053
:101F800073B1B4F87E10FFF7DEFF04232370A3695A
:101F9000A068DA7C103042B19989FFF777FF10BD55
:101FA0006421FFF7D0FF0523F0E7D989F5E7817AAF
:101FB0000068FFF7BCBC10B504465030FFF7A8FB23
:101FC00004F14000FFF7A4FB04F13000FFF7A0FB91
:101FD00004F12000FFF79CFB04F11000FFF798FBD1
:101FE0002046FFF795FB204610BD21B9036962F337
:101FF000020303617047012903D1036962F3C5033A
:10200000F7E7022903D1036962F38813F1E7032993
:1020100003D1036962F34B23EBE7042903D103697E
:1020200062F30E33E5E7052903D1036962F3D13387
:10203000DFE7062903D1036962F39443D9E707294F
:1020400003D1036962F35753D3E7082903D1036926
:1020500062F31A63CDE7092903D1036962F3DD63F3
:10206000C7E70A2904D1C36862F30203C36070475B
:102070000B2903D1C36862F3C503F7E70C2903D129
:10208000C36862F38813F1E70D2903D1C36862F3D3
:102090004B23EBE70E2903D1C36862F30E33E5E768
:1020A0000F2903D1C36862F3D133DFE7102903D1CD
:1020B000C36862F39443D9E7112903D1C36862F37B
:1020C0005753D3E71229D2D1C36862F31A63CDE71D
:1020D000012904D1436B62F304034363704702296F
:1020E00003D1436B62F34913F7E7032903D1436B31
:1020F00062F38E23F1E7042903D1436B62F3D333F8
:10210000EBE7052903D1436B62F31853E5E7062992
:1021100003D1436B62F35D63DFE7072904D1036BEF
:1021200062F3040303637047082903D1036B62F36E
:102130004913F7E7092903D1036B62F38E23F1E713
:102140000A2903D1036B62F3D333EBE70B2903D1E5
:10215000036B62F31853E5E70C2903D1036B62F3B9
:102160005D63DFE70D2904D1C36A62F30403C36230
:1021700070470E2903D1C36A62F34913F7E70F29A9
:1021800003D1C36A62F38E23F1E71029F0D1C36A49
:1021900062F3D333EBE7436A1A6842F001021A6034
:1021A0001A68D107FCD5036A9A6842F001029A6066
:1021B0009A68D207FCD59A6842F080429A607047CC
:1021C000204B1A68052161F302021A60A3F58063AF
:1021D0001A6842F480321A601A689203FCD59A6831
:1021E0006FF307129A609A68052161F38C229A6056
:1021F0009A68042161F34F329A609A68022060F372
:1022000001029A605A6861F305025A605A68A8216F
:1022100061F38E125A605A68072161F31B625A609B
:102220005A686FF311425A605A6842F480025A6049
:102230001A6842F080721A60034A13689B01FCD549
:10224000704700BF003C024000380240754A7649A2
:10225000F8B5136813F0010F70D1744B744C186803
:1022600010F0010F06D1DFF8E0E10920C4E900E039
:10227000012018606F4B186B40F001001863206854
:102280000568022666F393450560456A072666F3EE
:1022900007154562684D286810F0010F674806D1A0
:1022A000DFF8A4C10A26C0E900C601262E601D6B16
:1022B00045F001051D6303681D68022666F3155588
:1022C0001D605D6A072666F30B255D625C4D2B6819
:1022D00013F0010F5B4B05D15B4F0C26C3E9007671
:1022E00001262E60534E356B45F0010535631E689F
:1022F0003768012565F319673760C1F81031534B12
:10230000C1F81431A3F5AA33C1F8183103F5AA3383
:10231000B833C1F81C31783BC1F820310A230026BC
:10232000C1F824310723C1F80061C1F80461C1F884
:102330000841C1F80C0181F8283115603D4C636CEF
:1023400043F010036364D1F81831DA6842F00802F0
:10235000DA60DA6842F00402DA605A6942F0800218
:102360005A615A6942F040025A61394B93F90400AC
:10237000FFF7D4F8236B43F480032363D1F81C31B7
:102380001A68012060F387121A60D1F800210A440C
:10239000DA60D1F8182104329A601A6842F4806237
:1023A0001A601A686FF34E321A601A686FF3CC2203
:1023B0001A601A6842F010021A60264B93F9040062
:1023C000FFF7ACF8D1F820311A686FF387121A6062
:1023D000D1F800210A44DA60D1F8182104329A6059
:1023E000FF225A601A6842F480621A601A686FF31A
:1023F0004E321A601A686FF3CC221A601A6842F4DF
:1024000080721A60D1F820311A68042060F35B6290
:102410001A60D1F81C311A6860F35B621A600248D6
:10242000F8BD00BFF4020020F80200203C040020A8
:102430004004002000380240300400203404002012
:102440002404002028040020000002400064024010
:1024500004060020E405002070B5294E294B32689F
:1024600012F0010F2DD128490A6812F0010F274AF6
:1024700005D1274D0924C2E9005401240C60254CE4
:10248000216B41F00401216311680C68022565F39A
:1024900093440C604C6A65F307144C621E49D88162
:1024A000C3E900124FF6FF721A8104229A724FF4A8
:1024B00080529A8100221A821A8301225B61DB61B9
:1024C0003260144915480A6C42F002020A641B6823
:1024D000DA69062161F30E32DA61DA6942F40062E8
:1024E000DA611A6842F080021A601A6842F001024A
:1024F0001A6040F60321FFF7C9FC024870BD00BF17
:102500002402002028020020480200204C02002063
:102510000008024000380240000400403802002059
:1025200040490B6813F0010F70B53F4C56D13F4B3B
:102530003F481A6812F0010F06D1DFF810E10622B9
:10254000C0E900E201221A603A4B1A6B42F0040221
:102550001A6302681568022666F30D351560156A60
:10256000032666F31B651562334D2A6812F0010FCE
:10257000324A06D1DFF8D4C00726C2E900C60126D8
:102580002E601D6B45F004051D6313681D6802264F
:1025900066F38F351D601D6A032666F31F751D6285
:1025A0000023C4E9013323732361E361E36284F808
:1025B000343084F8353003F18043C4E90E0203F56A
:1025C000823319481E4D23642560FFF70BF9012360
:1025D0000B601C4A1C49144804F0ABFA154A124817
:1025E000536C43F002035364236C9A68032161F334
:1025F00002029A609A69012161F301029A619A6963
:1026000061F309229A611A6A42F002021A621A6A96
:102610006FF3C3021A6200225A621A680A431A60F0
:1026200070BD00BFC4010020C801002018020020B6
:102630001C020020003802400C0200201002002082
:102640000875000800000020251700080008024057
:1026500010B50C1A134605D001462246184604F060
:10266000A9FA0346181910BD2DE9F34702AB03E997
:1026700006000768037A00F109080646DDE900450F
:1026800008EB070263B3132C22D8C4F1140902EB40
:10269000590910464946FEF78FFF29194A46284630
:1026A000FFF7D6FF09EB040A07F114014144504635
:1026B000FEF782FF336850211433B3FBF1F201FBC4
:1026C0001233336000233046337202B0BDE8F08726
:1026D000143C05EB540000F11401FFF7B9FFE9E7E2
:1026E000C7F15001A14205EB040907D94946284624
:1026F000FFF7AEFF306804443460E3E7294428461E
:10270000FFF7A6FF3368A4F150071F44E41B2C44D5
:10271000502F2046424604F1500404D92146FFF7C9
:1027200097FF503FF4E74946FFF792FF3368502286
:102730001F44B7FBF2F302FB13773760C2E70000D8
:1027400030B589B00A460446114905A804F050FB8B
:1027500005A901A8FFF79BFA6368019A934208D97B
:102760009B1A13F1FF3304D320212046FFF75CFAB4
:10277000F7E703AD05A92846FFF789FA95E80600B3
:102780002046FFF771FF00232046636009B030BD8B
:10279000B2790008F8B505460F464FF47A7691FBFA
:1027A000F6F42146FFF7CCFF2E212846FFF73CFA2E
:1027B00006FB14740A2394FBF3F4092C08DC0021B3
:1027C0002846FFF7BDFF2146FFF7BAFF2846F8BDB0
:1027D00021462846F8E70000F7B50546406802267E
:1027E0000660D5F880301988FFF7D4FF6C4607469D
:1027F00027492046FFF74BFA94E806003846FFF7D2
:1028000033FF68680D23C0E90036EB6F1988052394
:10281000B1FBF3F1FFF794FF2521FFF705FAD5F897
:1028200088306E681A7814233360EAB1194920465B
:10283000FFF72DFA94E806003046FFF715FF6868A9
:102840001E220223C0E90023AB6F1988FFF778FF2F
:10285000114905462046FFF71AFA94E80600284673
:10286000FFF702FF03B0F0BD0C492046FFF70FFA57
:1028700094E806003046FFF7F7FE68681623036009
:10288000D5F884301988FFF785FF05490646CEE75D
:10289000987900089C790008AA790008A5790008B1
:1028A000A879000838B5002383608B6804460D467C
:1028B0002BB102229847EB68E360AB68A360204627
:1028C00038BD38B5002383608B6804460D462BB1B4
:1028D00002229847EB68E360AB68A360204638BDEE
:1028E00038B504460D46FFF7DDFF05F1100104F190
:1028F0001000FFF7D7FF05F1200104F12000FFF7DA
:10290000D1FF05F1300104F13000FFF7CBFF05F1F5
:10291000400104F14000FFF7D4FF05F1500104F13C
:102920005000FFF7CEFF204638BD38B50023836046
:102930008B6804460D462BB102229847EB68E36092
:10294000AB68A360204638BD826810B50AB904F0B0
:10295000F5F8C368BDE81040184730B585B00446A7
:102960000025694608300295FFF7EEFF6846FEF73E
:10297000CFFE694604F118000295FFF7E5FF6846AF
:10298000FEF7C6FE694604F138000295FFF7DCFF4A
:102990006846FEF7BDFE05B030BD30B585B00446D3
:1029A0000025694628300295FFF7CEFF6846FEF7FE
:1029B000AFFE694604F108000295FFF7C5FF6846BF
:1029C000FEF7A6FE694604F118000295FFF7BCFF6A
:1029D0006846FEF79DFE694604F138000295FFF750
:1029E000B3FF6846FEF794FE05B030BD30B585B044
:1029F00004460025694608300295FFF7A5FF6846A2
:102A0000FEF786FE694604F118000295FFF79CFF69
:102A10006846FEF77DFE694604F128000295FFF73F
:102A200093FF6846FEF774FE694604F1380002958C
:102A3000FFF78AFF6846FEF76BFE05B030BD30B584
:102A400085B004460025694608300295FFF77CFFF3
:102A50006846FEF75DFE694604F118000295FFF72F
:102A600073FF6846FEF754FE694604F1280002959C
:102A7000FFF76AFF6846FEF74BFE694604F138002F
:102A80000295FFF761FF6846FEF742FE05B030BDD4
:102A900030B585B004460025694608300295FFF739
:102AA00053FF6846FEF734FE694604F118000295AC
:102AB000FFF74AFF6846FEF72BFE694604F128003F
:102AC0000295FFF741FF6846FEF722FE694604F1D2
:102AD00038000295FFF738FF6846FEF719FE05B08B
:102AE00030BD00001FB5224B009004466946039399
:102AF0000830204B0293FFF727FF6846FEF708FED9
:102B00001D4B039369461D4B029304F1180000947A
:102B1000FFF71AFF6846FEF7FBFD194B0393694662
:102B2000184B029304F138000094FFF70DFF68463C
:102B3000FEF7EEFD60680023036004F1780393E87C
:102B40000600FFF791FDFFF77DF86068142303602E
:102B5000D4F888301988FFF7F3FD04F1800393E877
:102B60000600FFF781FD6068FFF786F804B010BD2E
:102B7000E70A0008E90A0008FF0A0008010B00083C
:102B8000672D0008170B0008F0B585B06C464B4B5D
:102B900000900546214603932830494B0293FFF7E6
:102BA000D3FE2046FEF7B4FD464B03932146464B29
:102BB000029305F108000095FFF7C6FE2046FEF7D8
:102BC000A7FD424B03932146414B029305F11800A8
:102BD0000095FFF7B9FE2046FEF79AFD3D4B0393A3
:102BE00021463D4B029305F138000095FFF7ACFEFE
:102BF0002046FEF78DFD6E68384F06F1590106F14B
:102C00000900FEF7D9FC002333606E683449336055
:102C10002046FFF73CF894E806003046FFF724FD15
:102C20006E6830490B2333602046FFF730F894E894
:102C300006003046FFF718FD6E682B4914233360F9
:102C40002046FFF724F894E806003046FFF70CFD15
:102C500068681E220223C0E90023AB6F1988FFF7C2
:102C60006FFD224906462046FFF711F894E806005A
:102C70003046FFF7F9FC6E6822233360D5F89430B4
:102C80001B78204657F82310FFF701F894E8060058
:102C90003046FFF7E9FC6E6823233360D5F89030A7
:102CA0001B78204657F82310FEF7F1FF94E8060042
:102CB0003046FFF7D9FC05B0F0BD00BF7F0A000821
:102CC0008F0A0008DF1E0008A50A0008111F00086F
:102CD000BB0A0008732D0008D10A0008807900089B
:102CE000AC790008AF790008A5790008AA79000836
:102CF000826810B50AB903F021FFC368BDE810402F
:102D0000184708B5036C0269596AC1F34E018A423B
:102D10000DDA90F8341051B95B6A0122C3F34E0307
:102D200080F8342003612430FFF7E2FF08BD596AC0
:102D3000C1F34E018A4202DD90F8351051B15B6A51
:102D4000C3F34E039A42F1D1002380F8343080F867
:102D50003530EBE75B6A0122C3F34E0380F8352080
:102D600003611430E0E708B500686830FFF7C0FF82
:102D700008BD08B500686830FFF7BAFF08BD70B538
:102D8000816800220B4613B19A605B68FBE7D0E9CB
:102D9000042302EB43050B469542144609D02688CE
:102DA0009C6834449C605B680232002B08BF0B4671
:102DB000F2E7836B13B13030FFF79AFF70BD006804
:102DC00008B5D0F89C30B0F8A0201A80D0F8843034
:102DD0001BB17C30FFF78CFF08BD6C30FAE708B5FB
:102DE00000686C30FFF784FF08BD08B50368D3F8AE
:102DF0009C2093F8A03013700068D0F884301BB189
:102E00007C30FFF775FF08BD6C30FAE708B5006845
:102E10006C30FFF76DFF08BD08B50368D3F89C2040
:102E200093F8A03013700068D0F884301BB17C3068
:102E3000FFF75EFF08BD6C30FAE708B500686C303C
:102E4000FFF756FF08BD08B50368D3F8AC00182299
:102E500002FB00308030FFF74BFF08BD08B500686B
:102E60006830FFF745FF08BD08B50368D3F89C201C
:102E700093F8A03013700068D0F884301BB17C3018
:102E8000FFF736FF08BD6C30FAE708B500686C3014
:102E9000FFF72EFF08BD08B50368D3F8C400182259
:102EA00002FB00308030FFF723FF08BD08B5006843
:102EB0006830FFF71DFF08BD08B50368D3F8F400BC
:102EC000182202FB00308030FFF712FF08BD08B562
:102ED00000686830FFF70CFF08BD000038B5354DBD
:102EE000354C2B6813F001031DD1344A2260344A5B
:102EF000226202F5A2321032C4E90603626231484E
:102F0000636022222146C4E90233C4E90433A0628B
:102F1000E262A363FEF704FB01232B4A2B492B60DB
:102F2000204603F006FE2A4A536C43F48073536430
:102F3000236A59686FF319615960996841F0020179
:102F40009960996841F480719960996841F40071C1
:102F50009960596841F480715960116B41F48001A6
:102F6000116303F14C02636A9A601A686FF3871267
:102F70001A601A68012161F34E321A601A6861F30F
:102F8000CC221A601A6842F480621A601A6842F011
:102F900010021A601A6842F480721A601A686FF39D
:102FA0005B621A60A36A93F90400FEF7B7FA02485D
:102FB00038BD00BF8001002084010020508B000834
:102FC00000200140AC05002000000020451700084B
:102FD0000038024038B504460025C0F80051C0F85A
:102FE0000451D0F81001FEF701FBD4F81C311A6827
:102FF00065F300021A60D4F820311A6865F3000204
:103000001A60FF225A60D4F820311A6842F0010297
:103010001A601A68D207FCD5D4F81821D36843F097
:103020001003D36038BD08B583681A6992F8281177
:10303000D2F81401FEF752FC10B11869FFF7CAFF6D
:1030400008BD10B50468A14207D1516001B10A6002
:103050004368026003B9426010BD41B94368136020
:1030600003B15A604260002CF6D10260F4E70B68AD
:10307000C2E900310A6013685A60EDE730B50468B0
:10308000164B6CB1D3F8002154F8045D043A521B7E
:103090009D18AC421ABF012283F80421C3F8002115
:1030A0004268114441600E4AD3F80051914294BFE6
:1030B00049004FF0FF312C1D0C44B4F5807F03EB29
:1030C0000502C3F8004107D893F8044124B90AB1B6
:1030D00059510432026030BD0022FBE76404002035
:1030E000FCFFFF3F70B5304D304B2A6812F0010FE6
:1030F00004461BD12E490A6812F0010F2D4A05D152
:103100002D4E0220C2E90060012008602B48016BAF
:1031100041F0010101631068016841F03001016074
:103120000021C3E90011DA6001222A60E26A206A04
:10313000223A022A34BF02250025EEB20722314688
:103140001D61FEF752FFE169206A0131E1613246FB
:10315000FEF7BEFFD4E90732D16A013B63F3175192
:10316000D162A16804F1080021B10B699D4201DB25
:103170004968F9E70D4AFFF764FFA16904F11000FF
:10318000FFF77CFF636A1A686FF300021A60226916
:10319000DA60A28A5A601A6842F001021A601A685C
:1031A000D207FCD5014870BD380100203C01002049
:1031B000500100205401002000000240003802406D
:1031C00070B5304D304B2A6812F0010F04461BD108
:1031D0002E48026812F0010108BF2D4E2D4A02BF91
:1031E000C2E90061012101602B48016B41F002013D
:1031F00001631068016841F0030101600021C3E927
:103200000011DA6001222A60E26A206A223A022A68
:1032100034BF08250025EEB2072231461D61FEF7B6
:10322000E4FEE169206A0131E1613246FEF750FFB8
:10323000D4E90732D16A013B63F31751D162A16827
:1032400004F1080021B10B699D4201DB4968F9E7EF
:103250000D4AFFF7F6FEA16904F11000FFF70EFF1B
:10326000636A1A686FF300021A602269DA60A28A40
:103270005A601A6842F001021A601A68D207FCD537
:10328000014870BD14010020180100202C0100200D
:1032900000040240300100200038024038B500230D
:1032A00083608B6804460D462BB102229847EB6879
:1032B000E360AB68A360204638BD10B50B460446FA
:1032C000D1E9000184E8030003F1080104F10800DA
:1032D000FFF72BFB204610BD38B51D460D4B0446AD
:1032E000C0E9003111460830FFF7FAFA294604F127
:1032F0006800FFF71AFB049904F17800FFF7DDFF7F
:10330000059904F19000FFF7D8FF0023C4E92A33A0
:10331000204638BD5075000813B50B460446D0E969
:1033200000016A4682E8030093E8030084E8030092
:1033300092E8030083E8030002B010BD38B50546EB
:103340000C46FFF7E9FFAB68A268AA60A360E268D9
:10335000EB68EA60E36038BD1FB504466846FFF7D6
:10336000E4FA21466846FFF7E9FF6846FEF7D0F920
:10337000204604B010BD08B54430FFF7EDFF08BD8E
:1033800008B53430FFF7E8FF08BD08B52430FFF773
:10339000E3FF08BD08B51430FFF7DEFF08BD08B530
:1033A0004430FFF7D9FF08BD08B53430FFF7D4FF2C
:1033B00008BD08B52430FFF7CFFF08BD08B51430AD
:1033C000FFF7CAFF08BD08B54430FFF7C5FF08BDC9
:1033D00008B53430FFF7C0FF08BD08B52430FFF74B
:1033E000BBFF08BD08B51430FFF7B6FF08BD30B508
:1033F000044689B00846002369460293FFF79EFF02
:103400002368DC6F2368694604A8DD68FFF78DFA3E
:1034100004A92046A84704A8FEF77AF96846FEF7F3
:1034200077F909B030BD10B5044688B008460023CE
:1034300069460293FFF782FF23681C6F694604A860
:10344000FFF773FA04A904F12400FFF785FF04A82D
:10345000FEF75EF96846FEF75BF908B010BD10B5DF
:10346000044688B00846002369460293FFF766FFCA
:1034700023681C6F694604A8FFF757FA04A904F1F2
:103480001400FFF769FF04A8FEF742F96846FEF74B
:103490003FF908B010BD30B5044689B00846002396
:1034A00069460293FFF74AFF2368DC6F2368694689
:1034B00004A89D68FFF739FA04A92046A84704A884
:1034C000FEF726F96846FEF723F909B030BD000083
:1034D000F0B5FF23074F084E1D4611F8014B5C4025
:1034E00091423B5D83EA0503355DF6D1057043707B
:1034F000F0BD00BF8077000880780008D0F8003168
:10350000D0F804219A4283BF5A1CC0F80021C05C45
:1035100000207047D0F80431FE2B9FBFC154D0F873
:1035200004310133C0F80431704738B50C46090A3C
:103530000546FFF7EFFFE1B2FFF7ECFF284638BD85
:1035400010B50446D0F81001FEF74AF8D4F8183147
:10355000DA686FF30412DA60D4F820311A686FF376
:1035600000021A60D4F81C311A686FF300021A6066
:10357000D4F80431D4F80011D4F81C215B1A0233BA
:103580009BB25360D4F81C311A6842F001021A60F1
:103590001A68D207FCD510BD036937B501294FF071
:1035A000000204460D46C3F80021C3F804210ED1E1
:1035B00090F824100069FFF7ADFF94F8251041F052
:1035C0008001FFF7A7FF2946FFF7A4FF07E00229C4
:1035D000006902D194F82410EDE70329FAD0236999
:1035E000D3F80421D3F800111A44194401A8FFF7B5
:1035F0006FFF9DF805102069FFF78CFF9DF8041000
:10360000FFF788FF2069FFF79BFF03B030BD70B55F
:10361000D0F80031D0F8042101339A4204460D4617
:103620000ED9FFF76BFF06462046FFF767FF4FF006
:10363000000360F3070366F30F232B80204670BD61
:103640000023FAE738B504460D4600F1260100696B
:10365000FFF7DDFF04F12A012069FFF7D8FF638D32
:10366000E08C1844013880B2A8424FEA4303208519
:1036700084F82C302CBF0020012038BD13B50C215C
:103680000446FFF7DFFF28B902212046FFF784FF39
:1036900002B010BD23690022C3F80021C3F8042141
:1036A00094F824102069FFF735FF0321FFF732FF5C
:1036B00094F82C10FFF72EFF638D20695A1E628547
:1036C0004BB1E38C5A1C04EB4303E284B3F85E1065
:1036D000FFF72BFFF0E7D0F80421D0F800110244E7
:1036E000014401A8FFF7F4FE9DF805102069FFF7DB
:1036F00011FF9DF80410FFF70DFF2069FFF720FF71
:10370000C6E70000000000002DE9F04F394BADF690
:103710005C7D27AE03F1100732463C4618685968B5
:10372000154603C50833BB422A46F7D118689B8863
:10373000AB80314B28605193304B559300224FF4AE
:1037400080312F4B2F48619163918DF895215292D2
:1037500053928DF850215D92ADF878215F9260937D
:10376000629064938DF894218DF896218DF89821BC
:103770005696FF2151AB13440132162A1976F9D11E
:103780000DF1B4090021484603F02DFA5598FDF7D4
:103790001BFF559B1A694FF0010868F309221A6153
:1037A0001A6942F080721A6151AD00274FF6FF7B13
:1037B0000DF1CA0AD5E90F3103EB410199420FD04F
:1037C0001A78152A09D80DF5A27C6244587810762B
:1037D0001A7809F802800233F0E71A885A45FAD1BC
:1037E0006493E96B99420FD15D970835CFB90127F2
:1037F000E0E700BFB47400085C8B0008003C0240A6
:1038000000000A08000008082A6C01EB42029342FB
:1038100001F0AC82514648465D97FDF72BFE82458C
:10382000E3D15D9A51AB03EBC201D1E90F3064994A
:1038300003EB4003994206D15EAB0121995400236A
:103840005D93609B64930DF1CA0529464846FDF7D8
:1038500011FEA842074641F08F82569B57AA0DF5EC
:10386000B67E9446BCE80300F44518605960624691
:1038700003F10803F5D1DCF800001860BCF804205F
:103880009A8000238DF896319DF8783183B95D9B3D
:1038900073B1609B619A4FF6FF7003EB42018B425C
:1038A0001A4641F07082521A18BF01228DF8782111
:1038B0009DF87931BBB95D9B012B14D0629A639B53
:1038C0004FF6FF7002EB43039342114601F064820E
:1038D000B1F800C0844502F10202F5D05B1A18BFAE
:1038E00001238DF879310DF5BD7841465EA8FDF7CD
:1038F000EBFD804518BF0323559A18BF8DF895310D
:103900001369AF4243F0004313610DD0B24B32460E
:1039100018685968154603C50833A3422A46F7D1EB
:1039200018689B882860AB8051A8FDF75BFFAB4B04
:10393000DFF8F4921A6812F0010F05D1A84D0A229F
:10394000C9E9005201221A60A64BDFF8E0821A6B27
:1039500042F004021A63D9F800201068012161F3D3
:1039600015501060A04A106810F0010F01BF9F4C65
:1039700011600F20C8E900401A6B9D4C42F0010213
:103980001A63D8F800301A684FF0010B6BF39F727E
:103990001A60B7787388ADF81830C7F34003049302
:1039A000C7F3800332790393C7F3C10307920593EA
:1039B000FEF74CFC8F4B079A1D6815EA0B0507EACA
:1039C0000B0A4FEA571744D18B4921608B4984F881
:1039D00024208B4A2061C4E906158A48A26304F1B9
:1039E0003801C4E901552573E563246407936061D8
:1039F0002562E5842585658584F82C502586FDF7AC
:103A00008FFD814A626404F14401A069A564E46405
:103A1000FDF786FD0E22294604F1500003F0E3F87D
:103A20001822294604F15E0003F0DDF80E22294633
:103A300004F1760003F0D7F80E22294604F1840041
:103A400003F0D1F8079BC4F89350C3F800B0C4F852
:103A500096509DF8183013F0E00201F0A081202A62
:103A600001F0A08103F0C003402B14BF0123022307
:103A70005F4A136213693946D3F82421D3F8180139
:103A8000FDF7DAFE049AC36862F34923C360C36892
:103A9000039A62F30C33C3600369059A62F30D3332
:103AA0000361C368BAF1000F01F07F8143F48063C2
:103AB000C360C36843F40053C3602069FFF78AFA08
:103AC0000994099B0922A3F85E20099B3288A3F878
:103AD0006020099B3279A3F86420099B7288A3F8BF
:103AE0006220099AFF23A2F88430099A0127A2F8DC
:103AF0007870099A4FF4F570A2F88630FEF7ACFCA6
:103B00000A90FEF70DFD0B901020FFF7E7F90C90DF
:103B1000FFF7E8FA0CAD68602868FFF751FB0A9AD6
:103B2000099B3A49A8600024D892DD93384ADE9177
:103B30006423DEA8DB92E294CDF86493E3948DF8DD
:103B400058438DF85943D795CDF86883DC96DF94B8
:103B5000E0948DF88443E293FDF744FE4FF47A73CA
:103B6000E4A8E491E894E594E994E6948DF89C4304
:103B7000E893FDF737FE4FF0FA63F393254BF49388
:103B8000254BF5930A23ADF8D83321232868F79302
:103B900041F2EC33EA91EE94EB94EC94ED94EF94D3
:103BA000F094F194F2948DF8DA438DF8DB43F893B6
:103BB000FEF7F1FA194B1A4A7F932033809313686A
:103BC000819413F0010F08BFDFF864B0154B8294A5
:103BD00008BF0E212EE000BFB4740008540400207A
:103BE0000008024000380240480400200000024063
:103BF0005802002054020020B8750008E405002097
:103C0000A075000804060020AC750008D4740008F4
:103C10001C0600205046384AA861C800C475000838
:103C20007401002078010020580400204C0400207A
:103C30000004024008BFC3E900B18DF80C428DF8C2
:103C40000D4286948A948E9492949694B34C08BFB5
:103C50001760226B42F0020222631A6811686FF348
:103C60001D7111600125002180A899918DF86C12B9
:103C70008DF86D1298939A95FDF7B4FDA84BA94A5B
:103C80009C9320339D9313689E9113F0010F08BFFE
:103C9000DFF8E4A2A44B9F918DF880128DF8811279
:103CA000A391A791AB91AF91B39102BF0D21C3E94D
:103CB00000A11560226B42F0020222631A681168AB
:103CC0006FF39B611160012400219DA8B6918DF8CE
:103CD000E0128DF8E112B593B794FDF783FD934B95
:103CE000934AB9932033BA931368BB9113F0010F31
:103CF00008BFDFF888928F4BBC918DF8F4128DF8D5
:103D0000F512C091C491C891CC91D09102BF082105
:103D1000C3E900911460814C226B42F001022263DE
:103D20001A6811686FF311411160BAA800214FF0B1
:103D30000109D293D3918DF854138DF85513CDF812
:103D40005093FDF74FFD0DF5797B0DF2FD387A4B61
:103D50008BF80C10CBE90111CBE904118BF818108A
:103D600040460DF24D410B9FCBF80030099D0A9E55
:103D7000FDF722FC714A0392136813F0010F2046ED
:103D800005F15E056E4C6FD1DFF8F4C1DFF8F4E1A8
:103D9000DCF800306B4913F0010F01BF0D23CCF8A4
:103DA0000090CEF80010CEF80430036BDFF8D8C1D5
:103DB00043F004030363DEF8003018684FF0010994
:103DC00069F39B6018606048036813F0010F04BF3B
:103DD0000F23CCF80430514B04BFCCF80010C0F8CE
:103DE0000090186B40F004001863DCF80000D0F875
:103DF00000904FF0010A6AF39F79C0F80090DFF855
:103E00008C91D9F8000010F0010F504801BFC9F89B
:103E100000A00E2201604260D3F8309049F00409FE
:103E2000C3F830900368D3F800A04FF0010969F39C
:103E30001D7AC3F800A00023DFF854A12373C4E95E
:103E400001336373C4F800A0C4E904ECC4E90601BB
:103E500084F830303E496363039B61623D49C4F896
:103E60002080A162C3F800903B4B1A6812F0010F4A
:103E70003A4A06D1DFF8CC800221C2E90081012153
:103E80001960264B196B41F004011963126811681F
:103E9000012060F30511116031490A6812F0010F29
:103EA00008BFDFF8A0E02F4A02BF08604FF0030C04
:103EB000C2E900EC196B41F00401196313682A4947
:103EC0001A68012060F387121A600B68274A0340C2
:103ED00002BFDFF870C00860C2E900C30F4B196B66
:103EE00041F00401196312681068012161F30100B7
:103EF00010601F48026812F0010F08BFDFF844C0CD
:103F00001C4A04BF0160C2E900C1196B0C4841F0B2
:103F10000401196313681A683CE000BF00380240CE
:103F2000F0750008680100206C0100201C76000874
:103F30005C01002060010020688B0008B4000020B4
:103F4000B800002000080240FC000020F40000201F
:103F5000487B000848830008A8000020AC0000202F
:103F60009C000020A0000020900000209400002071
:103F7000840000208800002000040240000002406D
:103F8000080100200C01002000010020F0000020AA
:103F9000748B00084FF0010868F383021A60FDF784
:103FA000F3FE237B0BBBBB4B84F80C80DA686260AA
:103FB00002B194609A68DC6002B99C6002225A6186
:103FC000B54B1A686FF300021A60B44A5A600022B7
:103FD0009A601A6842F004021A601A6842F00202FB
:103FE0001A601A6842F001021A607FABCBF8743095
:103FF0009CABCBF87830B9ABCBF87C3027ABCBE9B6
:104000002035A74BCBE922360DF2DC434BAECBF883
:1040100090300023CBF89430A24BC6F800B0F36088
:104020003146A14BB36067A845ADCBE91B47FEF70E
:1040300039FC9E4B42933FA99D4BCDF8FCB02846DE
:104040004193FEF72FFC9B4B369333A99A4BCDF847
:10405000CCB039A83593FEF725FC984B22931FA9C5
:10406000974BCDF87CB023A82193FEF71BFC954B12
:104070001A9317A9944BCDF85CB01BA81993FEF7BF
:1040800020FC924B12930FA9914B119313A8CDF8DA
:104090003CB0FEF716FC67A90DF27C40FEF702FC6F
:1040A00029460DF28C40FEF7FDFB39A90DF29C402C
:1040B000FEF7F8FB23A90DF2AC40FEF7F3FB1BA9BA
:1040C0000DF2BC40FEF7FDFB13A90DF2CC40FEF74C
:1040D000F8FB13A8FDF71CFB0FA8FDF719FB1BA8A5
:1040E000FDF716FB17A8FDF713FB23A8FDF710FB40
:1040F0001FA8FDF70DFB39A8FDF70AFB33A8FDF754
:1041000007FB2846FDF704FB3FA8FDF701FB67A866
:10411000FDF7FEFA3046FDF7FBFA0DF27C4167A889
:10412000FEF7DEFB6B4BC5F800B0EB6029466A4B2F
:10413000AB603046FDAFFEF7F8FBDBE92149674B8A
:10414000CBF8F830CBF8FC7067A90DF2E440DBF84F
:104150008080DBF88CA0FEF7C3FB31460DF24450A3
:10416000FEF7E3FB04F11403CBF8703104F108030C
:10417000CBF8743104F10A03CBF8783109F1040368
:10418000CBF8803108F11503CBF8843108F1140322
:10419000CBF88831103408F11303CBF88C31CBF80D
:1041A0007C41CBF89091CBF894A13046FDF7B0FA62
:1041B0002846FDF7ADFA67A8FDF7FDFE0DF27C413C
:1041C00067A8FEF78DFB464B22931FA9454BCDF800
:1041D0007CB023A82193FEF7A8FB434B434ADFF8AA
:1041E0004491CBF89C71C6E9013B414B7361414B53
:1041F0003361414B6B61414B2B610C233F93404B2F
:104200004093404B4493404B43930C2339933F4B93
:10421000CDF804B1CDE9342B3D4A3892CDE93A3B93
:104220003C4A3D4B3E9337923C4B3D4ACBF898215C
:104230004FF0090AC5E9019B3D9367A906230DF2DA
:10424000845033930693C6F800A0C5F800A0FEF78B
:1042500047FB23A90DF2E450FEF767FB31460DF250
:10426000F450FFF72AF829460DF20C60FFF725F805
:104270003FA90DF22460FFF720F839A90DF23C6048
:10428000FFF71BF833A90DF25460FFF716F800236F
:104290004AE000BF2406002010E000E01F480100B3
:1042A0001C060020273400082D0B00085F3400088E
:1042B000430B000897340008590B0008EF3300083F
:1042C0006F0B0008B5540008850B00087D540008EA
:1042D0009B0B00083D120008B10B0008E0740008B9
:1042E00049120008C70B0008788B0008A68B00084D
:1042F00055120008DD0B000861120008F30B0008DE
:104300008C8B00087D120008090C0008998B0008AE
:1043100095120008350C0008891200081F0C0008CF
:1043200014750008828B0008CBF88832CBF88C32E9
:1043300035A8FDF7EDF93BA8FDF7EAF941A8FDF72F
:10434000E7F947A8FDF7E4F94DA8FDF7E1F923A83F
:10435000FDF7DEF91FA8FDF7DBF967A8FDF72BFED7
:104360000DF27C4167A8FEF7BBFABB4A369233A92F
:10437000BA4ACDF8CCB039A83592FEF7D6FAB84A89
:10438000CBF89472C6E9012BB64A7261B64A326123
:10439000B64A6A610823B64A33602A61B54BCDF844
:1043A00004B10B223F92B44A4092C5E9013BB34AA3
:1043B000B34BCBF890320F24449267A9B14A439291
:1043C0000DF27C602C60FEF78BFA39A90DF2DC60EF
:1043D000FEF7ABFA31460DF2EC60FEF76EFF2946B0
:1043E0000DF20470FEF769FF3FA90DF21C70FEF795
:1043F00064FF0022CBF85023CBF8542341A8FDF7EB
:1044000087F947A8FDF784F94DA8FDF781F939A888
:10441000FDF77EF933A8FDF77BF967A8FDF7CBFD23
:10442000DBF880200DF27C41127D8BF8582367A8C1
:10443000FEF756FA944933A8FDF729FC934923A8BF
:10444000FDF725FC924AC5F800B0EA602946914A7A
:10445000AA603046FEF769FA8F4A3C9239A98F4A22
:10446000CDF8E4B03FA83B92FEF75FFA339A03928F
:10447000349A0492239A0592894ACBF85C234FF42C
:104480008072ABF86023CBF8647367A90DF24C70AF
:10449000DDF89080FEF724FA31460DF2AC70FEF79D
:1044A00044FA3FA90DF2BC70FEF73FFA039ACBF82D
:1044B000E823049ACBF8EC23059ACBF8F0230DF20D
:1044C0003C72CBF8F8239BF858238BF8FC23CBF8ED
:1044D000F4833FA8FDF71CF939A8FDF719F9304618
:1044E000FDF716F92846FDF713F967A8FDF763FDF8
:1044F0000DF27C4167A8FEF7F3F96A4A3C9239A9AC
:10450000694ACDF8E4B03FA83B92FEF70EFA069B4D
:104510002B60664BDFF8D881654A7261C5E9013BC3
:10452000644B6B613FA9644B2B61644A34600B465A
:1045300067A9C6E9018B32610DF2E4700A46CDE944
:1045400000653946FEF7C8FE47A8FDF7E1F84DA81B
:10455000FDF7DEF83FA8FDF7DBF839A8FDF7D8F83E
:1045600067A8FDF728FD0DF27C4167A8FEF7B8F9B2
:10457000534B3C9339A9534BCDF8E4B03FA83B9340
:10458000FEF7D3F9504B7361504B3361504BC6F873
:1045900008B0C5E9013B4F4B6B613FA94E4B2B6106
:1045A0000B4667A90A46C6E900483946C5F800A087
:1045B0000DF69400CDE90065FEF78EFE47A8FDF7E5
:1045C000A7F84DA8FDF7A4F83FA8FDF7A1F839A872
:1045D000FDF79EF867A8FDF7EEFCDBF880300DF2E2
:1045E0007C41DB7C8BF8603567A8FEF779F949469A
:1045F00033A8FDF74CFB254923A8FDF748FB374BB3
:10460000C5F800B0EB602946354BAB603046FEF78D
:104610008CF9344B3C9339A9334BCDF8E4B03FA827
:104620003B93FEF782F94FF48072304BABF868256C
:10463000CBF86435CBF86C7567A90DF65410DDE93D
:10464000334ADDE92398FEF74BF931460DF6B410F5
:10465000FEF76BF94EE000BFA11200084B0C0008FA
:10466000AD8B0008AD120008610C0008B9120008FB
:10467000770C0008B68B0008C68B0008C51200082E
:10468000287500088D0C0008D28B0008DA8C000811
:10469000D1120008A30C0008DD120008B90C0008B4
:1046A0003C750008F9120008CF0C0008EF8B0008D9
:1046B0000513000811130008FB0C0008E50C0008A6
:1046C00025130008110D000831130008270D0008FC
:1046D000F68B00083D1300083D0D0008511300083B
:1046E000530D00086D130008690D0008647500087B
:1046F000DF8B00083FA90DF6C410FEF716F90DF682
:104700004413CBF800369BF86035CBF8F0458BF8B6
:104710000436CBF8F895CBF8FC85CBF8F4A53FA888
:10472000FCF7F6FF39A8FCF7F3FF3046FCF7F0FF83
:104730002846FCF7EDFF67A8FDF73DFCDBF880306D
:104740000DF27C411B7C8BF8083667A8FEF7C8F891
:10475000C24933A8FDF79BFAC14923A8F9ACFDF77C
:1047600096FAC04BEB602946BF4B2C603046AB60DD
:10477000FEF7DBF8BD4B3C9339A9BD4B3B933FA8FB
:104780003994FEF7D2F8BB4AC4F80C264FF4C8415E
:1047900067A8A4F81016C4F8147601460DF6FC10AC
:1047A000DDE933BADDE92398FEF79AF831460DF6D4
:1047B0005C20FEF7BAF83FA801460DF66C20FEF724
:1047C000B4F80DF6EC13C4F8A83694F8083684F85B
:1047D000AC36C4F898B6C4F89CA6C4F8A096C4F841
:1047E000A4863FA8FCF794FF39A8FCF791FF304658
:1047F000FCF78EFF2846FCF78BFF67A8FDF7DBFB75
:10480000D4F880300DF27C401B89A4F8B036014604
:1048100067A8FEF765F8984933A8FDF738FA974975
:1048200023A8FDF734FA964BEB602946954B2C6094
:104830003046AB60FEF779F8934B3C9339A8934B25
:104840003B9301463FA83994FEF76FF8904BC4F8AC
:10485000B43667A88F4BC4F8B8360146C4F8BC76A6
:104860000DF6A420DDE92398DDE933BAFEF738F828
:1048700031460DF60430FEF758F83FA801460DF614
:104880001430FEF752F80DF69423C4F85037B4F8FC
:10489000B036A4F85437C4F840B7C4F844A7C4F8F5
:1048A0004897C4F84C873FA8FCF732FF39A8FCF7BB
:1048B0002FFF3046FCF72CFF2846FCF729FF67A89E
:1048C000FDF779FB0DF27C40014667A8FEF708F87A
:1048D000714B369333A8714B3593014639A8339405
:1048E000FEF723F86E4BC4F85C77C6E901346D4BD4
:1048F00073616D4B33616D4B4194C5E901346C4B71
:104900006B616C4B2B610E233F936B4B40936B4B56
:1049100044930C206A4B2860439367A8694BC4F802
:10492000583701464FF007090DF64430C6F800909D
:10493000FDF7D6FF39A801460DF6A430FDF7F5FFC7
:1049400031460DF6B430FEF7B8FC29460DF6CC30F2
:10495000FEF7B3FC3FA801460DF6E430FEF7ADFCD0
:104960000020C4F81808C4F81C0841A8FCF7D0FEC1
:1049700047A8FCF7CDFE4DA8FCF7CAFE39A8FCF706
:10498000C7FE33A8FCF7C4FE67A8FDF714FB0DF2C1
:104990007C40014667A8FDF7A3FF4B4BEB6029461F
:1049A0004A4B2C603046AB60FDF7BFFF48493FA83B
:1049B000FDF76DF9474939A8FDF769F9D4F8843056
:1049C00045493F9AC4F8201867A8DDE939BA03F1D0
:1049D00014080146409BC4F824780DF60C4004925C
:1049E0000393FDF77DFF31460DF66C40FDF79DFF0B
:1049F000049A039BC4F89828C4F89C38C4F8A0B85B
:104A0000C4F8A4A8C4F8A8883046FCF781FE28465C
:104A1000FCF77EFE67A8FDF7CEFAD4F880300DF2E1
:104A20007C405B7C84F8AC38014667A8FDF758FFF2
:104A30002A4933A8FDF72BF9264923A8FDF727F9C2
:104A4000274BEB602946274B2C603046AB60FDF7C7
:104A50006CFF254B3C9339A848E000BF008C000850
:104A6000118C0008991300087F0D0008A513000899
:104A7000950D000878750008B68B0008148C0008A6
:104A8000BB130008AB0D0008C7130008C10D0008D8
:104A90008C7500085046C8AFDD130008D70D00081C
:104AA000188C0008E9130008ED0D0008208C0008A0
:104AB000F5130008030E00082D8C000801140008EF
:104AC000190E0008287500080D1400082F0E0008A4
:104AD0003C8C00084C8C0008F47400084F8C0008D3
:104AE00019140008450E000825140008B14B3B932B
:104AF00001463FA83994FDF718FFAF4AC4F8B02823
:104B00004FF4C84167A8339BA4F8B418C4F8B87828
:104B100001460DF54A600393DDE923A8DDF8D0B026
:104B2000FDF7DEFE31460DF55060FDF7FEFE3FA8B5
:104B300001460DF55160FDF7F8FE039BC4F83C39C2
:104B40000DF54963C4F84C3994F8AC3884F8503901
:104B5000C4F840B9C4F844A9C4F848893FA8FCF790
:104B6000D7FD39A8FCF7D4FD3046FCF7D1FD284627
:104B7000FCF7CEFD67A8FDF71EFAD4F880300DF2E1
:104B80007C409B7C84F85439014667A8FDF7A8FE59
:104B90008A4933A8FDF77BF8894923A8FDF777F800
:104BA000884BEB602946884B2C603046AB60FDF7A4
:104BB000BCFE864B3C9339A8854B3B9301463FA8EE
:104BC0003994FDF7B2FE7C4AC4F858294FF4C84125
:104BD000339BA4F85C19C4F8607967A90DF64850B6
:104BE0000393DDE923A8DDF8D0B0FDF779FE314667
:104BF0000DF6A850FDF799FE3FA90DF6B850FDF748
:104C000094FE039BC4F8E4390DF63853C4F8F43924
:104C100094F8543984F8F839C4F8E8B9C4F8ECA920
:104C2000C4F8F0893FA8FCF773FD39A8FCF770FDC4
:104C30003046FCF76DFD2846FCF76AFD67A8FDF7D6
:104C4000BAF90DF27C4167A8FDF74AFE614B3C932F
:104C500039A9614B3B933FA83994FDF766FE5F4B42
:104C600073605F4B73615F4B33610A232B605E4B54
:104C70006B605E4B6B615E4B2B615E4BC4F8FC3925
:104C8000082267A9C4F8007A0DF6E8503260FDF7F3
:104C900027FE3FA90DF64860FDF747FE31460DF6A9
:104CA0005860FEF70AFB29460DF56760FEF705FB25
:104CB0000023C4F8A43AC4F8A83AC4F8B43AC4F833
:104CC000BC3AC4F8C03A47A8FCF722FD4DA8FCF74F
:104CD0001FFD3FA8FCF71CFD39A8FCF719FD67A8CC
:104CE000FDF769F90DF27C4167A8FDF7F9FD424B2C
:104CF0003C9339A9414B3B933FA83994FDF715FEEE
:104D0000082333603E4B73603E4B73613E4B33610F
:104D10003E4B6B603E4B6B613E4B2B6167AA3FABDA
:104D20003946C5F800900DF6A860CDE90065FEF79C
:104D3000D3FA47A8FCF7ECFC4DA8FCF7E9FC3FA828
:104D4000FCF7E6FC39A8FCF7E3FC67A8FDF733F9AC
:104D50002046FCF747FDD4F8900003681B6898478D
:104D6000E36E93F83030002B56D1FEE751AB3B4455
:104D700083F83480FEF739BD5D9B5EAA0121D154D2
:104D80000523FEF77FBDB2F800C0844503F102039E
:104D90003EF485ADFEF787BD1946FEF79FBD04239F
:104DA000FEF766BE0323FEF763BE6AF38A23FEF7AF
:104DB0007FBE00BF5B0E0008787500085F8C00089E
:104DC0004C8C00083B140008710E000847140008C2
:104DD000870E00085D1400089D0E00086E8C000808
:104DE000B30E0008B50E0008778C0008C715000840
:104DF000BF0E00082875000869140008C90E0008D5
:104E0000828C0008B7150008DF0E00088B8C0008A4
:104E1000C5150008E90E00080FF26839D9E90089C4
:104E2000DC999DF8DB234B7CBDF8C043DB98A342A3
:104E300038BF42F001028DF8DB233AB18B7CA342EC
:104E40002CBF002301238DF8DB3303710378002B83
:104E50003FD08B891BB99DF8DA33002B39D09DF8F0
:104E6000DB33002B35D1D8990A688B89106A03434C
:104E70001362D898FDF79BF810B99DF8DB330BB19E
:104E8000DB9B1B78DB9ADA981370DC9B5B7D8DF8DB
:104E9000DA332BB3FCF7A4FBD898FDF788F8D99B3D
:104EA00008B31846FCF79CFBD79AB34953681C8992
:104EB0000D4624096423002B1BDD581005EB800EE2
:104EC00055F82060A64212D91B1A0EF10405013BC9
:104ED000F1E7D8990A688989136A23EA0103C7E7C9
:104EE000FCF784FBD8E71846FCF780FBDCE70346B9
:104EF000E1E76D1AC5F38F05DDF860A3DD9CADF821
:104F0000C053BAF81030A4F8683093681889FBF7DA
:104F100009FB97A3D3E90023FBF76EFB00224FF0B8
:104F20007F53FBF769FB42464B46FBF78FFC0022A1
:104F3000924BFBF761FBFBF771FDA4F87250A4F8EC
:104F40006E00DC9ABAF81830A4F86630BDF8CE13BB
:104F50001389ADF8D033581A0B44ADF8D203ADF82D
:104F6000D433137C216903EB8303ADF8D633D1F836
:104F70002031D1F804215B68D1F800119BB2521A9C
:104F8000C3F1FF039A4211D20023E3612046FCF7EC
:104F900007FC9DF85833052B00F25881DFE813F029
:104FA0002901630123025B025E022D02D4E907237B
:104FB0009A42EEDB00252046E561FCF7F1FB206913
:104FC000D0F80431D0F80021991A072902D8FEF749
:104FD00001F8DEE710F802C094F824108C45F6D1F1
:104FE000934284BF03F1FF33C0F80431226988BFC4
:104FF000C55CD2F80011D2F804318B4282BF03F1B4
:10500000FF33C2F8043112F803A02369D3F8042156
:10501000D3F800111A44194467A898BF4FF0000A4A
:10502000FEF756FA9DF89C31AB4204D19DF89D31B4
:105030002069534501D02069C9E7FEF75FFA20696E
:10504000FEF75CFA052884F8250000F0CA801028D5
:1050500006D0032840F0CB802046FEF70FFB98E7F0
:1050600007212046FEF7EEFA20B902212046FEF77E
:1050700093FA8EE72369D3F80021D3F80411914203
:1050800083BF511CC3F800119B5C002384F82C30B3
:10509000002504F12E0AB4F82AC02069ABB29C4561
:1050A0002CD95146FEF7B3FAE38C13FA85F3E218D4
:1050B0005B0092F89310E28D89B1234410B2B3F8EB
:1050C00076100FFA81FC604500DA31B9B3F884102C
:1050D0000FFA81FC60450DDD61B10321C6E7234471
:1050E000B3F876108A4201D20029F6D1B3F88410C1
:1050F0008A42F1D8A3F850200135CCE7204A00239A
:10510000012599B2614541D2B4F826E0714489B2D3
:1051100003290BD8DFE801F0020C151EDD99B1F868
:1051200050E0A1F862E0DC99A1F802E00133E8E781
:10513000DD99B1F852E0A1F864E0DC9981F804E06F
:10514000F4E7DD99B1F85410A1F17F067142714185
:105150001170EBE7117839B1DD99B1F856E0A1F89B
:1051600060E0DC99A1F800E01570DFE7AFF30080A4
:105170006666666666660A40B879000800408F4039
:10518000600400200000000000FEEF400023C0F893
:105190000031C0F8043194F824102069FEF7BAF900
:1051A00094F82510FEF7B6F9E18CFEF7BEF9618D93
:1051B000FEF7BBF92369D3F80421D3F800111A4490
:1051C000194467A8FEF784F99DF89D112069FEF740
:1051D000A1F99DF89C11FEF79DF92069FEF7B0F941
:1051E000D7E604F126012069FEF711FA3DE7012117
:1051F0003CE79DF8DA33D89813B3DC9BDB7C18309E
:105200006BB1BDF8D613FCF79EFED898BDF8D0134D
:105210001030FCF73BFE02238DF8583316E0642172
:10522000ADF8C233ADF8C433ADF8C633FCF78BFE2E
:10523000D898BDF8D4131030FCF728FE0123EBE713
:10524000FCF7B5FE20B1D6A8FCF794FE30BFE7E529
:10525000DC9BD898DA7C22B199891030FCF716FED5
:10526000F4E7D989F9E7D898FCF7A1FE88B19DF851
:105270005933042B0DD8DFE803F003172F5C95009A
:105280004FF47A73EAA8EE93FCF7ACFA01238DF899
:105290005933D898FCF78BFE0028D7D19DF8DA3324
:1052A000002BD3D10023B7E7EF9AEE9B9A42F0D3BD
:1052B000EAA8FCF793FAD898BDF8D413002310306D
:1052C000ADF8C233ADF8C433ADF8C633ADF8C8336A
:1052D000FCF7DCFD0223DAE7D89864211830FCF7EC
:1052E00032FED79BBDF8C6239B689B68934284BF60
:1052F000ADF8C633D89BDEA884BF1B8AADF8CC338B
:10530000FCF744FA68B1D898BDF8D233028A9A42C1
:1053100083BFBDF8D813494209B200211030FCF711
:10532000D7FDD89B1A8ABDF8D2339A42B1D1032354
:10533000ADE7D89864211830FCF705FED79BBDF87F
:10534000C4239B689B68934284BFADF8C433D89B49
:10535000DEA884BF1B8AADF8CA33FCF717FA58B130
:10536000D898BDF8D433028A9A4234BFBDF9D81315
:1053700000211030FCF7ACFDD89B1A8ABDF8D4335D
:105380009A4286D1DC9BBDF8C41300225A75BDF841
:10539000C62391428CBFBDF8CA23BDF8CC23DA8165
:1053A000042374E7DEA8FCF7F1F970B1D898DC9B10
:1053B00030F8102FDB899A4212D383BFBDF8D8137F
:1053C000494209B20021FCF783FDD89ADC9B128A7E
:1053D000DB899A427FF45DAFD6A8FCF7CBFD58E796
:1053E000BDF9D813EFE79DF8DA33002B7FF451AF06
:1053F000D89B1A8ADC9B9A81EEE7D79BBDF8C22323
:105400009B689B68934282BFDC9A9BB2ADF8C23323
:10541000E4A888BF5381FCF7B9F968B1D898BDF802
:10542000D63330F8181F8B4294BF4FF0FF3301235F
:10543000194489B2FCF787FDD898BDF8D633028BA2
:105440009A4202D303238DF85833FCF7B0FD0028AD
:105450003FF428AFFAE6D898FCF7A9FDD898F4E70E
:1054600038B505460C46FDF757FFAB68A268AA6041
:10547000A360E268EB68EA60E36038BD30B50446DB
:1054800089B00846002369460293FFF7E9FF2368C5
:105490009C6F2368694604A81D69FDF7FFFE04A9F7
:1054A0002046A84704A8FCF733F96846FCF730F912
:1054B00009B030BD30B5044689B0084600236946BE
:1054C0000293FFF7CDFF23685C6F2368694604A849
:1054D0001D69FDF7E3FE04A92046A84704A8FCF7D0
:1054E00017F96846FCF714F909B030BD1FB504463A
:1054F0006846FDF7D3FE21466846FFF7B1FF6846D0
:10550000FCF706F9204604B010BD08B55430FFF78B
:10551000EDFF08BD08B55430FFF7E8FF08BD08B53A
:105520005430FFF7E3FF08BD1FB550B16846FDF7E3
:10553000FCF9029B13B16846FDF7DAFB6846FCF7FD
:10554000E7F805B05DF804FB07B5826801910AB978
:1055500001F0F4FAC36801A9984703B05DF804FBB1
:105560007FB50446406EFCF7BFF808B9A36E8BB355
:10557000606EFCF7B9F8054680BB637C63BB94F8AA
:10558000706004F124016846FDF7CFF969463046A2
:10559000FFF7CAFF6846FCF7BBF8637C33B994F8A1
:1055A00070501DB194F8715085F0010504F134017B
:1055B0006846FDF7BAF969462846FFF7B5FF684621
:1055C000FCF7A6F800230122C4E91A3284F87030EF
:1055D00084F8713004B070BD0646D2E7A36E013383
:1055E000092BA36622D994F870208AB9657C01231F
:1055F00084F870305D4004F114016846FDF795F9B8
:1056000028466946FFF790FF6846FCF781F8E1E716
:10561000B3F57A7F0AD394F871203AB9657C0123F7
:1056200084F871305D4004F14401E6E7E26D002A40
:10563000D0D0B3F57A7FCDD9B3F5FA6F0CD8C821A5
:10564000B3FBF1F201FB1233002BC3D1012104F1B2
:105650005400FFF779FFBDE740F6B832934201D816
:105660006421EDE7B3F57A6F01D83221E8E719211B
:10567000B3FBF1F201FB123241F288318B4202D8C6
:10568000002AA7D1E2E7002AA4D1E16E04F1540078
:10569000FFF75AFFA16E4FF47A72B1FBF2F302FBEF
:1056A0001313002B96D1E36E0133E36692E7A0F16A
:1056B000040055E77FB50446406EFCF715F808B9BD
:1056C000A36E8BB3606EFCF70FF8054680BB637C5E
:1056D00063BB94F8706004F124016846FDF725F976
:1056E00069463046FFF720FF6846FCF711F8637CF7
:1056F00033B994F870501DB194F8715085F00105DC
:1057000004F134016846FDF710F969462846FFF7B1
:105710000BFF6846FBF7FCFF00230122C4E91A32A5
:1057200084F8703084F8713004B070BD0646D2E75A
:10573000A36E0133092BA36622D994F870208AB98D
:10574000657C012384F870305D4004F114016846E3
:10575000FDF7EBF828466946FFF7E6FE6846FBF7DB
:10576000D7FFE1E7B3F57A7F0AD394F871203AB90D
:10577000657C012384F871305D4004F14401E6E763
:10578000E26D002AD0D0B3F57A7FCDD9B3F5FA6FA8
:105790000CD8C821B3FBF1F201FB1233002BC3D1AB
:1057A000012104F15400FFF7CFFEBDE740F6B83207
:1057B000934201D86421EDE7B3F57A6F01D8322125
:1057C000E8E71921B3FBF1F201FB123241F2883113
:1057D0008B4202D8002AA7D1E2E7002AA4D1E16EC9
:1057E00004F15400FFF7B0FEA16E4FF47A72B1FBE2
:1057F000F2F302FB1313002B96D1E36E0133E36641
:1058000092E7A0F1040055E77FB50446406EFBF730
:105810006BFF08B9A36E8BB3606EFBF765FF05469F
:1058200080BB637C63BB94F8706004F1240168461C
:10583000FDF77BF869463046FFF776FE6846FBF7D2
:1058400067FF637C33B994F870501DB194F87150C0
:1058500085F0010504F134016846FDF766F86946F4
:105860002846FFF761FE6846FBF752FF002301223E
:10587000C4E91A3284F8703084F8713004B070BD15
:105880000646D2E7A36E0133092BA36622D994F80A
:1058900070208AB9657C012384F870305D4004F182
:1058A00014016846FDF741F828466946FFF73CFEBB
:1058B0006846FBF72DFFE1E7B3F57A7F0AD394F84A
:1058C00071203AB9657C012384F871305D4004F1A0
:1058D0004401E6E7E26D002AD0D0B3F57A7FCDD956
:1058E000B3F5FA6F0CD8C821B3FBF1F201FB123308
:1058F000002BC3D1012104F15400FFF725FEBDE7C1
:1059000040F6B832934201D86421EDE7B3F57A6FDF
:1059100001D83221E8E71921B3FBF1F201FB123281
:1059200041F288318B4202D8002AA7D1E2E7002A4F
:10593000A4D1E16E04F15400FFF706FEA16E4FF40E
:105940007A72B1FBF2F302FB1313002B96D1E36ED4
:105950000133E36692E7A0F1040055E730B50B1A76
:105960009B10002B15DD14780578A54203D04578EF
:10597000A54201D1013030BD8578A54201D1023068
:10598000F9E7C578A54201D10330F4E70430013BC3
:10599000E7E70B1A022B0ED0032B07D0012B10D1F7
:1059A000047813789C4218BF0846E4E7047813781B
:1059B0009C42E0D00130047813789C42DBD0013067
:1059C000EEE70846D7E700002DE9F34190F85130A3
:1059D00041690446052B1BD8DFE813F006001D00C3
:1059E0004A008200B400E80090F85430C218C95C44
:1059F000127E914240F0F6800133DBB2162B28BFB5
:105A0000002380F85430B3FA83F35B0980F85030F8
:105A100002B0BDE8F0810069C268C2F30042002A0A
:105A2000F6D10369002BF3DAFBF7CEFD2369186981
:105A300062F3410018611A6942F001021A61236998
:105A40001A69012060F309221A611A6942F0807212
:105A50001A6194F85430CA5C84F8532094F85310B7
:105A6000E26C43EA01231380022384F85130CFE72C
:105A70000369DA68D107CBD5DA6842F00102DA604F
:105A80001A6942F000421A6190F8543090F853209D
:105A900003441A76C26C036B0232C26400EBC3008B
:105AA000D0E90F1501EB45018A4203D094F852303A
:105AB000DBB2DAE70122E1181344022B28BF0023EE
:105AC00081F83420236304EBC303DB6BE36400231E
:105AD00084F8543084F85120052384F8523097E735
