:020000040800F2
:100000000000022051110008A1110008A1110008F0
:10001000A1110008A1110008A111000800000000B2
:10002000000000000000000000000000A111000816
:10003000A111000800000000A1110008040600083A
:10004000A1110008A1110008A1110008A1110008C8
:10005000A1110008A1110008A1110008A1110008B8
:10006000A1110008A1110008A1110008A1110008A8
:10007000A1110008A1110008A1110008A111000898
:10008000A1110008A1110008A1110008A111000888
:10009000A1110008A1110008A1110008A111000878
:1000A000A1110008A1110008A1110008A111000868
:1000B000A1110008A1110008A1110008A111000858
:1000C000A1110008A1110008A1110008A111000848
:1000D000A1110008A1110008A1110008A111000838
:1000E000A1110008A1110008A1110008A111000828
:1000F000A1110008A1110008A1110008A111000818
:10010000A1110008A1110008A1110008A111000807
:10011000A1110008A1110008A1110008A1110008F7
:10012000A1110008A1110008A1110008A1110008E7
:10013000A11100080000000000000000A11100084B
:10014000A1110008A1110008A1110008A1110008C7
:10015000A1110008A1110008A1110008A1110008B7
:10016000A1110008A1110008A1110008A1110008A7
:10017000A1110008A111000800000000000000000B
:08018000A1110008A111000803
:1001880010B5064C2378002B07D1054B002B02D065
:100198000448AFF300800123237010BD0000002045
:1001A80000000000EC110008044B10B5002B03D030
:1001B80003490448AFF3008010BDC04600000000AA
:1001C80004000020EC110008002243088B4274D37D
:1001D80003098B425FD3030A8B4244D3030B8B4240
:1001E80028D3030C8B420DD3FF22090212BA030C49
:1001F8008B4202D31212090265D0030B8B4219D32A
:1002080000E0090AC30B8B4201D3CB03C01A524149
:10021800830B8B4201D38B03C01A5241430B8B4291
:1002280001D34B03C01A5241030B8B4201D30B037A
:10023800C01A5241C30A8B4201D3CB02C01A5241A1
:10024800830A8B4201D38B02C01A5241430A8B4264
:1002580001D34B02C01A5241030A8B4201D30B024D
:10026800C01A5241CDD2C3098B4201D3CB01C01A67
:10027800524183098B4201D38B01C01A5241430971
:100288008B4201D34B01C01A524103098B4201D35F
:100298000B01C01A5241C3088B4201D3CB00C01ACC
:1002A800524183088B4201D38B00C01A5241430844
:1002B8008B4201D34B00C01A5241411A00D2014669
:1002C800524110467047FFE701B5002000F0F0F8F2
:1002D80002BDC0460029F7D076E7704703460B43B6
:1002E8007FD4002243088B4274D303098B425FD327
:1002F800030A8B4244D3030B8B4228D3030C8B4253
:100308000DD3FF22090212BA030C8B4202D3121238
:10031800090265D0030B8B4219D300E0090AC30B0D
:100328008B4201D3CB03C01A5241830B8B4201D3BA
:100338008B03C01A5241430B8B4201D34B03C01AA3
:100348005241030B8B4201D30B03C01A5241C30A1B
:100358008B4201D3CB02C01A5241830A8B4201D38C
:100368008B02C01A5241430A8B4201D34B02C01A76
:100378005241030A8B4201D30B02C01A5241CDD21B
:10038800C3098B4201D3CB01C01A524183098B4266
:1003980001D38B01C01A524143098B4201D34B014F
:1003A800C01A524103098B4201D30B01C01A5241B2
:1003B800C3088B4201D3CB00C01A524183088B4239
:1003C80001D38B00C01A524143088B4201D34B0022
:1003D800C01A5241411A00D2014652411046704794
:1003E8005DE0CA0F00D04942031000D34042534099
:1003F80000229C4603098B422DD3030A8B4212D359
:10040800FC22890112BA030A8B420CD3890192118A
:100418008B4208D3890192118B4204D389013AD0C7
:10042800921100E08909C3098B4201D3CB01C01A9C
:10043800524183098B4201D38B01C01A52414309AF
:100448008B4201D34B01C01A524103098B4201D39D
:100458000B01C01A5241C3088B4201D3CB00C01A0A
:10046800524183088B4201D38B00C01A5241D9D222
:1004780043088B4201D34B00C01A5241411A00D2A3
:100488000146634652415B10104601D34042002B9F
:1004980000D54942704763465B1000D3404201B51E
:1004A800002000F005F802BD0029F8D016E77047D3
:1004B8007047C046143090E5013083E2143080E57F
:1004C8001EFF2FE11C3090E5013083E21C3080E5EF
:1004D8001EFF2FE1000051E30000D0051400000AC0
:1004E800010051E30300001A0100D0E5A001A0E1DA
:1004F800010000E21EFF2FE1020051E30200D005D7
:100508000B00000A030051E30300D005F6FFFF0AC1
:10051800040051E30400D0050500000A050051E37A
:100528000500D005F0FFFF0A060051E30200001A9B
:100538000600D0E5A002A0E1ECFFFFEA070051E3C6
:100548000700D005E8FFFF0A0000A0E31EFF2FE127
:1005580010402DE9083090E5102093E52C11D2E5E4
:10056800180192E5DAFFFFEB000050E32000000AD3
:100578000020A0E301C0A0E3103093E5002183E54B
:10058800042183E5140193E5002090E5040090E53B
:10059800181092E5100080E21C1081E1181082E525
:1005A800101193E5000091E5041091E5182090E5FD
:1005B800101081E21C2182E1182080E5201193E5CA
:1005C800002091E50120C2E3002081E5243193E574
:1005D800002093E50120C2E3002083E5002093E595
:1005E8000C2082E1002083E5002093E5010012E35E
:1005F800FCFFFF0A1040BDE81EFF2FE130309FE5E9
:1006080010402DE9004093E5000054E30600000A7D
:10061800003094E50400A0E1003093E50FE0A0E18C
:1006280013FF2FE1084094E5F6FFFFEA1040BDE80C
:100638001EFF2FE144020020142090E5103090E5C1
:10064800030052E10030A0E3143080250100A0230C
:100658000300A0311EFF2FE10C30D0E5000053E36A
:100668001EFF2F010030A0E30C30C0E50C0090E91C
:10067800000052E30B00000A000053E30830821523
:100688000830901538109F05083082050420810530
:100698000000000A042083E50030A0E3043080E570
:1006A800083080E51EFF2FE114109FE5000053E39A
:1006B80000308115F6FFFF1A003081E5043081E52E
:1006C800F4FFFFEA440200200C30D0E5000053E3B9
:1006D8001EFF2F110130A0E30C30C0E520309FE54C
:1006E800042093E5000052E3042080E50800821509
:1006F800002093E5000052E3040083E50000830531
:100708001EFF2FE144020020080090E5102090E52C
:100718001C3192E5003093E5100013E31EFF2F0112
:10072800243192E5043093E50338A0E12338A0E1B1
:10073800FF3063E2FF0053E30010A0E3FF30A02383
:10074800001182E5043182E5DEFFFFEA010051E392
:100758000100001A342080E51EFF2FE1020051E35A
:100768000100001A382080E51EFF2FE1030051E345
:100778000100001A3C2080E51EFF2FE1040051E330
:10078800402080051EFF2FE110402DE90040A0E128
:10079800B010C0E148009FE58AFEFFFA043094E5F6
:1007A800B800C3E11C4093E5002093E50008A0E1F0
:1007B8002008A0E12C0082E5B831D3E1B820D4E1CB
:1007C8006410A0E3920300E0C3FEFFFA0028A0E152
:1007D8000A10D4E5000094E52228A0E11040BDE805
:1007E800D9FFFFEA007A030A0F0052E30A00521306
:1007F80010402DE90040A0E10100A0030000A01373
:100808001A00001AD0309FE5080093E5A006A0E181
:10081800073010E2C4009F050900000A040053E3F2
:10082800BC009F050600000A050053E3B4009F05BD
:100838000300000AB0209FE5060053E3AC009FE5E3
:100848000200A001070051E301F19F97110000EA9F
:1008580094080008AC080008B4080008BC080008A0
:10086800C4080008CC080008D4080008DC08000800
:100878000B2042E2030052E3F1FFFF8A58309FE564
:10088800080093E52005A0E1E0FFFFEA961DA0E33C
:1008980091FEFFFA080084E50400A0E11040BDE8DD
:1008A8001EFF2FE1E11DA0E3F8FFFFEA4B1CA0E3C8
:1008B800F6FFFFEA38109FE5F4FFFFEA961CA0E375
:1008C800F2FFFFEAE11CA0E3F0FFFFEA4B1BA0E305
:1008D800EEFFFFEA1C109FE5ECFFFFEA003802403C
:1008E800007A030A00BD010580DE8002406F4001E6
:1008F800A037A0008070000000C20100DC029FE564
:10090800003090E5010013E370402DE9D0329FE5F7
:100918006400001ACC229FE5001092E5010011E363
:1009280009E0A003C0129F05C0C29FE502408C08E1
:100938000110A00300108205B4229FE5301092E553
:10094800011081E3301082E500E09CE500109EE58F
:100958000117C1E3021781E300108EE524109EE51C
:100968008010C1E3701081E324108EE584129FE5A6
:1009780000E091E501001EE30A60A00368429F05BC
:1009880074E29FE550008E080140A00300408105F5
:10099800301092E5011081E3301082E500109EE5E9
:1009A800002091E50126C2E3022682E3002081E5CA
:1009B800242091E5022BC2E3072C82E3242081E561
:1009C80038229FE5001092E5010011E30C50A003C6
:1009D80014129F0528429FE5220084080110A003F5
:1009E8000010820508229FE5301092E5011081E38E
:1009F800301082E5005094E5001095E50214C1E33B
:100A0800011481E3001085E5F8519FE5001095E594
:100A1800010011E3F0619F05F0119FE50060810579
:100A28000F60A003046081050160A00300608505D4
:100A3800305092E5025085E3305082E5005091E550
:100A4800002095E50221C2E3012182E3002085E52B
:100A58000020A0E3002183E5042183E5B0219FE580
:100A6800182183E5552B42E21C2183E5552B82E2B0
:100A7800B82082E2202183E5782042E2242183E520
:100A88000A20A0E3282183E50420A0E32C21C3E564
:100A98000120A0E308C183E50CE183E5104183E56B
:100AA800141183E5002080E544119FE5442091E579
:100AB800102082E3442081E51C2193E50C0092E597
:100AC800080080E30C0082E50C0092E5040080E356
:100AD8000C0082E5140092E5800080E3140082E5B2
:100AE800140092E5400080E3140082E50C0092E5D2
:100AF800100080E30C0082E50C0092E5020A80E316
:100B08000C0082E52020A0E308019FE5042080E591
:100B1800302091E5012582E3302081E5202193E50D
:100B2800001092E58010C1E3401081E3001082E5D7
:100B3800001193E5011083E00C1082E51C1193E588
:100B4800041081E2081082E5001092E5011B81E3A0
:100B5800001082E5001092E5061AC1E3001082E554
:100B6800001092E5061BC1E3001082E5001092E533
:100B7800101081E3001082E54020A0E3082080E502
:100B8800242193E5001092E5C010C1E3001082E52E
:100B9800001193E5011083E00C1082E51C3193E508
:100BA800043083E2083082E5FF30A0E3043082E5B8
:100BB800003092E5013B83E3003082E5003092E5A6
:100BC800063AC3E3003082E5003092E5063BC3E312
:100BD800003082E508009FE57040BDE81EFF2FE168
:100BE8004C00002050000020A4010020000002401A
:100BF800A801002000380240980100209C01002034
:100C08008C01002090010020800100200004024097
:100C1800840100200064024000E100E00C319FE5FF
:100C2800002093E5010012E310402DE903E0A0E164
:100C3800FC309FE52600001AF8209FE5001092E599
:100C4800010011E309C0A003EC109FE5EC409F05EB
:100C58001010810801C0A00300C08205E0C09FE514
:100C680030209CE5042082E330208CE500C091E52B
:100C780000209CE50127C2E3022782E300208CE5DF
:100C880024209CE5D020C2E3202082E324208CE5A8
:100C9800B0209FE5002083E50020E0E3B820C3E111
:100CA8000420A0E30A20C3E5012AA0E3BC20C3E195
:100CB8000020A0E3B021C3E1B821C3E10120A0E3F3
:100CC800041083E5BE00C3E1143083E51C3083E5DE
:100CD80000208EE568109FE5402091E5022082E320
:100CE800402081E5002093E51C1092E5011AC1E33C
:100CF800061A81E31C1082E5001092E5801081E35A
:100D0800001082E5001092E5011081E3001082E5F1
:100D180034109FE5B031D3E1010053E12C009F1559
:100D280098FEFF1B08009FE51040BDE81EFF2FE15D
:100D38001C0000202000002040000020440000206B
:100D4800000802400038024000040040040A000085
:100D5800300000200030A0E370402DE920D04DE2A3
:100D680000308DE504308DE5E3FEFFEB68C29FE5BA
:100D780000309CE5013013E260429FE54600001A0E
:100D88000110A0E3100084E554029FE554229FE57A
:100D98002410C4E5001090E5043084E5083084E5AB
:100DA8000C30C4E5002084E51C3084E538229FE53A
:100DB800203084E5B632C4E1B832C4E1BA32C4E1C5
:100DC8002C30C4E5B033C4E13C3084E51C329FE5E7
:100DD800000051E3383084E5140084E5182084E5E8
:100DE800404084E50230A0E10300001A382084E284
:100DF800002080E5050000EA0210A0E1042091E54A
:100E0800000052E3FBFFFF1AE4219FE5042081E57F
:100E18000020A0E3482084E5D8219FE5442084E50C
:100E2800002093E5000052E34C4084E50300001ADB
:100E3800C4219FE5002083E5050000EA0320A0E126
:100E4800043092E5000053E3FBFFFF1AA8319FE549
:100E5800043082E50030A0E3A0219FE5503084E50E
:100E6800043082E5083082E55C3084E5103082E5A4
:100E7800143082E5683084E51C3082E5203082E554
:100E8800743084E5283082E52C3082E5803084E5B2
:100E9800B433C2E10130A0E300308CE50430A0E3B4
:100EA800203084E5103094E50010A0E3282193E574
:100EB8001C0193E54BFEFFEB0C3090E5023CC3E3CD
:100EC8000C3080E50C3090E5013AC3E30C3080E546
:100ED800103090E5033AC3E3103080E50C3090E51C
:100EE800013BC3E30C3080E50830A0E30160A0E3D8
:100EF8005C3084E5B230DDE1B036C4E100319FE515
:100F08006400A0E3743084E5B266C4E1BA66C4E163
:100F180041FFFFEB0030A0E3E8109FE50050A0E19F
:100F280008008DE218308DE50C308DE51C308DE51C
:100F380010308DE51430CDE508108DE518608DE58D
:100F4800E0FDFFEB08008DE2BAFDFFEB000050E387
:100F58000160A0E11A00000AB815D4E1B021D5E17A
:100F6800A4309FE5010052E1030051111000858271
:100F780004FEFF8BB831D5E1013083E20338A0E1EC
:100F88002338A0E1000053E30D00000A1C4095E55A
:100F9800BE20D4E1030052E10900003AB820D4E1B0
:100FA8006410A0E3930200E0B831C5E1CAFCFFFA7F
:100FB8000028A0E12228A0E10A10D4E5000094E569
:100FC800E1FDFFEB08008DE208608DE5A1FDFFEB78
:100FD80020D08DE27040BDE81EFF2FE1B001002057
:100FE800B4010020400200200C1200083C0200203E
:100FF80030120008EC01002024120008F80100203B
:1010080004020020FF00FF0018120008030A000075
:10101800C0209FE5003092E50230C3E3053083E34A
:10102800003082E5B0309FE5002093E5012882E397
:10103800002083E5002093E5020812E3FCFFFF0A85
:10104800082093E5F020C2E3082083E5082093E513
:10105800022BC2E3052B82E3082083E5082093E5F1
:10106800062AC2E3022982E3082083E5082093E5E3
:101078000120C2E3022082E3082083E5042093E5EF
:101088003B20C2E3042082E3042083E5042093E5A7
:10109800552CC2E3C020C2E32A2C82E3042083E556
:1010A800042093E50328C2E3042083E5042093E5A4
:1010B800012582E3042083E5002093E5012482E3EF
:1010C800002083E510209FE5003092E5020413E339
:1010D800FCFFFF0A1EFF2FE1003C024000380240DF
:1010E80010402DE91AFFFFEB0000A0E31040BDE817
:1010F8001EFF2FE10020A0E33C309FE53C109FE558
:10110800002083E5042083E534309FE5141083E54F
:10111800182083E5102093E5042082E3102083E55E
:10112800102093E5022082E3102083E5102093E548
:10113800012082E3102083E51EFF2FE144020020F6
:101148003F90020000E000E0DFF834D0002103E027
:101158000C4B5B58435004310B480C4B42189A42D5
:10116800F6D30B4A02E0002342F8043B094B9A42AB
:10117800F9D3FFF74DFF00F011F8FFF7B1FF704703
:10118800000002204012000800000020000000209B
:10119800000000204C020020FEE7000070B5002689
:1011A8000C4D0D4C641BA410A64209D1002600F07A
:1011B80019F80A4D0A4C641BA410A64205D170BD4B
:1011C800B300EB5898470136EEE7B300EB58984761
:1011D8000136F2E73412000834120008341200080D
:1011E8003C120008F8B5C046F8BC08BC9E467047DB
:0C11F800F8B5C046F8BC08BC9E46704725
:101204000000000000000000CC0400080000000002
:1012140000000000BC040008000000000000000002
:101224005805000800000000000000001007000836
:08123400B1010008FC100008E4
:04123C00890100081C
:04000005080011518D
:00000001FF
