:020000040800F2
:1000000000000220D11F0008212000082120000844
:100010002120000821200008212000080000000005
:100020000000000000000000000000002120000887
:100030002120000800000000212000080809000815
:10004000212000082120000821200008212000088C
:10005000212000082120000821200008212000087C
:10006000212000082120000821200008212000086C
:10007000212000082120000821200008212000085C
:10008000212000082120000821200008212000084C
:10009000212000082120000821200008212000083C
:1000A000212000082120000821200008212000082C
:1000B000212000082120000821200008212000081C
:1000C000212000082120000821200008212000080C
:1000D00021200008212000082120000821200008FC
:1000E00021200008212000082120000821200008EC
:1000F00021200008212000082120000821200008DC
:1001000021200008212000082120000821200008CB
:1001100021200008212000082120000821200008BB
:1001200021200008212000082120000821200008AB
:10013000212000080000000000000000212000082D
:10014000212000082120000821200008212000088B
:10015000212000082120000821200008212000087B
:10016000212000082120000821200008212000086B
:1001700021200008212000080000000000000000ED
:080180002120000821200008E5
:1001880010B5064C2378002B07D1054B002B02D065
:100198000448AFF300800123237010BD64000020E1
:1001A8000000000058230008044B10B5002B03D0B2
:1001B80003490448AFF3008010BDC04600000000AA
:1001C8006800002058230008002243088B4274D39B
:1001D80003098B425FD3030A8B4244D3030B8B4240
:1001E80028D3030C8B420DD3FF22090212BA030C49
:1001F8008B4202D31212090265D0030B8B4219D32A
:1002080000E0090AC30B8B4201D3CB03C01A524149
:10021800830B8B4201D38B03C01A5241430B8B4291
:1002280001D34B03C01A5241030B8B4201D30B037A
:10023800C01A5241C30A8B4201D3CB02C01A5241A1
:10024800830A8B4201D38B02C01A5241430A8B4264
:1002580001D34B02C01A5241030A8B4201D30B024D
:10026800C01A5241CDD2C3098B4201D3CB01C01A67
:10027800524183098B4201D38B01C01A5241430971
:100288008B4201D34B01C01A524103098B4201D35F
:100298000B01C01A5241C3088B4201D3CB00C01ACC
:1002A800524183088B4201D38B00C01A5241430844
:1002B8008B4201D34B00C01A5241411A00D2014669
:1002C800524110467047FFE701B5002000F0F0F8F2
:1002D80002BDC0460029F7D076E7704703460B43B6
:1002E8007FD4002243088B4274D303098B425FD327
:1002F800030A8B4244D3030B8B4228D3030C8B4253
:100308000DD3FF22090212BA030C8B4202D3121238
:10031800090265D0030B8B4219D300E0090AC30B0D
:100328008B4201D3CB03C01A5241830B8B4201D3BA
:100338008B03C01A5241430B8B4201D34B03C01AA3
:100348005241030B8B4201D30B03C01A5241C30A1B
:100358008B4201D3CB02C01A5241830A8B4201D38C
:100368008B02C01A5241430A8B4201D34B02C01A76
:100378005241030A8B4201D30B02C01A5241CDD21B
:10038800C3098B4201D3CB01C01A524183098B4266
:1003980001D38B01C01A524143098B4201D34B014F
:1003A800C01A524103098B4201D30B01C01A5241B2
:1003B800C3088B4201D3CB00C01A524183088B4239
:1003C80001D38B00C01A524143088B4201D34B0022
:1003D800C01A5241411A00D2014652411046704794
:1003E8005DE0CA0F00D04942031000D34042534099
:1003F80000229C4603098B422DD3030A8B4212D359
:10040800FC22890112BA030A8B420CD3890192118A
:100418008B4208D3890192118B4204D389013AD0C7
:10042800921100E08909C3098B4201D3CB01C01A9C
:10043800524183098B4201D38B01C01A52414309AF
:100448008B4201D34B01C01A524103098B4201D39D
:100458000B01C01A5241C3088B4201D3CB00C01A0A
:10046800524183088B4201D38B00C01A5241D9D222
:1004780043088B4201D34B00C01A5241411A00D2A3
:100488000146634652415B10104601D34042002B9F
:1004980000D54942704763465B1000D3404201B51E
:1004A800002000F005F802BD0029F8D016E77047D3
:1004B8007047C046143090E5013083E2143080E57F
:1004C8001EFF2FE1B020D1E1003090E5060052E395
:1004D80002F19F97360000EAFC04000814050008A2
:1004E8002C0500084C050008740500088405000860
:1004F80094050008041093E5003093E5B025D1E198
:10050800B226C1E1B021C3E11EFF2FE1041093E53B
:10051800003093E5B225D1E1B426C1E11220C3E54C
:100528001EFF2FE1043093E5B435D3E1D02043E238
:10053800003072E20230A3E078209FE50030C2E587
:100548001EFF2FE16C209FE50010D2E5000051E36B
:100558000400931500309315B615D011B016C011CC
:10056800BE10C3110130A0E3F3FFFFEA043093E5A6
:10057800B825D3E1B626C3E11EFF2FE1043093E589
:10058800BA25D3E1B826C3E11EFF2FE1081093E591
:10059800043093E5002091E55C30D3E5BC10D1E14F
:1005A800010013E3203092E5013083110130C301CB
:1005B800203082E51EFF2FE1A80200201C3090E5C4
:1005C800013083E21C3080E51EFF2FE1020052E378
:1005D80070402DE90040A0E10700000A030052E343
:1005E8000D00000A010052E3003091050800000ADE
:1005F8000000A0E37040BDE81EFF2FE10C00A0E35F
:10060800005091E5830600FB0030A0E1070095E863
:10061800070083E8003084E5F4FFFFEA0C10A0E34C
:10062800000090E5880600FAF0FFFFEA000051E3B9
:100638000000D0051400000A010051E30300001A6D
:100648000100D0E5A001A0E1010000E21EFF2FE1BA
:10065800020051E30200D0050B00000A030051E339
:100668000300D005F6FFFF0A040051E30400D0059B
:100678000500000A050051E30500D005F0FFFF0A58
:10068800060051E30200001A0600D0E5A002A0E12E
:10069800ECFFFFEA070051E30700D005E8FFFF0A77
:1006A8000000A0E31EFF2FE1103090E5000053E3A7
:1006B8000C309FB5043080B508309FB5043080B544
:1006C8001EFF2FE123016745AB89EFCD10402DE9CF
:1006D8003430D0E50040A0E1050053E303F19F97D3
:1006E800110000EA0407000848070008C4070008CA
:1006F8002C0800087C080008D40800083730D0E52A
:10070800201090E5032080E00310D1E72420D2E5F3
:10071800020051E10600001A013083E2FF3003E2D3
:100728000A0053E30030A0233730C0E51040BDE88D
:100738001EFF2FE10130A0E33430C4E5FAFFFFEAE1
:100748001C0090E50C3090E5010813E3F6FFFF1A52
:10075800103090E5000053E3F3FFFFAAD1FFFFEB51
:10076800103090E5013083E3103080E51C2094E5DB
:10077800103092E5023CC3E3013C83E3103082E58C
:10078800103092E5013483E3103082E53730D4E548
:10079800202094E50320D2E73620C4E5302094E5F4
:1007A8003600D4E5181094E5003483E18220A0E1F6
:1007B800B23081E10230A0E3DEFFFFEA1C3090E5B1
:1007C8000C2093E5010012E3D7FFFF0A0C2093E504
:1007D800012082E30C2083E5102093E5022182E3C7
:1007E800102083E53730D0E53620D0E5033080E0AF
:1007F8002420C3E5303090E5013083E2010853E35B
:100808000030A023303080250300002A000053E385
:10081800303080E53530D015C6FFFF1A0330A0E32D
:10082800C4FFFFEA1C0090E50C3090E5010813E3D3
:10083800BDFFFF1A103090E5000053E3BAFFFFAA8E
:1008480098FFFFEB103090E5023083E3103080E52D
:10085800103090E54030C3E3383083E3103080E552
:10086800103090E5013883E3103080E50430A0E3D0
:10087800B0FFFFEA1C3090E50C2093E5010012E37D
:10088800A9FFFF0A0C2093E5012082E30C2083E5F1
:10089800102093E5022182E3102083E5FF10A0E3F6
:1008A8000A20A0E3240080E2100600FB0030A0E349
:1008B800303084E53730C4E50130A0E33430C4E596
:1008C8000530A0E33530C4E597FFFFEA3730D0E5BF
:1008D800013083E2FF3003E2090053E30030A083D4
:1008E8003730C0850200008A000053E33730C0E586
:1008F8008FFFFF1A0030A0E33430C4E5F0FFFFEAB1
:1009080030309FE510402DE9004093E5000054E3A6
:100918000600000A003094E50400A0E1003093E5E9
:100928000FE0A0E113FF2FE1084094E5F6FFFFEA8E
:100938001040BDE81EFF2FE1B4020020142090E50E
:10094800103090E5030052E10030A0E31430802518
:100958000100A0230300A0311EFF2FE10C30D0E5D9
:10096800000053E31EFF2F010030A0E30C30C0E568
:100978000C0090E9000052E30B00000A000053E36A
:10098800083082150830901538109F050830820508
:10099800042081050000000A042083E50030A0E35C
:1009A800043080E5083080E51EFF2FE114109FE534
:1009B800000053E300308115F6FFFF1A003081E58F
:1009C800043081E5F4FFFFEAB40200200C30D0E5E2
:1009D800000053E31EFF2F110130A0E30C30C0E5E7
:1009E80020309FE5042093E5000052E3042080E5D1
:1009F80008008215002093E5000052E3040083E517
:100A0800000083051EFF2FE1B4020020080090E5D6
:100A1800102090E51C3192E5003093E5100013E3B7
:100A28001EFF2F01243192E5043093E50338A0E13D
:100A38002338A0E1FF3063E2FF0053E30010A0E396
:100A4800FF30A023001182E5043182E5DEFFFFEAD2
:100A5800010051E30100001A342080E51EFF2FE158
:100A6800020051E30100001A382080E51EFF2FE143
:100A7800030051E30100001A3C2080E51EFF2FE12E
:100A8800040051E3402080051EFF2FE110402DE9AE
:100A9800044090E5B020D0E1B830D4E16410A0E380
:100AA800930200E00CFEFFFA0028A0E10A10D4E54A
:100AB800000094E52228A0E11040BDE8E3FFFFEA2A
:100AC80010402DE9083090E5000053E30040A0E114
:100AD8000320A0130010A0110FE0A01113FF2F1185
:100AE8000400A0E11040BDE81EFF2FE10F0052E313
:100AF8000A00521310402DE90040A0E10100A003B4
:100B08000000A0131A00001AD0309FE5080093E5F2
:100B1800A006A0E1073010E2C4009F050900000A02
:100B2800040053E3BC009F050600000A050053E3D8
:100B3800B4009F050300000AB0209FE5060053E3B8
:100B4800AC009FE50200A001070051E301F19F9767
:100B5800110000EA980B0008B00B0008B80B000859
:100B6800C00B0008C80B0008D00B0008D80B000801
:100B7800E00B00080B2042E2030052E3F1FFFF8A7A
:100B880058309FE5080093E52005A0E1E0FFFFEA63
:100B9800961DA0E3D0FDFFFA080084E50400A0E15B
:100BA8001040BDE81EFF2FE1E11DA0E3F8FFFFEABA
:100BB8004B1CA0E3F6FFFFEA38109FE5F4FFFFEABD
:100BC800961CA0E3F2FFFFEAE11CA0E3F0FFFFEAB6
:100BD8004B1BA0E3EEFFFFEA1C109FE5ECFFFFEACA
:100BE80000380240007A030A00BD010580DE800259
:100BF800406F4001A037A0008070000000C20100D3
:100C0800DC029FE5003090E5010013E370402DE918
:100C1800D0329FE56400001ACC229FE5001092E5CF
:100C2800010011E309E0A003C0129F05C0C29FE5BF
:100C380002408C080110A00300108205B4229FE531
:100C4800301092E5011081E3301082E500E09CE568
:100C580000109EE50117C1E3021781E300108EE53D
:100C680024109EE58010C1E3701081E324108EE506
:100C780084129FE500E091E501001EE30A60A003ED
:100C880068429F0574E29FE550008E080140A0036A
:100C980000408105301092E5011081E3301082E5B3
:100CA80000109EE5002091E50126C2E3022682E3BA
:100CB800002081E5242091E5022BC2E3072C82E382
:100CC800242081E538229FE5001092E5010011E318
:100CD8000C50A00314129F0528429FE522008408A7
:100CE8000110A0030010820508229FE5301092E54C
:100CF800011081E3301082E5005094E5001095E57D
:100D08000214C1E3011481E3001085E5F8519FE561
:100D1800001095E5010011E3F0619F05F0119FE5D2
:100D2800006081050F60A003046081050160A003D5
:100D380000608505305092E5025085E3305082E529
:100D4800005091E5002095E50221C2E3012182E3EC
:100D5800002085E50020A0E3002183E5042183E548
:100D6800B0219FE5182183E5552B42E21C2183E53C
:100D7800552B82E2B82082E2202183E5782042E2E6
:100D8800242183E50A20A0E3282183E50420A0E3A9
:100D98002C21C3E50120A0E308C183E50CE183E52C
:100DA800104183E5141183E5002080E544119FE597
:100DB800442091E5102082E3442081E51C2193E53D
:100DC8000C0092E5080080E30C0082E50C0092E537
:100DD800040080E30C0082E5140092E5800080E3C3
:100DE800140082E5140092E5400080E3140082E5D7
:100DF8000C0092E5100080E30C0082E50C0092E5FF
:100E0800020A80E30C0082E52020A0E308019FE5A8
:100E1800042080E5302091E5012582E3302081E53A
:100E2800202193E5001092E58010C1E3401081E392
:100E3800001082E5001193E5011083E00C1082E5B3
:100E48001C1193E5041081E2081082E5001092E578
:100E5800011B81E3001082E5001092E5061AC1E348
:100E6800001082E5001092E5061BC1E3001082E540
:100E7800001092E5101081E3001082E54020A0E305
:100E8800082080E5242193E5001092E5C010C1E315
:100E9800001082E5001193E5011083E00C1082E553
:100EA8001C3193E5043083E2083082E5FF30A0E38B
:100EB800043082E5003092E5013B83E3003082E5AF
:100EC800003092E5063AC3E3003082E5003092E54F
:100ED800063BC3E3003082E508009FE57040BDE8AB
:100EE8001EFF2FE144010020480100209C02002041
:100EF80000000240A00200200038024090020020BA
:100F08009402002084020020880200207802002039
:100F1800000402407C0200200064024000E100E07E
:100F28003C319FE5002093E5010012E310402DE9D4
:100F380030419FE52700001A03C0A0E128319FE552
:100F4800002093E5010012E309E0A0031C119F05AE
:100F58001C219FE5024082080110A00300108305B0
:100F680010119FE5303091E5043083E3303081E59E
:100F7800001092E5003091E50137C3E3023783E3BF
:100F8800003081E5243091E5D030C3E3203083E39D
:100F9800243081E5E0309FE5003084E50030E0E36F
:100FA800B830C4E10430A0E30A30C4E5013AA0E354
:100FB800BC30C4E10030A0E3B031C4E1B831C4E1D1
:100FC8000130A0E3042084E5BE00C4E1144084E5B8
:100FD8001C4084E500308CE598209FE5403092E580
:100FE800023083E3403082E5003094E51C2093E52D
:100FF800012AC2E3062A82E31C2083E5002093E548
:10100800802082E3002083E5002093E5012082E32D
:10101800002083E564309FE5B021D4E1030052E16C
:101028000700000AB031C4E10D30E0E3140094E594
:101038004C209FE5B830C0E1183090E42C2083E5BF
:1010480091FEFFEB002094E5BC10D4E1203092E53E
:101058000130C3E10C009FE5203082E51040BDE877
:101068001EFF2FE18000002084000020A400002043
:1010780000080240A8000020003802400004004098
:10108800040A0000F2FF0000C0209FE5003092E54E
:101098000230C3E3053083E3003082E5B0309FE5DA
:1010A800002093E5012882E3002083E5002093E5F2
:1010B800020812E3FCFFFF0A082093E5F020C2E3D0
:1010C800082083E5082093E5022BC2E3052B82E381
:1010D800082083E5082093E5062AC2E3022982E373
:1010E800082083E5082093E50120C2E3022082E37B
:1010F800082083E5042093E53B20C2E3042082E333
:10110800042083E5042093E5552CC2E3C020C2E304
:101118002A2C82E3042083E5042093E50328C2E314
:10112800042083E5042093E5012582E3042083E578
:10113800002093E5012482E3002083E510209FE549
:10114800003092E5020413E3FCFFFF0A1EFF2FE1C3
:10115800003C0240003802407F402DE9241080E224
:101168000130A0E10020E0E32EC080E203005CE152
:101178000120C314FCFFFF1A0030A0E30160A0E3C4
:1011880004308DE508308DE5BC30CDE1183090E5B0
:10119800F8519FE502E883E202C083E202404CE294
:1011A80004005EE1302090E51500000A012082E28B
:1011B800050052E10020A083302080E502405CE574
:1011C800090054E30800008A01205CE5044080E03F
:1011D8002420C4E502205CE510408DE2022084E072
:1011E8000C6042E502C08CE2EBFFFFEAFF0054E32B
:1011F800FBFFFF1A000052E30128A003012042125E
:10120800302080E5304090E5000054E30700001AE4
:101218000130A0E33430C0E50530A0E33530C0E547
:101228000400A0E110D08DE27040BDE81EFF2FE160
:10123800843083E003204EE050C19FE5C221A0E145
:10124800000052E3170000DAB040D3E10C0054E18B
:101258000300001AB240D3E10C0054E10600000A72
:10126800023083E203005EE11B00000A0330A0E3C2
:101278000040A0E33430C0E5E8FFFFEAB440D3E122
:101288000C0054E104308312F5FFFF1AB640D3E195
:101298000C0054E106308312F1FFFF1A083083E294
:1012A800012042E2E5FFFFEA03204EE0C220A0E170
:1012B800020052E32F00000A030052E32800000A4C
:1012C800010052E30E30A011E5FFFF1AB0C0D3E1D0
:1012D800B8209FE502005CE1E1FFFF1A0430DDE57C
:1012E800000053E3E0FFFF0A0530DDE5000053E3AB
:1012F800DDFFFF0A0630DDE5000053E3DAFFFF0AF1
:101308000730DDE5000053E3D7FFFF0A0830DDE5CD
:10131800000053E3D4FFFF0A0930DDE5000053E382
:10132800D1FFFF0A0A30DDE5000053E3CEFFFF0AD4
:101338000B30DDE5000053E3CBFFFF0A0C30DDE5A1
:10134800000053E3C8FFFF0A0D40DDE5000054E349
:10135800C5FFFF0A0A20A0E3200090E55F0300FA1A
:10136800AEFFFFEAB0C0D3E120209FE502005CE1B8
:10137800BBFFFF1A023083E2B0C0D3E10C209FE527
:1013880002005CE1B6FFFF1A023083E2CEFFFFEAFB
:10139800FFFF00000030A0E301C0A0E3003180E5BA
:1013A800043180E5141190E5003091E5041091E5D1
:1013B800182093E5101081E21C2182E1182083E5B2
:1013C800102190E5001092E5042092E5183091E58F
:1013D800102082E21C3283E1183081E5202190E55B
:1013E800003092E50130C3E3003082E5243190E516
:1013F800002093E50120C2E3002083E5002093E567
:101408000C2082E1002083E5002093E5010012E32F
:10141800FCFFFF0A1EFF2FE110402DE9083090E580
:10142800102093E52C11D2E5180192E57EFCFFEB24
:10143800000050E310009315D5FFFF1B1040BDE8D6
:101448001EFF2FE1FF30A0E330402DE903E0A0E1CB
:101458002C509FE52C409FE501C0D1E403C02CE04F
:101468000C30D5E7020051E10E3023E00CE0D4E760
:10147800F8FFFF1A00E0C0E50130C0E53040BDE8E4
:101488001EFF2FE1BC230008BC240008003190E5B2
:10149800042190E5030052E1012083820021808528
:1014A8000300D0870000A0931EFF2FE1043190E5D0
:1014B800FE0053E30020D1950320C0970431909596
:1014C80001308392043180951EFF2FE113402DE9EE
:1014D8000040A0E12134A0E10510CDE504108DE223
:1014E8000430CDE5F0FFFFEB05108DE2EEFFFFEBDA
:1014F8000400A0E108D08DE21040BDE81EFF2FE1F6
:101508000110A0E314C190E500309CE504C09CE5FF
:10151800182093E5112C82E1182083E510C190E58D
:1015280000209CE504C09CE5183092E5113C83E15D
:10153800183082E5242190E5003092E50130C3E3BC
:10154800003082E5203190E5002093E50120C2E3D8
:10155800002083E5411F80E2060011E8012042E0F7
:101568000228A0E12228A0E1042083E5002093E5D9
:10157800012082E3002083E5002093E5010012E3C7
:10158800FCFFFF0A1EFF2FE137402DE90020A0E3F2
:10159800103090E5010051E30040A0E10150A0E1C6
:1015A800002183E5042183E50C00001A241080E261
:1015B800100090E5BCFFFFEB2530D4E5833CE0E16B
:1015C800A33CE0E108108DE2053061E5B6FFFFEBD2
:1015D80004108DE20450CDE5B3FFFFEB080000EAEC
:1015E800020051E3100090E50300001A241084E281
:1015F800ADFFFFEB251084E2F3FFFFEA030051E3A0
:10160800F9FFFF0A103094E5011C83E2060091E817
:1016180004008DE2011083E0022083E088FFFFEBE5
:1016280005108DE2100094E59FFFFFEB04108DE29A
:101638009DFFFFEB100094E5B0FFFFEB0CD08DE2AF
:101648003040BDE81EFF2FE170402DE9003190E5E4
:10165800042190E5013083E2030052E10040A0E15B
:101668000800009A0160A0E187FFFFEB0050A0E1AD
:101678000400A0E184FFFFEBFF5005E2FF0000E259
:10168800050480E1B000C6E10400A0E17040BDE8B7
:101698001EFF2FE170402DE90040A0E10150A0E1BC
:1016A800261080E2100090E5E6FFFFEB2A1084E2A6
:1016B800100094E5E3FFFFEBBA32D4E1B602D4E1BF
:1016C800000083E0010040E20008A0E12008A0E15A
:1016D800050050E18330A0E1B802C4E12C30C4E534
:1016E8000000A0230100A0337040BDE81EFF2FE1D9
:1016F80037402DE90610A0E30040A0E1E4FFFFEB2E
:10170800000050E30500001A0210A0E30400A0E165
:101718009CFFFFEB0CD08DE23040BDE81EFF2FE1AF
:101728000020A0E3103094E5002183E5042183E53F
:10173800241084E2100094E55BFFFFEB0330A0E384
:1017480008508DE2043065E50510A0E156FFFFEB77
:101758002C1084E254FFFFEBBA32D4E1012043E2BB
:10176800000053E3BA22C4E1100094E50600000A21
:10177800B632D4E1012083E2833084E0B622C4E1AA
:10178800BE15D3E150FFFFEBF2FFFFEA011C80E238
:10179800060091E8022080E0011080E00500A0E149
:1017A80027FFFFEB05108DE2100094E53EFFFFEBED
:1017B8000510A0E13CFFFFEB100094E54FFFFFEBA5
:1017C800D3FFFFEAF3412DE90160A0E10710A0E390
:1017D8000040A0E1AEFFFFEB000050E30210A003C1
:1017E8003700000A0050A0E3103094E5002193E58B
:1017F800041193E5020051E10110828200118385F2
:101808000230D38788819FE52C30C4852E7084E20E
:10181800BA22D4E10538A0E12338A0E1030052E15F
:101828002A00009A0710A0E1100094E585FFFFEB5D
:10183800B632D4E1082005E0023083E0032084E0DA
:101848008620D2E5000052E38330A0E1BE22D4E135
:101858001100000A033084E0BAC6D3E10218A0E1FF
:101868000C08A0E14118A0E14008A0E100005CE3F9
:1018780000005111110000BAB8C7D3E10C08A0E16B
:101888004008A0E100005CE3000051110B0000CA11
:10189800B025C3E1015085E2DCFFFFEA033084E0B4
:1018A800BA16D3E1000051E3010052110300003AD7
:1018B800B817D3E1000051E301005211F3FFFF9A7A
:1018C8000310A0E30400A0E12EFFFFEB2D0000EAC7
:1018D8000050A0E30538A0E1BA22D4E12338A0E102
:1018E800030052E10C00009AB622D4E1023083E0F2
:1018F800B630CDE1083096E5000053E3015085E2AB
:101908009A02000B0C3096E506108DE20600A0E165
:101918000FE0A0E113FF2FE1EDFFFFEA0020A0E3B5
:10192800103094E5002183E5042183E5241084E246
:10193800100094E5DCFEFFEB251084E2DAFEFFEBF5
:10194800B612D4E1E0FEFFEBBA12D4E1DEFEFFEB03
:10195800103094E5011C83E2060091E804008DE252
:10196800011083E0022083E0B5FEFFEB05108DE255
:10197800100094E5CCFEFFEB04108DE2CAFEFFEBED
:10198800100094E5DDFEFFEB08D08DE2F041BDE8E4
:101998001EFF2FE1FFFF0000F0402DE9102090E529
:1019A800243192E5043093E50338A0E10150A0E129
:1019B8002338A0E1411F82E2060011E8012042E03D
:1019C800FF3063E2030052E114D04DE20040A0E191
:1019D8000500002A0030A0E31C3080E5DEFBFFEBA9
:1019E80014D08DE2F040BDE81EFF2FE11C2080E2FC
:1019F8000C0092E8030052E1F8FFFFBA0060A0E390
:101A08001C6080E5D4FBFFEB100090E5012C80E220
:101A18000C0092E8021043E0070051E30100008A3D
:101A28005BFEFFEBEDFFFFEA02C0D0E72410D4E530
:101A380001005CE1F9FFFF1A030052E10130433273
:101A480004318035102094E5011C82E20360D03710
:101A58000A0091E8010053E1013043820431828594
:101A68000370D287103094E5011C83E2060091E8E8
:101A78000D00A0E1022083E0011083E00070A09334
:101A88006FFEFFEB0030DDE5060053E10C00001AA5
:101A98000130DDE5070053E1100094E50800001A65
:101AA80079FEFFEB100094E577FEFFEB030050E3AF
:101AB8002500C4E50400001A0400A0E10BFFFFEBB9
:101AC800C6FFFFEA100094E5D4FFFFEA100050E3D8
:101AD8001300001A0030A0E308308DE5083095E5C2
:101AE800000053E30800000A0220A0E30510A0E16B
:101AF8000D00A0E10FE0A0E113FF2FE10C3095E508
:101B08000C308DE5083095E508308DE50400A0E13E
:101B18000D10A0E12AFFFFEB0D00A0E1E7FBFFEBB2
:101B2800AEFFFFEA0110A0E30400A0E195FEFFEB81
:101B3800AAFFFFEA0120A0E3F04F2DE96CD04DE2A7
:101B48004220CDE51927A0E30030A0E344208DE52D
:101B5800B4239FE530208DE5B0239FE530708DE2FA
:101B680048208DE5A8239FE53E408DE20700A0E1CF
:101B7800BE33CDE1B034CDE134308DE538308DE57C
:101B88003C30CDE54C208DE550408DE560308DE54D
:101B98006430CDE56530CDE56730CDE56DFDFFEB13
:101BA800000050E30A20A00368139F050400A00169
:101BB800EC01000B0700A0E183FBFFEB4210DDE521
:101BC8004050DDE504108DE5B064DDE10BFCFFEB72
:101BD80044339FE5002093E5A5A0A0E12591A0E16D
:101BE800A581A0E1012012E201B005E201A00AE20C
:101BF800019009E2038008E2A552A0E11C439FE599
:101C080004109DE54B00001A14C39FE500C084E54D
:101C180010C39FE5100084E500009CE508E39FE5FC
:101C2800042084E5082084E50C20C4E51C2084E514
:101C3800202084E5B622C4E1B822C4E1BA22C4E176
:101C48002C20C4E5B023C4E13C2084E5DC229FE5D8
:101C5800000050E32410C4E514C084E518E084E5CE
:101C6800382084E5404084E50E10A0E10300001A06
:101C7800382084E200208CE5050000EA0200A0E19B
:101C8800042090E5000052E3FBFFFF1AA0229FE525
:101C9800042080E50020A0E3482084E594229FE505
:101CA800442084E5002091E5000052E34C4084E59F
:101CB8000300001A80229FE5002081E5050000EA64
:101CC8000120A0E1041092E5000051E3FBFFFF1A98
:101CD80064129FE5041082E50E20A0E30010A0E343
:101CE80058029FE504308DE5000100FB0C20A0E3BD
:101CF8000010A0E348029FE5FC0000FB0E20A0E3D3
:101D08000010A0E33C029FE5F80000FB0E20A0E3D2
:101D18000010A0E330029FE5F40000FB0720A0E3D9
:101D28000010A0E324029FE5F00000FB0120A0E3DF
:101D380004309DE5002083E5E03016E20430A0037E
:101D48000600000A200053E30330A0030300000A42
:101D5800C06006E2400056E30130A0130230A00341
:101D6800203084E5103094E50510A0E1282193E5A2
:101D78001C0193E55CFBFFEB0C3090E5023CC3E3F0
:101D88008A3483E10C3080E50C3090E5013AC3E3F6
:101D9800093683E10C3080E5103090E5033AC3E35F
:101DA800083683E1103080E50C3090E500005BE3F5
:101DB800013B8313013BC3030C3080E50830A0E3EB
:101DC8000160A0E3BE35C4E1BE33DDE1B036C4E155
:101DD8004230DDE5B436C4E1B034DDE1B236C4E109
:101DE8006C319FE53200A0E3783084E5BC66C4E13D
:101DF8004AFCFFEB0030A0E358219FE50050A0E12A
:101E080018008DE228308DE51C308DE52C308DE5ED
:101E180020308DE528608DE52430CDE518208DE54E
:101E2800E9FAFFEB30819FE530919FE530619FE54E
:101E380018008DE2C0FAFFEB000050E32200000A10
:101E4800B815D4E1B031D5E1010053E108005111D2
:101E58000900009AB011C5E10900A0E1D9F8FFFA1C
:101E6800143095E50020A0E1B800C3E10300A0E12B
:101E7800183090E42C2083E503FBFFEBB831D5E163
:101E8800013083E20338A0E12338A0E1000053E3E6
:101E98000D00000A1CA095E5BE20DAE1030052E11E
:101EA8000900003AB820DAE16410A0E3930200E0E8
:101EB800B831C5E108F9FFFA0028A0E12228A0E11D
:101EC8000A10DAE500009AE5E0FAFFEB0030A0E33B
:101ED8000C00A0E310308DE54E0000FB84309FE538
:101EE800007080E5300080E908008DE508108DE27B
:101EF80028009FE514608DE510308DE5A5FEFFEB09
:101F080008008DE2EDFAFFEBC8FFFFEA9423000812
:101F180000000608003C024080230008B0000020B2
:101F2800B4000020B8230008B0020020AC02002052
:101F3800A0230008EC000020AC230008F8000020D3
:101F480004010020120100201E0100202C010020A5
:101F58003A010020FF00FF00C4250008030A000022
:101F6800007A030ACC040008D405000810402DE9C3
:101F7800EFFEFFEB0020A0E33C309FE53C109FE51F
:101F8800002083E5042083E534309FE5141083E5C1
:101F9800182083E5102093E5042082E3102083E5D0
:101FA800102093E5022082E3102083E5102093E5BA
:101FB800012082E3102083E51EFF2FE1B4020020F8
:101FC8003F90020000E000E0DFF834D0002103E099
:101FD8000C4B5B58435004310B480C4B42189A4247
:101FE800F6D30B4A02E0002342F8043B094B9A421D
:101FF800F9D3FFF749F800F03BF8FFF7B7FF704750
:1020080000000220D4250008000000206400002001
:1020180064000020D0020020FEE710B5041E00D1A5
:102028000134200000F048F8002807D100F008F833
:10203800002801D100F015F88047F2E710BD000034
:10204800014B18687047C046BC02002010B500F06C
:1020580004F810BD10B500F004F810B500F036F81B
:1020680010BD10B5062000F031F9012000F06EF91E
:1020780070B500260C4D0D4C641BA410A64209D166
:10208800002600F065F90A4D0A4C641BA410A6420C
:1020980005D170BDB300EB5898470136EEE7B300A1
:1020A800EB5898470136F2E7C8250008C82500080C
:1020B800C8250008D025000810B5034B0100186892
:1020C80000F06AF810BDC0460000002010B5034BB0
:1020D8000100186800F016F810BDC0460000002086
:1020E800002310B59A4200D110BDCC5CC454013312
:1020F800F8E703001218934200D1704719700133B2
:10210800F9E7000070B50500002910D00C1F2368FE
:10211800002B00DAE418280000F0F8F81D4A1368CC
:10212800002B05D163601460280000F0F0F870BD42
:10213800A34209D9216860188342F3D118685B6803
:1021480041182160EEE713005A68002A01D0A24224
:10215800F9D919685818A0420BD1206809185818DD
:1021680019608242E0D110685268411819605A60BB
:10217800DAE7A04202D90C232B60D5E72168601862
:10218800824203D1106852684118216062605C6025
:10219800CAE7C046C0020020032370B5CD1C9D438A
:1021A800083506000C2D1ED20C25A9421DD830007A
:1021B80000F0ACF8254A14682100002919D1244CF4
:1021C8002368002B03D1300000F044F82060290078
:1021D800300000F03FF8431C2BD10C233000336053
:1021E80000F095F803E0002DDFDA0C2333600020BF
:1021F80070BD0B685B1B19D40B2B03D90B60CC1873
:10220800256003E04B688C420DD11360300000F06C
:102218007EF8200007220B30231D9043C31AE7D015
:102228005A42E250E4E763600C00EFE70C004968AB
:10223800C3E70323C41C9C43A042E1D0211A300009
:1022480000F008F8431CDBD1C7E7C046C0020020F5
:10225800C4020020002370B5064C05000800236066
:1022680000F066F8431C03D12368002B00D02B60D4
:1022780070BDC046CC02002070B504000D001F29B7
:1022880004D9162303600120404270BD436C002B23
:1022980004D08A009B181A68002A08D1200000F090
:1022A80031F82A000100200000F01AF8EDE70020BC
:1022B800012AEAD0511C03D1162301302360E4E738
:1022C800002428001C6090472000DEE710B5034B6F
:1022D80001001868FFF7D0FF10BDC04600000020BD
:1022E800002370B5064C050008001100236000F0BB
:1022F80017F8431C03D12368002B00D02B6070BD56
:10230800CC02002010B500F003F810BD70477047EC
:1023180058220120014B40421A607047CC0200202D
:1023280058220120014B40421A607047CC0200201D
:10233800044A1368002B00D1034B181810601800CA
:102348007047C046C8020020D0020020FEE7C04601
:10235800F8B5C046F8BC08BC9E467047F8B5C046FC
:10236800F8BC08BC9E46704704F01FE5E920000849
:0823780004F01FE55D200008E0
:1023800000000000010000006400000000000000E8
:1023900000000000D406000800000000000000005B
:1023A000140A0008000000000000000020140008CB
:1023B0000000000000000000C405000800C18140CA
:1023C00001C0804101C0804100C1814001C0804105
:1023D00000C1814000C1814001C0804101C08041F5
:1023E00000C1814000C1814001C0804100C18140E5
:1023F00001C0804101C0804100C1814001C08041D5
:1024000000C1814000C1814001C0804100C18140C4
:1024100001C0804101C0804100C1814000C18140B4
:1024200001C0804101C0804100C1814001C08041A4
:1024300000C1814000C1814001C0804101C0804194
:1024400000C1814000C1814001C0804100C1814084
:1024500001C0804101C0804100C1814000C1814074
:1024600001C0804101C0804100C1814001C0804164
:1024700000C1814000C1814001C0804100C1814054
:1024800001C0804101C0804100C1814001C0804144
:1024900000C1814000C1814001C0804101C0804134
:1024A00000C1814000C1814001C0804100C1814024
:1024B00001C0804101C0804100C1814000C0C10114
:1024C000C30302C2C60607C705C5C404CC0C0DCDA4
:1024D0000FCFCE0E0ACACB0BC90908C8D81819D914
:1024E0001BDBDA1A1EDEDF1FDD1D1CDC14D4D51544
:1024F000D71716D6D21213D311D1D010F03031F134
:1025000033F3F23236F6F737F53534F43CFCFD3D63
:10251000FF3F3EFEFA3A3BFB39F9F83828E8E92953
:10252000EB2B2AEAEE2E2FEF2DEDEC2CE42425E503
:1025300027E7E62622E2E323E12120E0A06061A173
:1025400063A3A26266A6A767A56564A46CACAD6D23
:10255000AF6F6EAEAA6A6BAB69A9A86878B8B97993
:10256000BB7B7ABABE7E7FBF7DBDBC7CB47475B5C3
:1025700077B7B67672B2B373B17170B050909151B3
:102580009353529296565797559594549C5C5D9DE3
:102590005F9F9E5E5A9A9B5B9959589888484989D3
:1025A0004B8B8A4A4E8E8F4F8D4D4C8C4484854583
:1025B0008747468682424383418180400000000075
:0825C00000000000BC0400084B
:0825C800B10100087C1F0008AE
:0425D0008901000875
:1025D40004000020000000000000000000000000D3
:1025E40000000000000000000000000000000000E7
:1025F40000000000000000000000000000000000D7
:1026040000000000000000000000000000000000C6
:1026140000000000000000000000000000000000B6
:1026240000000000000000000000000000000000A6
:0426340000000000A2
:0400000508001FD1FF
:00000001FF
