:020000040800F2
:1000000000000220851A0008D51A0008D51A000839
:10001000D51A0008D51A0008D51A000800000000FB
:10002000000000000000000000000000D51A0008D9
:10003000D51A000800000000D51A0008CD090008F4
:100040001507000817070008190700081B07000814
:100050001D0700081F0700082107000823070008E4
:10006000250700082707000829070008E1070008FE
:10007000FD070008190800083508000851080008A5
:100080006D080008890800082B0700082D070008E4
:100090002F0700083107000833070008350700085C
:1000A0006F0700087107000873070008750700084C
:1000B00077070008790700087B0700083707000862
:1000C000390700083B0700083D0700083F07000804
:1000D000410700088D070008A9070008C5070008A8
:1000E0004307000845070008470700088307000882
:1000F000850700088707000889070008A508000889
:10010000490700084B0700087D0700084D07000855
:100110004F070008510700087F0700088107000803
:10012000C1080008DD080008F908000815090008E2
:10013000310900080000000000000000530700081B
:100140005507000857070008590700085B07000813
:100150004D09000869090008850900085D070008C5
:100160005F070008610700086307000865070008CB
:100170006707000869070008000000000000000091
:080180006B0700086D07000881
:1001880010B5054C237833B9044B13B10448AFF3C9
:1001980000800123237010BD000000200000000033
:1001A800301B000808B5034B1BB103490348AFF3E4
:1001B800008008BD0000000004000020301B00087B
:1001C8004209012300F01F0003FA00F0014B43F835
:1001D8002200704700E100E0436901334361704742
:1001E80070B4816800220B4613B19A605B68FBE724
:1001F800D0E9042302EB43050B469542144609D087
:1002080026889C6834449C605B680232002B08BFD7
:100218000B46F2E7006B18B1036870BC1B681847FF
:1002280070BC7047C3690133C3617047FFF7C8BF2B
:10023800036813B90160704713465A68002AFBD156
:100248005960704710B504462CB1236820461B68D6
:1002580098476468F8E710BD0369002BBFBF034BDC
:10026800436003F188334360704700BF230167454B
:1002780010B590F830300246052B15D8DFE803F0AA
:1002880003153C5E769190F83330006AD118C05C53
:1002980091F82410884240F095800133DBB2082B96
:1002A80028BF002382F8333010BDC069C368DC035F
:1002B800FAD40369002BF7DAFFF7CEFF036943F09E
:1002C80001030361D3691969012060F309211961E8
:1002D800196941F08071196192F83330116AD06A56
:1002E800C95C82F8321092F83240916943EA0423DB
:1002F80021F81030022366E0C369D968C907D3D54D
:10030800D96841F00101D960196941F000411961CA
:1003180090F8333090F83210034483F82410C36AFD
:100328000133B3F5803F03D30023C36203234AE0BC
:10033800C362002BFAD090F8313044E0C069C3683A
:10034800DC03B1D40369002BAEDAFFF785FF03693C
:1003580043F0020303610369082161F3C6030361E3
:10036800036943F48033036104232CE0C369D9682B
:10037800C90799D5D96841F00101D960196941F0D7
:10038800004119614FF0FF33436283620023C36267
:1003980080F83330012380F83030052382F831307B
:1003A80082E790F833300133DBB2072B06D90023FC
:1003B80080F83330002382F83030EFE780F83330AC
:1003C800002BF7D0012382F830306DE7012901D1E5
:1003D80042637047022901D182637047032901D122
:1003E800C2637047042908BF026470478368416884
:1003F8005A68C3689268B3F85A309A428CBF4FF073
:10040800FF3201220B8B1A4492B2934210D07AB178
:10041800CB69D88990420BD30A83198918684A4353
:100428004FF47A7192FBF1F2997A92B2FFF7CEBF4C
:100438007047000001800B4BB3FBF1F143680139B1
:10044800D8691A684908198189B2D16201891A8B59
:100458004FF47A734A43817A92FBF3F2006892B2BE
:10046800FFF7B4BF007A030A21B9036962F30203F4
:1004780003617047012903D1036962F3C503F7E7F4
:10048800022903D1036962F38813F1E7032903D131
:10049800036962F34B23EBE7042903D1036962F391
:1004A8000E33E5E7052903D1036962F3D133DFE7AA
:1004B800062903D1036962F39443D9E7072903D1D5
:1004C800036962F35753D3E7082903D1036962F339
:1004D8001A63CDE7092903D1036962F3DD63C7E72E
:1004E8000A2904D1C36862F30203C36070470B2969
:1004F80003D1C36862F3C503F7E70C2903D1C368C6
:1005080062F38813F1E70D2903D1C36862F34B2323
:10051800EBE70E2903D1C36862F30E33E5E70F2931
:1005280003D1C36862F3D133DFE7102903D1C3686D
:1005380062F39443D9E7112903D1C36862F357538F
:10054800D3E71229D2D1C36862F31A63CDE7012930
:1005580004D1436B62F3040343637047022903D158
:10056800436B62F34913F7E7032903D1436B62F343
:100578008E23F1E7042903D1436B62F3D333EBE70E
:10058800052903D1436B62F31853E5E7062903D124
:10059800436B62F35D63DFE7072904D1036B62F302
:1005A800040303637047082903D1036B62F34913FB
:1005B800F7E7092903D1036B62F38E23F1E70A29D0
:1005C80003D1036B62F3D333EBE70B2903D1036B3E
:1005D80062F31853E5E70C2903D1036B62F35D63FB
:1005E800DFE70D2904D1C36A62F30403C3627047CD
:1005F8000E2903D1C36A62F34913F7E70F2903D120
:10060800C36A62F38E23F1E71029F0D1C36A62F35B
:10061800D333EBE719B90068C0F3401070470129DC
:1006280003D10068C0F3C0207047022903D10068D5
:10063800C0F340507047032903D10068C0F3C0607D
:100648007047042901D14068E6E7052901D14068CF
:10065800E8E7062901D14068EAE7072901D140689F
:10066800ECE70020704700000A2A10B501D00F2AD5
:1006780015D1204B9A68C2F34232D2B1042A1AD05B
:10068800052A1AD01C4B1D4C062A08BF23460729E9
:100698001AD8DFE801F0141A1D202326292C0B3A5A
:1006A800032A04D8134B9A68C2F38222E5E7002391
:1006B800EDE7134BEBE7134BE9E7134BE7E74FF491
:1006C8001652B3FBF2F3836010BD4FF46152F8E7A2
:1006D8004FF49642F5E74FF4E142F2E74FF4164241
:1006E800EFE74FF46142ECE74FF49632E9E74FF455
:1006F800E132E6E700380240A037A000406F400131
:10070800007A030A00BD010580DE8002FEE7FEE7ED
:10071800FEE7FEE7FEE7FEE7FEE7FEE7FEE7FEE7A9
:10072800FEE7FEE7FEE7FEE7FEE7FEE7FEE7FEE799
:10073800FEE7FEE7FEE7FEE7FEE7FEE7FEE7FEE789
:10074800FEE7FEE7FEE7FEE7FEE7FEE7FEE7FEE779
:10075800FEE7FEE7FEE7FEE7FEE7FEE7FEE7FEE769
:10076800FEE7FEE7FEE7FEE7FEE7FEE7FEE7FEE759
:10077800FEE7FEE7FEE7FEE7FEE7FEE7FEE7FEE749
:10078800FEE7000008B5044B1868FFF75BFD034B54
:100798001A685B6808BD00BF2804002000100140EB
:1007A80008B5044B1868FFF74DFD034B1A685B68E2
:1007B80008BD00BF300400200044004008B5044BC9
:1007C8001868FFF73FFD034B1A685B6808BD00BF58
:1007D800380400200048004008B5044B1868FFF7AB
:1007E80031FD034B3D229A6008BD00BFA8030020DD
:1007F8000060024008B5044B1868FFF723FD034B5F
:100808004FF474629A6008BDB00300200060024093
:1008180008B5044B1868FFF715FD034B4FF4741225
:100828009A6008BDB80300200060024008B5044B78
:100838001868FFF707FD034B4FF074629A6008BD14
:10084800C00300200060024008B5044B1868FFF799
:10085800F9FC034B4FF47462DA6008BDC80300204A
:100868000060024008B5044B1868FFF7EBFC034B27
:100878004FF47462DA6008BDD003002000600240C3
:1008880008B5044B1868FFF7DDFC034B4FF47412EE
:10089800DA6008BDD80300200060024008B5044BA8
:1008A8001868FFF7CFFC034B4FF07462DA6008BD9D
:1008B800E00300200060024008B5044B1868FFF709
:1008C800C1FC034B3D229A6008BD00BFE80300202D
:1008D8000064024008B5044B1868FFF7B3FC034BEB
:1008E8004FF474629A6008BDF0030020006402406F
:1008F80008B5044B1868FFF7A5FC034B4FF47412B6
:100908009A6008BDF80300200064024008B5044B53
:100918001868FFF797FC034B4FF074629A6008BDA4
:10092800000400200064024008B5044B1868FFF773
:1009380089FC034B3D22DA6008BD00BF0804002093
:100948000064024008B5044B1868FFF77BFC034BB2
:100958004FF47462DA6008BD10040020006402409D
:1009680008B5044B1868FFF76DFC034B4FF474127D
:10097800DA6008BD180400200064024008B5044B82
:100988001868FFF75FFC034B4FF07462DA6008BD2C
:100998002004002000640240436A1A6842F0010201
:1009A8001A601A68D107FCD5036A9A6842F00102F6
:1009B8009A609A68D207FCD59A6842F080429A6099
:1009C80070470000054B10B51C682CB12368204601
:1009D8001B689847A468F8E710BD00BF40040020D2
:1009E800426903699A424FF0000326BF4361012020
:1009F80018467047037BC3B100230373D0E9012372
:100A08006AB143B1936083685A600023C0E9013337
:100A180070470B60F8E7054993604A60F5E70349BA
:100A2800002BF6D1C1E90033EFE7704740040020FE
:100A3800037B53B901230373044B5A68426002B124
:100A480090601A68586002B9186070474004002026
:100A580080680269D2F818311B68DB0611D5D2F814
:100A680020315B6800219BB2C2F80011C3F1FF017D
:100A7800FF2928BFFF21FF2BC2F8041101D0FFF77F
:100A8800D7BF7047204B1A68052161F302021A602C
:100A9800A3F580631A6842F480321A601A689203D8
:100AA800FCD59A686FF307129A609A68052161F37A
:100AB8008C229A609A68042161F34F329A609A688E
:100AC800022060F301029A605A6861F305025A60D5
:100AD8005A68A82161F38E125A605A68072161F397
:100AE8001B625A605A686FF311425A605A6842F49E
:100AF80080025A601A6842F080721A60034A1368CA
:100B08009B01FCD5704700BF003C02400038024002
:100B1800754A7649F8B5136813F0010F70D1744B14
:100B2800744C186810F0010F06D1DFF8E0E10920D5
:100B3800C4E900E0012018606F4B186B40F0010019
:100B4800186320680568022666F393450560456AC0
:100B5800072666F307154562684D286810F0010FEF
:100B6800674806D1DFF8A4C10A26C0E900C60126F5
:100B78002E601D6B45F001051D6303681D68022684
:100B880066F315551D605D6A072666F30B255D62E1
:100B98005C4D2B6813F0010F5B4B05D15B4F0C26A6
:100BA800C3E9007601262E60534E356B45F00105EA
:100BB80035631E683768012565F319673760C1F822
:100BC8001031534BC1F81431A3F5AA33C1F81831C9
:100BD80003F5AA33B833C1F81C31783BC1F820318A
:100BE8000A230026C1F824310723C1F80061C1F89F
:100BF8000461C1F80841C1F80C0181F82831156079
:100C08003D4C636C43F010036364D1F81831DA6823
:100C180042F00802DA60DA6842F00402DA605A69DF
:100C280042F080025A615A6942F040025A61394BD7
:100C380093F90400FFF7FAFA236B43F48003236364
:100C4800D1F81C311A68012060F387121A60D1F8B4
:100C580000210A44DA60D1F8182104329A601A682F
:100C680042F480621A601A686FF34E321A601A688A
:100C78006FF3CC221A601A6842F010021A60264BF1
:100C880093F90400FFF7D2FAD1F820311A686FF30C
:100C980087121A60D1F800210A44DA60D1F81821C5
:100CA80004329A60FF225A601A6842F480621A601D
:100CB8001A686FF34E321A601A686FF3CC221A6002
:100CC8001A6842F480721A60D1F820311A68042038
:100CD80060F35B621A60D1F81C311A6860F35B62DA
:100CE8001A600248F8BD00BF4C01002050010020E6
:100CF8009402002098020020003802408802002058
:100D08008C0200207C0200208002002000000240AB
:100D180000640240280400202004002070B52A4EF8
:100D28002A4B326812F0010F2DD129490A6812F0B6
:100D3800010F284A05D1284D0924C2E9005401248D
:100D48000C60264C216B41F00401216311680C688A
:100D5800022565F393440C604C6A65F307144C62F2
:100D68001F49D881C3E900124FF6FF721A81042285
:100D78009A724FF480529A8100221A821A830122B1
:100D88005B61DB61326015490A6C42F002020A6459
:100D98001A68D169062060F30E31D161D16941F436
:100DA8000061D161116841F080011160116841F062
:100DB800010111601B8A40F603218B4202D00948C9
:100DC800FFF738FB014870BD900000209400002018
:100DD800B4000020B800002000080240003802409B
:100DE80000040040A400002038B5324D324C2B6876
:100DF80013F0010318D1314A2260314A226202F508
:100E0800A2321032C4E9060362622E4863602222CD
:100E18002146C4E90233C4E90433C4E90B23A062C0
:100E2800FFF706FA01232B60274A536C43F48073BB
:100E38005364236A59686FF319615960996841F0DE
:100E480002019960996841F480719960996841F448
:100E580000719960596841F480715960116B41F4CF
:100E68008001116303F14C02636A9A601A686FF398
:100E780087121A601A68012161F34E321A601A68E3
:100E880061F3CC221A601A6842F480621A601A6808
:100E980042F010021A601A6842F480721A601A68E6
:100EA8006FF35B621A60A36A93F90400FFF7BEF957
:100EB800014838BD580000205C0000208C1D000847
:100EC80000200140E803002000380240F8B504463D
:100ED8004F48504D026812F0010F1BD14E4A13685B
:100EE80013F0010F4D4B05D14D4F0421C3E900719B
:100EF800012111604B490A6B42F001020A6319682B
:100F08000A6842F440720A600022C5E90022EB60D8
:100F180001230360E36A206A223B012B8CBF002671
:100F28000426F7B2072239462E61FFF79DFAE169D8
:100F3800206A0131E1613A46FFF709FBD4E907323B
:100F4800D16A013B63F31751D162A2681346002BA3
:100F580055D019698E424DDB5B68F8E76A60E36833
:100F6800A56003B9E5602069A2692F4B68B1D3F881
:100F7800001150F8045D0439491B5D18A8421ABFD6
:100F8800012183F80411C3F8001161690A44626100
:100F98002649D3F800518A4294BF52004FF0FF32DD
:100FA800281D1044B0F5807F03EB0501C3F800014C
:100FB8001ED893F80401D8B909B15A510431636AAB
:100FC80021611A686FF300021A60A28AD9605A6018
:100FD8001A6842F001021A601A68D207FCD50D4857
:100FE800F8BD1A68C5E900231D602B685D60BAE783
:100FF8000021E4E79A42F4D16A601560AFE7002A5D
:10100800ACD0E3682B60002BACD05D60AAE700BFD2
:101018003000002034000020480000204C00002050
:101028000000024000380240A0020020FCFFFF3F01
:10103800D0F810210023C0F80031C0F8043110B5F1
:10104800D2E90041012210318A40A261D0F81C2166
:10105800116863F300011160D0F82021116863F36F
:101068000001FF2311605360D0F820311A6842F064
:1010780001021A601A68D207FCD5D0F81821D36883
:1010880043F01003D36010BD08B583681A6992F85D
:101098002811D2F81401FFF7BDFA10B11869FFF74B
:1010A800C7FF08BD05294BD8DFE801F0030C152060
:1010B8002E3F0268D1689268B1F85030A1F86030CC
:1010C800138270470268D1689268B1F85230A1F86B
:1010D8006230937470470368DB68B3F85430A3F147
:1010E800D00253425341194A13707047174B1A786C
:1010F8003AB10168C8688968B0F85620A0F85E203F
:10110800CA8101221A7070470368DA685868B2F811
:101118005810038AA2F864108B4211D040F60223BB
:1011280099420DD91030FFF785B902685168D26825
:101138000B68B2F85A2089891AB11A6A0A431A62E6
:1011480070471A6A22EA0102F9E700BF540000203A
:10115800F7B500F12406024633462C30FF219842A9
:1011680002D003F8011BFAE70023CDE900339369A5
:10117800012003F500359C1CA71EBD42D16A1BD077
:101188000131B1F5803F28BF0021D16214F8027CFB
:10119800072F0CD8174414F8011C87F8241014F8EA
:1011A800021C02AF394401F8080C0234E4E7FF2FAF
:1011B800FBD159B10139D162D06A50B9012382F803
:1011C8003030052382F8313003B0F0BD4FF4803160
:1011D800F1E703EB4003E91AC9104FF6FF70002945
:1011E8001ADD1C88844203D15C88844207D002330C
:1011F8009D421ED0032382F830300020E4E79C880B
:10120800844201D00433F3E7DC88844201D00633FA
:10121800EEE708330139E2E7E91A4910022934D028
:1012280003292CD0012937D118884FF6FF7188423D
:10123800DED19DF80030002BDCD09DF80130002B6A
:10124800D8D09DF80230002BD4D09DF80330002B65
:10125800D0D09DF80430002BCCD09DF80530002B61
:10126800C8D09DF80630002BC4D09DF80700002890
:10127800C0D0126A3368136073685360A4E7188893
:101288004FF6FF718842B3D1023318884FF6FF71C9
:101298008842ADD10233C7E72B46A9E7F0B5FF2353
:1012A800074F084E1D4611F8014B5C4091423B5DCB
:1012B80083EA0503355DF6D105704370F0BD00BFC4
:1012C800841B0008841C0008D0F80031D0F80421E1
:1012D8009A4283BF5A1CC0F80021C05C00207047A6
:1012E800D0F80431FE2B9FBFC154D0F8043101332C
:1012F800C0F80431704738B50C46090A0546FFF7AF
:10130800EFFFE1B2FFF7ECFF284638BDD0F8103107
:10131800D3E9002101238B409361D0F81831DA68B2
:101328006FF30412DA60D0F820311A686FF3000204
:101338001A60D0F81C311A686FF300021A60D0F8EE
:101348000431D0F80011D0F81C215B1A02339BB28B
:101358005360D0F81C311A6842F001021A601A680A
:10136800D207FCD57047036937B501294FF0000251
:1013780004460D46C3F80021C3F804210ED190F8A5
:1013880024100069FFF7ACFF94F8251041F08001A4
:10139800FFF7A6FF2946FFF7A3FF0BE00229006924
:1013A80006D194F82410FFF79BFF94F82510EFE777
:1013B8000329F6D02369D3F80421D3F800111A447D
:1013C800194401A8FFF76AFF9DF805102069FFF787
:1013D80087FF9DF80410FFF783FF2069FFF796FF4A
:1013E80003B030BD70B5D0F80031D0F80421013316
:1013F8009A4204460D460ED9FFF766FF0646204678
:10140800FFF762FF4FF0000360F3070366F30F2353
:101418002B80204670BD0023FAE738B504460D46F8
:1014280000F126010069FFF7DDFF04F12A012069B8
:10143800FFF7D8FF638DE08C1844013880B2A842CA
:101448004FEA4303208584F82C302CBF002001206C
:1014580038BD13B507210446FFF7DFFF28B902217D
:101468002046FFF780FF02B010BD23690022C3F8B1
:101478000021C3F8042194F824102069FFF730FFF5
:101488000321FFF72DFF94F82C10FFF729FF638D38
:1014980020695A1E62854BB1E38C5A1C04EB430346
:1014A800E284B3F85C10FFF726FFF0E7D0F80421D8
:1014B800D0F800110244014401A8FFF7EFFE9DF89F
:1014C80005102069FFF70CFF9DF80410FFF708FFCF
:1014D8002069FFF71BFFC6E7F0B585B00446019108
:1014E8000621FFF79AFF20B902212046FFF73BFFAC
:1014F80079E02369D3F80021D3F80411914283BF1E
:10150800511CC3F800119B5C002384F82C30002583
:1015180004F12E06628DABB29A422BD9314620696E
:10152800FFF760FFE38C13FA85F3E2185B0092F88B
:101538008210E28D79B1234410B2B3F86A100FB269
:10154800B84200DA29B9B3F876100FB2B8420DDD07
:1015580061B10321C9E72344B3F86A108A4201D272
:101568000029F6D1B3F876108A42F1D8A3F85020B2
:101578000135CFE70025638DA9B28B4205F101053E
:1015880006D9E38C194489B201A8FFF78BFDF2E76D
:1015980023690022C3F80021C3F8042194F8241019
:1015A8002069FFF79DFE94F82510FFF799FEE18C5E
:1015B800FFF7A1FE618DFFF79EFE2369D3F8042192
:1015C800D3F800111A44194403A8FFF767FE9DF8E1
:1015D8000D102069FFF784FE9DF80C10FFF780FEC0
:1015E8002069FFF793FE05B0F0BDF7B50E46016917
:1015F800D1F82031D1F804215B68D1F800119BB2F1
:10160800521AC3F1FF039A42044605D20023C3616C
:10161800FFF7F0F903B0F0BDD0E907239A42F9DBF0
:101628000025C561FFF7E6F90069D0F80431D0F864
:101638000021991A072902D8FFF7FAFCEAE7875C24
:1016480094F824108F42F7D19A423CBF03F1FF333C
:10165800C0F80431226938BFC55CD2F80011D2F84D
:1016680004318B4282BF03F1FF33C2F80431D75CE7
:101678002369D3F80421D3F800111A44194401A8A6
:1016880098BF0027FFF70AFE9DF80430AB4211D13E
:101698009DF805302069BB420CD1FFF715FE206983
:1016A800FFF712FE032884F8250005D12046FFF72E
:1016B800D0FEAFE72069BFE7102804D131462046A5
:1016C800FFF70AFFA6E701212046FFF74CFEA1E736
:1016D8002DE9F04F9DB0904A0F929049904A0DF134
:1016E8003C08002301240DF14A054046ADF84A3074
:1016F800ADF84C308DF84E40ADF85030CDE9103390
:101708008DF84830CDE9151217951A938DF86C307D
:101718008DF86D308DF86F30FFF71AFD20B96860CD
:10172800CDF84A008DF84E404046FFF781F99DF804
:101738004C609DF84E200192C6F3C1030093BDF89A
:101748004C70784CFFF7E4F9774B019A1D6815F057
:10175800010506F00109C6F3400BC6F3800A4FEAFB
:10176800561641D171492160714984F82420714A83
:101778002061C4E906157048A26304F13801C4E980
:1017880001552573E5632464019360612562E5844E
:101798002585658584F82C502586FEF749FD674A1E
:1017A800626404F14401A069A564E464FEF740FDA5
:1017B8000E22294604F15C00C4E91455A56500F021
:1017C800ABF9019BC4F86A500122C4F86E50C4F802
:1017D8007250C4F87650C4F87A50C4F87E50C4F8F1
:1017E8008250A4F886501A60FFB217F0E00300F0A8
:1017F8008C80202B00F08B8007F0C007402F14BF8F
:1018080001230223236223693146D3F82421D3F824
:101818001801FEF729FFC3686BF34923C360C36847
:101828006AF30C33C3600369009A62F30D330361F2
:10183800C368B9F1000F6CD043F48063C360C36818
:1018480043F40053C3602069FFF7F2FB4FF4E170E3
:10185800FFF764FA05461020FFF7C6FA0390FFF772
:1018680035FB0923A4F85C30BDF84A30A4F85E3093
:101878009DF84E30A4F86230BDF84C30A4F86030C2
:10188800FF23A4F87630A4F8783000230D9303A939
:101898002B4A0E9304900126CDE90A338DF8303097
:1018A80009A80A2309920D93A4F86C60CDE90515DF
:1018B800CDE90784FFF7BCF8224A0398136813F0B0
:1018C800010F08BF204F214B036302BFC3E9007516
:1018D800C3E902141660FFF75FF8089BB3F85A30A3
:1018E80043B109A8FFF77CF820B1069B1A8B089B27
:1018F800A3F86620059B08985B689B68A0F8683089
:1019080005A9FFF772FE30BFE7E704237AE7032350
:1019180078E769F38A2391E7501B0008000008085C
:10192800003C0240C4000020C0000020741B0008D6
:10193800200400205C1B000828040020681B000805
:10194800981D00081C000020801B000820000020B3
:1019580008B54FF484720021314800F0DDF8314AAF
:1019680000232521136011712F4A2621136011715C
:101978002E4A2721136011712D4A0B211360117112
:101988002C4A0C21136011712B4A0D21136011711F
:101998002A4A0E2113601171294A0F21136011710F
:1019A800284A102113601171274A112113601171FF
:1019B800264A2F2113601171254A382113601171AD
:1019C800244A392113601171234A3A211360117195
:1019D800224A3B2113601171214A3C211360117185
:1019E800204A4421136011711F4A45211360117167
:1019F8001E4A4621136011711D4A1E49C2E900336F
:101A08001D4A51609360136843F004031360136820
:101A180043F002031360136843F00103136008BD29
:101A2800A0020020280400203004002038040020F0
:101A3800A8030020B0030020B8030020C003002042
:101A4800C8030020D0030020D8030020E0030020B2
:101A5800E8030020F0030020F80300200004002021
:101A6800080400201004002018040020200400208E
:101A7800400400203F90020010E000E0DFF834D07E
:101A8800002103E00C4B5B58435004310B480C4BCE
:101A980042189A42F6D30B4A02E0002342F8043B6C
:101AA800094B9A42F9D3FEF7EDFF00F011F8FFF762
:101AB8000FFE704700000220A81D0008000000204B
:101AC800000000200000002048040020FEE700007D
:101AD80070B50D4E0D4CA41BA4100025A54209D1CC
:101AE8000B4E0C4C00F020F8A41BA4100025A542B6
:101AF80005D170BD56F8253098470135EEE756F800
:101B0800253098470135F2E79C1D00089C1D000808
:101B18009C1D0008A41D000802440346934200D1FE
:101B2800704703F8011BF9E7F8B500BFF8BC08BC1B
:101B38009E467047F8B500BFF8BC08BC9E46704783
:101B4800000000000000000079020008000000000A
:101B580000000000590A0008000000000000000012
:101B68009110000800000000000000002D0200088D
:101B78000000000000000000F503000800C18140DB
:101B880001C0804101C0804100C1814001C0804145
:101B980000C1814000C1814001C0804101C0804135
:101BA80000C1814000C1814001C0804100C1814025
:101BB80001C0804101C0804100C1814001C0804115
:101BC80000C1814000C1814001C0804100C1814005
:101BD80001C0804101C0804100C1814000C18140F5
:101BE80001C0804101C0804100C1814001C08041E5
:101BF80000C1814000C1814001C0804101C08041D5
:101C080000C1814000C1814001C0804100C18140C4
:101C180001C0804101C0804100C1814000C18140B4
:101C280001C0804101C0804100C1814001C08041A4
:101C380000C1814000C1814001C0804100C1814094
:101C480001C0804101C0804100C1814001C0804184
:101C580000C1814000C1814001C0804101C0804174
:101C680000C1814000C1814001C0804100C1814064
:101C780001C0804101C0804100C1814000C0C10154
:101C8800C30302C2C60607C705C5C404CC0C0DCDE4
:101C98000FCFCE0E0ACACB0BC90908C8D81819D954
:101CA8001BDBDA1A1EDEDF1FDD1D1CDC14D4D51584
:101CB800D71716D6D21213D311D1D010F03031F174
:101CC80033F3F23236F6F737F53534F43CFCFD3DA4
:101CD800FF3F3EFEFA3A3BFB39F9F83828E8E92994
:101CE800EB2B2AEAEE2E2FEF2DEDEC2CE42425E544
:101CF80027E7E62622E2E323E12120E0A06061A1B4
:101D080063A3A26266A6A767A56564A46CACAD6D63
:101D1800AF6F6EAEAA6A6BAB69A9A86878B8B979D3
:101D2800BB7B7ABABE7E7FBF7DBDBC7CB47475B503
:101D380077B7B67672B2B373B17170B050909151F3
:101D48009353529296565797559594549C5C5D9D23
:101D58005F9F9E5E5A9A9B5B995958988848498913
:101D68004B8B8A4A4E8E8F4F8D4D4C8C44848545C3
:101D780087474686824243834181804000000000B5
:101D880000000000E9010008000000000000000059
:041D9800E10100085D
:081D9C00AD010008591900080F
:041DA40089010008A9
:0400000508001A8550
:00000001FF
