:020000040800F2
:1000000000000220CD1E00081D1F00081D1F000853
:100010001D1F00081D1F00081D1F00080000000014
:100020000000000000000000000000001D1F00088C
:100030001D1F0008000000001D1F0008D007000859
:100040001D1F00081D1F00081D1F00081D1F0008A0
:100050001D1F00081D1F00081D1F00081D1F000890
:100060001D1F00081D1F00081D1F00081D1F000880
:100070001D1F00081D1F00081D1F00081D1F000870
:100080001D1F00081D1F00081D1F00081D1F000860
:100090001D1F00081D1F00081D1F00081D1F000850
:1000A0001D1F00081D1F00081D1F00081D1F000840
:1000B0001D1F00081D1F00081D1F00081D1F000830
:1000C0001D1F00081D1F00081D1F00081D1F000820
:1000D0001D1F00081D1F00081D1F00081D1F000810
:1000E0001D1F00081D1F00081D1F00081D1F000800
:1000F0001D1F00081D1F00081D1F00081D1F0008F0
:100100001D1F00081D1F00081D1F00081D1F0008DF
:100110001D1F00081D1F00081D1F00081D1F0008CF
:100120001D1F00081D1F00081D1F00081D1F0008BF
:100130001D1F000800000000000000001D1F000837
:100140001D1F00081D1F00081D1F00081D1F00089F
:100150001D1F00081D1F00081D1F00081D1F00088F
:100160001D1F00081D1F00081D1F00081D1F00087F
:100170001D1F00081D1F00080000000000000000F7
:080180001D1F00081D1F0008EF
:1001880010B5064C2378002B07D1054B002B02D065
:100198000448AFF300800123237010BD64000020E1
:1001A8000000000058200008044B10B5002B03D0B5
:1001B80003490448AFF3008010BDC04600000000AA
:1001C8006800002058200008002243088B4274D39E
:1001D80003098B425FD3030A8B4244D3030B8B4240
:1001E80028D3030C8B420DD3FF22090212BA030C49
:1001F8008B4202D31212090265D0030B8B4219D32A
:1002080000E0090AC30B8B4201D3CB03C01A524149
:10021800830B8B4201D38B03C01A5241430B8B4291
:1002280001D34B03C01A5241030B8B4201D30B037A
:10023800C01A5241C30A8B4201D3CB02C01A5241A1
:10024800830A8B4201D38B02C01A5241430A8B4264
:1002580001D34B02C01A5241030A8B4201D30B024D
:10026800C01A5241CDD2C3098B4201D3CB01C01A67
:10027800524183098B4201D38B01C01A5241430971
:100288008B4201D34B01C01A524103098B4201D35F
:100298000B01C01A5241C3088B4201D3CB00C01ACC
:1002A800524183088B4201D38B00C01A5241430844
:1002B8008B4201D34B00C01A5241411A00D2014669
:1002C800524110467047FFE701B5002000F0F0F8F2
:1002D80002BDC0460029F7D076E7704703460B43B6
:1002E8007FD4002243088B4274D303098B425FD327
:1002F800030A8B4244D3030B8B4228D3030C8B4253
:100308000DD3FF22090212BA030C8B4202D3121238
:10031800090265D0030B8B4219D300E0090AC30B0D
:100328008B4201D3CB03C01A5241830B8B4201D3BA
:100338008B03C01A5241430B8B4201D34B03C01AA3
:100348005241030B8B4201D30B03C01A5241C30A1B
:100358008B4201D3CB02C01A5241830A8B4201D38C
:100368008B02C01A5241430A8B4201D34B02C01A76
:100378005241030A8B4201D30B02C01A5241CDD21B
:10038800C3098B4201D3CB01C01A524183098B4266
:1003980001D38B01C01A524143098B4201D34B014F
:1003A800C01A524103098B4201D30B01C01A5241B2
:1003B800C3088B4201D3CB00C01A524183088B4239
:1003C80001D38B00C01A524143088B4201D34B0022
:1003D800C01A5241411A00D2014652411046704794
:1003E8005DE0CA0F00D04942031000D34042534099
:1003F80000229C4603098B422DD3030A8B4212D359
:10040800FC22890112BA030A8B420CD3890192118A
:100418008B4208D3890192118B4204D389013AD0C7
:10042800921100E08909C3098B4201D3CB01C01A9C
:10043800524183098B4201D38B01C01A52414309AF
:100448008B4201D34B01C01A524103098B4201D39D
:100458000B01C01A5241C3088B4201D3CB00C01A0A
:10046800524183088B4201D38B00C01A5241D9D222
:1004780043088B4201D34B00C01A5241411A00D2A3
:100488000146634652415B10104601D34042002B9F
:1004980000D54942704763465B1000D3404201B51E
:1004A800002000F005F802BD0029F8D016E77047D3
:1004B8007047C046143090E5013083E2143080E57F
:1004C8001EFF2FE1010052E3001080050200000A20
:1004D800020052E300309105003080050000A0E3DF
:1004E8001EFF2FE11C3090E5013083E21C3080E5CF
:1004F8001EFF2FE1000051E30000D0051400000AA0
:10050800010051E30300001A0100D0E5A001A0E1B9
:10051800010000E21EFF2FE1020051E30200D005B6
:100528000B00000A030051E30300D005F6FFFF0AA1
:10053800040051E30400D0050500000A050051E35A
:100548000500D005F0FFFF0A060051E30200001A7B
:100558000600D0E5A002A0E1ECFFFFEA070051E3A6
:100568000700D005E8FFFF0A0000A0E31EFF2FE107
:10057800103090E5000053E30C309FB5043080B58F
:1005880008309FB5043080B51EFF2FE12301674571
:10059800AB89EFCD10402DE93030D0E50040A0E127
:1005A800050053E303F19F97110000EACC0500080A
:1005B800100600088C060008F40600084407000826
:1005C8009C0700083330D0E5201090E5032080E038
:1005D8000310D1E72420D2E5020051E10600001AF9
:1005E800013083E2FF3003E2080053E30030A02328
:1005F8003330C0E51040BDE81EFF2FE10130A0E315
:100608003030C4E5FAFFFFEA1C0090E50C3090E5B5
:10061800010813E3F6FFFF1A103090E5000053E3DA
:10062800F3FFFFAAD1FFFFEB103090E5013083E321
:10063800103080E51C2094E5103092E5023CC3E3BD
:10064800013C83E3103082E5103092E5013483E306
:10065800103082E53330D4E5202094E50320D2E73A
:100668003220C4E52C2094E53200D4E5181094E536
:10067800003483E18220A0E1B23081E10230A0E3BE
:10068800DEFFFFEA1C3090E50C2093E5010012E341
:10069800D7FFFF0A0C2093E5012082E30C2083E5B5
:1006A800102093E5022182E3102083E53330D0E562
:1006B8003220D0E5033080E02420C3E52C3090E5DB
:1006C800013083E2010853E30030A0232C30802559
:1006D8000300002A000053E32C3080E53130D015A8
:1006E800C6FFFF1A0330A0E3C4FFFFEA1C0090E531
:1006F8000C3090E5010813E3BDFFFF1A103090E5B8
:10070800000053E3BAFFFFAA98FFFFEB103090E513
:10071800023083E3103080E5103090E54030C3E3C9
:10072800383083E3103080E5103090E5013883E3FA
:10073800103080E50430A0E3B0FFFFEA1C3090E5FC
:100748000C2093E5010012E3A9FFFF0A0C2093E5B2
:10075800012082E30C2083E5102093E5022182E347
:10076800102083E5FF10A0E30820A0E3240080E226
:10077800030600FB0030A0E32C3084E53330C4E5E9
:100788000130A0E33030C4E50530A0E33130C4E5E2
:1007980097FFFFEA3330D0E5013083E2FF3003E210
:1007A800070053E30030A0833330C0850200008A7D
:1007B800000053E33330C0E58FFFFF1A0030A0E399
:1007C8003030C4E5F0FFFFEA30309FE510402DE9F6
:1007D800004093E5000054E30600000A003094E569
:1007E8000400A0E1003093E50FE0A0E113FF2FE142
:1007F800084094E5F6FFFFEA1040BDE81EFF2FE130
:100808009C020020142090E5103090E5030052E18E
:100818000030A0E3143080250100A0230300A0319C
:100828001EFF2FE10C30D0E5000053E31EFF2F011F
:100838000030A0E30C30C0E50C0090E9000052E362
:100848000B00000A000053E30830821508309015A9
:1008580038109F0508308205042081050000000A31
:10086800042083E50030A0E3043080E5083080E50B
:100878001EFF2FE114109FE5000053E3003081159F
:10088800F6FFFF1A003081E5043081E5F4FFFFEA46
:100898009C0200200C30D0E5000053E31EFF2F110E
:1008A8000130A0E30C30C0E520309FE5042093E53B
:1008B800000052E3042080E508008215002093E53B
:1008C800000052E3040083E5000083051EFF2FE1CA
:1008D8009C020020080090E5102090E5183192E570
:1008E800003093E5100013E31EFF2F01203192E53D
:1008F800043093E50338A0E12338A0E1FF3063E238
:10090800FF0053E30010A0E3FF30A023001182E5AD
:10091800043182E5DEFFFFEA010051E30100001A1D
:10092800342080E51EFF2FE1020051E30100001A88
:10093800382080E51EFF2FE1030051E30100001A73
:100948003C2080E51EFF2FE1040051E34020800594
:100958001EFF2FE110402DE90040A0E1B010C0E1DA
:1009680048009FE517FEFFFA043094E5B800C3E19C
:100978001C4093E5002093E50008A0E12008A0E1D1
:100988002C0082E5B831D3E1B820D4E16410A0E3AB
:10099800920300E050FEFFFA0028A0E10A10D4E517
:1009A800000094E52228A0E11040BDE8D9FFFFEA45
:1009B800007A030A10402DE9083090E5000053E35F
:1009C8000040A0E10320A0130010A0110FE0A01127
:1009D80013FF2F110400A0E11040BDE81EFF2FE116
:1009E8000F0052E30A00521310402DE90040A0E125
:1009F8000100A0030000A0131A00001AD0309FE5E0
:100A0800080093E5A006A0E1073010E2C4009F05A6
:100A18000900000A040053E3BC009F050600000A11
:100A2800050053E3B4009F050300000AB0209FE5CA
:100A3800060053E3AC009FE50200A001070051E364
:100A480001F19F97110000EA8C0A0008A40A000827
:100A5800AC0A0008B40A0008BC0A0008C40A000866
:100A6800CC0A0008D40A00080B2042E2030052E333
:100A7800F1FFFF8A58309FE5080093E52005A0E1C3
:100A8800E0FFFFEA961DA0E313FEFFFA080084E5E5
:100A98000400A0E11040BDE81EFF2FE1E11DA0E326
:100AA800F8FFFFEA4B1CA0E3F6FFFFEA38109FE5CA
:100AB800F4FFFFEA961CA0E3F2FFFFEAE11CA0E3C3
:100AC800F0FFFFEA4B1BA0E3EEFFFFEA1C109FE5D7
:100AD800ECFFFFEA00380240007A030A00BD010576
:100AE80080DE8002406F4001A037A00080700000C7
:100AF80000C20100C0209FE5003092E50230C3E348
:100B0800053083E3003082E5B0309FE5002093E5AF
:100B1800012882E3002083E5002093E5020812E320
:100B2800FCFFFF0A082093E5F020C2E3082083E5D4
:100B3800082093E5022BC2E3052B82E3082083E516
:100B4800082093E5062AC2E3022982E3082083E508
:100B5800082093E50120C2E3022082E3082083E510
:100B6800042093E53B20C2E3042082E3042083E5CC
:100B7800042093E5552CC2E3C020C2E32A2C82E36B
:100B8800042083E5042093E50328C2E3042083E5D9
:100B9800042093E5012582E3042083E5002093E502
:100BA800012482E3002083E510209FE5003092E5D0
:100BB800020413E3FCFFFF0A1EFF2FE1003C024082
:100BC8000038024098029FE5003090E5010013E3E9
:100BD80010402DE98C329FE55300001A88229FE5CA
:100BE800001092E5010011E309E0A0037C129F05C3
:100BF8007CC29FE502408C080110A003001082050A
:100C080070229FE5301092E5011081E3301082E5F3
:100C180000E09CE500109EE50117C1E3021781E39F
:100C280000108EE524109EE58010C1E3701081E36A
:100C380024108EE540129FE500E091E501001EE3D7
:100C480028429F0534E29FE500408E050A40A00334
:100C580004408E050140A00300408105301092E554
:100C6800011081E3301082E500109EE5002091E537
:100C78000126C2E3022682E3002081E5242091E5D3
:100C8800022BC2E3072C82E3242081E5F0219FE5B3
:100C9800001092E5010011E3D0419F05E4119FE5A2
:100CA800004081050C40A003044081050140A003D9
:100CB80000408205BC419FE5302094E5012082E395
:100CC800302084E5004091E5002094E50224C2E349
:100CD800012482E3002084E50020A0E3002183E5CD
:100CE800042183E5A0219FE5142183E5552B42E2E9
:100CF800182183E5552B82E2B82082E21C2183E586
:100D0800782042E2202183E50A20A0E3242183E51C
:100D18000420A0E32821C3E50120A0E308C183E55E
:100D28000CE183E5101183E5002080E544119FE57F
:100D3800442091E5102082E3442081E5182193E5C1
:100D48000C0092E5080080E30C0082E50C0092E5B7
:100D5800040080E30C0082E5140092E5800080E343
:100D6800140082E5140092E5400080E3140082E557
:100D78000C0092E5100080E30C0082E50C0092E57F
:100D8800020A80E30C0082E52020A0E3FC009FE536
:100D9800042080E5302091E5012582E3302081E5BB
:100DA8001C2193E5001092E58010C1E3401081E317
:100DB800001082E5001193E5011083E00C1082E534
:100DC800181193E5041081E2081082E5001092E5FD
:100DD800011B81E3001082E5001092E5061AC1E3C9
:100DE800001082E5001092E5061BC1E3001082E5C1
:100DF800001092E5101081E3001082E54020A0E386
:100E0800082080E5202193E5001092E5C010C1E399
:100E1800001082E5001193E5011083E00C1082E5D3
:100E2800183193E5043083E2083082E5FF30A0E30F
:100E3800043082E5003092E5013B83E3003082E52F
:100E4800003092E5063AC3E3003082E5003092E5CF
:100E5800063BC3E3003082E508009FE51040BDE88B
:100E68001EFF2FE1400100204401002088020020DD
:100E7800000002408C020020003802407C02002062
:100E880080020020700200207402002000640240EA
:100E980000E100E00C319FE5002093E5010012E33A
:100EA80010402DE903E0A0E1FC309FE52600001A80
:100EB800F8209FE5001092E5010011E309C0A003A6
:100EC800EC109FE5EC409F051010810801C0A003BD
:100ED80000C08205E0C09FE530209CE5042082E345
:100EE80030208CE500C091E500209CE50127C2E395
:100EF800022782E300208CE524209CE5D020C2E371
:100F0800202082E324208CE5B0209FE5002083E5A3
:100F18000020E0E3B820C3E10420A0E30A20C3E5F1
:100F2800012AA0E3BC20C3E10020A0E3B021C3E173
:100F3800B821C3E10120A0E3041083E5BE00C3E1AA
:100F4800143083E51C3083E500208EE568109FE5AA
:100F5800402091E5022082E3402081E5002093E5CE
:100F68001C1092E5011AC1E3061A81E31C1082E500
:100F7800001092E5801081E3001082E5001092E5F0
:100F8800011081E3001082E534109FE5B031D3E110
:100F9800010053E12C009F156DFEFF1B08009FE523
:100FA8001040BDE81EFF2FE18400002088000020CB
:100FB800A8000020AC0000200008024000380240D1
:100FC80000040040040A000098000020050051E3D6
:100FD80001F19F97400000EAF80F0008141000087C
:100FE800301000085410000884100008B4100008DD
:100FF800002090E50C1092E5082092E5B035D1E18B
:10100800B036C1E1B031C2E11EFF2FE1002090E50A
:101018000C1092E5082092E5B235D1E1B236C1E173
:101028001230C2E51EFF2FE1003090E50C3093E549
:10103800B435D3E1D02043E2003072E20230A3E0BD
:1010480098209FE50030C2E51EFF2FE18C309FE518
:101058000020D3E5000052E3001090150C00911514
:1010680008109115B625D011BE25C011BE20C1119A
:101078000120A0E30020C3E51EFF2FE1003090E52A
:101088000C2093E5040093E5B815D2E150309FE5B4
:10109800B416C2E1B021D0E1010052E103005111C0
:1010A8001EFF2F91100080E229FEFFEA003090E534
:1010B8000C1093E5BA25D1E1B826C1E1041093E5F7
:1010C800003091E5000052E3BC10D1E1202093E507
:1010D800012082110120C201202083E51EFF2FE19B
:1010E80080000020030A000010402DE9B010D1E173
:1010F800B5FFFFEB1040BDE81EFF2FE173402DE95F
:10110800241080E20130A0E10020E0E32CC080E25E
:1011180003005CE10120C314FCFFFF1A0030A0E3C8
:101128000160A0E300308DE504308DE5183090E5CE
:10113800E0519FE502E883E202C083E202404CE20C
:1011480004005EE12C2090E51500000A012082E2EF
:10115800050052E10020A0832C2080E502405CE5D8
:10116800070054E30800008A01205CE5044080E0A1
:101178002420C4E502205CE508408DE2022084E0DA
:10118800086042E502C08CE2EBFFFFEAFF0054E38F
:10119800FBFFFF1A000052E30128A00301204212BE
:1011A8002C2080E52C4090E5000054E30700001A4D
:1011B8000130A0E33030C0E50530A0E33130C0E5B0
:1011C8000400A0E108D08DE27040BDE81EFF2FE1C9
:1011D800843083E003204EE038C19FE5C221A0E1BE
:1011E800000052E3170000DAB040D3E10C0054E1EC
:1011F8000300001AB240D3E10C0054E10600000AD3
:10120800023083E203005EE11B00000A0330A0E322
:101218000040A0E33030C0E5E8FFFFEAB440D3E186
:101228000C0054E104308312F5FFFF1AB640D3E1F5
:101238000C0054E106308312F1FFFF1A083083E2F4
:10124800012042E2E5FFFFEA03204EE0C220A0E1D0
:10125800020052E32900000A030052E32200000AB8
:10126800010052E30E30A011E5FFFF1AB0C0D3E130
:10127800A0209FE502005CE1E1FFFF1A0030DDE5F8
:10128800000053E3E0FFFF0A0130DDE5000053E30F
:10129800DDFFFF0A0230DDE5000053E3DAFFFF0A55
:1012A8000330DDE5000053E3D7FFFF0A0430DDE536
:1012B800000053E3D4FFFF0A0530DDE5000053E3E7
:1012C800D1FFFF0A0630DDE5000053E3CEFFFF0A39
:1012D8000740DDE5000054E3CBFFFF0A0820A0E348
:1012E800200090E5220300FAB4FFFFEAB0C0D3E182
:1012F80020209FE502005CE1C1FFFF1A023083E273
:10130800B0C0D3E10C209FE502005CE1BCFFFF1AEE
:10131800023083E2D4FFFFEAFFFF00000030A0E3C1
:10132800003180E5043180E5103190E50A0093E84A
:10133800102083E20130A0E31332A0E1183081E5E8
:101348001C2190E5003092E50130C3E3003082E5CE
:10135800203190E5002093E50120C2E3002083E5D9
:10136800002093E5012082E3002083E5002093E537
:10137800010012E3FCFFFF0A1EFF2FE110402DE9D8
:10138800083090E5102093E52811D2E5140192E584
:1013980057FCFFEB000050E310009315DEFFFF1B26
:1013A8001040BDE81EFF2FE1FF30A0E330402DE9DB
:1013B80003E0A0E12C509FE52C409FE501C0D1E45B
:1013C80003C02CE00C30D5E7020051E10E3023E0D9
:1013D8000CE0D4E7F8FFFF1A00E0C0E50130C0E5F3
:1013E8003040BDE81EFF2FE1A8200008A821000812
:1013F800003190E5042190E5030052E10120838249
:10140800002180850300D0870000A0931EFF2FE1F4
:10141800043190E5FE0053E30310C0970431909522
:1014280001308392043180951EFF2FE170402DE931
:101438000140A0E10050A0E12114A0E1F3FFFFEB7F
:10144800FF1004E2F1FFFFEB0500A0E17040BDE8EA
:101458001EFF2FE1103190E5002093E5041093E57D
:101468000130A0E31331A0E1183082E5202190E596
:10147800003092E50130C3E3003082E51C3190E58D
:10148800002093E50120C2E3002083E5411F80E2AC
:10149800060011E8012042E00228A0E12228A0E18C
:1014A800042083E5002093E5012082E3002083E502
:1014B800002093E5010012E3FCFFFF0A1EFF2FE165
:1014C80037402DE90020A0E3103090E5010051E3FA
:1014D8000040A0E10150A0E1002183E5042183E55B
:1014E8000800001A2410D0E5100090E5C7FFFFEBB4
:1014F8002510D4E5801081E3C4FFFFEB0510A0E1BF
:10150800C2FFFFEB080000EA020051E3100090E57B
:101518000300001A2410D4E5BCFFFFEB2510D4E526
:10152800F4FFFFEA030051E3F9FFFF0A103094E5E6
:10153800011C83E2060091E804008DE2011083E0BB
:10154800022083E097FFFFEB0510DDE5100094E52E
:10155800AEFFFFEB0410DDE5ACFFFFEB100094E5F8
:10156800BBFFFFEB0CD08DE23040BDE81EFF2FE142
:1015780070402DE9003190E5042190E5013083E2C7
:10158800030052E10040A0E10800009A0160A0E1D8
:1015980096FFFFEB0050A0E10400A0E193FFFFEBF2
:1015A800FF5005E2FF0000E2050480E1B000C6E15B
:1015B8000400A0E17040BDE81EFF2FE170402DE956
:1015C8000040A0E10150A0E1261080E2100090E563
:1015D800E6FFFFEB2A1084E2100094E5E3FFFFEB3F
:1015E800BA32D4E1B602D4E1000083E0010040E25F
:1015F8000008A0E12008A0E1050050E18330A0E147
:10160800B802C4E12C30C4E50000A0230100A033D7
:101618007040BDE81EFF2FE113402DE90710A0E33D
:101628000040A0E1E4FFFFEB000050E30500001AD2
:101638000210A0E30400A0E1A0FFFFEB08D08DE2B8
:101648001040BDE81EFF2FE10020A0E3103094E514
:10165800002183E5042183E52410D4E5100094E5F6
:101668006AFFFFEB0310A0E368FFFFEB2C10D4E543
:1016780066FFFFEBBA32D4E1012043E2000053E3F6
:10168800BA22C4E1100094E50600000AB632D4E19B
:10169800012083E2833084E0B622C4E1BC15D3E1A3
:1016A80061FFFFEBF2FFFFEA011C80E2060091E810
:1016B800022080E0011080E004008DE239FFFFEB9A
:1016C8000510DDE5100094E550FFFFEB0410DDE5A3
:1016D8004EFFFFEB100094E55DFFFFEBD6FFFFEA3E
:1016E800F3412DE90160A0E10610A0E30040A0E16C
:1016F800B1FFFFEB000050E30210A0033700000A1F
:101708000050A0E3103094E5002193E5041193E51F
:10171800020051E101108282001183850230D387D3
:1017280090819FE52C30C4852E7084E2BA22D4E1E2
:101738000538A0E12338A0E1030052E12A00009A0D
:101748000710A0E1100094E588FFFFEBB632D4E162
:10175800082005E0023083E0032084E08220D2E5FF
:10176800000052E38330A0E1BE22D4E11100000A58
:10177800033084E0BAC6D3E10218A0E10C08A0E166
:101788004118A0E14008A0E100005CE3000051110D
:10179800110000BAB6C7D3E10C08A0E14008A0E1E7
:1017A80000005CE3000051110B0000CAB025C3E142
:1017B800015085E2DCFFFFEA033084E0BA16D3E18A
:1017C800000051E3010052110300003AB617D3E1BB
:1017D800000051E301005211F3FFFF9A0310A0E348
:1017E8000400A0E135FFFFEB2F0000EA0050A0E362
:1017F800C0709FE5BA22D4E10538A0E12338A0E102
:10180800030052E10D00009AB632D4E1072005E04A
:10181800023083E004308DE5083096E5000053E39C
:10182800015085E20F02000B0C3096E504108DE2A2
:101838000600A0E10FE0A0E113FF2FE1ECFFFFEAB3
:101848000020A0E3103094E5002183E5042183E51E
:101858002410D4E5100094E5ECFEFFEB2510D4E548
:10186800EAFEFFEBB612D4E1EFFEFFEBBA12D4E1C9
:10187800EDFEFFEB103094E5011C83E2060091E8D1
:101888000D00A0E1011083E0022083E0C5FEFFEB1C
:101898000110DDE5100094E5DCFEFFEB0010DDE54E
:1018A800DAFEFFEB100094E5E9FEFFEB08D08DE2CD
:1018B800F041BDE81EFF2FE1FFFF0000F0402DE9D9
:1018C800102090E5203192E5043093E50338A0E13B
:1018D8000150A0E12338A0E1411F82E2060011E88F
:1018E800012042E0FF3063E2030052E114D04DE2F0
:1018F8000040A0E10500002A0030A0E31C3080E58C
:10190800C7FBFFEB14D08DE2F040BDE81EFF2FE1CE
:101918001C2080E20C0092E8030052E1F8FFFFBAB5
:101928000060A0E31C6080E5BDFBFFEB100090E5C4
:10193800012C80E20C0092E8021043E0070051E31A
:101948000100008A74FEFFEBEDFFFFEA02C0D0E75A
:101958002410D4E501005CE1F9FFFF1A030052E10D
:101968000130433204318035102094E5011C82E2B5
:101978000360D0370A0091E8010053E10130438247
:10198800043182850370D287103094E5011C83E20C
:10199800060091E80D00A0E1022083E0011083E039
:1019A8000070A0937FFEFFEB0030DDE5060053E1F9
:1019B8000C00001A0130DDE5070053E1100094E542
:1019C8000800001A89FEFFEB100094E587FEFFEB84
:1019D800030050E32500C4E50400001A0400A0E158
:1019E8000CFFFFEBC6FFFFEA100094E5D4FFFFEA07
:1019F800100050E31300001A0030A0E308308DE512
:101A0800083095E5000053E30800000A0220A0E32F
:101A18000510A0E10D00A0E10FE0A0E113FF2FE108
:101A28000C3095E50C308DE5083095E508308DE5EE
:101A38000400A0E10D10A0E128FFFFEB0D00A0E1DC
:101A4800DBFBFFEBAEFFFFEA0110A0E30400A0E11F
:101A58009AFEFFEBAAFFFFEAF04F2DE90030A0E362
:101A68000140A0E3C4239FE584D04DE24C208DE5DE
:101A7800BC239FE54C908DE264208DE5B4239FE55F
:101A88005A508DE20900A0E1BA35CDE1BC35CDE16F
:101A98005E40CDE5B036CDE150308DE554308DE572
:101AA8005830CDE568208DE56C508DE578308DE5B2
:101AB8007C30CDE57D30CDE57F30CDE58EFDFFEB8B
:101AC800001050E20300001A0820A0E30500A0E17E
:101AD8002B0100FB5E40CDE50900A0E16CFBFFEBAC
:101AE8005C70DDE5013007E208308DE5A731A0E143
:101AF800033003E204308DE55E50DDE5BC85DDE1B1
:101B08002FFCFFEB30339FE5002093E5A7B0A0E161
:101B180027A1A0E1012012E201B00BE201A00AE234
:101B2800A772A0E114439FE54A00001A10C39FE57D
:101B380010139FE5100084E500009CE5042084E56F
:101B4800082084E50C20C4E5001084E51C2084E509
:101B5800F4129FE5202084E5B622C4E1B822C4E14E
:101B6800BA22C4E12C20C4E5B023C4E13C2084E5BA
:101B7800D8229FE5000050E314C084E5181084E5DE
:101B88002450C4E5382084E5404084E50300001A69
:101B9800382084E200208CE5050000EA0200A0E17C
:101BA800042090E5000052E3FBFFFF1AA0229FE506
:101BB800042080E50020A0E3482084E594229FE5E6
:101BC800442084E5002091E5000052E34C4084E580
:101BD8000300001A80229FE5002081E5050000EA45
:101BE8000120A0E1041092E5000051E3FBFFFF1A79
:101BF80064129FE5041082E50060A0E35C529FE553
:101C08000E20A0E30610A0E10C0085E20C308DE563
:101C1800506084E5046085E5086085E5D80000FB30
:101C28000C20A0E30610A0E11A0085E2D40000FB16
:101C38000C20A0E30610A0E1260085E2D00000FBFE
:101C48000120A0E30C309DE5B268C4E1B463C5E1AE
:101C5800B663C5E1002083E5E03018E20430A00354
:101C68000600000A200053E30330A0030300000A23
:101C7800C08008E2400058E30130A0130230A003FE
:101C8800203084E5103094E50710A0E1242193E585
:101C9800180193E551FBFFEB0C3090E5023CC3E3E0
:101CA8008B3483E10C3080E50C3090E5013AC3E3D6
:101CB8000A3683E10C3080E5103090E504209DE57C
:101CC800033AC3E3023683E1103080E508309DE52E
:101CD800000053E30C3090E5013B8313013BC30341
:101CE8000C3080E50930A0E3BC35C4E1BA35DDE14C
:101CF800BE35C4E15E30DDE5B236C4E1BC35DDE1B8
:101D08000120A0E3B036C4E1FF30A0E36400A0E303
:101D1800B637C4E1BC26C4E1B837C4E15CFCFFEBCC
:101D28000030A0E380208DE2B03762E144308DE5D9
:101D380038308DE548308DE53C308DE54030CDE5D7
:101D48000A30A0E324208DE514219FE528008DE5C5
:101D580034008DE22C908DE530408DE534208DE502
:101D680044308DE5CAFAFFEBF8709FE5F8609FE50F
:101D780030309DE5B836D3E1000053E32100000A76
:101D880034008DE29EFAFFEB000050E31D00000ACC
:101D980024309DE530809DE5B020D3E1B836D8E108
:101DA800030052E10140A0930040E08328309DE504
:101DB800B821D3E1044082E00448A0E12448A0E12E
:101DC800000054E3040052110D00000A1C5093E572
:101DD800BE20D5E1040052E10900003AB841C3E150
:101DE800B830D5E16410A0E3940300E03AF9FFFAB3
:101DF8000028A0E12228A0E10A10D5E5000095E519
:101E0800C4FAFFEBB646C8E124308DE230009DE508
:101E180014108DE214308DE520708DE51C608DE581
:101E2800A5FEFFEB14008DE2E1FAFFEBCFFFFFEA1E
:101E38008020000800000608003C0240B400002092
:101E4800B800002098020020A42000089402002076
:101E58008C200008F000002098200008FC000020DA
:101E680008010020B0220008F0100008CC04000887
:101E78000020A0E33C309FE53C109FE5002083E56F
:101E8800042083E534309FE5141083E5182083E5AA
:101E9800102093E5042082E3102083E5102093E5C9
:101EA800022082E3102083E5102093E5012082E3DD
:101EB800102083E51EFF2FE19C0200203F900200C6
:101EC80000E000E0DFF834D0002103E00C4B5B5861
:101ED800435004310B480C4B42189A42F6D30B4A34
:101EE80002E0002342F8043B094B9A42F9D3FEF77B
:101EF80001FE00F01BF8FFF7AFFD7047000002205D
:101F0800C0220008000000206400002064000020B7
:101F1800A8020020FEE710B500F000F810B5062072
:101F280000F064F8012000F091F8000070B5002678
:101F38000C4D0D4C641BA410A64209D1002600F0DC
:101F480087F80A4D0A4C641BA410A64205D170BD3F
:101F5800B300EB5898470136EEE7B300EB589847C3
:101F68000136F2E7B4220008B4220008B4220008BF
:101F7800BC220008002310B59A4200D110BDCC5CE9
:101F8800C4540133F8E703001218934200D1704794
:101F980019700133F9E770B504000D001F2904D941
:101FA800162303600120404270BD436C002B04D00F
:101FB8008A009B181A68002A08D1200000F032F81D
:101FC8002A000100200000F01BF8EDE70020012A9C
:101FD800EAD0511C03D1162301302360E4E7002422
:101FE80028001C6090472000DEE7000010B5034B76
:101FF80001001868FFF7CFFF10BDC04600000020A1
:10200800002370B5064C050008001100236000F09D
:1020180015F8431C03D12368002B00D02B6070BD3A
:10202800A402002010B500F001F810BD58220120CC
:10203800014B40421A607047A40200205822012038
:10204800014B40421A607047A4020020FEE7C046D8
:10205800F8B5C046F8BC08BC9E467047F8B5C046FF
:10206800F8BC08BC9E46704704F01FE51F1F000817
:1020780000000000000000009C05000800000000AF
:1020880000000000DC08000800000000000000005C
:10209800841300080000000000000000EC040008A1
:1020A80000C1814001C0804101C0804100C1814020
:1020B80001C0804100C1814000C1814001C0804110
:1020C80001C0804100C1814000C1814001C0804100
:1020D80000C1814001C0804101C0804100C18140F0
:1020E80001C0804100C1814000C1814001C08041E0
:1020F80000C1814001C0804101C0804100C18140D0
:1021080000C1814001C0804101C0804100C18140BF
:1021180001C0804100C1814000C1814001C08041AF
:1021280001C0804100C1814000C1814001C080419F
:1021380000C1814001C0804101C0804100C181408F
:1021480000C1814001C0804101C0804100C181407F
:1021580001C0804100C1814000C1814001C080416F
:1021680000C1814001C0804101C0804100C181405F
:1021780001C0804100C1814000C1814001C080414F
:1021880001C0804100C1814000C1814001C080413F
:1021980000C1814001C0804101C0804100C181402F
:1021A80000C0C101C30302C2C60607C705C5C404EF
:1021B800CC0C0DCD0FCFCE0E0ACACB0BC90908C85F
:1021C800D81819D91BDBDA1A1EDEDF1FDD1D1CDC4F
:1021D80014D4D515D71716D6D21213D311D1D010BF
:1021E800F03031F133F3F23236F6F737F53534F4AF
:1021F8003CFCFD3DFF3F3EFEFA3A3BFB39F9F8381F
:1022080028E8E929EB2B2AEAEE2E2FEF2DEDEC2C0E
:10221800E42425E527E7E62622E2E323E12120E07E
:10222800A06061A163A3A26266A6A767A56564A46E
:102238006CACAD6DAF6F6EAEAA6A6BAB69A9A868DE
:1022480078B8B979BB7B7ABABE7E7FBF7DBDBC7CCE
:10225800B47475B577B7B67672B2B373B17170B03E
:10226800509091519353529296565797559594542E
:102278009C5C5D9D5F9F9E5E5A9A9B5B995958989E
:10228800884849894B8B8A4A4E8E8F4F8D4D4C8C8E
:1022980044848545874746868242438341818040FE
:0C22A8000000000000000000BC04000862
:0822B400B1010008781E0008CA
:0422BC00890100088C
:1022C00004000020000000000000000000000000EA
:1022D00000000000000000000000000000000000FE
:1022E00000000000000000000000000000000000EE
:1022F00000000000000000000000000000000000DE
:1023000000000000000000000000000000000000CD
:1023100000000000000000000000000000000000BD
:0423200000000000B9
:0400000508001ECD04
:00000001FF
