:020000040800F2
:1000000000000220216E0008716E0008716E000869
:10001000716E0008716E0008716E0008000000002B
:10002000000000000000000000000000716E0008E9
:10003000716E000800000000716E000805180008CD
:10004000051A0008071A0008091A00080B1A000808
:100050000D1A00080F1A0008111A0008131A0008D8
:10006000151A0008171A0008191A0008C91A0008FA
:10007000E51A0008011B00081D1B0008391B0008B9
:10008000551B0008711B00081B1A00081D1A0008E8
:100090001F1A0008211A0008231A0008251A000850
:1000A000591A00085B1A00085D1A00085F1A000858
:1000B000611A0008631A0008651A0008271A000868
:1000C000291A00082B1A00082D1A0008891C00089C
:1000D000951C0008751A0008911A0008AD1A00084E
:1000E0002F1A0008311A0008331A00086D1A000888
:1000F0006F1A0008711A0008731A00088D1B000897
:10010000351A0008371A0008671A0008A11C0008F1
:10011000391A00083B1A0008691A00086B1A00080F
:10012000A91B0008C51B0008E11B0008FD1B0008F7
:10013000191C000800000000000000003D1A000823
:100140003F1A0008411A0008431A0008451A00081F
:10015000351C0008511C00086D1C0008471A0008D7
:10016000491A00084B1A00084D1A00084F1A0008D7
:10017000511A0008531A0008000000000000000097
:08018000551A0008571A000887
:1001900010B5054C237833B9044B13B10448AFF3C1
:1001A00000800123237010BD6800002000000000C3
:1001B000DC77000808B5034B1BB103490348AFF3D4
:1001C000008008BD000000006C000020DC77000803
:1001D000034613F8012B002AFBD1181A0138704787
:1001E00001F0FF01102A2BDB10F0070F08D010F8E8
:1001F000013B013A8B422DD010F0070F42B3F6D1EC
:10020000F0B441EA012141EA014122F007047FF004
:1002100000070023F0E80256083C85EA010586EA5B
:10022000010685FA47F5A3FA87F586FA47F6A5FA97
:1002300087F68EB9EED1F0BC01F0FF0102F00702A3
:1002400032B110F8013B013A83EA010313B1F8D14E
:100250000020704701387047002D06BF354603382F
:10026000073815F0010F07D1013015F4807F02BF68
:10027000013015F4C03F0130F0BC0138704700BFB9
:1002800081F0004102E000BF83F0004330B54FEA47
:1002900041044FEA430594EA050F08BF90EA020FB4
:1002A0001FBF54EA000C55EA020C7FEA645C7FEA47
:1002B000655C00F0E2804FEA5454D4EB5555B8BF6A
:1002C0006D420CDD2C4480EA020281EA030382EADB
:1002D000000083EA010180EA020281EA0303362D6D
:1002E00088BF30BD11F0004F4FEA01314FF4801C40
:1002F0004CEA113102D0404261EB410113F0004F52
:100300004FEA03334CEA133302D0524263EB430308
:1003100094EA050F00F0A780A4F10104D5F1200EA6
:100320000DDB02FA0EFC22FA05F2801841F1000101
:1003300003FA0EF2801843FA05F359410EE0A5F1D5
:1003400020050EF1200E012A03FA0EFC28BF4CF006
:10035000020C43FA05F3C01851EBE37101F00045BC
:1003600007D54FF0000EDCF1000C7EEB00006EEBC9
:100370000101B1F5801F1BD3B1F5001F0CD3490853
:100380005FEA30004FEA3C0C04F101044FEA4452AA
:1003900012F5800F80F09A80BCF1004F08BF5FEA31
:1003A000500C50F1000041EB045141EA050130BD11
:1003B0005FEA4C0C404141EB010111F4801FA4F1B4
:1003C0000104E9D191F0000F04BF01460020B1FA09
:1003D00081F308BF2033A3F10B03B3F120020CDA41
:1003E0000C3208DD02F1140CC2F10C0201FA0CF01F
:1003F00021FA02F10CE002F11402D8BFC2F1200C84
:1004000001FA02F120FA0CFCDCBF41EA0C01904039
:10041000E41AA2BF01EB0451294330BD6FEA040482
:100420001F3C1CDA0C340EDC04F11404C4F120026D
:1004300020FA04F001FA02F340EA030021FA04F37F
:1004400045EA030130BDC4F10C04C4F1200220FAD6
:1004500002F001FA04F340EA0300294630BD21FA14
:1004600004F0294630BD94F0000F83F4801306BFDA
:1004700081F480110134013D4EE77FEA645C18BFCE
:100480007FEA655C29D094EA050F08BF90EA020F65
:1004900005D054EA000C04BF1946104630BD91EA5D
:1004A000030F1EBF0021002030BD5FEA545C05D160
:1004B0004000494128BF41F0004130BD14F580049F
:1004C0003CBF01F5801130BD01F0004545F0FE4113
:1004D00041F470014FF0000030BD7FEA645C1ABF48
:1004E000194610467FEA655C1CBF0B46024650EA7F
:1004F000013406BF52EA033591EA030F41F40021AB
:1005000030BD00BF90F0000F04BF0021704730B530
:100510004FF4806404F132044FF000054FF0000105
:1005200050E700BF90F0000F04BF0021704730B5C6
:100530004FF4806404F1320410F0004548BF40429B
:100540004FF000013EE700BF42004FEAE2014FEAF0
:1005500031014FEA02701FBF12F07F4393F07F4FCB
:1005600081F06051704732F07F4208BF704793F0CE
:100570007F4F04BF41F40021704730B54FF46074E1
:1005800001F0004521F000411CE700BF50EA0102E4
:1005900008BF704730B54FF000050AE050EA01028D
:1005A00008BF704730B511F0004502D5404261EBFD
:1005B00041014FF4806404F132045FEA915C3FF43E
:1005C000D8AE4FF003025FEADC0C18BF03325FEADB
:1005D000DC0C18BF033202EBDC02C2F1200300FA8C
:1005E00003FC20FA02F001FA03FE40EA0E0021FAB1
:1005F00002F11444BDE600BF70B54FF0FF0C4CF49F
:10060000E06C1CEA11541DBF1CEA135594EA0C0F50
:1006100095EA0C0F00F0DEF82C4481EA030621EA8B
:100620004C5123EA4C5350EA013518BF52EA0335C6
:1006300041F4801143F4801338D0A0FB02CE4FF078
:100640000005E1FB02E506F00042E0FB03E54FF0A8
:100650000006E1FB03569CF0000F18BF4EF0010EA0
:10066000A4F1FF04B6F5007F64F5407404D25FEA9C
:100670004E0E6D4146EB060642EAC62141EA55514F
:100680004FEAC52040EA5E504FEACE2EB4F1FD0C91
:1006900088BFBCF5E06F1ED8BEF1004F08BF5FEA0F
:1006A000500E50F1000041EB045170BD06F00046C1
:1006B00046EA010140EA020081EA0301B4EB5C046E
:1006C000C2BFD4EB0C0541EA045170BD41F4801166
:1006D0004FF0000E013C00F3AB8014F1360FDEBF8B
:1006E000002001F0004170BDC4F10004203C35DA67
:1006F0000C341BDC04F11404C4F1200500FA05F3EA
:1007000020FA04F001FA05F240EA020001F000428A
:1007100021F0004110EBD37021FA04F642EB060100
:100720005EEA430E08BF20EAD37070BDC4F10C042A
:10073000C4F1200500FA04F320FA05F001FA04F2EE
:1007400040EA020001F0004110EBD37041F10001DA
:100750005EEA430E08BF20EAD37070BDC4F12005E5
:1007600000FA05F24EEA020E20FA04F301FA05F24D
:1007700043EA020321FA04F001F0004121FA04F2F5
:1007800020EA020000EBD3705EEA430E08BF20EAC5
:10079000D37070BD94F0000F0FD101F000464000FF
:1007A00041EB010111F4801F08BF013CF7D041EA81
:1007B000060195F0000F18BF704703F00046520085
:1007C00043EB030313F4801F08BF013DF7D043EA56
:1007D0000603704794EA0C0F0CEA135518BF95EA0C
:1007E0000C0F0CD050EA410618BF52EA4306D1D193
:1007F00081EA030101F000414FF0000070BD50EAB2
:10080000410606BF1046194652EA430619D094EA3B
:100810000C0F02D150EA013613D195EA0C0F05D125
:1008200052EA03361CBF104619460AD181EA030179
:1008300001F0004141F0FE4141F470014FF0000031
:1008400070BD41F0FE4141F4780170BD70B54FF0CC
:10085000FF0C4CF4E06C1CEA11541DBF1CEA13554C
:1008600094EA0C0F95EA0C0F00F0A7F8A4EB05042E
:1008700081EA030E52EA03354FEA013100F0888025
:100880004FEA03334FF0805545EA131343EA1263EE
:100890004FEA022245EA111545EA10654FEA0026A3
:1008A0000EF000419D4208BF964244F1FD0404F55C
:1008B000407402D25B084FEA3202B61A65EB0305B8
:1008C0005B084FEA32024FF480104FF4002CB6EB75
:1008D000020E75EB030E22BFB61A754640EA0C00F5
:1008E0005B084FEA3202B6EB020E75EB030E22BF35
:1008F000B61A754640EA5C005B084FEA3202B6EB76
:10090000020E75EB030E22BFB61A754640EA9C0034
:100910005B084FEA3202B6EB020E75EB030E22BF04
:10092000B61A754640EADC0055EA060E18D04FEAC2
:10093000051545EA16754FEA06164FEAC30343EA62
:1009400052734FEAC2025FEA1C1CC0D111F4801F2F
:100950000BD141EA00014FF000004FF0004CB6E728
:1009600011F4801F04BF01430020B4F1FD0C88BFC7
:10097000BCF5E06F3FF6AFAEB5EB030C04BFB6EBD2
:10098000020C5FEA500C50F1000041EB045170BDC5
:100990000EF0004E4EEA113114EB5C04C2BFD4EBF2
:1009A0000C0541EA045170BD41F480114FF0000E76
:1009B000013C90E645EA060E8DE60CEA135594EAF2
:1009C0000C0F08BF95EA0C0F3FF43BAF94EA0C0FF5
:1009D0000AD150EA01347FF434AF95EA0C0F7FF46A
:1009E00025AF104619462CE795EA0C0F06D152EABE
:1009F00003353FF4FDAE1046194622E750EA4106A2
:100A000018BF52EA43067FF4C5AE50EA41047FF4B2
:100A10000DAF52EA43057FF4EBAE12E74A0011D264
:100A200012F5001211D20DD56FF47873B3EB625248
:100A30000ED44FEAC12343F0004343EA505323FA54
:100A400002F070474FF00000704750EA013002D1C9
:100A50004FF0FF3070474FF000007047420901230C
:100A600000F01F0003FA00F0014B43F8220070472A
:100A700000E100E043690133436170477047036858
:100A8000D3F89820137883F0010313707047012A7C
:100A900003D0022A03D0002070470160FBE70B68F7
:100AA0000360F8E7012A03D0022A03D00020704730
:100AB0000160FBE70B680360F8E7012A03D0022A14
:100AC00003D0002070470160FBE70B680360F8E784
:100AD000012A03D0022A03D0002070470160FBE7FF
:100AE0000B680360F8E77047012A03D0022A03D09D
:100AF000002070470160FBE70B680360F8E7704770
:100B0000012A03D0022A03D0002070470160FBE7CE
:100B10000B680360F8E7012A03D0022A03D0002003
:100B200070470160FBE70B680360F8E703680A227F
:100B30001A807047012A03D0022A03D00020704790
:100B40000160FBE70B680360F8E7012A08BF01605A
:100B5000002070470A78036802B10122DA757047F5
:100B6000012A03D0022A03D0002070470160FBE76E
:100B70000B680360F8E7012A03D0022A03D00020A3
:100B800070470160FBE70B680360F8E7012A03D0B8
:100B9000022A03D0002070470160FBE70B68036066
:100BA000F8E7012A03D0022A03D000207047016031
:100BB000FBE70B680360F8E7012A03D0022A03D0A1
:100BC000002070470160FBE70B680360F8E7012A2B
:100BD00003D0022A03D0002070470160FBE70B68B6
:100BE0000360F8E7012A03D0022A03D000207047EF
:100BF0000160FBE70B680360F8E7012A03D0022AD3
:100C000003D0002070470160FBE70B680360F8E742
:100C1000012A03D0022A03D0002070470160FBE7BD
:100C20000B680360F8E7012A03D0022A03D00020F2
:100C300070470160FBE70B680360F8E7012A03D007
:100C4000022A03D0002070470160FBE70B680360B5
:100C5000F8E7012A03D0022A03D000207047016080
:100C6000FBE70B680360F8E7012A03D0022A03D0F0
:100C7000002070470160FBE70B680360F8E7012A7A
:100C800003D0022A03D0002070470160FBE70B6805
:100C90000360F8E7012A03D0022A03D0002070473E
:100CA0000160FBE70B680360F8E7012A03D0022A22
:100CB00003D0002070470160FBE70B680360F8E792
:100CC000012A03D0022A03D0002070470160FBE70D
:100CD0000B680360F8E7012A03D0022A03D0002042
:100CE00070470160FBE70B680360F8E7012A03D057
:100CF000022A03D0002070470160FBE70B68036005
:100D0000F8E7012A03D0022A03D0002070470160CF
:100D1000FBE70B680360F8E7012A03D0022A03D03F
:100D2000002070470160FBE70B680360F8E7012AC9
:100D300003D0022A03D0002070470160FBE70B6854
:100D40000360F8E7012A03D0022A03D0002070478D
:100D50000160FBE70B680360F8E7012A03D0022A71
:100D600003D0002070470160FBE70B680360F8E7E1
:100D7000012A03D0022A03D0002070470160FBE75C
:100D80000B680360F8E7012A03D0022A03D0002091
:100D900070470160FBE70B680360F8E7012A03D0A6
:100DA000022A03D0002070470160FBE70B68036054
:100DB000F8E7012A03D0022A03D00020704701601F
:100DC000FBE70B680360F8E7012A03D0022A03D08F
:100DD000002070470160FBE70B680360F8E7012A19
:100DE00003D0022A03D0002070470160FBE70B68A4
:100DF0000360F8E7012A03D0022A03D000207047DD
:100E00000160FBE70B680360F8E7012A03D0022AC0
:100E100003D0002070470160FBE70B680360F8E730
:100E2000012A03D0022A03D0002070470160FBE7AB
:100E30000B680360F8E7012A03D0022A03D00020E0
:100E400070470160FBE70B680360F8E7012A03D0F5
:100E5000022A03D0002070470160FBE70B680360A3
:100E6000F8E7012A03D0022A03D00020704701606E
:100E7000FBE70B680360F8E7012A03D0022A03D0DE
:100E8000002070470160FBE70B680360F8E7012A68
:100E900003D0022A03D0002070470160FBE70B68F3
:100EA0000360F8E7012A03D0022A03D0002070472C
:100EB0000160FBE70B680360F8E7012A03D0022A10
:100EC00003D0002070470160FBE70B680360F8E780
:100ED000012A03D0022A03D0002070470160FBE7FB
:100EE0000B680360F8E7012A03D0022A03D0002030
:100EF00070470160FBE70B680360F8E77047012A61
:100F000008BF016000207047012A08BF016000206F
:100F10007047012A03D0022A03D0002070470160E5
:100F2000FBE70B680360F8E7012A08BF01600020B7
:100F30007047012A08BF016000207047C369013370
:100F4000C36170477047704770477047704770477C
:100F50007047012A03D0022A03D0002070470160A5
:100F6000FBE70B680360F8E7012A03D0022A03D0ED
:100F7000002070470160FBE70B680360F8E7012A77
:100F800003D0022A03D0002070470160FBE70B6802
:100F90000360F8E7012A03D0022A03D0002070473B
:100FA0000160FBE70B680360F8E7012A03D0022A1F
:100FB00003D0002070470160FBE70B680360F8E78F
:100FC000012A03D0022A03D0002070470160FBE70A
:100FD0000B680360F8E7012A03D0022A03D000203F
:100FE00070470160FBE70B680360F8E7012A03D054
:100FF000022A03D0002070470160FBE70B68036002
:10100000F8E7012A03D0022A03D0002070470160CC
:10101000FBE70B680360F8E7012A03D0022A03D03C
:10102000002070470160FBE70B680360F8E7012AC6
:1010300003D0022A03D0002070470160FBE70B6851
:101040000360F8E7012A03D0022A03D0002070478A
:101050000160FBE70B680360F8E7012A03D0022A6E
:1010600003D0002070470160FBE70B680360F8E7DE
:10107000012A03D0022A03D0002070470160FBE759
:101080000B680360F8E7012A03D0022A03D000208E
:1010900070470160FBE70B680360F8E7012A03D0A3
:1010A000022A03D0002070470160FBE70B68036051
:1010B000F8E7012A03D0022A03D00020704701601C
:1010C000FBE70B680360F8E7012A03D0022A03D08C
:1010D000002070470160FBE70B680360F8E7012A16
:1010E00003D0022A03D0002070470160FBE70B68A1
:1010F0000360F8E7012A03D0022A03D000207047DA
:101100000160FBE70B680360F8E7012A03D0022ABD
:1011100003D0002070470160FBE70B680360F8E72D
:10112000012A03D0022A03D0002070470160FBE7A8
:101130000B680360F8E7012A03D0022A03D00020DD
:1011400070470160FBE70B680360F8E7012A03D0F2
:10115000022A03D0002070470160FBE70B680360A0
:10116000F8E7012A03D0022A03D00020704701606B
:10117000FBE70B680360F8E7012A03D0022A03D0DB
:10118000002070470160FBE70B680360F8E7012A65
:1011900003D0022A03D0002070470160FBE70B68F0
:1011A0000360F8E7012A03D0022A03D00020704729
:1011B0000160FBE70B680360F8E7012A03D0022A0D
:1011C00003D0002070470160FBE70B680360F8E77D
:1011D000012A03D0022A03D0002070470160FBE7F8
:1011E0000B680360F8E7012A03D0022A03D000202D
:1011F00070470160FBE70B680360F8E7012A03D042
:10120000022A03D0002070470160FBE70B680360EF
:10121000F8E7012A03D0022A03D0002070470160BA
:10122000FBE70B680360F8E7012A03D0022A03D02A
:10123000002070470160FBE70B680360F8E7012AB4
:1012400003D0022A03D0002070470160FBE70B683F
:101250000360F8E7012A03D0022A03D00020704778
:101260000160FBE70B680360F8E700000A78024BB7
:1012700002B101221A7070475C06002070B5054665
:10128000006803680C469B68984723682C602046DA
:101290001B68BDE870401847006800F5CC719030BD
:1012A000FFF7ECBF006800F1F8019030FFF7E6BFF0
:1012B000006800F524719030FFF7E0BF0168D1F8B5
:1012C0008030DB7D01F190001BB101F59661FFF7E5
:1012D000D5BF01F58061FAE7006800F557719030DD
:1012E000FFF7CCBF006800F6C4219030FFF7C6BFFF
:1012F000006800F6FC119030FFF7C0BF006800F5F1
:10130000CC719030FFF7BABF006800F20C619030EA
:10131000FFF7B4BF006800F2B4619030FFF7AEBFD2
:10132000006800F5EB619030FFF7A8BF006800F59A
:10133000CC719030FFF7A2BF006890F85833D0F816
:101340008020003318BF012300F5CC7193759030D5
:10135000FFF794BF006800F5CC719030FFF78EBFA7
:10136000006800F264519030FFF788BF0068D0F841
:101370008030012200F1F801DA759030FFF77EBF6E
:10138000006800F5CC719030FFF778BF006800F27C
:1013900064519030FFF772BF0068D0F880300022AF
:1013A00000F1F801DA759030FFF768BF0168D1F8F5
:1013B0008030DB7D01F190001BB101F59661FFF7F4
:1013C0005DBF01F58061FAE7016891F86035D1F8F9
:1013D0008020003318BF01235375D1F88030DB7DA6
:1013E00001F190001BB101F59661FFF747BF01F5D0
:1013F0008061FAE7006800F524719030FFF73EBF86
:101400000068D0F8803090F808269A7400F52471AE
:101410009030FFF733BF006800F524719030FFF77C
:101420002DBF0068D0F88030B0F8B0261A8100F5E2
:1014300024719030FFF722BF006800F5CC71903026
:10144000FFF71CBF006800F502619030FFF716BF80
:10145000006800F50B619030FFF710BF006800F6E0
:1014600058119030FFF70ABF006800F5EB6190302B
:10147000FFF704BF006800F5EB619030FFF7FEBE98
:101480000068D0F8803090F8AC28DA7400F5EB6191
:101490009030FFF7F3BE006800F5EB619030FFF786
:1014A000EDBE0068D0F8803090F854291A7500F528
:1014B000EB619030FFF7E2BE006800F5CC71903030
:1014C000FFF7DCBE006800F5CC719030FFF7D6BEA8
:1014D0000B1A9B10002B10DD027812B342780AB968
:1014E0000130704782780AB902307047C2780AB971
:1014F000033070470430013BECE70B1A022B0BD092
:10150000032B06D0012B0BD10378002B18BF084604
:10151000704703782BB10130037813B10130F3E742
:10152000084670470B1A9B10002B10DD027812BB87
:1015300042780AB10130704782780AB102307047B0
:10154000C2780AB1033070470430013BECE70B1A54
:10155000022B0BD0032B06D0012B0BD10378002BD1
:1015600008BF0846704703782BB90130037813B9D8
:101570000130F3E708467047FFF770BA036813B904
:101580000160704713465A68002AFBD159607047C2
:1015900010B504462CB1236820461B689847646840
:1015A000F8E710BDA8235943037A43B10F4B9B685A
:1015B0000360994224BFCB1A43600023037203687F
:1015C0000A4A994207D892689B1A99420CD801237B
:1015D00003720020704791688B4205D85368926867
:1015E0009B1A42689342F2D20120704710E000E05B
:1015F000D0F894203221531CC0F89430B2FBF1F3A0
:1016000001FB132323B9D0F8900003685B681847E7
:10161000704770470A1A02D0202105F084BC704739
:10162000704770470369002BBFBF034B436003F152
:1016300088334360704700BF23016745D0E900212C
:1016400001238B4093617047D0E9001201231032CF
:1016500093408B617047036810B504469869FFF7A3
:10166000F3FFC8216068FFF79DFF0028F9D12368C8
:101670009869FFF7E3FFC8216068FFF793FF002830
:10168000F9D110BD38B50368044618690D46FFF757
:10169000DBFF23686068DA699B6A53F83530936131
:1016A000FFF7D9FF23686068996ADA6901EBC50121
:1016B0004B689361FFF7CFFF6421A068FFF772FFCB
:1016C0000028F9D138BD0000437B012B10B504463A
:1016D00022D002D3022B2AD010BD4069FFF7B4FFFD
:1016E0002069FFF7ABFF626B206A531C50216363D4
:1016F000B2FBF1F301FB1323114A52F82330C25C11
:10170000636A03EBC20053F83210E26943689161E7
:10171000E36201236373DFE78069FFF78FFFA0694E
:10172000FFF792FFE369E26A9A610223F2E78069B8
:10173000FFF784FFA069FFF787FF0023EAE700BFF8
:1017400080790008036841681A6901238B401342BD
:1017500014BF01200020704710B504682CB1236825
:1017600020461B689847A468F8E710BD10B5836849
:10177000044613B1032201469847204610BD0000DD
:1017800010B5064B044640F8243BFFF7EFFF04F189
:101790001400FFF7EBFF204610BD00BF487800089B
:1017A00010B5044B044640F8303BFFF7DFFF2046FE
:1017B00010BD00BF908E000870B50646074B46F876
:1017C000B03B054600F1D004A64204D0103C2046B0
:1017D000FFF7CCFFF8E7284670BD00BFF878000897
:1017E00010B504460830FFF7B7FFD4E90421531CB5
:1017F0002361B2FBF1F301FB132313B92046FFF77A
:10180000ABFF10BD0148FFF7EBBF00BF640600202F
:10181000426903699A424FF0000326BF43610120E9
:1018200018467047037BC3B100230373D0E901233B
:101830006AB143B1936083685A600023C0E9013301
:1018400070470B60F8E7054993604A60F5E7034984
:10185000002BF6D1C1E90033EFE7704764060020A2
:1018600000224261FFF7DEBF037B53B901230373FC
:10187000044B5A68426002B190601A68586002B91D
:10188000186070476406002080680269D2F8183139
:101890001B68DB0611D5D2F820315B6800219BB2B2
:1018A000C2F80011C3F1FF01FF2928BFFF21FF2B60
:1018B000C2F8041101D0FFF7D7BF70470A2A10B54C
:1018C00001D00F2A15D1204B9A68C2F34232D2B10F
:1018D000042A1AD0052A1AD01C4B1D4C062A08BF10
:1018E000234607291AD8DFE801F0141A1D20232601
:1018F000292C0B3A032A04D8134B9A68C2F382228C
:10190000E5E70023EDE7134BEBE7134BE9E7134B58
:10191000E7E74FF41652B3FBF2F3836010BD4FF4C8
:101920006152F8E74FF49642F5E74FF4E142F2E7EF
:101930004FF41642EFE74FF46142ECE74FF4963272
:10194000E9E74FF4E132E6E700380240A037A000B3
:10195000406F4001007A030A00BD010580DE80026D
:1019600019B90068C0F340107047012903D100681D
:10197000C0F3C0207047022903D10068C0F3405073
:101980007047032903D10068C0F3C0607047042981
:1019900001D14068E6E7052901D14068E8E706295A
:1019A00001D14068EAE7072901D14068ECE700204F
:1019B0007047012903D1006A00F001007047022935
:1019C00003D1006AC0F300107047032903D1006AF5
:1019D000C0F300207047042906BF006AC0F300303E
:1019E00000207047012901D142637047022901D1CB
:1019F00082637047032901D1C2637047042908BF7D
:101A000002647047FEE7FEE7FEE7FEE7FEE7FEE75B
:101A1000FEE7FEE7FEE7FEE7FEE7FEE7FEE7FEE79E
:101A2000FEE7FEE7FEE7FEE7FEE7FEE7FEE7FEE78E
:101A3000FEE7FEE7FEE7FEE7FEE7FEE7FEE7FEE77E
:101A4000FEE7FEE7FEE7FEE7FEE7FEE7FEE7FEE76E
:101A5000FEE7FEE7FEE7FEE7FEE7FEE7FEE7FEE75E
:101A6000FEE7FEE7FEE7FEE7FEE7FEE7FEE7FEE74E
:101A7000FEE7FEE708B5044B1868FFF789FD034B46
:101A80001A685B6808BD00BF4406002000100140D2
:101A900008B5044B1868FFF77BFD034B1A685B68B9
:101AA00008BD00BF4C0600200044004008B5044BB0
:101AB0001868FFF76DFD034B1A685B6808BD00BF2F
:101AC000540600200048004008B5044B1868FFF792
:101AD0005FFD034B3D229A6008BD00BFAC050020AE
:101AE0000060024008B5044B1868FFF751FD034B36
:101AF0004FF474629A6008BDB40500200060024093
:101B000008B5044B1868FFF743FD034B4FF47412FC
:101B10009A6008BDBC0500200060024008B5044B77
:101B20001868FFF735FD034B4FF074629A6008BDEB
:101B3000C40500200060024008B5044B1868FFF798
:101B400027FD034B4FF47462DA6008BDCC0500201A
:101B50000060024008B5044B1868FFF719FD034BFD
:101B60004FF47462DA6008BDD405002000600240C2
:101B700008B5044B1868FFF70BFD034B4FF47412C4
:101B8000DA6008BDDC0500200060024008B5044BA7
:101B90001868FFF7FDFC034B4FF07462DA6008BD74
:101BA000E40500200060024008B5044B1868FFF708
:101BB000EFFC034B3D229A6008BD00BFEC050020FE
:101BC0000064024008B5044B1868FFF7E1FC034BC2
:101BD0004FF474629A6008BDF4050020006402406E
:101BE00008B5044B1868FFF7D3FC034B4FF474128D
:101BF0009A6008BDFC0500200064024008B5044B53
:101C00001868FFF7C5FC034B4FF074629A6008BD7B
:101C1000040600200064024008B5044B1868FFF772
:101C2000B7FC034B3D22DA6008BD00BF0C06002064
:101C30000064024008B5044B1868FFF7A9FC034B89
:101C40004FF47462DA6008BD14060020006402409C
:101C500008B5044B1868FFF79BFC034B4FF4741254
:101C6000DA6008BD1C0600200064024008B5044B81
:101C70001868FFF78DFC034B4FF07462DA6008BD03
:101C80002406002000640240014B1868FFF780BC66
:101C90002C060020014B1868FFF77ABC34060020A0
:101CA000014B1868FFF774BC3C060020026810B5B1
:101CB000541C02440460517204685021B4FBF1F2D8
:101CC00001FB1242026010BD10B504681421B4FB80
:101CD000F1F201FB1242034612B92021FFF7E6FFA1
:101CE00014241968B1FBF4F204FB121222B1202172
:101CF0001846FFF7DBFFF4E7184610BD08B50346AA
:101D00001A6822B120211846FFF7D0FFF8E71846DD
:101D100008BD38B505460C46084609B1FEF758FA25
:101D2000C5E90004284638BD10B514240368B3FB88
:101D3000F4F304FB03115024B1FBF4F304FB13117F
:101D4000016010BD38B50468D4F8AC30F3B1013B84
:101D5000C4F8AC30D4F8A830606814256B43036035
:101D60000F21FFF7E1FF2021FFF7A0FFD4F8A830F3
:101D70006068013B5D43C4F8A8300F210560FFF7A0
:101D8000D3FF7E21BDE83840FFF790BF38BD38B59E
:101D90000468D4F8AC30012B1ED00133C4F8AC3049
:101DA000D4F8A830606814256B4303600F21FFF757
:101DB000BBFF2021FFF77AFFD4F8A8306068013319
:101DC0005D43C4F8A8300F210560FFF7ADFF7E2109
:101DD000BDE83840FFF76ABF38BD437A70B50546A5
:101DE00000F10C062BB100234372C1613046FFF7AE
:101DF0003BFD3046FFF70CFD012428B13046FFF7CC
:101E00002FFD6C72002070BD2046FCE770B58EB0CF
:101E100005AD0023CDE901500C93CDE90533CDE9A3
:101E200009330B93394E0D930123044608968DF820
:101E30001D308DF81C300090CDF80CD00495642135
:101E40002846FFF7CAFF0028F9D12069FFF7FCFBFD
:101E50006069FFF7F9FBA069FFF7F0FBA26AE3698D
:101E6000D2699A616846FFF7F6FB05212846FFF71D
:101E7000B4FF0028F9D1A26AE369D2699A61684681
:101E8000FFF7E9FB64212846FFF78CFB0028F9D116
:101E9000A26AE369D2699A616846FFF7DCFB3221E6
:101EA0002846FFF77FFB0028F9D1A26AE36952694F
:101EB0009A616846FFF7CFFB32212846FFF772FB95
:101EC0000028F9D1282102A8FFF7DCFB0C2102A889
:101ED000FFF7D8FB062102A8FFF7D4FB012102A8D7
:101EE000FFF7D0FB802102A8FFF7CCFB0121284699
:101EF000FFF773FF0028F9D10EA8012384F83030D2
:101F000040F8186DFFF78EFC0EB070BD1478000815
:101F100003888B421AD040F60223994216D90180D9
:101F20000B4BB3FBF1F143680139D8691A684908D2
:101F30001981D16201891A8B4FF47A734A43817AED
:101F400092FBF3F2006892B2FFF74CBD704700BFFE
:101F5000007A030A08B50388194489B2FFF7D8FF4D
:101F600008BD08B50368D3F8942012781AB1D3F8E5
:101F70008C20127862B9D3F890201278002A14BF0E
:101F80000A210021D3F89C001030FFF7E3FF08BDC1
:101F90000A21F7E708B50368D3F8942012781AB13C
:101FA000D3F88C2012786AB9D3F890201278002ADE
:101FB00014BF6FF009010021D3F89C001030FFF727
:101FC000C9FF08BD6FF00901F6E702888A4210B523
:101FD0000B460FD04468E2898A420BD322890180E4
:101FE0004A4320684FF47A7192FBF1F2A17A92B2DF
:101FF000FFF7F8FC184610BD836910B55A7D0446FA
:102000008068103072B1D989FFF782FFA369A06898
:102010009B7D183043B1B4F87C10FFF7D6FF042342
:10202000237010BD198AEFE76421FFF7CEFF052367
:10203000F6E7817A0068FFF7BCBC10B50446503063
:10204000FFF794FB04F14000FFF790FB04F1300030
:10205000FFF78CFB04F12000FFF788FB04F1100070
:10206000FFF784FB2046FFF781FB204610BD21B916
:10207000036962F3020303617047012903D1036915
:1020800062F3C503F7E7022903D1036962F38813FA
:10209000F1E7032903D1036962F34B23EBE704293A
:1020A00003D1036962F30E33E5E7052903D1036920
:1020B00062F3D133DFE7062903D1036962F3944366
:1020C000D9E7072903D1036962F35753D3E70829F6
:1020D00003D1036962F31A63CDE7092903D10369C8
:1020E00062F3DD63C7E70A2904D1C36862F3020320
:1020F000C36070470B2903D1C36862F3C503F7E7D8
:102100000C2903D1C36862F38813F1E70D2903D1C9
:10211000C36862F34B23EBE70E2903D1C36862F374
:102120000E33E5E70F2903D1C36862F3D133DFE74C
:10213000102903D1C36862F39443D9E7112903D16D
:10214000C36862F35753D3E71229D2D1C36862F34D
:102150001A63CDE7012904D1436B62F3040343639F
:102160007047022903D1436B62F34913F7E7032950
:1021700003D1436B62F38E23F1E7042903D1436B50
:1021800062F3D333EBE7052903D1436B62F31853B2
:10219000E5E7062903D1436B62F35D63DFE70729B7
:1021A00004D1036B62F3040303637047082903D16E
:1021B000036B62F34913F7E7092903D1036B62F359
:1021C0008E23F1E70A2903D1036B62F3D333EBE7E4
:1021D0000B2903D1036B62F31853E5E70C2903D1F4
:1021E000036B62F35D63DFE70D2904D1C36A62F319
:1021F0000403C36270470E2903D1C36A62F3491313
:10220000F7E70F2903D1C36A62F38E23F1E71029A0
:10221000F0D1C36A62F3D333EBE7436A1A6842F042
:1022200001021A601A68D107FCD5036A9A6842F065
:1022300001029A609A68D207FCD59A6842F08042FF
:102240009A607047204B1A68052161F302021A60F8
:10225000A3F580631A6842F480321A601A68920308
:10226000FCD59A686FF307129A609A68052161F3AA
:102270008C229A609A68042161F34F329A609A68BE
:10228000022060F301029A605A6861F305025A6005
:102290005A68A82161F38E125A605A68072161F3C7
:1022A0001B625A605A686FF311425A605A6842F4CE
:1022B00080025A601A6842F080721A60034A1368FA
:1022C0009B01FCD5704700BF003C02400038024033
:1022D000754A7649F8B5136813F0010F70D1744B45
:1022E000744C186810F0010F06D1DFF8E0E1092006
:1022F000C4E900E0012018606F4B186B40F001004A
:10230000186320680568022666F393450560456AF0
:10231000072666F307154562684D286810F0010F1F
:10232000674806D1DFF8A4C10A26C0E900C6012625
:102330002E601D6B45F001051D6303681D680226B4
:1023400066F315551D605D6A072666F30B255D6211
:102350005C4D2B6813F0010F5B4B05D15B4F0C26D6
:10236000C3E9007601262E60534E356B45F001051A
:1023700035631E683768012565F319673760C1F852
:102380001031534BC1F81431A3F5AA33C1F81831F9
:1023900003F5AA33B833C1F81C31783BC1F82031BA
:1023A0000A230026C1F824310723C1F80061C1F8CF
:1023B0000461C1F80841C1F80C0181F828311560A9
:1023C0003D4C636C43F010036364D1F81831DA6854
:1023D00042F00802DA60DA6842F00402DA605A6910
:1023E00042F080025A615A6942F040025A61394B08
:1023F00093F90400FFF7C0F8236B43F480032363D1
:10240000D1F81C311A68012060F387121A60D1F8E4
:1024100000210A44DA60D1F8182104329A601A685F
:1024200042F480621A601A686FF34E321A601A68BA
:102430006FF3CC221A601A6842F010021A60264B21
:1024400093F90400FFF798F8D1F820311A686FF378
:1024500087121A60D1F800210A44DA60D1F81821F5
:1024600004329A60FF225A601A6842F480621A604D
:102470001A686FF34E321A601A686FF3CC221A6032
:102480001A6842F480721A60D1F820311A68042068
:1024900060F35B621A60D1F81C311A6860F35B620A
:1024A0001A600248F8BD00BF340300203803002042
:1024B0007C040020800400200038024070040020CA
:1024C000740400206404002068040020000002401E
:1024D00000640240440600202406002070B5294E06
:1024E000294B326812F0010F2DD128490A6812F0E9
:1024F000010F274A05D1274D0924C2E900540124C0
:102500000C60254C216B41F00401216311680C68BB
:10251000022565F393440C604C6A65F307144C6222
:102520001E49D881C3E900124FF6FF721A810422B6
:102530009A724FF480529A8100221A821A830122E1
:102540005B61DB613260144915480A6C42F002029B
:102550000A641B68DA69062161F30E32DA61DA690E
:1025600042F40062DA611A6842F080021A601A6866
:1025700042F001021A6040F60321FFF7C9FC02484D
:1025800070BD00BF24020020280200204802002065
:102590004C020020000802400038024000040040C5
:1025A0003802002040490B6813F0010F70B53F4C12
:1025B00056D13F4B3F481A6812F0010F06D1DFF8A1
:1025C00010E10622C0E900E201221A603A4B1A6BC0
:1025D00042F004021A6302681568022666F30D359C
:1025E0001560156A032666F31B651562334D2A686C
:1025F00012F0010F324A06D1DFF8D4C00726C2E933
:1026000000C601262E601D6B45F004051D6313688E
:102610001D68022666F38F351D601D6A032666F36A
:102620001F751D620023C4E9013323732361E36135
:10263000E36284F8343084F8353003F18043C4E930
:102640000E0203F5823319481E4D23642560FFF7FF
:102650000BF901230B601C4A1C49144804F009FCC7
:10266000154A1248536C43F002035364236C9A6872
:10267000032161F302029A609A69012161F3010268
:102680009A619A6961F309229A611A6A42F0020218
:102690001A621A6A6FF3C3021A6200225A621A6837
:1026A0000A431A6070BD00BFC4010020C8010020A9
:1026B000180200201C020020003802400C020020FA
:1026C0001002002048780008000000208117000850
:1026D0000008024010B50C1A134605D001462246E8
:1026E000184604F007FC0346181910BD2DE9F347FE
:1026F00002AB03E906000768037A00F10908064601
:10270000DDE9004508EB070263B3132C22D8C4F1BE
:10271000140902EB590910464946FEF77BFF2919B7
:102720004A462846FFF7D6FF09EB040A07F11401D1
:1027300041445046FEF76EFF336850211433B3FB1B
:10274000F1F201FB1233336000233046337202B0E2
:10275000BDE8F087143C05EB540000F11401FFF7CD
:10276000B9FFE9E7C7F15001A14205EB040907D918
:1027700049462846FFF7AEFF306804443460E3E77B
:1027800029442846FFF7A6FF3368A4F150071F44E9
:10279000E41B2C44502F2046424604F1500404D937
:1027A0002146FFF797FF503FF4E74946FFF792FFB6
:1027B000336850221F44B7FBF2F302FB13773760F4
:1027C000C2E7000030B589B00A460446114905A8A1
:1027D00004F0AEFC05A901A8FFF79BFA6368019A13
:1027E000934208D99B1A13F1FF3304D320212046CA
:1027F000FFF75CFAF7E703AD05A92846FFF789FA6A
:1028000095E806002046FFF771FF0023204663602D
:1028100009B030BDF27C0008F8B505460F464FF40C
:102820007A7691FBF6F42146FFF7CCFF2E2128465D
:10283000FFF73CFA06FB14740A2394FBF3F4092C0B
:1028400008DC00212846FFF7BDFF2146FFF7BAFF4D
:102850002846F8BD21462846F8E70000F7B50546AA
:10286000406802260660D5F880301988FFF7D4FF4B
:102870006C46074637492046FFF74BFA94E80600B6
:102880003846FFF733FF68680D23C0E90036EB6F69
:102890001988FFF797FF2521FFF708FAD5F8883048
:1028A0006E681A7814233360002A3ED02A492B4FD1
:1028B0002046FFF72EFA94E806003046FFF716FF91
:1028C00068681E220223C0E90023AB6F1988FFF756
:1028D00079FF234906462046FFF71BFA94E80600D5
:1028E0003046FFF703FF6E6822233360D5F894303B
:1028F0001B78204657F82310FFF70BFA94E80600E0
:102900003046FFF7F3FE6E6823233360D5F890302E
:102910001B78204657F82310FFF7FBF994E80600D0
:102920003046FFF7E3FE03B0F0BD0E492046FFF747
:10293000F0F994E806003046FFF7D8FE68681623E1
:102940000360D5F884301988FFF766FF064906460C
:10295000ADE700BFD87C0008DC7C0008C07C000824
:10296000EA7C0008E57C0008E87C000838B5002314
:1029700083608B6804460D462BB102229847EB68B2
:10298000E360AB68A360204638BD38B500238360A0
:102990008B6804460D462BB102229847EB68E36032
:1029A000AB68A360204638BD38B504460D46FFF736
:1029B000DDFF05F1100104F11000FFF7D7FF05F16D
:1029C000200104F12000FFF7D1FF05F1300104F1EF
:1029D0003000FFF7CBFF05F1400104F14000FFF7A5
:1029E000D4FF05F1500104F15000FFF7CEFF20465F
:1029F00038BD38B5002383608B6804460D462BB183
:102A000002229847EB68E360AB68A360204638BDBC
:102A1000826810B50AB904F031FAC368BDE8104005
:102A2000184730B585B00446002569460830029540
:102A3000FFF7EEFF6846FEF799FE694604F11800BD
:102A40000295FFF7E5FF6846FEF790FE694604F140
:102A500038000295FFF7DCFF6846FEF787FE05B0F9
:102A600030BD30B585B00446002569462830029552
:102A7000FFF7CEFF6846FEF779FE694604F10800CD
:102A80000295FFF7C5FF6846FEF770FE694604F140
:102A900018000295FFF7BCFF6846FEF767FE69461F
:102AA00004F138000295FFF7B3FF6846FEF75EFEBB
:102AB00005B030BD30B585B0044600256946083004
:102AC0000295FFF7A5FF6846FEF750FE694604F140
:102AD00018000295FFF79CFF6846FEF747FE69461F
:102AE00004F128000295FFF793FF6846FEF73EFECB
:102AF000694604F138000295FFF78AFF6846FEF741
:102B000035FE05B030BD30B585B0044600256946B8
:102B100008300295FFF77CFF6846FEF727FE6946FE
:102B200004F118000295FFF773FF6846FEF71EFEDA
:102B3000694604F128000295FFF76AFF6846FEF730
:102B400015FE694604F138000295FFF761FF6846FB
:102B5000FEF70CFE05B030BD30B585B0044600254B
:102B6000694608300295FFF753FF6846FEF7FEFD01
:102B7000694604F118000295FFF74AFF6846FEF720
:102B8000F5FD694604F128000295FFF741FF68460C
:102B9000FEF7ECFD694604F138000295FFF738FFB7
:102BA0006846FEF7E3FD05B030BD00001FB5224BBF
:102BB00000900446694603930830204B0293FFF7C8
:102BC00027FF6846FEF7D2FD1D4B039369461D4B58
:102BD000029304F118000094FFF71AFF6846FEF70D
:102BE000C5FD194B03936946184B029304F1380055
:102BF0000094FFF70DFF6846FEF7B8FD60680023FC
:102C0000036004F1780393E80600FFF76FFDFFF718
:102C10005BF8606814230360D4F888301988FFF7E4
:102C2000D1FD04F1800393E80600FFF75FFD6068C3
:102C3000FFF764F804B010BDE70A0008E90A0008CD
:102C4000FF0A0008010B00082F2E0008170B0008D0
:102C5000F0B585B06C464B4B00900546214603937A
:102C60002830494B0293FFF7D3FE2046FEF77EFD46
:102C7000464B03932146464B029305F1080000950D
:102C8000FFF7C6FE2046FEF771FD424B0393214637
:102C9000414B029305F118000095FFF7B9FE20465D
:102CA000FEF764FD3D4B039321463D4B029305F136
:102CB00038000095FFF7ACFE2046FEF757FD6E6822
:102CC000384F06F1590106F10900FEF7A3FC002375
:102CD00033606E68344933602046FFF71AF894E891
:102CE00006003046FFF702FD6E6830490B23336063
:102CF0002046FFF70EF894E806003046FFF7F6FC92
:102D00006E682B49142333602046FFF702F894E8DD
:102D100006003046FFF7EAFC68681E220223C0E97D
:102D20000023AB6F1988FFF74DFD22490646204668
:102D3000FEF7EFFF94E806003046FFF7D7FC6E6819
:102D400022233360D5F894301B78204657F823109F
:102D5000FEF7DFFF94E806003046FFF7C7FC6E6819
:102D600023233360D5F890301B78204657F8231082
:102D7000FEF7CFFF94E806003046FFF7B7FC05B03A
:102D8000F0BD00BF7F0A00088F0A0008631F00081B
:102D9000A50A0008951F0008BB0A00083B2E000882
:102DA000D10A0008C07C0008EC7C0008EF7C000819
:102DB000E57C0008EA7C0008826810B50AB904F0D6
:102DC0005DF8C368BDE81040184708B5036C026998
:102DD000596AC1F34E018A420DDA90F8341051B9A4
:102DE0005B6A0122C3F34E0380F834200361243070
:102DF000FFF7E2FF08BD596AC1F34E018A4202DDC6
:102E000090F8351051B15B6AC3F34E039A42F1D189
:102E1000002380F8343080F83530EBE75B6A01221C
:102E2000C3F34E0380F8352003611430E0E708B5A2
:102E300000686830FFF7C0FF08BD08B5006868305B
:102E4000FFF7BAFF08BD70B5816800220B4613B1C9
:102E50009A605B68FBE7D0E9042302EB43050B466D
:102E60009542144609D026889C6834449C605B686F
:102E70000232002B08BF0B46F2E7836B13B13030F0
:102E8000FFF79AFF70BD006808B5D0F89C30B0F825
:102E9000A0201A80D0F884301BB17C30FFF78CFF63
:102EA00008BD6C30FAE708B500686C30FFF784FFA6
:102EB00008BD08B50368D3F89C2093F8A0301370C0
:102EC0000068D0F884301BB17C30FFF775FF08BD77
:102ED0006C30FAE708B500686C30FFF76DFF08BD8D
:102EE00008B50368D3F89C2093F8A03013700068ED
:102EF000D0F884301BB17C30FFF75EFF08BD6C302A
:102F0000FAE708B500686C30FFF756FF08BD08B552
:102F10000368D3F8AC00182202FB00308030FFF7C2
:102F20004BFF08BD08B500686830FFF745FF08BDD6
:102F300008B50368D3F89C2093F8A030137000689C
:102F4000D0F884301BB17C30FFF736FF08BD6C3001
:102F5000FAE708B500686C30FFF72EFF08BD08B52A
:102F60000368D3F8C400182202FB00308030FFF75A
:102F700023FF08BD08B500686830FFF71DFF08BDD6
:102F800008B50368D3F8F400182202FB0030803043
:102F9000FFF712FF08BD08B500686830FFF70CFFA7
:102FA00008BD000038B5354D354C2B6813F00103D2
:102FB0001DD1344A2260344A226202F5A232103214
:102FC000C4E9060362623148636022222146C4E9F3
:102FD0000233C4E90433A062E262A363FEF7CEFACF
:102FE00001232B4A2B492B60204603F042FF2A4A3B
:102FF000536C43F480735364236A59686FF3196107
:103000005960996841F002019960996841F48071B2
:103010009960996841F400719960596841F4807130
:103020005960116B41F48001116303F14C02636A32
:103030009A601A686FF387121A601A68012161F3A7
:103040004E321A601A6861F3CC221A601A6842F490
:1030500080621A601A6842F010021A601A6842F41C
:1030600080721A601A686FF35B621A60A36A93F940
:103070000400FEF781FA024838BD00BF800100203D
:1030800084010020908E000800200140EC05002003
:1030900000000020A11700080038024038B504469F
:1030A0000025C0F80051C0F80451D0F81001FEF717
:1030B000CBFAD4F81C311A6865F300021A60D4F810
:1030C00020311A6865F300021A60FF225A60D4F8B2
:1030D00020311A6842F001021A601A68D207FCD542
:1030E000D4F81821D36843F01003D36038BD000032
:1030F0002DE9F0414A4F4B4C80460E46FFF7E8F869
:103100003D6815F001054BD1474B2360474B2061CB
:10311000C4E906354648474B606104F13801A363B2
:10312000C4E901552573256284F82480E58425854A
:10313000658584F82C502586E5632464FEF71EFA25
:103140003D4BA069636404F14401A564E464FEF7A7
:1031500015FA1422294604F1500003F0E4FE22225D
:10316000294604F1640003F0DEFE1422294604F12E
:10317000860003F0D8FE1422294604F19A0003F0D9
:10318000D2FE01232D4A2E49C4F8B8502046C4F877
:10319000C850C4E93455A4F8D8503B6003F069FE28
:1031A000F3B213F0E00236D0202A36D003F0C00389
:1031B000402B0CBF0223012323622369C6F3421173
:1031C000D3F82421D3F81801FEF778FBC368C6F3BF
:1031D000400262F34923C360C368C6F3800262F30E
:1031E0000C33C3600369C6F3C10262F30D3303619C
:1031F000C36816F0010614BF43F4806366F38A23A4
:10320000C360C36843F40053C3602069FFF746FFFF
:103210000448BDE8F0810423CEE70323CCE700BFD8
:103220005402002058020020F878000824060020EC
:1032300044060020E0780008EC7800080000002038
:10324000B917000808B583681A6992F82811D2F8EE
:103250001401FEF785FB10B11869FFF71FFF08BDC9
:1032600010B50468A14207D1516001B10A604368FA
:10327000026003B9426010BD41B94368136003B1F5
:103280005A604260002CF6D10260F4E70B68C2E994
:1032900000310A6013685A60EDE7000030B5046839
:1032A000164B6CB1D3F8002154F8045D043A521B5C
:1032B0009D18AC421ABF012283F80421C3F80021F3
:1032C0004268114441600E4AD3F80051914294BFC4
:1032D00049004FF0FF312C1D0C44B4F5807F03EB07
:1032E0000502C3F8004107D893F8044124B90AB194
:1032F00059510432026030BD0022FBE7A4040020D3
:10330000FCFFFF3F70B5304D304B2A6812F0010FC3
:1033100004461BD12E490A6812F0010F2D4A05D12F
:103320002D4E0220C2E90060012008602B48016B8D
:1033300041F0010101631068016841F03001016052
:103340000021C3E90011DA6001222A60E26A206AE2
:10335000223A022A34BF02250025EEB20722314666
:103360001D61FEF784FEE169206A0131E1613246A8
:10337000FEF7F0FED4E90732D16A013B63F317513F
:10338000D162A16804F1080021B10B699D4201DB03
:103390004968F9E70D4AFFF763FFA16904F11000DE
:1033A000FFF77CFF636A1A686FF300021A602269F4
:1033B000DA60A28A5A601A6842F001021A601A683A
:1033C000D207FCD5014870BD380100203C01002027
:1033D000500100205401002000000240003802404B
:1033E00070B5304D304B2A6812F0010F04461BD1E6
:1033F0002E48026812F0010108BF2D4E2D4A02BF6F
:10340000C2E90061012101602B48016B41F002011A
:1034100001631068016841F0030101600021C3E904
:103420000011DA6001222A60E26A206A223A022A46
:1034300034BF08250025EEB2072231461D61FEF794
:1034400016FEE169206A0131E1613246FEF782FE33
:10345000D4E90732D16A013B63F31751D162A16805
:1034600004F1080021B10B699D4201DB4968F9E7CD
:103470000D4AFFF7F5FEA16904F11000FFF70EFFFA
:10348000636A1A686FF300021A602269DA60A28A1E
:103490005A601A6842F001021A601A68D207FCD515
:1034A000014870BD14010020180100202C010020EB
:1034B00000040240300100200038024038B50023EB
:1034C00083608B6804460D462BB102229847EB6857
:1034D000E360AB68A360204638BD10B50B460446D8
:1034E000D1E9000184E8030003F1080104F10800B8
:1034F000FFF77FFA204610BD38B51D460D4B044638
:10350000C0E9003111460830FFF74EFA294604F1B0
:103510006800FFF76EFA049904F17800FFF7DDFF09
:10352000059904F19000FFF7D8FF0023C4E92A337E
:10353000204638BD9078000813B50B460446D0E904
:1035400000016A4682E8030093E8030084E8030070
:1035500092E8030083E8030002B010BD38B50546C9
:103560000C46FFF7E9FFAB68A268AA60A360E268B7
:10357000EB68EA60E36038BD1FB504466846FFF7B4
:1035800038FA21466846FFF7E9FF6846FEF7EEF88D
:10359000204604B010BD08B54430FFF7EDFF08BD6C
:1035A00008B53430FFF7E8FF08BD08B52430FFF751
:1035B000E3FF08BD08B51430FFF7DEFF08BD08B50E
:1035C0004430FFF7D9FF08BD08B53430FFF7D4FF0A
:1035D00008BD08B52430FFF7CFFF08BD08B514308B
:1035E000FFF7CAFF08BD08B54430FFF7C5FF08BDA7
:1035F00008B53430FFF7C0FF08BD08B52430FFF729
:10360000BBFF08BD08B51430FFF7B6FF08BD30B5E5
:10361000044689B00846002369460293FFF79EFFDF
:103620002368DC6F2368694604A8DD68FFF7E1F9C9
:1036300004A92046A84704A8FEF798F86846FEF7B4
:1036400095F809B030BD10B5044688B0084600238F
:1036500069460293FFF782FF23681C6F694604A83E
:10366000FFF7C7F904A904F12400FFF785FF04A8B8
:10367000FEF77CF86846FEF779F808B010BD10B583
:10368000044688B00846002369460293FFF766FFA8
:1036900023681C6F694604A8FFF7ABF904A904F17D
:1036A0001400FFF769FF04A8FEF760F86846FEF70C
:1036B0005DF808B010BD30B5044689B00846002357
:1036C00069460293FFF74AFF2368DC6F2368694667
:1036D00004A89D68FFF78DF904A92046A84704A80F
:1036E000FEF744F86846FEF741F809B030BD000027
:1036F000F0B5FF23074F084E1D4611F8014B5C4003
:1037000091423B5D83EA0503355DF6D10570437058
:10371000F0BD00BFC07A0008C07B0008D0F80031BF
:10372000D0F804219A4283BF5A1CC0F80021C05C23
:1037300000207047D0F80431FE2B9FBFC154D0F851
:1037400004310133C0F80431704738B50C46090A1A
:103750000546FFF7EFFFE1B2FFF7ECFF284638BD63
:1037600010B50446D0F81001FDF768FFD4F8183101
:10377000DA686FF30412DA60D4F820311A686FF354
:1037800000021A60D4F81C311A686FF300021A6044
:10379000D4F80431D4F80011D4F81C215B1A023398
:1037A0009BB25360D4F81C311A6842F001021A60CF
:1037B0001A68D207FCD510BD036937B501294FF04F
:1037C000000204460D46C3F80021C3F804210ED1BF
:1037D00090F824100069FFF7ADFF94F8251041F030
:1037E0008001FFF7A7FF2946FFF7A4FF07E00229A2
:1037F000006902D194F82410EDE70329FAD0236977
:10380000D3F80421D3F800111A44194401A8FFF792
:103810006FFF9DF805102069FFF78CFF9DF80410DD
:10382000FFF788FF2069FFF79BFF03B030BD70B53D
:10383000D0F80031D0F8042101339A4204460D46F5
:103840000ED9FFF76BFF06462046FFF767FF4FF0E4
:10385000000360F3070366F30F232B80204670BD3F
:103860000023FAE738B504460D4600F12601006949
:10387000FFF7DDFF04F12A012069FFF7D8FF638D10
:10388000E08C1844013880B2A8424FEA43032085F7
:1038900084F82C302CBF0020012038BD13B5112135
:1038A0000446FFF7DFFF28B902212046FFF784FF17
:1038B00002B010BD23690022C3F80021C3F804211F
:1038C00094F824102069FFF735FF0321FFF732FF3A
:1038D00094F82C10FFF72EFF638D20695A1E628525
:1038E0004BB1E38C5A1C04EB4303E284B3F864103D
:1038F000FFF72BFFF0E7D0F80421D0F800110244C5
:10390000014401A8FFF7F4FE9DF805102069FFF7B8
:1039100011FF9DF80410FFF70DFF2069FFF720FF4E
:10392000C6E713B5044600F126010069FFF77FFFE3
:10393000E38C012B05D902212046FFF73DFF02B0A1
:1039400010BD0DF106012069FFF771FFBDF80620DB
:1039500022B1B2F57F4F01D00321EDE7E38C04F1F2
:10396000B0001B011844816851B1A2F57F414A4261
:103970004A41234402A9D3F8BC3001F8032D9847EB
:1039800023690022C3F800210822C3F8042120691A
:10399000FFF7E6FED3E700002DE9F04F364BADF61A
:1039A0005C7D27AE03F1180734463D461868596818
:1039B000224603C20833BB421446F7D151AC2F4B09
:1039C000236000222E4B23612E482F4B84F8512078
:1039D000C4E901224FF48031C4E90F31C4E9110177
:1039E00022732263A286A263E36484F8502084F8E1
:1039F000522084F854206661FF21A3180132182A4E
:103A00001976FAD10DF5967A0021504603F08BFA1B
:103A10002069FDF707FE23691A694FF0010969F370
:103A200009221A611A6942F080721A6127464FF022
:103A300000084FF6FF7BD7E90F3103EB41019942B4
:103A40000DD01A78172A07D82244587810761A7899
:103A50000AF802900233F2E71A885A45FAD1E36471
:103A6000F96B994212D1C4F830800837B8F1000FD1
:103A70001AD14FF00108DEE7F47700089C8E0008A9
:103A8000003C02400000080800000A083A6C01EB04
:103A90004202934201F05C82C4F8308021465046D5
:103AA000FDF716FD8442E0D1226B04EBC201D1E99F
:103AB0000F30E16C03EB4003994206D15EAB01216C
:103AC000995400232363E36BE36421465046FDF7DA
:103AD000FFFCA042074641F0418262690DF5AE7CD1
:103AE0000DF5BA7E634603CB7345106051609C466A
:103AF00002F10802F6D1002384F8523094F83430F1
:103B000083B9236B73B1D4E90F324FF6FF7003EB27
:103B100042018B421A4641F02882521A18BF0122F4
:103B200084F8342094F83530BBB9236B012B14D0C2
:103B3000D4E911234FF6FF7002EB43039342114681
:103B400001F01C82B1F800C0844502F10202F5D0F8
:103B50005B1A18BF012384F835300DF5BD78414656
:103B60005EA8FDF7DFFC804518BF0323226918BF5C
:103B700084F851301369A74243F00043136109D020
:103B8000B94B3746186859683A4603C20833AB4206
:103B90001746F7D12046FDF767FEB44BDFF82083C8
:103BA0001A6812F0010F06D1DFF818B30A22C8E92B
:103BB00000B201221A60AE4BDFF80C931A6B42F090
:103BC00004021A63D8F800201068012161F315502F
:103BD0001060A84A106810F0010F01BFDFF8ECA2D6
:103BE00011600F20C9E900A01A6B42F001021A63AC
:103BF000D9F800301A684FF0010A6AF39F721A6010
:103C000071883079FFF774FA07900DF5797B079B7F
:103C1000079C994BCBF80C3004F1B001974BCBF8D3
:103C200008305846FFF788FCD4F8B820DBF8083095
:103C3000CBF80820D4F8BC20C4F8B830DBF80C303E
:103C4000CBF80C205846C4F8BC30FDF78FFD079C1C
:103C50008B4BCBF8006004F1C001CBF80C30584618
:103C6000884BCBF80830FFF767FCD4F8C820DBF8A6
:103C70000830CBF80820D4F8CC20C4F8C830DBF8E2
:103C80000C30CBF80C205846C4F8CC30FDF76EFD54
:103C9000079B0922A3F86420079B3288A3F86620BB
:103CA000079B3279A3F86A20079B7288A3F86820E3
:103CB000079AFF23A2F89A30079AA2F888A0079AD9
:103CC0004FF4F570A2F89C30FEF708FC0890FEF760
:103CD00069FC09901020FFF765F90C90FFF712FBC3
:103CE0000CAF78603868FFF77BFB089B6649DD9175
:103CF000D6ACC4E90173654BB8600025C4E905364C
:103D00006423E562C4E90855256384F82850E3621A
:103D1000DDA8C4E9038925706570FDF7A5FD4FF4A2
:103D20007A7361636564C4E90E55A56484F84050F4
:103D30006364E3A8FDF798FDDFF894C1544B38683D
:103D4000EC95C4E91DC3534BE1644FF0210EEB9594
:103D5000C4E91955E565C4E91B552566E36741F2D9
:103D6000EC33C4E921E384F8805084F88150EA956B
:103D7000FEF753FA079B484A8195CDE90A34474B31
:103D80007F93203380931368394C829513F0010F91
:103D900008BF4348434B02BFC2F800A00E21C3E94D
:103DA00000018DF80C528DF80D5286958A958E95EE
:103DB00092959695226B42F0020222631A6811686E
:103DC0006FF31D7111600125002180A899918DF874
:103DD0006C128DF86D1298939A95FDF745FD324B54
:103DE000324A9C9320339D9313689E9113F0010FE8
:103DF00008BFDFF8ACA02E4B9F918DF880128DF894
:103E00008112A391A791AB91AF91B39102BF0D2104
:103E1000C3E900A11560226BDFF854A042F0020252
:103E200022631A6811686FF39B61116001240021FD
:103E30009DA8B6918DF8E0128DF8E112B593B79474
:103E4000FDF712FD1B4B1C4AB9932033BA9313683C
:103E5000BB9113F0010F08BFDFF87090174BBC91B6
:103E60008DF8F41236E000BFF477000894040020C7
:103E700000380240880400206D1200084B0B000837
:103E8000550B0008610B0008147800085C06002040
:103E9000384AA861C8000A007401002004790008AB
:103EA00000040240780100203079000868010020F9
:103EB0006C0100205C7900085C010020600100209A
:103EC00098040020000802408C04002000000240FA
:103ED000D00750468DF8F512C091C491C891CC918D
:103EE000D09102BF0821C3E900911460DAF83020B4
:103EF00042F00102CAF830201A6811686FF31141CC
:103F000011600024BAA84FF00109D293D3948DF820
:103F100054438DF85543CDF85093FDF7A5FCB24BB3
:103F2000CBF800605946CBF80C30BEA8AF4BCBF8AD
:103F300008300DF2FD38FFF71FFB5846FDF716FC61
:103F4000AB4B8BF80C40CBE90144CBE904448BF834
:103F500018400DF24D414046099FCBF80030079DB7
:103F6000089EA44CFDF756FBA34A0292136813F077
:103F7000010F05F164056FD1A048DFF8F0E2036896
:103F80009F49DFF8ECC213F0010F01BF0D23C0F809
:103F90000090CEF80010CEF80430DAF8303043F05C
:103FA0000403CAF83030DEF8003018684FF0010919
:103FB00069F39B6018609348036813F0010F04BF16
:103FC0000F23CCF80430904B04BFCCF80010C0F89D
:103FD0000090186B40F004001863DCF80000D0F883
:103FE00000904FF0010A6AF39F79C0F80090DFF863
:103FF0008492D9F8000010F0010F844801BFC9F87D
:1040000000A00E2201604260D3F8309049F004090C
:10401000C3F830900368D3F800A04FF0010969F3AA
:104020001D7AC3F800A00023DFF84CA22373C4E973
:1040300001336373C4F800A0C4E904ECC4E90601C9
:1040400084F8303072496363029B61627149C4F83D
:104050002080A162C3F800906F4B1A6812F0010F24
:104060006E4A06D1DFF898810221C2E90081012160
:104070001960654B196B41F00401196312681168EE
:10408000012060F30511116065490A6812F0010F03
:1040900008BFDFF86CE1634A02BF08604FF0030C11
:1040A000C2E900EC196B41F00401196313685E4921
:1040B0001A68012060F387121A600B685B4A03409C
:1040C00002BFDFF83CC10860C2E900C34E4B196B68
:1040D00041F00401196312681068012161F30100C5
:1040E00010605348026812F0010F08BFDFF810C1DA
:1040F000504A04BF0160C2E900C1196B3D4841F05C
:104100000401196313681A684FF0010868F3830209
:104110001A60FDF77BFE237B0BBB474B84F80C80BA
:10412000DA68626002B194609A68DC6002B99C60EF
:1041300002225A61414B1A686FF300021A60404A2A
:104140005A6000229A601A6842F004021A601A68E3
:1041500042F002021A601A6842F001021A607FAB54
:10416000CBF874309CABCBF87830B9ABCBF87C3063
:1041700027ABCBE92035334BCBE922360DF2DC43BC
:1041800045AECBF890300023CBF894302E4BC6F8D8
:1041900000B0F36031462D4BB36067A83FADCBE96B
:1041A0001B47FEF7E3FB2A4B3C9339A9294BCDF87B
:1041B000E4B028463B93FEF7D9FB274B30932DA95B
:1041C000264BCDF8B4B033A82F93FEF7CFFB244B8A
:1041D00022931FA9234BCDF87CB023A82193FEF78F
:1041E000C5FB214B1A9349E02D0B0008350B000845
:1041F000A88E0008B8000020B400002008010020AC
:1042000000080240FC00002000380240F4000020BA
:10421000887E000888860008A8000020AC000020E6
:104220009C000020A00000209000002094000020AE
:1042300084000020880000206406002010E000E0D8
:104240001F4801005C06002047360008770B000875
:104250007F3600088D0B0008B7360008A30B000856
:104260000F360008B90B0008F55700080C010020B4
:1042700000010020F0000020B48E000817A9C34BF5
:10428000CDF85CB01BA81993FEF77FFBC04B1293CF
:104290000FA9C04B119313A8CDF83CB0FEF775FBE6
:1042A00067A90DF27C40FEF761FB29460DF28C40B8
:1042B000FEF75CFB33A90DF29C40FEF757FB23A9E8
:1042C0000DF2AC40FEF752FB1BA90DF2BC40FEF70D
:1042D0005CFB13A90DF2CC40FEF757FB13A8FDF7CA
:1042E00045FA0FA8FDF742FA1BA8FDF73FFA17A8F9
:1042F000FDF73CFA23A8FDF739FA1FA8FDF736FAB7
:1043000033A8FDF733FA2DA8FDF730FA2846FDF75C
:104310002DFA39A8FDF72AFA67A8FDF727FA3046E3
:10432000FDF724FA0DF27C4167A8FEF73DFB9A4B9E
:10433000C5F800B0EB602946984BAB603046FDAF46
:10434000FEF757FBDBE92149954BCBF8F830CBF86A
:10435000FC7067A90DF2E440DBF88080DBF88CA0EC
:10436000FEF722FB31460DF24450FEF742FB04F10A
:104370001A03CBF8703104F10A03CBF8743104F15D
:104380000E03CBF8783109F10403CBF8803108F142
:104390001703CBF8843108F11603CBF888311434B5
:1043A00008F11503CBF88C31CBF87C41CBF8909118
:1043B000CBF894A13046FDF7D9F92846FDF7D6F998
:1043C00067A8FDF73AFE0DF27C4167A8FEF7ECFA0C
:1043D000744B22931FA9744BCDF87CB023A8219372
:1043E000FEF707FB714B724ADFF82C92CBF89C71F9
:1043F000C6E9013B6F4B73616F4B33616F4B6B6170
:104400006F4B2B610C2339936E4BCDE93A3B6E4BCE
:104410003E936E4B3D930C2333936D4BCDE92E2B86
:104420006C4A3292CDE9343B6B4A6C4B38933192F3
:104430006B4B6C4ACBF898214FF0090AC5E9019BF8
:10444000379367A906230DF284502D930593C6F880
:1044500000A0C5F800A0FEF7A7FA23A90DF2E450CA
:10446000FEF7C7FA31460DF2F450FFF736F8294649
:104470000DF20C60FFF731F839A90DF22460FFF757
:104480002CF833A90DF23C60FFF727F82DA90DF2A7
:104490005460FFF722F80023CBF88832CBF88C3237
:1044A0002FA8FDF763F935A8FDF760F93BA8FDF7E4
:1044B0005DF941A8FDF75AF947A8FDF757F923A878
:1044C000FDF754F91FA8FDF751F967A8FDF7B5FDF1
:1044D0000DF27C4167A8FEF767FA434A30922DA996
:1044E000424ACDF8B4B033A82F92FEF782FA404A80
:1044F000CBF89472C6E9012B3E4A72613E4A3261A2
:104500003E4A6A613E4A2A6108230B22336039928F
:104510003C4B3D4AC5E9013BCDE93A2B3B4B3C4A7C
:10452000CBF890320F243E9267A93A4A3D920DF2A1
:104530007C602C60FEF738FA33A90DF2DC60FEF7E0
:1045400058FA31460DF2EC60FEF7C7FF29460DF22E
:104550000470FEF7C2FF39A90DF21C70FEF7BDFF13
:104560000022CBF85023CBF854233BA8FDF7FEF8EC
:1045700041A8FDF7FBF847A8FDF7F8F833A8FDF7C9
:10458000F5F82DA8FDF7F2F848E000BFCF0B0008C2
:10459000BD570008E50B000899120008FB0B000846
:1045A00020780008A5120008110C0008B88E000839
:1045B000E68E0008B1120008270C0008BD120008A2
:1045C0003D0C0008CC8E0008D9120008530C0008DE
:1045D000D98E0008F11200087F0C0008E5120008CF
:1045E000690C000854780008FD120008950C0008BA
:1045F000ED8E000809130008AB0C00081513000825
:10460000C10C0008F68E0008068F000868780008C4
:1046100021130008D70C0008C28E000867A8FDF718
:104620000CFDDBF880200DF27C41927D8BF8582345
:1046300067A8FEF7B9F9C1492DA8FDF76AFBC04983
:1046400023A8FDF766FBBF4AC5F800B0EA6029461B
:10465000BD4AAA603046FEF7CCF9BC4A369233A96F
:10466000BB4ACDF8CCB039A83592FEF7C2F92D9AE5
:1046700004922E9A0292239A0392B64ACBF85C23B4
:104680004FF48072ABF86023CBF8647367A90DF226
:104690004C70DDF89080FEF787F931460DF2AC7072
:1046A000FEF7A7F939A90DF2BC70FEF7A2F9049A3A
:1046B000CBF8E823029ACBF8EC23039ACBF8F0234B
:1046C0000DF23C72CBF8F8239BF858238BF8FC23AF
:1046D000CBF8F48339A8FDF749F833A8FDF746F87D
:1046E0003046FDF743F82846FDF740F867A8FDF788
:1046F000A4FC0DF27C4167A8FEF756F9964A369263
:1047000033A9964ACDF8CCB039A83592FEF771F9A5
:10471000059B2B60924BDFF8A882924A7261C5E933
:10472000013B914B6B6139A9904B2B61904A3460EE
:104730000B4667A9C6E9018B32610DF2E4700A46A7
:10474000CDE900653946FEF7D7FE41A8FDF70EF822
:1047500047A8FDF70BF839A8FDF708F833A8FDF7CF
:1047600005F867A8FDF769FC0DF27C4167A8FEF724
:104770001BF9804B369333A97F4BCDF8CCB039A8C9
:104780003593FEF736F97D4B73617D4B33617D4B7D
:10479000C6F808B0C5E9013B7B4B6B6139A97B4B7F
:1047A0002B610B4667A90A46C6E900483946C5F899
:1047B00000A00DF69400CDE90065FEF79DFE41A82E
:1047C000FCF7D4FF47A8FCF7D1FF39A8FCF7CEFFD0
:1047D00033A8FCF7CBFF67A8FDF72FFCDBF8803090
:1047E0000DF27C415B7D8BF8603567A8FEF7DCF845
:1047F00049462DA8FDF78DFA514923A8FDF789FAFE
:10480000634BC5F800B0EB602946624BAB603046A5
:10481000FEF7EFF8604B369333A9604BCDF8CCB080
:1048200039A83593FEF7E5F84FF480725C4BABF88E
:104830006825CBF86435CBF86C7567A90DF6541074
:10484000DDE92D4ADDE92398FEF7AEF831460DF695
:10485000B410FEF7CEF839A90DF6C410FEF7C9F86A
:104860000DF64413CBF800369BF86035CBF8F045D5
:104870008BF80436CBF8F895CBF8FC85CBF8F4A58B
:1048800039A8FCF773FF33A8FCF770FF3046FCF73C
:104890006DFF2846FCF76AFF67A8FDF7CEFBDBF843
:1048A00080300DF27C419B7C8BF8083667A8FEF7C0
:1048B0007BF83C492DA8FDF72CFA3B4923A8F9AC1D
:1048C000FDF727FA394BEB602946394B2C6030460F
:1048D000AB60FEF78EF8374B369333A9364B3593E2
:1048E00039A83394FEF785F8344AC4F80C264FF4FF
:1048F000C84167A8A4F81016C4F8147601460DF64E
:10490000FC10DDE92DBADDE92398FEF74DF83146BC
:104910000DF65C20FEF76DF839A801460DF66C2007
:10492000FEF767F80DF6EC13C4F8A83694F80836CD
:1049300084F8AC36C4F898B644E000BF128F000883
:104940001A9000082D130008ED0C00083913000818
:10495000030D00087C78000855130008190D0008A5
:104960002F8F0008611300086D130008450D000823
:104970002F0D0008811300085B0D00088D1300083F
:10498000710D0008368F000899130008870D000884
:10499000AD1300089D0D0008C9130008B30D0008F1
:1049A000A4780008408F0008518F0008F513000814
:1049B000C90D000801140008DF0D0008B8780008D0
:1049C0001F8F0008C4F89CA6C4F8A096C4F8A4865B
:1049D00039A8FCF7CBFE33A8FCF7C8FE3046FCF73D
:1049E000C5FE2846FCF7C2FE67A8FDF726FBD4F8F3
:1049F00080300DF27C401B89A4F8B036014667A8D0
:104A0000FDF7D2FFC2492DA8FDF783F9C14923A8BC
:104A1000FDF77FF9C04BEB602946C04B2C60304658
:104A2000AB60FDF7E6FFBE4B369333A8BD4B359325
:104A3000014639A83394FDF7DCFFBB4BC4F8B4360C
:104A400067A8BA4BC4F8B8360146C4F8BC760DF670
:104A5000A420DDE92398DDE92DBAFDF7A5FF314655
:104A60000DF60430FDF7C5FF39A801460DF61430E8
:104A7000FDF7BFFF0DF69423C4F85037B4F8B036F5
:104A8000A4F85437C4F840B7C4F844A7C4F848970A
:104A9000C4F84C8739A8FCF769FE33A8FCF766FE1A
:104AA0003046FCF763FE2846FCF760FE67A8FDF77A
:104AB000C4FA0DF27C40014667A8FDF775FF9C4BD8
:104AC00030932DA89B4B2F93014633A82D94FDF7CF
:104AD00090FF994BC4F85C77C6E90134974B73613A
:104AE000974B3361974BC5E90134974B6B61974BFB
:104AF0002B610E233993964BCDE93A34954B3E9377
:104B00000C20954B28603D9367A8944BC4F8583708
:104B100001464FF007090DF64430C6F80090FDF746
:104B200043FF33A801460DF6A430FDF762FF31467E
:104B30000DF6B430FEF7D1FC29460DF6CC30FEF769
:104B4000CCFC39A801460DF6E430FEF7C6FC002087
:104B5000C4F81808C4F81C083BA8FCF707FE41A8D5
:104B6000FCF704FE47A8FCF701FE33A8FCF7FEFDA6
:104B70002DA8FCF7FBFD67A8FDF75FFA0DF27C405E
:104B8000014667A8FDF710FF754BEB602946754B92
:104B90002C603046AB60FDF72CFF734939A8FDF758
:104BA000B8F8724933A8FDF7B4F8D4F884307049E6
:104BB000399AC4F8201867A8DDE933BA03F11A0856
:104BC00001463A9BC4F824780DF60C4003920293F8
:104BD000FDF7EAFE31460DF66C40FDF70AFF039A39
:104BE000029BC4F89828C4F89C38C4F8A0B8C4F84C
:104BF000A4A8C4F8A8883046FCF7B8FD2846FCF7FE
:104C0000B5FD67A8FDF719FAD4F880300DF27C40A5
:104C1000DB7C84F8AC38014667A8FDF7C5FE554932
:104C20002DA8FDF776F8514923A8FDF772F8524BED
:104C3000EB602946514B2C603046AB60FDF7D9FE46
:104C40004F4B369333A84F4B3593014639A83394D5
:104C5000FDF7CFFE4C4AC4F8B0284FF4C84167A80E
:104C60002D9BA4F8B418C4F8B87801460DF54A6035
:104C70000293DDE923A8DDF8B8B0FDF795FE3146D3
:104C80000DF55060FDF7B5FE39A801460DF55160F0
:104C9000FDF7AFFE029BC4F83C390DF54963C4F83B
:104CA0004C3994F8AC3884F85039C4F840B9C4F899
:104CB00044A9C4F8488939A8FCF758FD33A8FCF783
:104CC00055FD3046FCF752FD2846FCF74FFD67A81E
:104CD000FDF7B3F9D4F880300DF27C401B7D84F8E9
:104CE0005439014667A8FDF75FFE28492DA8FDF756
:104CF00010F81E4923A8FDF70CF8254BEB60294658
:104D0000244B2C603046AB60FDF773FE44E000BFDF
:104D1000F68E0008548F000817140008F50D0008DF
:104D2000231400080B0E0008CC7800085046C8AFCA
:104D300039140008210E0008588F00084514000897
:104D4000370E0008608F0008511400084D0E00084F
:104D50006D8F00085D140008630E00086878000875
:104D600069140008790E00087C8F00088C8F0008F9
:104D7000347800088F8F0008751400088F0E000823
:104D800081140008A50E0008B87800089F8F00085D
:104D900097140008BB0E0008B14B369333A8B14BF3
:104DA0003593014639A83394FDF723FEAE4AC4F883
:104DB00058294FF4C8412D9BA4F85C19C4F86079B8
:104DC00067A90DF648500293DDE923A8DDF8B8B0D5
:104DD000FDF7EAFD31460DF6A850FDF70AFE39A9A8
:104DE0000DF6B850FDF705FE029BC4F8E4390DF648
:104DF0003853C4F8F43994F8543984F8F839C4F8BD
:104E0000E8B9C4F8ECA9C4F8F08939A8FCF7AEFCFD
:104E100033A8FCF7ABFC3046FCF7A8FC2846FCF7AF
:104E2000A5FC67A8FDF709F90DF27C4167A8FDF71D
:104E3000BBFD8E4B369333A98D4B359339A83394F4
:104E4000FDF7D7FD8B4B73608B4B73618B4B3361DD
:104E50000A232B608A4B6B608A4B6B618A4B2B61F8
:104E60008A4BC4F8FC39082267A9C4F8007A0DF609
:104E7000E8503260FDF798FD39A90DF64860FDF75E
:104E8000B8FD31460DF65860FEF727FB29460DF5B3
:104E90006760FEF722FB0023C4F8A43AC4F8A83ADE
:104EA000C4F8B43AC4F8BC3AC4F8C03A41A8FCF714
:104EB0005DFC47A8FCF75AFC39A8FCF757FC33A85F
:104EC000FCF754FC67A8FDF7B8F80DF27C4167A821
:104ED000FDF76AFD6E4B369333A96E4B359339A8B7
:104EE0003394FDF786FD082333606B4B73606B4B87
:104EF00073616B4B33616B4B6B606B4B6B616B4BDB
:104F00002B6167AA39AB3946C5F800900DF6A86049
:104F1000CDE90065FEF7F0FA41A8FCF727FC47A8A9
:104F2000FCF724FC39A8FCF721FC33A8FCF71EFC95
:104F300067A8FDF782F82046FCF796FCD4F89000AD
:104F400003681B689847E36E93F83030CBB9FEE7EF
:104F500004EB080383F83490FEF787BD236B5EAA49
:104F60000121D1540523FEF7C7BDB2F800C0844526
:104F700003F102033EF4CDADFEF7CFBD1946FEF7B7
:104F8000E7BDDFF83081DFF830B1494D4FF0000A5E
:104F9000DC999DF8D923CB7CBDF8BC43DB98A342B8
:104FA00038BF42F001028DF8D9233AB10B7DA342FC
:104FB0002CBF002301238DF8D93303710378002B14
:104FC0003DD0CB891BB99DF8D833002B37D09DF845
:104FD000D933002B33D1D8990A688B89106A0343DF
:104FE0001362D898FDF725F810B99DF8D9330BB1A5
:104FF000DB9B1B78DB9ADA981370DC9BDB7D8DF8EA
:10500000D8331BB3FCF71AFBD898FDF712F8D99BDD
:10501000F8B11846FCF712FBD79E73681C89254B24
:1050200024096421002949DD4A1003EB820753F863
:105030002200A04211D9891A3B1D0139F2E7D89903
:105040000A688989136A23EA0103C9E7FCF7FCFAB5
:10505000DAE71846FCF7F8FADEE71146E2E700BFA8
:10506000A3140008D10E0008B8780008B91400088D
:10507000E70E0008AE8F0008FD0E0008FF0E0008C6
:10508000B78F000823160008090F00086878000889
:10509000C5140008130F0008C28F0008131600087B
:1050A000290F0008CB8F000821160008330F0008D5
:1050B000A0040020F87C000800408F40DC9ABDF876
:1050C000CC13A3EB08039B10ADF8BC331389ADF8E8
:1050D000CE33581A0B44ADF8D233ADF8D003917CDF
:1050E0009DF8583301EB8101ADF8D413052B33D86B
:1050F000DFE813F00600E700AC01EB01F001BF01AF
:105100009DF8D833D898FBB1537D18305BB1FCF7CC
:105110005CFFD898BDF8CE131030FCF7F9FE0223DF
:105120008DF8583318E06421ADF8BE33ADF8C033C4
:10513000ADF8C233FCF749FFD898BDF8D213103050
:10514000FCF7E6FE0123EBE7FCF773FF002800F015
:10515000AD80D6A8FCF750FF0B9F0A9CBE69D7F81C
:1051600008903389A4F87030B9F81030A4F8723080
:10517000338AA4F87630F389A4F874307B689B688E
:105180001889FBF7CFF90FF20863D3E90023FBF787
:1051900033FA00224FF07F53FBF72EFA0FF2F85349
:1051A000D3E90023FBF752FB52465B46FBF724FA98
:1051B000FBF734FCB7F86430A4F87800A4F87E302C
:1051C000F37CA4F88030337D7089A4F88230FBF73B
:1051D000A9F90FF2BC53D3E90023FBF70DFA002223
:1051E0004FF07F53FBF708FA0FF2AC53D3E90023DB
:1051F000FBF72CFB52465B46FBF7FEF9FBF70EFC78
:10520000A4F87A00B089FBF78DF90FF28453D3E943
:105210000023FBF7F1F900224FF07F53FBF7ECF985
:105220000FF27453D3E90023FBF710FB52465B46A1
:10523000FBF7E2F9FBF7F2FBA4F87C00B37CA4F8DF
:105240006C307969B9F8183009780522B3FBF2F3AC
:1052500097F88120A4F86E3082F00103194094F889
:10526000843061F30003F17D61F34103B17D61F3AB
:105270008203717D61F3C30362F30413216984F82F
:105280008430D1F82031D1F804215B68D1F80011C5
:105290009BB2521AC3F1FF039A4280F0228100238D
:1052A000E3612046FCF7BEFA30BF71E6DC9BD8987C
:1052B0005A7D22B1D9891030FCF72AFE4CE7198AB1
:1052C000F9E7D898FCF7B5FE88B19DF85933042B5F
:1052D0000DD8DFE803F00319315E97004FF47A73BD
:1052E000E9A8ED93FCF7C0FA01238DF85933D8985B
:1052F000FCF79FFE00287FF42FAF9DF8D833002BDA
:105300007FF42AAF00230BE7EE9AED9B9A42EED38F
:10531000E9A8FCF7A5FAD898BDF8D21300231030FD
:10532000ADF8BE33ADF8C033ADF8C233ADF8C43319
:10533000FCF7EEFD0223D8E7D89864211830FCF77B
:1053400044FED79BBDF8C2239B689B68934284BFF1
:10535000ADF8C233D89BDDA884BF1B8AADF8C83333
:10536000FCF756FA68B1D898BDF8D033028A9A4251
:1053700083BFBDF8D613494209B200211030FCF7B3
:10538000E9FDD89B1A8ABDF8D0339A42AFD10323E6
:10539000ABE7D89864211830FCF717FED79BBDF80F
:1053A000C0239B689B68934284BFADF8C033D89BF1
:1053B000DDA884BF1B8AADF8C633FCF729FA58B1C3
:1053C000D898BDF8D233028A9A4234BFBDF9D613B9
:1053D00000211030FCF7BEFDD89B1A8ABDF8D233ED
:1053E0009A4284D1DC9BBDF8C0130022DA75BDF867
:1053F000C22391428CBFBDF8C623BDF8C8231A82D0
:10540000042372E7DDA8FCF703FA70B1D898DC9B9F
:1054100030F8102F1B8A9A4215D383BFBDF8D613DC
:10542000494209B20021FCF795FDD89ADC9B128A0B
:105430001B8A9A427FF45BAF00238DF85933D6A8BC
:10544000FCF7DAFD53E7BDF9D613ECE7D898BDF8C1
:10545000CA131030FCF75CFD9DF8D833002B7FF4A5
:1054600046AFD89ADC9B128ADA81BDF8BE239A81B6
:10547000E5E7B368BDF8BE139B688B4284BF9BB25F
:10548000ADF8BE33E3A888BF5381FCF7C1F968B11A
:10549000D898BDF8D43330F8181F8B4294BF4FF022
:1054A000FF330123194489B2FCF78FFDD898BDF86A
:1054B000D433028B9A4202D303238DF85833FCF77E
:1054C000B8FD00283FF41EAF46E6D898FCF7B1FDC2
:1054D000D898F4E7D898BDF8CA131030FCF718FD37
:1054E000F6E7D4E907239A42FFF6DEAE002620460F
:1054F000E661FCF797F92069D0F80431D0F8002173
:10550000991A072902D8FDF7C9FDCDE6875C94F802
:1055100024108F42F7D1934284BF03F1FF33C0F8C8
:105520000431226988BFC65CD2F80011D2F8043178
:105530008B4282BF03F1FF33C2F80431D75C236989
:10554000D3F80421D3F800111A44194467A898BF6E
:105550000027FEF7CDF89DF89C31B34204D19DF8A9
:105560009D312069BB4201D02069CCE7FEF7D6F817
:105570002069FEF7D3F8052884F8250000F00081A3
:10558000102806D0032840F0FF802046FEF786F959
:105590008AE60A212046FEF765F920B90221204655
:1055A000FEF70AF980E62369D3F80021D3F8041145
:1055B000914283BF511CC3F800119B5C002384F807
:1055C0002C30002604F12E07628D2069B3B29A4276
:1055D0002CD93946FEF72BF9E38C13FA86F3E2183F
:1055E0005B0092F8D010E28D89B1234410B2B3F879
:1055F00086100FFA81FC604500DA31B9B3F89A10D1
:105600000FFA81FC60450DDD61B10321C7E723443A
:10561000B3F886108A4201D20029F6D1B3F89A1065
:105620008A42F1D8A3F850200136CDE700230121AA
:1056300040F2B7469FB2974277D2B4F826C067448B
:10564000BFB2092F0FD8DFE807F005101A25323B4B
:10565000444D565F0A9FB7F850C0A7F868C00B9F2B
:10566000BF69A7F802C00133E4E70A9FB7F852C048
:10567000A7F86AC00B9FBF6987F804C0F3E70A9FC9
:10568000B7F85470A7EB060CDCF1000747EB0C07EA
:105690002F70E8E72F7847B10A9FB7F856C0A7F8F0
:1056A00066C00B9FBF69A7F800C02970DBE70B9F9E
:1056B00002970A9FB7F858C0029FA7F872C0D2E7B6
:1056C0000B9FDDF828C0BF69BCF85AC0A7F808C016
:1056D000C9E70B9FD7F818C00A9FB7F85C708CF821
:1056E0001270C0E70B9FD7F818C00A9FB7F85E701A
:1056F0008CF81370B7E70B9FD7F818C00A9FB7F85C
:1057000060708CF81470AEE7DDE90AC7D7F818E0CE
:105710009CF86270C7F380078EF816709CF8627070
:10572000C7F3C0078EF815709DE70023C0F800315D
:10573000C0F8043194F824102069FDF7FBFF94F8B9
:105740002510FDF7F7FFE18CFDF7FFFF618DFDF7F9
:10575000FCFF2369D3F80421D3F800111A4419443B
:1057600067A8FDF7C5FF9DF89D112069FDF7E2FFD1
:105770009DF89C11FDF7DEFF2069FDF7F1FF93E531
:105780002046FEF7CEF88FE5012108E7AFF3008051
:105790006666666666660A400000000000FEEF402E
:1057A00038B505460C46FDF7C7FEAB68A268AA608F
:1057B000A360E268EB68EA60E36038BD30B5044698
:1057C00089B00846002369460293FFF7E9FF236882
:1057D0009C6F2368694604A81D69FDF76FFE04A944
:1057E0002046A84704A8FBF7C1FF6846FBF7BEFFA9
:1057F00009B030BD30B5044689B00846002369467B
:105800000293FFF7CDFF23685C6F2368694604A805
:105810001D69FDF753FE04A92046A84704A8FBF71D
:10582000A5FF6846FBF7A2FF09B030BD1FB50446CF
:105830006846FDF743FE21466846FFF7B1FF68461C
:10584000FBF794FF204604B010BD08B55430FFF7B5
:10585000EDFF08BD08B55430FFF7E8FF08BD08B5F7
:105860005430FFF7E3FF08BD1FB550B16846FDF7A0
:10587000C0F8029B13B16846FDF79EFA6846FBF735
:1058800075FF05B05DF804FB07B5826801910AB9A0
:1058900001F0F4FAC36801A9984703B05DF804FB6E
:1058A0007FB50446406EFBF74DFF08B9A36E8BB37E
:1058B000606EFBF747FF054680BB637C63BB94F8D3
:1058C000706004F124016846FDF793F8694630469C
:1058D000FFF7CAFF6846FBF749FF637C33B994F8CA
:1058E00070501DB194F8715085F0010504F1340138
:1058F0006846FDF77EF869462846FFF7B5FF68461B
:10590000FBF734FF00230122C4E91A3284F8703017
:1059100084F8713004B070BD0646D2E7A36E01333F
:10592000092BA36622D994F870208AB9657C0123DB
:1059300084F870305D4004F114016846FDF759F8B1
:1059400028466946FFF790FF6846FBF70FFFE1E73F
:10595000B3F57A7F0AD394F871203AB9657C0123B4
:1059600084F871305D4004F14401E6E7E26D002AFD
:10597000D0D0B3F57A7FCDD9B3F5FA6F0CD8C82162
:10598000B3FBF1F201FB1233002BC3D1012104F16F
:105990005400FFF779FFBDE740F6B832934201D8D3
:1059A0006421EDE7B3F57A6F01D83221E8E71921D8
:1059B000B3FBF1F201FB123241F288318B4202D883
:1059C000002AA7D1E2E7002AA4D1E16E04F1540035
:1059D000FFF75AFFA16E4FF47A72B1FBF2F302FBAC
:1059E0001313002B96D1E36E0133E36692E7A0F127
:1059F000040055E77FB50446406EFBF7A3FE08B9E7
:105A0000A36E8BB3606EFBF79DFE054680BB637C87
:105A100063BB94F8706004F124016846FCF7E9FF69
:105A200069463046FFF720FF6846FBF79FFE637C20
:105A300033B994F870501DB194F8715085F0010598
:105A400004F134016846FCF7D4FF69462846FFF7A5
:105A50000BFF6846FBF78AFE00230122C4E91A32D5
:105A600084F8703084F8713004B070BD0646D2E717
:105A7000A36E0133092BA36622D994F870208AB94A
:105A8000657C012384F870305D4004F114016846A0
:105A9000FCF7AFFF28466946FFF7E6FE6846FBF7CE
:105AA00065FEE1E7B3F57A7F0AD394F871203AB93D
:105AB000657C012384F871305D4004F14401E6E720
:105AC000E26D002AD0D0B3F57A7FCDD9B3F5FA6F65
:105AD0000CD8C821B3FBF1F201FB1233002BC3D168
