:020000040800F2
:1000000000000220392C0008892C0008892C0008E7
:10001000892C0008892C0008892C000800000000A9
:10002000000000000000000000000000892C000813
:10003000892C000800000000892C000871110008BC
:10004000650E0008670E0008690E00086B0E0008B8
:100050006D0E00086F0E0008710E0008730E000888
:10006000750E0008770E0008790E0008290F0008A9
:10007000450F0008610F00087D0F0008990F000868
:10008000B50F0008D10F00087B0E00087D0E000898
:100090007F0E0008810E0008830E0008850E000800
:1000A000B90E0008BB0E0008BD0E0008BF0E000808
:1000B000C10E0008C30E0008C50E0008870E000818
:1000C000890E00088B0E00088D0E0008E91000084C
:1000D000F5100008D50E0008F10E00080D0F0008FD
:1000E0008F0E0008910E0008930E0008CD0E000838
:1000F000CF0E0008D10E0008D30E0008ED0F000847
:10010000950E0008970E0008C70E000801110008A0
:10011000990E00089B0E0008C90E0008CB0E0008BF
:100120000910000825100008411000085D100008A3
:100130007910000800000000000000009D0E00087B
:100140009F0E0008A10E0008A30E0008A50E0008CF
:1001500095100008B1100008CD100008A70E000887
:10016000A90E0008AB0E0008AD0E0008AF0E000887
:10017000B10E0008B30E00080000000000000000EF
:08018000B50E0008B70E0008DF
:1001880010B5054C237833B9044B13B10448AFF3C9
:1001980000800123237010BD0C0000200000000027
:1001A800082D000808B5034B1BB103490348AFF3FA
:1001B800008008BD0000000010000020082D000885
:1001C80081F0004102E000BF83F0004330B54FEA00
:1001D80041044FEA430594EA050F08BF90EA020F6D
:1001E8001FBF54EA000C55EA020C7FEA645C7FEA00
:1001F800655C00F0E2804FEA5454D4EB5555B8BF23
:100208006D420CDD2C4480EA020281EA030382EA93
:10021800000083EA010180EA020281EA0303362D25
:1002280088BF30BD11F0004F4FEA01314FF4801CF8
:100238004CEA113102D0404261EB410113F0004F0A
:100248004FEA03334CEA133302D0524263EB4303C1
:1002580094EA050F00F0A780A4F10104D5F1200E5F
:100268000DDB02FA0EFC22FA05F2801841F10001BA
:1002780003FA0EF2801843FA05F359410EE0A5F18E
:1002880020050EF1200E012A03FA0EFC28BF4CF0BF
:10029800020C43FA05F3C01851EBE37101F0004575
:1002A80007D54FF0000EDCF1000C7EEB00006EEB82
:1002B8000101B1F5801F1BD3B1F5001F0CD349080C
:1002C8005FEA30004FEA3C0C04F101044FEA445263
:1002D80012F5800F80F09A80BCF1004F08BF5FEAEA
:1002E800500C50F1000041EB045141EA050130BDCA
:1002F8005FEA4C0C404141EB010111F4801FA4F16D
:100308000104E9D191F0000F04BF01460020B1FAC1
:1003180081F308BF2033A3F10B03B3F120020CDAF9
:100328000C3208DD02F1140CC2F10C0201FA0CF0D7
:1003380021FA02F10CE002F11402D8BFC2F1200C3C
:1003480001FA02F120FA0CFCDCBF41EA0C019040F2
:10035800E41AA2BF01EB0451294330BD6FEA04043B
:100368001F3C1CDA0C340EDC04F11404C4F1200226
:1003780020FA04F001FA02F340EA030021FA04F338
:1003880045EA030130BDC4F10C04C4F1200220FA8F
:1003980002F001FA04F340EA0300294630BD21FACD
:1003A80004F0294630BD94F0000F83F4801306BF93
:1003B80081F480110134013D4EE77FEA645C18BF87
:1003C8007FEA655C29D094EA050F08BF90EA020F1E
:1003D80005D054EA000C04BF1946104630BD91EA16
:1003E800030F1EBF0021002030BD5FEA545C05D119
:1003F8004000494128BF41F0004130BD14F5800458
:100408003CBF01F5801130BD01F0004545F0FE41CB
:1004180041F470014FF0000030BD7FEA645C1ABF00
:10042800194610467FEA655C1CBF0B46024650EA37
:10043800013406BF52EA033591EA030F41F4002163
:1004480030BD00BF90F0000F04BF0021704730B5E9
:100458004FF4806404F132044FF000054FF00001BE
:1004680050E700BF90F0000F04BF0021704730B57F
:100478004FF4806404F1320410F0004548BF404254
:100488004FF000013EE700BF42004FEAE2014FEAA9
:1004980031014FEA02701FBF12F07F4393F07F4F84
:1004A80081F06051704732F07F4208BF704793F087
:1004B8007F4F04BF41F40021704730B54FF460749A
:1004C80001F0004521F000411CE700BF50EA01029D
:1004D80008BF704730B54FF000050AE050EA010246
:1004E80008BF704730B511F0004502D5404261EBB6
:1004F80041014FF4806404F132045FEA915C3FF4F7
:10050800D8AE4FF003025FEADC0C18BF03325FEA93
:10051800DC0C18BF033202EBDC02C2F1200300FA44
:1005280003FC20FA02F001FA03FE40EA0E0021FA69
:1005380002F11444BDE600BF70B54FF0FF0C4CF457
:10054800E06C1CEA11541DBF1CEA135594EA0C0F09
:1005580095EA0C0F00F0DEF82C4481EA030621EA44
:100568004C5123EA4C5350EA013518BF52EA03357F
:1005780041F4801143F4801338D0A0FB02CE4FF031
:100588000005E1FB02E506F00042E0FB03E54FF061
:100598000006E1FB03569CF0000F18BF4EF0010E59
:1005A800A4F1FF04B6F5007F64F5407404D25FEA55
:1005B8004E0E6D4146EB060642EAC62141EA555108
:1005C8004FEAC52040EA5E504FEACE2EB4F1FD0C4A
:1005D80088BFBCF5E06F1ED8BEF1004F08BF5FEAC8
:1005E800500E50F1000041EB045170BD06F000467A
:1005F80046EA010140EA020081EA0301B4EB5C0427
:10060800C2BFD4EB0C0541EA045170BD41F480111E
:100618004FF0000E013C00F3AB8014F1360FDEBF43
:10062800002001F0004170BDC4F10004203C35DA1F
:100638000C341BDC04F11404C4F1200500FA05F3A2
:1006480020FA04F001FA05F240EA020001F0004243
:1006580021F0004110EBD37021FA04F642EB0601B9
:100668005EEA430E08BF20EAD37070BDC4F10C04E3
:10067800C4F1200500FA04F320FA05F001FA04F2A7
:1006880040EA020001F0004110EBD37041F1000193
:100698005EEA430E08BF20EAD37070BDC4F120059E
:1006A80000FA05F24EEA020E20FA04F301FA05F206
:1006B80043EA020321FA04F001F0004121FA04F2AE
:1006C80020EA020000EBD3705EEA430E08BF20EA7E
:1006D800D37070BD94F0000F0FD101F000464000B8
:1006E80041EB010111F4801F08BF013CF7D041EA3A
:1006F800060195F0000F18BF704703F0004652003E
:1007080043EB030313F4801F08BF013DF7D043EA0E
:100718000603704794EA0C0F0CEA135518BF95EAC4
:100728000C0F0CD050EA410618BF52EA4306D1D14B
:1007380081EA030101F000414FF0000070BD50EA6A
:10074800410606BF1046194652EA430619D094EAF4
:100758000C0F02D150EA013613D195EA0C0F05D1DE
:1007680052EA03361CBF104619460AD181EA030132
:1007780001F0004141F0FE4141F470014FF00000EA
:1007880070BD41F0FE4141F4780170BD70B54FF085
:10079800FF0C4CF4E06C1CEA11541DBF1CEA135505
:1007A80094EA0C0F95EA0C0F00F0A7F8A4EB0504E7
:1007B80081EA030E52EA03354FEA013100F08880DE
:1007C8004FEA03334FF0805545EA131343EA1263A7
:1007D8004FEA022245EA111545EA10654FEA00265C
:1007E8000EF000419D4208BF964244F1FD0404F515
:1007F800407402D25B084FEA3202B61A65EB030571
:100808005B084FEA32024FF480104FF4002CB6EB2D
:10081800020E75EB030E22BFB61A754640EA0C00AD
:100828005B084FEA3202B6EB020E75EB030E22BFED
:10083800B61A754640EA5C005B084FEA3202B6EB2E
:10084800020E75EB030E22BFB61A754640EA9C00ED
:100858005B084FEA3202B6EB020E75EB030E22BFBD
:10086800B61A754640EADC0055EA060E18D04FEA7B
:10087800051545EA16754FEA06164FEAC30343EA1B
:1008880052734FEAC2025FEA1C1CC0D111F4801FE8
:100898000BD141EA00014FF000004FF0004CB6E7E1
:1008A80011F4801F04BF01430020B4F1FD0C88BF80
:1008B800BCF5E06F3FF6AFAEB5EB030C04BFB6EB8B
:1008C800020C5FEA500C50F1000041EB045170BD7E
:1008D8000EF0004E4EEA113114EB5C04C2BFD4EBAB
:1008E8000C0541EA045170BD41F480114FF0000E2F
:1008F800013C90E645EA060E8DE60CEA135594EAAB
:100908000C0F08BF95EA0C0F3FF43BAF94EA0C0FAD
:100918000AD150EA01347FF434AF95EA0C0F7FF422
:1009280025AF104619462CE795EA0C0F06D152EA76
:1009380003353FF4FDAE1046194622E750EA41065A
:1009480018BF52EA43067FF4C5AE50EA41047FF46B
:100958000DAF52EA43057FF4EBAE12E74A0011D21D
:1009680012F5001211D20DD56FF47873B3EB625201
:100978000ED44FEAC12343F0004343EA505323FA0D
:1009880002F070474FF00000704750EA013002D182
:100998004FF0FF3070474FF00000704742090123C5
:1009A80000F01F0003FA00F0014B43F822007047E3
:1009B80000E100E0436901334361704710B5014627
:1009C800054B41F8303B836B044613B103220846BC
:1009D8009847204610BD00BF742F0008C369013333
:1009E800C361704770B4816800220B4613B19A60E6
:1009F8005B68FBE7D0E9042302EB43050B4695420D
:100A0800144609D026889C6834449C605B6802328E
:100A1800002B08BF0B46F2E7836B1BB1C36B70BC9E
:100A28003030184770BC7047FFF7B8BF036813B978
:100A38000160704713465A68002AFBD15960704715
:100A480010B504462CB1236820461B689847646893
:100A5800F8E710BD0369002BBFBF034B436003F1E8
:100A680088334360704700BF2301674510B50123F1
:100A7800D0E9004219B19340A361084610BD103275
:100A8800F9E7012904D1036A43F0010303627047BF
:100A9800022903D1036A43F01003F7E7032903D1BE
:100AA800036A43F48073F1E70429F0D1036A43F43D
:100AB8008053EBE7012904D1036A6FF30003036253
:100AC8007047022903D1036A6FF30413F7E7032978
:100AD80003D1036A6FF30823F1E70429F0D1036A0D
:100AE8006FF30C33EBE7012903D1006A00F0010032
:100AF8007047022903D1006AC0F300107047032928
:100B080003D1006AC0F300207047042906BF006AB9
:100B1800C0F3003000207047012901D142637047BB
:100B2800022901D182637047032901D1C26370474A
:100B3800042908BF0264704703888B421AD040F624
:100B48000223994216D901800B4BB3FBF1F143689C
:100B58000139D8691A6849081981D16201891A8B43
:100B68004FF47A734A43817A92FBF3F2006892B2A7
:100B7800FFF7D2BF704700BF007A030A08B50388A1
:100B8800194489B2FFF7D8FF08BD02888A4210B518
:100B98000B460FD04468E2898A420BD32289018030
:100BA8004A4320684FF47A7192FBF1F2A17A92B22B
:100BB800FFF7B2FF184610BD21B9036962F30203BB
:100BC80003617047012903D1036962F3C503F7E79D
:100BD800022903D1036962F38813F1E7032903D1DA
:100BE800036962F34B23EBE7042903D1036962F33A
:100BF8000E33E5E7052903D1036962F3D133DFE753
:100C0800062903D1036962F39443D9E7072903D17D
:100C1800036962F35753D3E7082903D1036962F3E1
:100C28001A63CDE7092903D1036962F3DD63C7E7D6
:100C38000A2904D1C36862F30203C36070470B2911
:100C480003D1C36862F3C503F7E70C2903D1C3686E
:100C580062F38813F1E70D2903D1C36862F34B23CC
:100C6800EBE70E2903D1C36862F30E33E5E70F29DA
:100C780003D1C36862F3D133DFE7102903D1C36816
:100C880062F39443D9E7112903D1C36862F3575338
:100C9800D3E71229D2D1C36862F31A63CDE70129D9
:100CA80004D1436B62F3040343637047022903D101
:100CB800436B62F34913F7E7032903D1436B62F3EC
:100CC8008E23F1E7042903D1436B62F3D333EBE7B7
:100CD800052903D1436B62F31853E5E7062903D1CD
:100CE800436B62F35D63DFE7072904D1036B62F3AB
:100CF800040303637047082903D1036B62F34913A4
:100D0800F7E7092903D1036B62F38E23F1E70A2978
:100D180003D1036B62F3D333EBE70B2903D1036BE6
:100D280062F31853E5E70C2903D1036B62F35D63A3
:100D3800DFE70D2904D1C36A62F30403C362704775
:100D48000E2903D1C36A62F34913F7E70F2903D1C8
:100D5800C36A62F38E23F1E71029F0D1C36A62F304
:100D6800D333EBE719B90068C0F340107047012985
:100D780003D10068C0F3C0207047022903D100687E
:100D8800C0F340507047032903D10068C0F3C06026
:100D98007047042901D14068E6E7052901D1406878
:100DA800E8E7062901D14068EAE7072901D1406848
:100DB800ECE70020704700000A2A10B501D00F2A7E
:100DC80015D1204B9A68C2F34232D2B1042A1AD004
:100DD800052A1AD01C4B1D4C062A08BF2346072992
:100DE8001AD8DFE801F0141A1D202326292C0B3A03
:100DF800032A04D8134B9A68C2F38222E5E700233A
:100E0800EDE7134BEBE7134BE9E7134BE7E74FF439
:100E18001652B3FBF2F3836010BD4FF46152F8E74A
:100E28004FF49642F5E74FF4E142F2E74FF41642E9
:100E3800EFE74FF46142ECE74FF49632E9E74FF4FD
:100E4800E132E6E700380240A037A000406F4001D9
:100E5800007A030A00BD010580DE8002FEE7FEE796
:100E6800FEE7FEE7FEE7FEE7FEE7FEE7FEE7FEE752
:100E7800FEE7FEE7FEE7FEE7FEE7FEE7FEE7FEE742
:100E8800FEE7FEE7FEE7FEE7FEE7FEE7FEE7FEE732
:100E9800FEE7FEE7FEE7FEE7FEE7FEE7FEE7FEE722
:100EA800FEE7FEE7FEE7FEE7FEE7FEE7FEE7FEE712
:100EB800FEE7FEE7FEE7FEE7FEE7FEE7FEE7FEE702
:100EC800FEE7FEE7FEE7FEE7FEE7FEE708B5044BB0
:100ED8001868FFF7B5FD034B1A685B6808BD00BFCB
:100EE800080500200010014008B5044B1868FFF7FA
:100EF800A7FD034B1A685B6808BD00BF10050020FA
:100F08000044004008B5044B1868FFF799FD034BEF
:100F18001A685B6808BD00BF18050020004800403B
:100F280008B5044B1868FFF78BFD034B3D229A6008
:100F380008BD00BF700400200060024008B5044BE3
:100F48001868FFF77DFD034B4FF474629A6008BD83
:100F5800780400200060024008B5044B1868FFF7C9
:100F68006FFD034B4FF474129A6008BD8004002093
:100F78000060024008B5044B1868FFF761FD034B99
:100F88004FF074629A6008BD880400200060024037
:100F980008B5044B1868FFF753FD034B4FF4746210
:100FA800DA6008BD900400200060024008B5044BD8
:100FB8001868FFF745FD034B4FF47462DA6008BD0B
:100FC800980400200060024008B5044B1868FFF739
:100FD80037FD034B4FF47412DA6008BDA0040020FB
:100FE8000060024008B5044B1868FFF729FD034B61
:100FF8004FF07462DA6008BDA80400200060024067
:1010080008B5044B1868FFF71BFD034B3D229A6097
:1010180008BD00BFB00400200064024008B5044BBE
:101028001868FFF70DFD034B4FF474629A6008BD12
:10103800B80400200064024008B5044B1868FFF7A4
:10104800FFFC034B4FF474129A6008BDC0040020E3
:101058000064024008B5044B1868FFF7F1FC034B25
:101068004FF074629A6008BDC80400200064024012
:1010780008B5044B1868FFF7E3FC034B3D22DA6020
:1010880008BD00BFD00400200064024008B5044B2E
:101098001868FFF7D5FC034B4FF47462DA6008BD9B
:1010A800D80400200064024008B5044B1868FFF714
:1010B800C7FC034B4FF47412DA6008BDE00400204B
:1010C8000064024008B5044B1868FFF7B9FC034BED
:1010D8004FF07462DA6008BDE80400200064024042
:1010E800014B1868FFF7ACBCF0040020014B1868EE
:1010F800FFF7A6BCF8040020014B1868FFF7A0BC56
:1011080000050020436A1A6842F001021A601A6852
:10111800D107FCD5036A9A6842F001029A609A687E
:10112800D207FCD59A6842F080429A60704710B5A1
:1011380004682CB1236820461B689847A468F8E720
:1011480010BD10B504460830FFF7F1FFD4E90421BB
:10115800531C2361B2FBF1F301FB132313B920469F
:10116800FFF7E5FF10BD00000148FFF7EABF00BF29
:1011780020050020426903699A424FF0000326BF08
:101188004361012018467047037BC3B100230373F2
:10119800D0E901236AB143B1936083685A600023A0
:1011A800C0E9013370470B60F8E7054993604A606E
:1011B800F5E70349002BF6D1C1E90033EFE77047A3
:1011C8002005002038B503691A685B681269012593
:1011D80005FA03F31342C27E14BF2B4600239A423A
:1011E80003D043692B44436138BDFFF7CDFF00238B
:1011F80043610376437683760562F5E70022426110
:10120800FFF7C2BF037B53B901230373044B5A682A
:10121800426002B190601A68586002B9186070475D
:101228002005002080680269D2F818311B68DB06A7
:1012380011D5D2F820315B6800219BB2C2F80011A9
:10124800C3F1FF01FF2928BFFF21FF2BC2F80411BA
:1012580001D0FFF7D7BF7047837E10B50146002B3A
:1012680030D04369826AB3F5FA6F06DCC73293421D
:101278005ADD8B620B6A4B6222E040F6B73083423C
:1012880001DC6332F3E7B3F57A6F01DA3132EEE766
:1012980041F28730834202F11802E8DD086A93427E
:1012A800CCBF024600224FF47A74C8BF8B624A62F0
:1012B80093FBF4F204FB1233002B08BF01300862E1
:1012C800486A10BD03691A685C6812690123A34063
:1012D8001342C27E14BF012300239A4201D0FFF7B4
:1012E80091FF4B69092B04DD0B7E13B901230B76A3
:1012F800C1E70B691A6858681269012383401342D1
:10130800CA7E14BF012300239A4202D00846FFF781
:1013180079FF4A69B2F57A7F06DB4B7E23B9012350
:101328004B768B768A62A6E70023A4E7204B1A68DF
:10133800052161F302021A60A3F580631A6842F47A
:1013480080321A601A689203FCD59A686FF3071204
:101358009A609A68052161F38C229A609A68042140
:1013680061F34F329A609A68022060F301029A6032
:101378005A6861F305025A605A68A82161F38E120F
:101388005A605A68072161F31B625A605A686FF302
:1013980011425A605A6842F480025A601A6842F050
:1013A80080721A60034A13689B01FCD5704700BF1E
:1013B800003C024000380240754A7649F8B5136887
:1013C80013F0010F70D1744B744C186810F0010FB2
:1013D80006D1DFF8E0E10920C4E900E00120186047
:1013E8006F4B186B40F001001863206805680226EF
:1013F80066F393450560456A072666F30715456257
:10140800684D286810F0010F674806D1DFF8A4C1BD
:101418000A26C0E900C601262E601D6B45F00105AD
:101428001D6303681D68022666F315551D605D6A15
:10143800072666F30B255D625C4D2B6813F0010FE0
:101448005B4B05D15B4F0C26C3E9007601262E6065
:10145800534E356B45F0010535631E683768012525
:1014680065F319673760C1F81031534BC1F814316F
:10147800A3F5AA33C1F8183103F5AA33B833C1F874
:101488001C31783BC1F820310A230026C1F82431E9
:101498000723C1F80061C1F80461C1F80841C1F827
:1014A8000C0181F8283115603D4C636C43F0100342
:1014B8006364D1F81831DA6842F00802DA60DA6851
:1014C80042F00402DA605A6942F080025A615A69AD
:1014D80042F040025A61394B93F90400FFF7A4FA2D
:1014E800236B43F480032363D1F81C311A6801206D
:1014F80060F387121A60D1F800210A44DA60D1F843
:10150800182104329A601A6842F480621A601A68D4
:101518006FF34E321A601A686FF3CC221A601A6899
:1015280042F010021A60264B93F90400FFF77CFA88
:10153800D1F820311A686FF387121A60D1F80021A8
:101548000A44DA60D1F8182104329A60FF225A60FE
:101558001A6842F480621A601A686FF34E321A6091
:101568001A686FF3CC221A601A6842F480721A6003
:10157800D1F820311A68042060F35B621A60D1F850
:101588001C311A6860F35B621A600248F8BD00BF3C
:101598008401002088010020CC020020D002002015
:1015A80000380240C0020020C4020020B40200201B
:1015B800B802002000000240006402400805002034
:1015C800E804002070B5294E294B326812F0010F4B
:1015D8002DD128490A6812F0010F274A05D1274D55
:1015E8000924C2E9005401240C60254C216B41F008
:1015F8000401216311680C68022565F393440C60AB
:101608004C6A65F307144C621E49D881C3E900127D
:101618004FF6FF721A8104229A724FF480529A810F
:1016280000221A821A8301225B61DB61326014494D
:1016380015480A6C42F002020A641B68DA6906213E
:1016480061F30E32DA61DA6942F40062DA611A682B
:1016580042F080021A601A6842F001021A6040F6ED
:101668000321FFF769FA024870BD00BFBC000020E3
:10167800C0000020E0000020E40000200008024034
:101688000038024000040040D00000203349344AAA
:101698000B6813F0010F70B53DD1324B324C18680E
:1016A80010F0010F05D1314D0620C4E9005001208A
:1016B80018602F4B186B40F0040018632068056809
:1016C800022666F30D350560056A032666F31B6579
:1016D8000562284D286810F0010F274806D1DFF869
:1016E8008CC00726C0E900C601262E601D6B45F098
:1016F80004051D6303681D68022666F38F351D60A7
:101708001D6A032666F31F751D621C4B9360C2E9B0
:10171800004001230B60164911484B6C43F002034B
:101728004B6493689A68032161F302029A609A698C
:10173800012161F301029A619A6961F309229A61B0
:101748001A6A42F002021A621A6A6FF3C3021A6234
:1017580000225A621A680A431A6070BD9400002079
:1017680098000020B0000020B400002000080240CB
:1017780000380240A4000020A80000200004014016
:1017880038B5354D354C2B6813F001031DD1344A5B
:101798002260344A226202F5A2321032C4E90603FA
:1017A80062623148636022222146C4E90233C4E9F7
:1017B8000433A062E262A363FFF738F901232B4ADE
:1017C8002B492B60204601F05CFA2A4A536C43F4FB
:1017D80080735364236A59686FF319615960996873
:1017E80041F002019960996841F4807199609968A3
:1017F80041F400719960596841F480715960116B26
:1018080041F48001116303F14C02636A9A601A681B
:101818006FF387121A601A68012161F34E321A6059
:101828001A6861F3CC221A601A6842F480621A605E
:101838001A6842F010021A601A6842F480721A603C
:101848001A686FF35B621A60A36A93F90400FFF7E2
:10185800EBF8024838BD00BF5000002054000020BB
:10186800742F000800200140B00400200000002070
:10187800C509000800380240F8B504464F48504DE5
:10188800026812F0010F1BD14E490B6813F00102D8
:1018980008BF4D4E4D4B02BFC3E9006201220A60EA
:1018A8004B490A6B42F002020A6319680A6842F05F
:1018B80003020A600022C5E90022EB6001230360ED
:1018C800E36A206A223B012B8CBF00260826F7B268
:1018D800072239462E61FFF76FF9E169206A013165
:1018E800E1613A46FFF7DBF9D4E90732D16A013BF7
:1018F80063F31751D162A2681346002B55D01969BA
:101908008E424DDB5B68F8E76A60E368A56003B95F
:10191800E5602069A2692F4B68B1D3F8001150F82F
:10192800045D0439491B5D18A8421ABF012183F8D8
:101938000411C3F8001161690A4462612649D3F8A9
:1019480000518A4294BF52004FF0FF32281D1044C4
:10195800B0F5807F03EB0501C3F800011ED893F8AA
:101968000401D8B909B15A510431636A21611A686E
:101978006FF300021A60A28AD9605A601A6842F0AE
:1019880001021A601A68D207FCD50D48F8BD1A681A
:10199800C5E900231D602B685D60BAE70021E4E714
:1019A8009A42F4D16A601560AFE7002AACD0E368C8
:1019B8002B60002BACD05D60AAE700BF2800002098
:1019C8002C000020400000200004024044000020B9
:1019D8000038024068030020FCFFFF3FD0F81021C8
:1019E8000023C0F80031C0F8043110B5D2E9004135
:1019F800012210318A40A261D0F81C21116863F3DA
:101A080000011160D0F82021116863F30001FF2361
:101A180011605360D0F820311A6842F001021A6050
:101A28001A68D207FCD5D0F81821D36843F0100300
:101A3800D36010BD08B583681A6992F82811D2F8E6
:101A48001401FFF78FF910B11869FFF7C7FF08BD38
:101A5800006800F10803027812B1427822B9013017
:101A68001B1A58425841704782780AB90230F7E782
:101A7800C2780AB90330F3E704308342EBD1EFE7C9
:101A88002DE9F04F00F1180885B0044600F1200157
:101A98004346FF228B4202D003F8012BFAE70DF1EF
:101AA800100902AB0025206949F80C3DCDE9025523
:101AB800FEF7D0FF264604F12C074FF6FF7B4FF0C8
:101AC800010AD6E90B3203EB420098420FD01A788C
:101AD800072A09D8224459781176197804AA11449A
:101AE80001F808AC0233F0E71A885A45FAD1E363E3
:101AF800F26A934204D12562083665B90125E0E708
:101B0800316B02EB4102934257D025624846FFF7FA
:101B18009FFF0028F0D0226A04EBC201D1E90B3004
:101B2800E16B03EB4003994204F1240505D101233D
:101B3800AB5400232362E36AE36301A8FFF788FF3D
:101B480000283ED06269D8F800301360D8F8043015
:101B58005360002384F84230AC4600224FF6FF7EE3
:101B68001CF8013BBBB9236A934214D004EBC201B1
:101B780057F832300E6B03EB46069E42194627D0C3
:101B8800B1F80080F04503F10203F6D0891B18BFB5
:101B980001210CF8011CCAB104F12602531B9B1049
:101BA800002B22DD297811B9697899B10135AA424B
:101BB8001CBF032384F8413021E0631983F824A073
:101BC8009AE7236A0122EA540523C3E70122C7E7FB
:101BD8003146DBE7A97809B10235E8E7E97809B1C8
:101BE8000335E4E70435013BDAE7531B022B12D037
:101BF800032B0CD0012B13D12B78002BD7D12269C2
:101C0800136943F00043136105B0BDE8F08F2B78EA
:101C1800002BCCD101352B78002BC8D10135EBE74F
:101C28001546C4E7F0B5FF23074F084E1D4611F8C7
:101C3800014B5C4091423B5D83EA0503355DF6D17B
:101C480005704370F0BD00BF6A2D00086A2E0008B9
:101C5800D0F80031D0F804219A4283BF5A1CC0F84A
:101C68000021C05C00207047D0F80431FE2B9FBFD4
:101C7800C154D0F804310133C0F80431704738B585
:101C88000C46090A0546FFF7EFFFE1B2FFF7ECFF44
:101C9800284638BDD0F81031D3E9002101238B4004
:101CA8009361D0F81831DA686FF30412DA60D0F86B
:101CB80020311A686FF300021A60D0F81C311A68D4
:101CC8006FF300021A60D0F80431D0F80011D0F890
:101CD8001C215B1A02339BB25360D0F81C311A687E
:101CE80042F001021A601A68D207FCD570470369EE
:101CF80037B501294FF0000204460D46C3F800210C
:101D0800C3F804210ED190F824100069FFF7ACFF46
:101D180094F8251041F08001FFF7A6FF2946FFF748
:101D2800A3FF0BE00229006906D194F82410FFF7FD
:101D38009BFF94F82510EFE70329F6D02369D3F821
:101D48000421D3F800111A44194401A8FFF76AFFC7
:101D58009DF805102069FFF787FF9DF80410FFF72D
:101D680083FF2069FFF796FF03B030BD70B5D0F848
:101D78000031D0F8042101339A4204460D460ED9A9
:101D8800FFF766FF06462046FFF762FF4FF00003A5
:101D980060F3070366F30F232B80204670BD0023F2
:101DA800FAE738B504460D4600F126010069FFF749
:101DB800DDFF04F12A012069FFF7D8FF638DE08C6D
:101DC8001844013880B2A8424FEA4303208584F8BA
:101DD8002C302CBF0020012038BD13B50921044642
:101DE800FFF7DFFF28B902212046FFF780FF02B086
:101DF80010BD23690022C3F80021C3F8042194F818
:101E080024102069FFF730FF0321FFF72DFF94F816
:101E18002C10FFF729FF638D20695A1E62854BB18C
:101E2800E38C5A1C04EB4303E284B3F85E10FFF71B
:101E380026FFF0E7D0F80421D0F80011024401444D
:101E480001A8FFF7EFFE9DF805102069FFF70CFFCA
:101E58009DF80410FFF708FF2069FFF71BFFC6E78E
:101E6800F7B50D4607210446FFF79BFF20B902216D
:101E78002046FFF73CFFA1E02369D3F80021D3F8FF
:101E88000411914283BF511CC3F800119B5C0023CD
:101E980084F82C30002604F12E07B4F82AC02069F3
:101EA800B3B29C452CD93946FFF760FFE38C13FA8F
:101EB80086F3E2185B0092F88D10E28D89B1234415
:101EC80010B2B3F870100FFA81FC604500DA31B92E
:101ED800B3F87E100FFA81FC60450DDD61B1032176
:101EE800C6E72344B3F870108A4201D20029F6D11C
:101EF800B3F87E108A42F1D8A3F850200136CCE717
:101F08002F490022012793B263452DD2E68C334432
:101F18009BB2032B0AD8DFE803F0020B131C2B6AD1
:101F2800B3F85060A3F862606B695E800132EAE73B
:101F38002B6AB3F85260A3F864606B691E71F5E709
:101F48002B6AB3F85430A3F1D006734273410B7077
:101F5800ECE70B7833B12E6AB6F85630A6F8603045
:101F68006E6933800F70E1E70023C0F80031C0F8D4
:101F7800043194F824102069FFF776FE94F82510B0
:101F8800FFF772FEE18CFFF77AFE618DFFF777FEAF
:101F98002369D3F80421D3F800111A44194401A87D
:101FA800FFF740FE9DF805102069FFF75DFE9DF8DC
:101FB8000410FFF759FE2069FFF76CFE03B0F0BD6F
:101FC8004C000020F7B50E460169D1F82031D1F850
:101FD80004215B68D1F800119BB2521AC3F1FF03C8
:101FE8009A42044605D20023C361FFF7CDF803B037
:101FF800F0BDD0E907239A42F9DB0025C561FFF758
:10200800C3F80069D0F80431D0F80021991A0729DB
:1020180002D8FFF7E3FCEAE7875C94F824108F42C4
:10202800F7D19A423CBF03F1FF33C0F8043122696B
:1020380038BFC55CD2F80011D2F804318B4282BF98
:1020480003F1FF33C2F80431D75C2369D3F80421C4
:10205800D3F800111A44194401A898BF0027FFF7C4
:10206800E1FD9DF80430AB4214D19DF8053020699C
:10207800BB420FD1FFF7ECFD2069FFF7E9FD03280C
:1020880084F8250008D010280AD001212046FFF73F
:102098002EFEACE72069BCE72046FFF79EFEA6E7C8
:1020A80031462046FFF7DCFEA1E7000000000000F3
:1020B80070B50446C069FFF7CFF894F88510091A7F
:1020C80018BF012184F885102069FEF7CFFCA069AC
:1020D800FFF7C2F8A368021C0646997A186818BF69
:1020E8000122FEF700FD05462EB11868997A002DE9
:1020F80062D0FEF7DFFC82EA0501C9B2E068FEF7AC
:10210800B5FCA368997A1868FEF7EDFC00B1207851
:10211800A668256A338A2070A5F86830B4F8763046
:10212800A5F86A3063685B681889FEF79BF99AA37B
:10213800D3E90023FEF700FA00224FF07F53FEF7A1
:10214800FBF997A3D3E90023FEF720FB0022964B67
:10215800FEF7F2F9FEF702FCA5F86C00B4F870007F
:10216800FEF780F98CA3D3E90023FEF7E5F90022F6
:102178004FF07F53FEF7E0F989A3D3E90023FEF778
:1021880005FB0022884BFEF7D7F9FEF7E7FBA5F819
:102198006E00338BA5F8663021462846FFF712FFFC
:1021A8002378062B29D8DFE813F00A0029006900F4
:1021B8003C009600C700EC00FEF763FC9BE7A368B1
:1021C800997A1868FEF78FFC94F88530012B09D0AE
:1021D80040B140F6B833A36604F15800FFF712F88F
:1021E800042309E0A368997A1868FEF77CFC94F840
:1021F800853013B108B10123237070BDE26EA36E60
:102208009A42FAD304F15800FEF7F8FFA068B4F830
:102218007E100023C4E91C331030FEF78DFC032325
:10222800EAE7A06864211830FEF7AFFC6368B4F8E9
:1022380074205B689B68934281BFA4F87430A368DC
:102248001B8AA4F87A3004F12800FEF793FF68B1DE
:10225800A068B4F87C30028A9A4283BFB4F882102E
:10226800494209B200211030FEF788FCA3681A8A97
:10227800B4F87C309A42C0D10223BDE7A06864213B
:102288001830FEF782FC6368B4F872205B689B68BC
:10229800934281BFA4F87230A3681B8AA4F87830EF
:1022A80004F12800FEF766FF58B1A068B4F87E3044
:1022B800028A9A4234BFB4F9821000211030FEF726
:1022C8005DFCA3681A8AB4F87E309A4295D100233F
:1022D80084F8853084E7B4F87430B4F872209A42F0
:1022E800626A88BFB4F87830926898BFB4F87A30D8
:1022F800A4F8763004F128005362536AFEF73AFFD7
:1023080070B1A068B4F8763030F8102F9A4210D324
:1023180083BFB4F88210494209B20021FEF72EFCAF
:10232800A3681A8AB4F876309A427FF466AF052318
:1023380062E7B4F98210F1E76368B4F870205B686B
:102348009B68934288BFA4F8703004F14000FEF700
:1023580011FF68B1A068B4F8803030F8181F8B42BC
:1023680094BF4FF0FF330123194489B2FEF70DFCE7
:10237800A3681A8BB4F880309A42FFF43EAF062364
:102388003AE7636AA0689B68596A103089B2FEF719
:10239800D3FB32E7AFF300806666666666660A407E
:1023A8000000000000FEEF4000408F402DE9F04F94
:1023B800C1B0A84A0C92A848A84A10924FF480319C
:1023C800A74AA84C1B920023CDE919010CA88DF847
:1023D8007130CDE90D338DF83C301493ADF854309D
:1023E8001693CDE917218DF870308DF872308DF87D
:1023F80074301194FFF744FBA04618B901236060BC
:10240800206023710CA8FEF7FDFE9748974F0268DD
:1024180012F0010F28D1964B1A6812F0010F954A55
:1024280006D1DFF878E20821C2E900E1012119604C
:1024380091490B6B43F001030B63136819686FF341
:10244800114119600023C7E904230122C7E90133B8
:10245800C7E9082389493B7339603B767B76BB76AD
:10246800FB763B77BB6202608548864E026812F0B5
:10247800010F28D1844B1A6812F0010F834A06D144
:10248800DFF838C20D21C2E900C1012119607A497B
:102498000B6B43F002030B63136819686FF39B61BE
:1024A80019600023C6E904230122C6E90133C6E9FD
:1024B800082372493373316033767376B376F376D3
:1024C8003377B3620260724BDFF8F4A11A6812F036
:1024D800010F05D16F4D0A22CAE9005201221A6084
:1024E800654BDFF8E0911A6B42F004021A63DAF8E0
:1024F80000201068012161F315501060664A1068C9
:1025080010F0010F01BF654C11600F20C9E90040B0
:102518001A6B634C42F001021A63D9F800301A684A
:102528004FF0010B6BF39F721A60B8F80230ADF8E8
:102538001A3098F8023098F80420079203EA0B0240
:102548000192C3F340020592C3F380020392C3F3DE
:10255800C1025B0904920293FEF72EFF514B079AC2
:102568001D6815EA0B0544D14F4921604F4984F88D
:1025780024204F4A2061C4E906154E48A26304F19D
:102588003801C4E901552573E56324640793606144
:102598002562E5842585658584F82C502586FEF717
:1025A80045FA454A626404F14401A069A564E464FB
:1025B800FEF73CFA0E22294604F1500000F098FB81
:1025C8001222294604F15E0000F092FB0E222946F1
:1025D80004F1700000F08CFB0E22294604F17E0005
:1025E80000F086FB079BC4F88D50C3F800B0C4F810
:1025F80090509DF81A3013F0E00200F0E780202A8E
:1026080000F0E68003F0C003402B14BF012302232F
:10261800234A029913621369D3F82421D3F81801C5
:10262800FEF7CAFB059AC36862F34923C360C3680F
:10263800039A62F30C33C3600369049A62F30D339F
:102648000361019B002B00F0C580C36843F48063DD
:102658003AE000BF402D000800000C08003C024092
:1026680000000A08040000202C030020300300208A
:102678005C0300206003002000380240342D00086D
:10268800F0020020F4020020200300202403002090
:10269800E402002000080240D802002000000240A6
:1026A800F0000020EC000020642D0008E804002061
:1026B8004C2D000808050020582D00080004024091
:1026C800E8020020DC020020C360C36843F4005322
:1026D800C3602069FFF782F94FF4F570FEF772FFC7
:1026E8000890FEF7D3FF09901020FFF749F80A90E9
:1026F800FFF7C2F80923A4F85E30B8F80030A4F850
:10270800603098F80430A4F86430B8F80230DDF886
:1027180020B0A4F862300121FF230025A4F872102C
:10272800A4F87E30A4F880300AAA099B0B90CDE962
:10273800256428A82A4C2793642601932C95CDE973
:102748001F2B2D958DF87850CDE921A9CDE9238748
:10275800CDE929558DF8AC5028942C96FEF752FDFA
:102768004FF47A722EA83295CDE92F5533958DF80E
:10277800C45032922E94FEF745FD1A4B1A4A0A9815
:102788003895CDE93D328DF8FD10CDE935553795B1
:1027980034943995CDE93A553C958DF8FC50FEF7BF
:1027A800B1FC019B9B684FF4E1625A6231460BF120
:1027B80018005B6AFEF7E9F9BDF8F6100BF1100096
:1027C800FEF7BAF91EA8FFF773FCFBE704231FE71F
:1027D80003231DE7C368019A62F38A2374E700BFE5
:1027E800282D0008384AA861C8000A0030B50B1A1D
:1027F8009B10002B15DD14780578A54203D0457889
:10280800A54201D1013030BD8578A54201D1023001
:10281800F9E7C578A54201D10330F4E70430013B5C
:10282800E7E70B1A022B0ED0032B07D0012B10D190
:10283800047813789C4218BF0846E4E704781378B4
:102848009C42E0D00130047813789C42DBD0013000
:10285800EEE70846D7E700F124032630C21A9210A3
:10286800002A13DD197811B9597821B10133C01A3A
:1028780018BF01207047997809B10233F7E7D97872
:1028880009B10333F3E70433013AE9E7C21A022A2C
:102898000CD0032A06D0012A0DD11A78002A08BFC5
:1028A8000346E4E71A78002AE1D101331A78002AAE
:1028B800DDD10133F1E70346D9E700002DE9F34103
:1028C80090F8413041690446052B1BD8DFE813F026
:1028D80006001D004A008200B400E20090F844306F
:1028E800C218C95C127E914240F0EC800133DBB221
:1028F800082B28BF002380F84430B3FA83F35B0920
:1029080080F8403002B0BDE8F0810069C268C2F3C7
:102918000042002AF6D10369002BF3DAFEF79AF891
:102928002369186962F3410018611A6942F00102CB
:102938001A6123691A69012060F309221A611A6968
:1029480042F080721A6194F84430CA5C84F84320DB
:1029580094F84310E26B43EA01231380022384F8BE
:102968004130CFE70369DA68D107CBD5DA6842F09E
:102978000102DA601A6942F000421A6190F84430A4
:1029880090F8432003441A76C26B036A0232C2638A
:1029980000EBC300D0E90B1501EB45018A4203D0D7
:1029A80094F84230DBB2DAE70122E1181344022B33
:1029B80028BF002381F82420236204EBC303DB6AC9
:1029C800E363002384F8443084F84120052384F825
:1029D800423097E70769FD68C5F30045002D91D19E
:1029E8003B69002B8EDA02AA00F12606012300F1CA
:1029F800240802F8013D31464046FFF7F7FEB04291
:102A0800CED0A0EB0800A0623846FEF723F8A36AF0
:102A18002D4AD25C036965F300030361036943F03F
:102A280002030361036962F3C6030361036943F4A4
:102A380080330361042392E70369DA68D2077FF5DC
:102A480061AFDA6842F00102DA601A6942F00042C6
:102A58001A61806A04EBC002D2E90B314FF6FF75A8
:102A680003EB410199421A4612D01688AE4203F18F
:102A78000203F7D0521A204418BF012280F82420FC
:102A88002046FFF7E8FE002814BF0323002366E76B
:102A98000A46EFE790F844300133DBB2072B0DD933
:102AA800002380F844302046FFF7D5FE002814BFE5
:102AB8000323002384F84130002388E780F844305A
:102AC800002BF0D001234AE7682D000808B54FF421
:102AD800847200213C4800F00BF93C4A0023232172
:102AE800136011713A4A242113601171394A332154
:102AF80013601171384A252113601171374A262154
:102B080013601171364A272113601171354A0B2160
:102B180013601171344A0C2113601171334A0D216D
:102B280013601171324A0E2113601171314A0F215D
:102B380013601171304A1021136011712F4A11214D
:102B4800136011712E4A2F21136011712D4A3821FB
:102B5800136011712C4A3921136011712B4A3A21E3
:102B6800136011712A4A3B2113601171294A3C21D3
:102B780013601171284A442113601171274A4521B5
:102B880013601171264A462113601171254A0121EB
:102B9800C2E90033C2E9023313615161224A116864
:102BA80063F300011160214951609360136843F099
:102BB80004031360136843F002031360136843F0BF
:102BC8000103136008BD00BF68030020F004002063
:102BD800F80400200005002008050020100500204A
:102BE80018050020700400207804002080040020CC
:102BF800880400209004002098040020A0040020ED
:102C0800A8040020B0040020B8040020C00400205C
:102C1800C8040020D0040020D8040020E0040020CC
:102C2800E80400202005002010E000E03F900200AA
:102C3800DFF834D0002103E00C4B5B5843500431DB
:102C48000B480C4B42189A42F6D30B4A02E0002379
:102C580042F8043B094B9A42F9D3FEF767FB00F0B0
:102C680023F8FFF7A3FB704700000220842F000819
:102C7800000000200C0000200C0000203805002077
:102C8800FEE70B460146184600F000B810B5054CA3
:102C980013462CB10A4601460220AFF3008010BD4E
:102CA8002046FCE70000000070B50D4E0D4CA41B3B
:102CB800A4100025A54209D10B4E0C4C00F020F8B9
:102CC800A41BA4100025A54205D170BD56F82530D7
:102CD80098470135EEE756F8253098470135F2E771
:102CE800782F0008782F0008782F0008802F000818
:102CF80002440346934200D1704703F8011BF9E7E9
:102D0800F8B500BFF8BC08BC9E467047F8B500BFD0
:082D1800F8BC08BC9E467047A0
:102D20000000000000000000BD09000800000000D5
:102D300000000000CD1100080000000000000000AD
:102D4000C528000800000000000000002D12000847
:102D500000000000000000003D1A00080000000014
:102D600000000000E5090008090A00C1814001C017
:102D7000804101C0804100C1814001C0804100C14B
:102D8000814000C1814001C0804101C0804100C13B
:102D9000814000C1814001C0804100C1814001C02B
:102DA000804101C0804100C1814001C0804100C11B
:102DB000814000C1814001C0804100C1814001C00B
:102DC000804101C0804100C1814000C1814001C0FB
:102DD000804101C0804100C1814001C0804100C1EB
:102DE000814000C1814001C0804101C0804100C1DB
:102DF000814000C1814001C0804100C1814001C0CB
:102E0000804101C0804100C1814000C1814001C0BA
:102E1000804101C0804100C1814001C0804100C1AA
:102E2000814000C1814001C0804100C1814001C09A
:102E3000804101C0804100C1814001C0804100C18A
:102E4000814000C1814001C0804101C0804100C17A
:102E5000814000C1814001C0804100C1814001C06A
:102E6000804101C0804100C1814000C0C101C30355
:102E700002C2C60607C705C5C404CC0C0DCD0FCFD2
:102E8000CE0E0ACACB0BC90908C8D81819D91BDB42
:102E9000DA1A1EDEDF1FDD1D1CDC14D4D515D71792
:102EA00016D6D21213D311D1D010F03031F133F342
:102EB000F23236F6F737F53534F43CFCFD3DFF3F92
:102EC0003EFEFA3A3BFB39F9F83828E8E929EB2BC2
:102ED0002AEAEE2E2FEF2DEDEC2CE42425E527E752
:102EE000E62622E2E323E12120E0A06061A163A3C2
:102EF000A26266A6A767A56564A46CACAD6DAF6F52
:102F00006EAEAA6A6BAB69A9A86878B8B979BB7BC1
:102F10007ABABE7E7FBF7DBDBC7CB47475B577B711
:102F2000B67672B2B373B17170B050909151935341
:102F3000529296565797559594549C5C5D9D5F9F11
:102F40009E5E5A9A9B5B99595898884849894B8B41
:102F50008A4A4E8E8F4F8D4D4C8C448485458747D1
:102F60004686824243834181804000000000000089
:082F700000000000ED0900085B
:082F7800AD010008D52A000894
:042F800089010008BB
:0C2F840000000000000000000100000040
:0400000508002C398A
:00000001FF
