:020000040800F2
:100000000000022039030008890300088903000862
:100010008903000889030008890300080000000024
:10002000000000000000000000000000890300083C
:10003000890300080000000089030008D0010008BF
:100040008903000889030008890300088903000860
:100050008903000889030008890300088903000850
:100060008903000889030008890300088903000840
:100070008903000889030008890300088903000830
:100080008903000889030008890300088903000820
:100090008903000889030008890300088903000810
:1000A0008903000889030008890300088903000800
:1000B00089030008890300088903000889030008F0
:1000C00089030008890300088903000889030008E0
:1000D00089030008890300088903000889030008D0
:1000E00089030008890300088903000889030008C0
:1000F00089030008890300088903000889030008B0
:10010000890300088903000889030008890300089F
:10011000890300088903000889030008890300088F
:10012000890300088903000889030008890300087F
:100130008903000800000000000000008903000897
:10014000890300088903000889030008890300085F
:10015000890300088903000889030008890300084F
:10016000890300088903000889030008890300083F
:100170008903000889030008000000000000000057
:0801800089030008890300084F
:1001880010B5064C2378002B07D1054B002B02D065
:100198000448AFF300800123237010BD0000002045
:1001A80000000000D4030008044B10B5002B03D056
:1001B80003490448AFF3008010BDC04600000000AA
:1001C80004000020D403000830309FE510402DE9DA
:1001D800004093E5000054E30600000A003094E56F
:1001E8000400A0E1003093E50FE0A0E113FF2FE148
:1001F800084094E5F6FFFFEA1040BDE81EFF2FE136
:100208001C000020C0209FE5003092E50230C3E3C7
:10021800053083E3003082E5B0309FE5002093E5A8
:10022800012882E3002083E5002093E5020812E319
:10023800FCFFFF0A082093E5F020C2E3082083E5CD
:10024800082093E5022BC2E3052B82E3082083E50F
:10025800082093E5062AC2E3022982E3082083E501
:10026800082093E50120C2E3022082E3082083E509
:10027800042093E53B20C2E3042082E3042083E5C5
:10028800042093E5552CC2E3C020C2E32A2C82E364
:10029800042083E5042093E50328C2E3042083E5D2
:1002A800042093E5012582E3042083E5002093E5FB
:1002B800012482E3002083E510209FE5003092E5C9
:1002C800020413E3FCFFFF0A1EFF2FE1003C02407B
:1002D800003802400000A0E31EFF2FE10020A0E349
:1002E8003C309FE53C109FE5002083E5042083E532
:1002F80034309FE5141083E5182083E5102093E53A
:10030800042082E3102083E5102093E5022082E395
:10031800102083E5102093E5012082E3102083E577
:100328001EFF2FE11C0000203F90020000E000E0CB
:10033800DFF834D0002103E00C4B5B584350043104
:100348000B480C4B42189A42F6D30B4A02E00023A2
:1003580042F8043B094B9A42F9D3FFF753FF00F0E8
:1003680011F8FFF7B7FF704700000220F8030008F4
:1003780000000020000000200000002024000020D1
:10038800FEE7000070B500260C4D0D4C641BA41050
:10039800A64209D1002600F019F80A4D0A4C641B40
:1003A800A410A64205D170BDB300EB58984701369A
:1003B800EEE7B300EB5898470136F2E7EC03000884
:1003C800EC030008EC030008F4030008F8B5C04685
:1003D800F8BC08BC9E467047F8B5C046F8BC08BCD7
:0403E8009E46704776
:0803EC00B1010008E402000861
:0403F4008901000873
:0400000508000339B3
:00000001FF
